{
  "address": "0xc803334c79650708Daf3a3462AC4B48296b1352a",
  "abi": [
    {
      "inputs": [
        {
          "internalType": "address",
          "name": "",
          "type": "address"
        },
        {
          "internalType": "bytes",
          "name": "",
          "type": "bytes"
        }
      ],
      "name": "PeekerReverted",
      "type": "error"
    },
    {
      "inputs": [
        {
          "internalType": "string",
          "name": "message",
          "type": "string"
        }
      ],
      "name": "SuaveError",
      "type": "error"
    },
    {
      "inputs": [
        {
          "internalType": "string",
          "name": "message",
          "type": "string"
        },
        {
          "internalType": "bytes",
          "name": "data",
          "type": "bytes"
        }
      ],
      "name": "SuaveErrorWithData",
      "type": "error"
    },
    {
      "anonymous": false,
      "inputs": [
        {
          "indexed": false,
          "internalType": "string",
          "name": "ticker",
          "type": "string"
        },
        {
          "indexed": false,
          "internalType": "uint256",
          "name": "price",
          "type": "uint256"
        }
      ],
      "name": "PriceSubmission",
      "type": "event"
    },
    {
      "stateMutability": "payable",
      "type": "fallback"
    },
    {
      "inputs": [],
      "name": "DECIMALS",
      "outputs": [
        {
          "internalType": "uint8",
          "name": "",
          "type": "uint8"
        }
      ],
      "stateMutability": "view",
      "type": "function"
    },
    {
      "inputs": [],
      "name": "HOLESKY_BUNDLE_ENDPOINT",
      "outputs": [
        {
          "internalType": "string",
          "name": "",
          "type": "string"
        }
      ],
      "stateMutability": "view",
      "type": "function"
    },
    {
      "inputs": [],
      "name": "HOLESKY_CHAINID",
      "outputs": [
        {
          "internalType": "uint256",
          "name": "",
          "type": "uint256"
        }
      ],
      "stateMutability": "view",
      "type": "function"
    },
    {
      "inputs": [],
      "name": "HOLESKY_CHAINID_STR",
      "outputs": [
        {
          "internalType": "string",
          "name": "",
          "type": "string"
        }
      ],
      "stateMutability": "view",
      "type": "function"
    },
    {
      "inputs": [],
      "name": "REMOTE_HOLESKY_RPC",
      "outputs": [
        {
          "internalType": "string",
          "name": "",
          "type": "string"
        }
      ],
      "stateMutability": "view",
      "type": "function"
    },
    {
      "inputs": [],
      "name": "S_NAMESPACE",
      "outputs": [
        {
          "internalType": "string",
          "name": "",
          "type": "string"
        }
      ],
      "stateMutability": "view",
      "type": "function"
    },
    {
      "inputs": [],
      "name": "URL_PARTIAL",
      "outputs": [
        {
          "internalType": "string",
          "name": "",
          "type": "string"
        }
      ],
      "stateMutability": "view",
      "type": "function"
    },
    {
      "inputs": [],
      "name": "confidentialConstructor",
      "outputs": [
        {
          "internalType": "bytes",
          "name": "",
          "type": "bytes"
        }
      ],
      "stateMutability": "view",
      "type": "function"
    },
    {
      "inputs": [
        {
          "internalType": "Suave.DataId",
          "name": "_pkBidId",
          "type": "bytes16"
        },
        {
          "internalType": "address",
          "name": "pkAddress",
          "type": "address"
        }
      ],
      "name": "confidentialConstructorCallback",
      "outputs": [],
      "stateMutability": "nonpayable",
      "type": "function"
    },
    {
      "inputs": [],
      "name": "controller",
      "outputs": [
        {
          "internalType": "address",
          "name": "",
          "type": "address"
        }
      ],
      "stateMutability": "view",
      "type": "function"
    },
    {
      "inputs": [],
      "name": "pkBidId",
      "outputs": [
        {
          "internalType": "Suave.DataId",
          "name": "",
          "type": "bytes16"
        }
      ],
      "stateMutability": "view",
      "type": "function"
    },
    {
      "inputs": [
        {
          "internalType": "string",
          "name": "ticker",
          "type": "string"
        },
        {
          "internalType": "uint256",
          "name": "nonce",
          "type": "uint256"
        },
        {
          "internalType": "uint256",
          "name": "gasPrice",
          "type": "uint256"
        },
        {
          "internalType": "uint64",
          "name": "settlementBlockNum",
          "type": "uint64"
        },
        {
          "internalType": "bool",
          "name": "privateSubmission",
          "type": "bool"
        }
      ],
      "name": "queryAndSubmit",
      "outputs": [
        {
          "internalType": "bytes",
          "name": "",
          "type": "bytes"
        }
      ],
      "stateMutability": "view",
      "type": "function"
    },
    {
      "inputs": [
        {
          "internalType": "string",
          "name": "ticker",
          "type": "string"
        },
        {
          "internalType": "uint256",
          "name": "price",
          "type": "uint256"
        }
      ],
      "name": "queryAndSubmitCallback",
      "outputs": [],
      "stateMutability": "nonpayable",
      "type": "function"
    },
    {
      "inputs": [
        {
          "internalType": "string",
          "name": "ticker",
          "type": "string"
        }
      ],
      "name": "queryLatestPrice",
      "outputs": [
        {
          "internalType": "uint256",
          "name": "price",
          "type": "uint256"
        }
      ],
      "stateMutability": "view",
      "type": "function"
    },
    {
      "inputs": [
        {
          "internalType": "address",
          "name": "_settlementContract",
          "type": "address"
        }
      ],
      "name": "registerCallback",
      "outputs": [],
      "stateMutability": "nonpayable",
      "type": "function"
    },
    {
      "inputs": [
        {
          "internalType": "address",
          "name": "_settlementContract",
          "type": "address"
        }
      ],
      "name": "registerSettlementContract",
      "outputs": [
        {
          "internalType": "bytes",
          "name": "",
          "type": "bytes"
        }
      ],
      "stateMutability": "view",
      "type": "function"
    },
    {
      "inputs": [
        {
          "internalType": "bytes",
          "name": "txSigned",
          "type": "bytes"
        }
      ],
      "name": "sendRawTx",
      "outputs": [
        {
          "internalType": "bytes",
          "name": "",
          "type": "bytes"
        }
      ],
      "stateMutability": "view",
      "type": "function"
    },
    {
      "inputs": [],
      "name": "settlementContract",
      "outputs": [
        {
          "internalType": "address",
          "name": "",
          "type": "address"
        }
      ],
      "stateMutability": "view",
      "type": "function"
    }
  ],
  "transactionHash": "0xb2df809f2e851dc578ffbb04790138cf0a837c3930632367f6391642c64a49c8",
  "args": [],
  "numDeployments": 1,
  "solcInputHash": "58b5f03dcf41452f7838ae9c428c3bfe",
  "bytecode": "0x608060405234801561001057600080fd5b506158a080620000216000396000f3fe60806040526004361061010d5760003560e01c8063b72a654011610095578063d86cd69a11610064578063d86cd69a14610383578063e0a388fb146103ae578063e2411625146103d9578063ea42418b14610402578063f77c47911461042d5761010e565b8063b72a6540146102db578063cf1b037c14610306578063d3596e7f1461032f578063d40ec0661461035a5761010e565b806350723553116100dc57806350723553146101e057806357e3c1b51461021d5780637e48532c1461025a578063847b8150146102855780639829ba42146102b05761010e565b80630de8cb93146101105780631d148b8d1461014d57806323b17abc1461018a5780632e0f2625146101b55761010e565b5b005b34801561011c57600080fd5b5061013760048036038101906101329190613b6c565b610458565b6040516101449190613c8b565b60405180910390f35b34801561015957600080fd5b50610174600480360381019061016f9190613d4e565b61053f565b6040516101819190613c8b565b60405180910390f35b34801561019657600080fd5b5061019f6106b0565b6040516101ac9190613dec565b60405180910390f35b3480156101c157600080fd5b506101ca6106cc565b6040516101d79190613e2a565b60405180910390f35b3480156101ec57600080fd5b5061020760048036038101906102029190613e45565b6106d1565b6040516102149190613e9d565b60405180910390f35b34801561022957600080fd5b50610244600480360381019061023f9190613f16565b61075d565b6040516102519190613c8b565b60405180910390f35b34801561026657600080fd5b5061026f610923565b60405161027c9190613c8b565b60405180910390f35b34801561029157600080fd5b5061029a610a60565b6040516102a79190613dec565b60405180910390f35b3480156102bc57600080fd5b506102c5610a7c565b6040516102d29190613dec565b60405180910390f35b3480156102e757600080fd5b506102f0610ab5565b6040516102fd9190613dec565b60405180910390f35b34801561031257600080fd5b5061032d60048036038101906103289190613f16565b610ad1565b005b34801561033b57600080fd5b50610344610ba6565b6040516103519190613f90565b60405180910390f35b34801561036657600080fd5b50610381600480360381019061037c9190613fab565b610bb9565b005b34801561038f57600080fd5b50610398610bf6565b6040516103a59190613dec565b60405180910390f35b3480156103ba57600080fd5b506103c3610c2f565b6040516103d09190613e9d565b60405180910390f35b3480156103e557600080fd5b5061040060048036038101906103fb9190614033565b610c35565b005b34801561040e57600080fd5b50610417610d0b565b6040516104249190614082565b60405180910390f35b34801561043957600080fd5b50610442610d31565b60405161044f9190614082565b60405180910390f35b60606104a0610465610d57565b6040518060400160405280601081526020017f4e6f7420636f6e666964656e7469616c00000000000000000000000000000000815250610e1f565b60006104ab876106d1565b90506104bb878288888888610e65565b63d40ec06660e01b87826040516024016104d692919061409d565b604051602081830303815290604052907bffffffffffffffffffffffffffffffffffffffffffffffffffffffff19166020820180517bffffffffffffffffffffffffffffffffffffffffffffffffffffffff838183161783525050505091505095945050505050565b6060600061054c83610e9e565b60405160200161055c91906141c7565b60405160208183030381529060405290506105756138ba565b6040518060400160405280600481526020017f504f5354000000000000000000000000000000000000000000000000000000008152508160200181905250818160600181905250600167ffffffffffffffff8111156105d7576105d6613993565b5b60405190808252806020026020018201604052801561060a57816020015b60608152602001906001900390816105f55790505b5081604001819052506040518060400160405280601e81526020017f436f6e74656e742d547970653a206170706c69636174696f6e2f6a736f6e00008152508160400151600081518110610661576106606141f4565b5b602002602001018190525060008160800190151590811515815250506040518060600160405280602b815260200161581d602b913981600001819052506106a781610ec4565b92505050919050565b6040518060600160405280602381526020016158486023913981565b600481565b6000806106dd83610f7d565b905060006106ea82611122565b9050600061073e6107396040518060400160405280600781526020017f22707269636522000000000000000000000000000000000000000000000000008152508461114e90919063ffffffff16565b6111d1565b905061075361074c826111f3565b60046112c0565b9350505050919050565b60606107a561076a610d57565b6040518060400160405280601081526020017f4e6f7420636f6e666964656e7469616c00000000000000000000000000000000815250610e1f565b600260009054906101000a900473ffffffffffffffffffffffffffffffffffffffff1673ffffffffffffffffffffffffffffffffffffffff168273ffffffffffffffffffffffffffffffffffffffff16148061084f5750600073ffffffffffffffffffffffffffffffffffffffff16600260009054906101000a900473ffffffffffffffffffffffffffffffffffffffff1673ffffffffffffffffffffffffffffffffffffffff16145b61088e576040517f08c379a00000000000000000000000000000000000000000000000000000000081526004016108859061426f565b60405180910390fd5b600061089983611487565b90506108a48161053f565b5063cf1b037c60e01b836040516024016108be9190614082565b604051602081830303815290604052907bffffffffffffffffffffffffffffffffffffffffffffffffffffffff19166020820180517bffffffffffffffffffffffffffffffffffffffffffffffffffffffff8381831617835250505050915050919050565b606061096b610930610d57565b6040518060400160405280601081526020017f4e6f7420636f6e666964656e7469616c00000000000000000000000000000000815250610e1f565b6109b860008054906101000a900460ff16156040518060400160405280601381526020017f416c726561647920696e697469616c697a656400000000000000000000000000815250610e1f565b60006109c46000611625565b905060006109d18261171c565b905060006109de83611788565b905063e241162560e01b81836040516024016109fb92919061428f565b604051602081830303815290604052907bffffffffffffffffffffffffffffffffffffffffffffffffffffffff19166020820180517bffffffffffffffffffffffffffffffffffffffffffffffffffffffff8381831617835250505050935050505090565b6040518060600160405280602b815260200161581d602b913981565b6040518060400160405280601281526020017f6f7261636c653a76303a706b736563726574000000000000000000000000000081525081565b6040518060600160405280603b81526020016157e2603b913981565b600073ffffffffffffffffffffffffffffffffffffffff16600260009054906101000a900473ffffffffffffffffffffffffffffffffffffffff1673ffffffffffffffffffffffffffffffffffffffff1614610b62576040517f08c379a0000000000000000000000000000000000000000000000000000000008152600401610b599061426f565b60405180910390fd5b80600260006101000a81548173ffffffffffffffffffffffffffffffffffffffff021916908373ffffffffffffffffffffffffffffffffffffffff16021790555050565b600060019054906101000a900460801b81565b7ff61f2fd6ab65716facd3516c91d806d98dffa9670f127beac522f8cacfd1d8df8282604051610bea92919061409d565b60405180910390a15050565b6040518060400160405280600681526020017f307834323638000000000000000000000000000000000000000000000000000081525081565b61426881565b610c8260008054906101000a900460ff16156040518060400160405280601381526020017f416c726561647920696e697469616c697a656400000000000000000000000000815250610e1f565b81600060016101000a8154816fffffffffffffffffffffffffffffffff021916908360801c021790555080600160006101000a81548173ffffffffffffffffffffffffffffffffffffffff021916908373ffffffffffffffffffffffffffffffffffffffff16021790555060016000806101000a81548160ff0219169083151502179055505050565b600260009054906101000a900473ffffffffffffffffffffffffffffffffffffffff1681565b600160009054906101000a900473ffffffffffffffffffffffffffffffffffffffff1681565b6000806000634201000073ffffffffffffffffffffffffffffffffffffffff16604051610d83906142e9565b600060405180830381855afa9150503d8060008114610dbe576040519150601f19603f3d011682016040523d82523d6000602084013e610dc3565b606091505b509150915081610e10576342010000816040517f75fff467000000000000000000000000000000000000000000000000000000008152600401610e079291906142fe565b60405180910390fd5b80516020820151935050505090565b81610e6157806040517f0c25cd98000000000000000000000000000000000000000000000000000000008152600401610e589190613dec565b60405180910390fd5b5050565b6000610e7387878787611964565b90508115610e8a57610e858184611b2e565b610e95565b610e938161053f565b505b50505050505050565b6060610ea982611b45565b90506002815101613078825260028203915080825250919050565b6060600080634320000273ffffffffffffffffffffffffffffffffffffffff1684604051602001610ef5919061451e565b604051602081830303815290604052604051610f119190614571565b600060405180830381855afa9150503d8060008114610f4c576040519150601f19603f3d011682016040523d82523d6000602084013e610f51565b606091505b5091509150610f608282610e1f565b80806020019051810190610f7491906145f8565b92505050919050565b60606000600167ffffffffffffffff811115610f9c57610f9b613993565b5b604051908082528060200260200182016040528015610fcf57816020015b6060815260200190600190039081610fba5790505b5090506040518060400160405280601e81526020017f436f6e74656e742d547970653a206170706c69636174696f6e2f6a736f6e00008152508160008151811061101c5761101b6141f4565b5b602002602001018190525060006040518060a001604052806040518060600160405280603b81526020016157e2603b91398660405160200161105f929190614641565b60405160208183030381529060405281526020016040518060400160405280600381526020017f47455400000000000000000000000000000000000000000000000000000000008152508152602001838152602001600067ffffffffffffffff8111156110cf576110ce613993565b5b6040519080825280601f01601f1916602001820160405280156111015781602001600182028036833780820191505090505b50815260200160001515815250905061111981610ec4565b92505050919050565b61112a6138eb565b80604052600061114361113c84611bb3565b60ff611bbd565b905080915050919050565b6111566138eb565b806040526060905061116783612481565b156111cb57600082805190602001209050600061118385612498565b9050600060058251901b90505b600081146111c757808201519550602081039050826111ae876124ba565b80519060200120036111c2578593506111c7565b611190565b5050505b92915050565b606060006111e86111e1846124ec565b6000611bbd565b905080915050919050565b60606000829050600281511161123e576040517f08c379a0000000000000000000000000000000000000000000000000000000008152600401611235906146b1565b60405180910390fd5b60006002825161124e9190614700565b905060008167ffffffffffffffff81111561126c5761126b613993565b5b6040519080825280601f01601f19166020018201604052801561129e5781602001600182028036833780820191505090505b5090506021830160208201845182518252848452505050809350505050919050565b600080839050600080600090505b825181101561133c57602e60f81b8382815181106112ef576112ee6141f4565b5b602001015160f81c60f81b7effffffffffffffffffffffffffffffffffffffffffffffffffffffffffffff1916036113295780915061133c565b808061133490614734565b9150506112ce565b5060008060006001905060008490505b60008111156113cb57816030876001846113669190614700565b81518110611377576113766141f4565b5b602001015160f81c60f81b60f81c61138f919061477c565b60ff1661139c91906147b0565b846113a7919061480a565b9350600a826113b691906147b0565b915080806113c390614860565b91505061134c565b506001905060008760ff16856113e1919061480a565b90505b8481111561145657816030878381518110611402576114016141f4565b5b602001015160f81c60f81b60f81c61141a919061477c565b60ff1661142791906147b0565b83611432919061480a565b9250600a8261144191906147b0565b9150808061144e90614860565b9150506113e4565b508187600a61146591906149bc565b8461147091906147b0565b61147a919061480a565b9550505050505092915050565b606060006040518061014001604052808473ffffffffffffffffffffffffffffffffffffffff168152602001620186a0815260200164174876e800815260200160008152602001600081526020016040516024016040516020818303038152906040527f1aa3a008000000000000000000000000000000000000000000000000000000007bffffffffffffffffffffffffffffffffffffffffffffffffffffffff19166020820180517bffffffffffffffffffffffffffffffffffffffffffffffffffffffff8381831617835250505050815260200161426881526020017f111111111111111111111111111111111111111111111111111111111111111181526020017f11111111111111111111111111111111111111111111111111111111111111118152602001601b67ffffffffffffffff16815250905060006115cd826124f6565b905060006115d96127a7565b905061161b826040518060400160405280600681526020017f307834323638000000000000000000000000000000000000000000000000000081525083612802565b9350505050919050565b6060600080635320000373ffffffffffffffffffffffffffffffffffffffff16846040516020016116569190614a7e565b6040516020818303038152906040526040516116729190614571565b600060405180830381855afa9150503d80600081146116ad576040519150601f19603f3d011682016040523d82523d6000602084013e6116b2565b606091505b5091509150816116ff576353200003816040517f75fff4670000000000000000000000000000000000000000000000000000000081526004016116f69291906142fe565b60405180910390fd5b808060200190518101906117139190614b09565b92505050919050565b60008060405160200161172e90614b9e565b60405160208183030381529060405280519060200120905060006117738260405160200161175c9190614be9565b6040516020818303038152906040526000866128ff565b905061177f8282612a0d565b92505050919050565b600080600367ffffffffffffffff8111156117a6576117a5613993565b5b6040519080825280602002602001820160405280156117d45781602001602082028036833780820191505090505b50905030816000815181106117ec576117eb6141f4565b5b602002602001019073ffffffffffffffffffffffffffffffffffffffff16908173ffffffffffffffffffffffffffffffffffffffff168152505063420300018160018151811061183f5761183e6141f4565b5b602002602001019073ffffffffffffffffffffffffffffffffffffffff16908173ffffffffffffffffffffffffffffffffffffffff1681525050634202000181600281518110611892576118916141f4565b5b602002602001019073ffffffffffffffffffffffffffffffffffffffff16908173ffffffffffffffffffffffffffffffffffffffff16815250506000611910600083846040518060400160405280601281526020017f6f7261636c653a76303a706b7365637265740000000000000000000000000000815250612a7c565b905061195681600001516040518060400160405280601281526020017f6f7261636c653a76303a706b736563726574000000000000000000000000000081525086612b82565b806000015192505050919050565b60606000604051806101400160405280600260009054906101000a900473ffffffffffffffffffffffffffffffffffffffff1673ffffffffffffffffffffffffffffffffffffffff168152602001620186a081526020018481526020016000815260200185815260200187876040516024016119e192919061409d565b6040516020818303038152906040527f4a432a46000000000000000000000000000000000000000000000000000000007bffffffffffffffffffffffffffffffffffffffffffffffffffffffff19166020820180517bffffffffffffffffffffffffffffffffffffffffffffffffffffffff8381831617835250505050815260200161426881526020017f111111111111111111111111111111111111111111111111111111111111111181526020017f11111111111111111111111111111111111111111111111111111111111111118152602001601b67ffffffffffffffff1681525090506000611ad3826124f6565b90506000611adf6127a7565b9050611b21826040518060400160405280600681526020017f307834323638000000000000000000000000000000000000000000000000000081525083612802565b9350505050949350505050565b611b3782612c65565b611b418282612d50565b5050565b60608151600260405101915080810182526f30313233343536373839616263646566600f52602082018184015b808514611ba057600185019450600f855116516001830153600f855160041c16518253600282019150611b72565b6000825260208201604052505050919050565b6000819050919050565b60006123c9565b63101827966000526004601cfd5b6000815160001a9050919050565b60008190505b600115611c10576001640100002600611bfe83611bd2565b1c1615611c1157600181019050611be6565b5b92915050565b600063ffffffff84113d3d3e83831b8263ffffffff851b19161790509392505050565b600081831c63ffffffff16905092915050565b60006040519050611c728486036078611c6d602086018803605888611c17565b611c17565b925085831781526020810160405295945050505050565b600080611c9a846018600051611c17565b611ca48787611be0565b9150868210611cb35750611e06565b611cbc82611bd2565b600115611df75760228103611cf05782611cd889858589612048565b9350611ce860048583868a611c4d565b945050611df7565b605b8103611d0d57611d0488848488611e0f565b93509350611df7565b607b8103611d2a57611d2188848488611ee7565b93509350611df7565b6001611ff9602d1b821c1615611d4f57611d4688848488612157565b93509350611df7565b876004840111611db25782835160e01c63747275658103611d8757600485019450611d7e60058684878b611c4d565b95505050611df7565b636e756c6c8103611daf57600485019450611da660068684878b611c4d565b95505050611df7565b50505b876005840111611dee5782835160d81c6466616c73658103611deb57600585019450611de260058684878b611c4d565b95505050611df7565b50505b611df6611bc4565b5b50611e028783611be0565b9150505b94509492505050565b60008060006001860191505b600115611eb957868210611e3257611e31611bc4565b5b82611e5557611e418783611be0565b9150605d611e4e83611bd2565b0315611eb9575b611e6187838587611c89565b925092508215611eaa57611e7b8160988551604017611c17565b8352600181019050611e8c82611bd2565b605d8103611e9a5750611eb9565b602c8103611ea85750611eae565b505b8691505b600182019150611e1b565b600182019150611ecb83603887611c17565b9450611edb600183888888611c4d565b92505094509492505050565b6000806001850190505b600115611fda57858110611f0857611f07611bc4565b5b81611f2b57611f178682611be0565b9050607d611f2482611bd2565b0315611fda575b611f358682611be0565b905080611f4487838587612048565b611f4e8882611be0565b9250603a611f5b84611bd2565b03611fc957611f6f88600185018688611c89565b935093508315611fc857611f9b6020860183036098611f9685850360b88951608017611c17565b611c17565b8452611fa683611bd2565b607d8103611fb657505050611fda565b602c8103611fc657505050611fcf565b505b5b87925050505b600181019050611ef1565b600181019050611fec82603886611c17565b9350611ffc600282878787611c4d565b915094509492505050565b6001667e0000007e03ff603061201e858501611bd2565b031c1661202e5761202d611bc4565b5b60058214612044576120436001830182612007565b5b5050565b600084841061205a57612059611bc4565b5b6001840190505b6001156120f35761207181611bd2565b6022810361207f57506120f3565b605c811461209357600182019150506120ee565b61209f60018301611bd2565b905060016a0510110400000000002001602283031c16156120c657600282019150506120ee565b607581036120e5576120d9600283612007565b600682019150506120ee565b859150506120f3565b612061565b84811061210357612102611bc4565b5b600181019050949350505050565b60008190505b60011561213d57600a603061212b83611bd2565b03101561213d57600181019050612117565b8082148416156121505761214f611bc4565b5b9392505050565b600080849050602d61216882611bd2565b03612174576001810190505b600a603061218183611bd2565b03106121905761218f611bc4565b5b61219981611bd2565b600182019150603081146121b6576121b360008884612111565b91505b602e6121c183611bd2565b036121d8576121d560018860018501612111565b91505b815160658160001a60201703612207576122046001896001860162010001600e8660011a031a01612111565b92505b612215600384898989611c4d565b9350505094509492505050565b600060405190508282019150601f1980601f8601165b600115612252578084015181840152818101905080612238575b50848252600085602084010152846040830101604052509392505050565b60006060905081516002816007161161235c57821581151761235c5760208116156122a7576122a0603882611c3a565b915061235c565b6040519150602082016122bb603883611c3a565b5b80156122f05780825280516122d2601882611c3a565b6122de87601884611c17565b835280925060208401935050506122bc565b50601f1983820381018060051c85528260405261230f85603886611c17565b93508360201786526040811061235857602085018186015b60011561235557815181518352808252848201915060208301925081831061234f5750612355565b50612327565b50505b5050505b50919050565b600060609050815180158315171561237a57506123c1565b6123848482611c3a565b91508086166123bf5761239860d882611c3a565b6123ac6123a58784611c3a565b8483612222565b92506123b9838684611c17565b87178452505b505b949350505050565b81600081146124425760018114612458576003811461246e576020840184518101808214612427576123fa81611bd2565b6022825361240e8760d8602260f81b611c17565b60005261241e828460008a611c89565b93509450808253505b8315818310171561243b5761243a611bc4565b5b505061247a565b61245160106078605887612362565b915061247a565b612467600860b8609887612362565b915061247a565b61247784612270565b91505b5092915050565b6000600260ff166007836000015116149050919050565b606060006124af6124a8846124ec565b6003611bbd565b905080915050919050565b606060006080836000015116146124e75760006124e06124d9846124ec565b6001611bbd565b9050809150505b919050565b6000819050919050565b60606000600967ffffffffffffffff81111561251557612514613993565b5b60405190808252806020026020018201604052801561254857816020015b60608152602001906001900390816125335790505b5090506125588360800151612eb6565b8160008151811061256c5761256b6141f4565b5b60200260200101819052506125848360400151612eb6565b81600181518110612598576125976141f4565b5b60200260200101819052506125b08360200151612eb6565b816002815181106125c4576125c36141f4565b5b6020026020010181905250600073ffffffffffffffffffffffffffffffffffffffff16836000015173ffffffffffffffffffffffffffffffffffffffff16036126435761261f60405180602001604052806000815250612ed0565b81600381518110612633576126326141f4565b5b6020026020010181905250612670565b6126508360000151612f4e565b81600381518110612664576126636141f4565b5b60200260200101819052505b61267d8360600151612eb6565b81600481518110612691576126906141f4565b5b60200260200101819052506126a98360a00151612ed0565b816005815181106126bd576126bc6141f4565b5b60200260200101819052506126e083610120015167ffffffffffffffff16612eb6565b816006815181106126f4576126f36141f4565b5b602002602001018190525061272b8360e001516040516020016127179190614be9565b604051602081830303815290604052612ed0565b8160078151811061273f5761273e6141f4565b5b60200260200101819052506127778361010001516040516020016127639190614be9565b604051602081830303815290604052612ed0565b8160088151811061278b5761278a6141f4565b5b602002602001018190525061279f81612f7f565b915050919050565b606060006127f9600060019054906101000a900460801b6040518060400160405280601281526020017f6f7261636c653a76303a706b7365637265740000000000000000000000000000815250612fc3565b90508091505090565b6060600080634010000173ffffffffffffffffffffffffffffffffffffffff1686868660405160200161283793929190614c04565b6040516020818303038152906040526040516128539190614571565b600060405180830381855afa9150503d806000811461288e576040519150601f19603f3d011682016040523d82523d6000602084013e612893565b606091505b5091509150816128e0576340100001816040517f75fff4670000000000000000000000000000000000000000000000000000000081526004016128d79291906142fe565b60405180910390fd5b808060200190518101906128f491906145f8565b925050509392505050565b6060612909610d57565b61291257600080fd5b600080634010000373ffffffffffffffffffffffffffffffffffffffff1686868660405160200161294593929190614c50565b6040516020818303038152906040526040516129619190614571565b600060405180830381855afa9150503d806000811461299c576040519150601f19603f3d011682016040523d82523d6000602084013e6129a1565b606091505b5091509150816129ee576340100003816040517f75fff4670000000000000000000000000000000000000000000000000000000081526004016129e59291906142fe565b60405180910390fd5b80806020019051810190612a0291906145f8565b925050509392505050565b600080600080612a1c856130aa565b92509250925060018682858560405160008152602001604052604051612a459493929190614ca4565b6020604051602081039080840390855afa158015612a67573d6000803e3d6000fd5b50505060206040510351935050505092915050565b612a846138fe565b600080634203000073ffffffffffffffffffffffffffffffffffffffff1687878787604051602001612ab99493929190614db6565b604051602081830303815290604052604051612ad59190614571565b600060405180830381855afa9150503d8060008114612b10576040519150601f19603f3d011682016040523d82523d6000602084013e612b15565b606091505b509150915081612b62576342030000816040517f75fff467000000000000000000000000000000000000000000000000000000008152600401612b599291906142fe565b60405180910390fd5b80806020019051810190612b769190615015565b92505050949350505050565b600080634202000073ffffffffffffffffffffffffffffffffffffffff16858585604051602001612bb59392919061505e565b604051602081830303815290604052604051612bd19190614571565b600060405180830381855afa9150503d8060008114612c0c576040519150601f19603f3d011682016040523d82523d6000602084013e612c11565b606091505b509150915081612c5e576342020000816040517f75fff467000000000000000000000000000000000000000000000000000000008152600401612c559291906142fe565b60405180910390fd5b5050505050565b6000612c7082610e9e565b604051602001612c80919061513b565b6040516020818303038152906040529050600080634210000073ffffffffffffffffffffffffffffffffffffffff1683604051602001612cc09190613c8b565b604051602081830303815290604052604051612cdc9190614571565b600060405180830381855afa9150503d8060008114612d17576040519150601f19603f3d011682016040523d82523d6000602084013e612d1c565b606091505b5091509150612d4a8282604051602001612d3691906151b4565b604051602081830303815290604052610e1f565b50505050565b6000600167ffffffffffffffff811115612d6d57612d6c613993565b5b604051908082528060200260200182016040528015612da057816020015b6060815260200190600190039081612d8b5790505b5090508281600081518110612db857612db76141f4565b5b60200260200101819052506000612dd9828467ffffffffffffffff1661312e565b9050600080634300000173ffffffffffffffffffffffffffffffffffffffff166040518060600160405280602381526020016158486023913984604051602001612e24929190615222565b604051602081830303815290604052604051612e409190614571565b600060405180830381855afa9150503d8060008114612e7b576040519150601f19603f3d011682016040523d82523d6000602084013e612e80565b606091505b5091509150612eae8282604051602001612e9a91906152b8565b604051602081830303815290604052610e1f565b505050505050565b6060612ec9612ec48361324d565b612ed0565b9050919050565b60608060018351148015612f085750608083600081518110612ef557612ef46141f4565b5b602001015160f81c60f81b60f81c60ff16105b15612f1557829050612f45565b612f21835160806133d0565b83604051602001612f339291906152da565b60405160208183030381529060405290505b80915050919050565b6060612f7882604051602001612f649190615346565b604051602081830303815290604052612ed0565b9050919050565b60606000612f8c8361361c565b9050612f9a815160c06133d0565b81604051602001612fac9291906152da565b604051602081830303815290604052915050919050565b6060600080634202000173ffffffffffffffffffffffffffffffffffffffff168585604051602001612ff6929190615361565b6040516020818303038152906040526040516130129190614571565b600060405180830381855afa9150503d806000811461304d576040519150601f19603f3d011682016040523d82523d6000602084013e613052565b606091505b50915091508161309f576342020001816040517f75fff4670000000000000000000000000000000000000000000000000000000081526004016130969291906142fe565b60405180910390fd5b809250505092915050565b600080600060418451146130f3576040517f08c379a00000000000000000000000000000000000000000000000000000000081526004016130ea906153dd565b60405180910390fd5b6020840151925060408401519150606084015160001a9050601b8160ff16101561312757601b8161312491906153fd565b90505b9193909250565b6060600061313b836137ae565b60405160200161314b91906154cc565b604051602081830303815290604052905060005b8451811015613220578161318c86838151811061317f5761317e6141f4565b5b6020026020010151610e9e565b60405160200161319d929190615545565b6040516020818303038152906040529150600185516131bc9190614700565b8110156131ea57816040516020016131d491906155cb565b604051602081830303815290604052915061320d565b816040516020016131fb9190615639565b60405160208183030381529060405291505b808061321890614734565b91505061315f565b508060405160200161323291906156a7565b60405160208183030381529060405290508091505092915050565b606060008260405160200161326291906156ea565b604051602081830303815290604052905060005b60208110156132dc57600060f81b828281518110613297576132966141f4565b5b602001015160f81c60f81b7effffffffffffffffffffffffffffffffffffffffffffffffffffffffffffff1916036132dc5780806132d490614734565b915050613276565b60008160206132eb9190614700565b67ffffffffffffffff81111561330457613303613993565b5b6040519080825280601f01601f1916602001820160405280156133365781602001600182028036833780820191505090505b50905060005b81518110156133c45783838061335190614734565b945081518110613364576133636141f4565b5b602001015160f81c60f81b828281518110613382576133816141f4565b5b60200101907effffffffffffffffffffffffffffffffffffffffffffffffffffffffffffff1916908160001a90535080806133bc90614734565b91505061333c565b50809350505050919050565b606080603884101561348357600167ffffffffffffffff8111156133f7576133f6613993565b5b6040519080825280601f01601f1916602001820160405280156134295781602001600182028036833780820191505090505b509050828461343891906153fd565b60f81b8160008151811061344f5761344e6141f4565b5b60200101907effffffffffffffffffffffffffffffffffffffffffffffffffffffffffffff1916908160001a905350613612565b600080600190505b600081876134999190615734565b146134c15781806134a990614734565b925050610100816134ba91906147b0565b905061348b565b6001826134ce919061480a565b67ffffffffffffffff8111156134e7576134e6613993565b5b6040519080825280601f01601f1916602001820160405280156135195781602001600182028036833780820191505090505b5092506037858361352a91906153fd565b61353491906153fd565b60f81b8360008151811061354b5761354a6141f4565b5b60200101907effffffffffffffffffffffffffffffffffffffffffffffffffffffffffffff1916908160001a905350600190505b81811161360f5761010081836135959190614700565b6101006135a29190615765565b876135ad9190615734565b6135b791906157b0565b60f81b8382815181106135cd576135cc6141f4565b5b60200101907effffffffffffffffffffffffffffffffffffffffffffffffffffffffffffff1916908160001a905350808061360790614734565b91505061357f565b50505b8091505092915050565b6060600082510361367c57600067ffffffffffffffff81111561364257613641613993565b5b6040519080825280601f01601f1916602001820160405280156136745781602001600182028036833780820191505090505b5090506137a9565b600080600090505b83518110156136c9578381815181106136a05761369f6141f4565b5b602002602001015151826136b4919061480a565b915080806136c190614734565b915050613684565b60008267ffffffffffffffff8111156136e5576136e4613993565b5b6040519080825280601f01601f1916602001820160405280156137175781602001600182028036833780820191505090505b5090506000602082019050600092505b85518310156137a1576000868481518110613745576137446141f4565b5b602002602001015190506000602082019050613763838284516137d4565b878581518110613776576137756141f4565b5b6020026020010151518361378a919061480a565b92505050828061379990614734565b935050613727565b819450505050505b919050565b60606137b98261384a565b90506002815101613078825260028203915080825250919050565b6000839050600083905060008390505b6020811061382257815183526020836137fd919061480a565b925060208261380c919061480a565b915060208161381b9190614700565b90506137e4565b60006001826020036101000a0390508019835116818551168181178652505050505050505050565b606060806040510190506020810160405260008152806f30313233343536373839616263646566600f52600119835b6001156138a5578184019350600f8116516001850153600f8160041c165184538060081c905080613879575b50828203602084039350808452505050919050565b6040518060a00160405280606081526020016060815260200160608152602001606081526020016000151581525090565b6040518060200160405280600081525090565b6040518060c0016040528060006fffffffffffffffffffffffffffffffff1916815260200160006fffffffffffffffffffffffffffffffff19168152602001600067ffffffffffffffff1681526020016060815260200160608152602001606081525090565b6000604051905090565b600080fd5b600080fd5b600080fd5b600080fd5b6000601f19601f8301169050919050565b7f4e487b7100000000000000000000000000000000000000000000000000000000600052604160045260246000fd5b6139cb82613982565b810181811067ffffffffffffffff821117156139ea576139e9613993565b5b80604052505050565b60006139fd613964565b9050613a0982826139c2565b919050565b600067ffffffffffffffff821115613a2957613a28613993565b5b613a3282613982565b9050602081019050919050565b82818337600083830152505050565b6000613a61613a5c84613a0e565b6139f3565b905082815260208101848484011115613a7d57613a7c61397d565b5b613a88848285613a3f565b509392505050565b600082601f830112613aa557613aa4613978565b5b8135613ab5848260208601613a4e565b91505092915050565b6000819050919050565b613ad181613abe565b8114613adc57600080fd5b50565b600081359050613aee81613ac8565b92915050565b600067ffffffffffffffff82169050919050565b613b1181613af4565b8114613b1c57600080fd5b50565b600081359050613b2e81613b08565b92915050565b60008115159050919050565b613b4981613b34565b8114613b5457600080fd5b50565b600081359050613b6681613b40565b92915050565b600080600080600060a08688031215613b8857613b8761396e565b5b600086013567ffffffffffffffff811115613ba657613ba5613973565b5b613bb288828901613a90565b9550506020613bc388828901613adf565b9450506040613bd488828901613adf565b9350506060613be588828901613b1f565b9250506080613bf688828901613b57565b9150509295509295909350565b600081519050919050565b600082825260208201905092915050565b60005b83811015613c3d578082015181840152602081019050613c22565b83811115613c4c576000848401525b50505050565b6000613c5d82613c03565b613c678185613c0e565b9350613c77818560208601613c1f565b613c8081613982565b840191505092915050565b60006020820190508181036000830152613ca58184613c52565b905092915050565b600067ffffffffffffffff821115613cc857613cc7613993565b5b613cd182613982565b9050602081019050919050565b6000613cf1613cec84613cad565b6139f3565b905082815260208101848484011115613d0d57613d0c61397d565b5b613d18848285613a3f565b509392505050565b600082601f830112613d3557613d34613978565b5b8135613d45848260208601613cde565b91505092915050565b600060208284031215613d6457613d6361396e565b5b600082013567ffffffffffffffff811115613d8257613d81613973565b5b613d8e84828501613d20565b91505092915050565b600081519050919050565b600082825260208201905092915050565b6000613dbe82613d97565b613dc88185613da2565b9350613dd8818560208601613c1f565b613de181613982565b840191505092915050565b60006020820190508181036000830152613e068184613db3565b905092915050565b600060ff82169050919050565b613e2481613e0e565b82525050565b6000602082019050613e3f6000830184613e1b565b92915050565b600060208284031215613e5b57613e5a61396e565b5b600082013567ffffffffffffffff811115613e7957613e78613973565b5b613e8584828501613a90565b91505092915050565b613e9781613abe565b82525050565b6000602082019050613eb26000830184613e8e565b92915050565b600073ffffffffffffffffffffffffffffffffffffffff82169050919050565b6000613ee382613eb8565b9050919050565b613ef381613ed8565b8114613efe57600080fd5b50565b600081359050613f1081613eea565b92915050565b600060208284031215613f2c57613f2b61396e565b5b6000613f3a84828501613f01565b91505092915050565b60007fffffffffffffffffffffffffffffffff0000000000000000000000000000000082169050919050565b6000613f7a82613f43565b9050919050565b613f8a81613f6f565b82525050565b6000602082019050613fa56000830184613f81565b92915050565b60008060408385031215613fc257613fc161396e565b5b600083013567ffffffffffffffff811115613fe057613fdf613973565b5b613fec85828601613a90565b9250506020613ffd85828601613adf565b9150509250929050565b61401081613f43565b811461401b57600080fd5b50565b60008135905061402d81614007565b92915050565b6000806040838503121561404a5761404961396e565b5b60006140588582860161401e565b925050602061406985828601613f01565b9150509250929050565b61407c81613ed8565b82525050565b60006020820190506140976000830184614073565b92915050565b600060408201905081810360008301526140b78185613db3565b90506140c66020830184613e8e565b9392505050565b600081905092915050565b7f7b226a736f6e727063223a22322e30222c226d6574686f64223a226574685f7360008201527f656e645261775472616e73616374696f6e222c22706172616d73223a5b220000602082015250565b6000614134603e836140cd565b915061413f826140d8565b603e82019050919050565b600061415582613d97565b61415f81856140cd565b935061416f818560208601613c1f565b80840191505092915050565b7f225d2c226964223a317d00000000000000000000000000000000000000000000600082015250565b60006141b1600a836140cd565b91506141bc8261417b565b600a82019050919050565b60006141d282614127565b91506141de828461414a565b91506141e9826141a4565b915081905092915050565b7f4e487b7100000000000000000000000000000000000000000000000000000000600052603260045260246000fd5b7f416c726561647920726567697374657265640000000000000000000000000000600082015250565b6000614259601283613da2565b915061426482614223565b602082019050919050565b600060208201905081810360008301526142888161424c565b9050919050565b60006040820190506142a46000830185613f81565b6142b16020830184614073565b9392505050565b600081905092915050565b50565b60006142d36000836142b8565b91506142de826142c3565b600082019050919050565b60006142f4826142c6565b9150819050919050565b60006040820190506143136000830185614073565b81810360208301526143258184613c52565b90509392505050565b600082825260208201905092915050565b600061434a82613d97565b614354818561432e565b9350614364818560208601613c1f565b61436d81613982565b840191505092915050565b600081519050919050565b600082825260208201905092915050565b6000819050602082019050919050565b60006143b0838361433f565b905092915050565b6000602082019050919050565b60006143d082614378565b6143da8185614383565b9350836020820285016143ec85614394565b8060005b85811015614428578484038952815161440985826143a4565b9450614414836143b8565b925060208a019950506001810190506143f0565b50829750879550505050505092915050565b600082825260208201905092915050565b600061445682613c03565b614460818561443a565b9350614470818560208601613c1f565b61447981613982565b840191505092915050565b61448d81613b34565b82525050565b600060a08301600083015184820360008601526144b0828261433f565b915050602083015184820360208601526144ca828261433f565b915050604083015184820360408601526144e482826143c5565b915050606083015184820360608601526144fe828261444b565b91505060808301516145136080860182614484565b508091505092915050565b600060208201905081810360008301526145388184614493565b905092915050565b600061454b82613c03565b61455581856142b8565b9350614565818560208601613c1f565b80840191505092915050565b600061457d8284614540565b915081905092915050565b600061459b61459684613cad565b6139f3565b9050828152602081018484840111156145b7576145b661397d565b5b6145c2848285613c1f565b509392505050565b600082601f8301126145df576145de613978565b5b81516145ef848260208601614588565b91505092915050565b60006020828403121561460e5761460d61396e565b5b600082015167ffffffffffffffff81111561462c5761462b613973565b5b614638848285016145ca565b91505092915050565b600061464d828561414a565b9150614659828461414a565b91508190509392505050565b7f496e70757420746f6f2073686f72740000000000000000000000000000000000600082015250565b600061469b600f83613da2565b91506146a682614665565b602082019050919050565b600060208201905081810360008301526146ca8161468e565b9050919050565b7f4e487b7100000000000000000000000000000000000000000000000000000000600052601160045260246000fd5b600061470b82613abe565b915061471683613abe565b925082821015614729576147286146d1565b5b828203905092915050565b600061473f82613abe565b91507fffffffffffffffffffffffffffffffffffffffffffffffffffffffffffffffff8203614771576147706146d1565b5b600182019050919050565b600061478782613e0e565b915061479283613e0e565b9250828210156147a5576147a46146d1565b5b828203905092915050565b60006147bb82613abe565b91506147c683613abe565b9250817fffffffffffffffffffffffffffffffffffffffffffffffffffffffffffffffff04831182151516156147ff576147fe6146d1565b5b828202905092915050565b600061481582613abe565b915061482083613abe565b9250827fffffffffffffffffffffffffffffffffffffffffffffffffffffffffffffffff03821115614855576148546146d1565b5b828201905092915050565b600061486b82613abe565b91506000820361487e5761487d6146d1565b5b600182039050919050565b60008160011c9050919050565b6000808291508390505b60018511156148e0578086048111156148bc576148bb6146d1565b5b60018516156148cb5780820291505b80810290506148d985614889565b94506148a0565b94509492505050565b6000826148f957600190506149b5565b8161490757600090506149b5565b816001811461491d576002811461492757614956565b60019150506149b5565b60ff841115614939576149386146d1565b5b8360020a9150848211156149505761494f6146d1565b5b506149b5565b5060208310610133831016604e8410600b841016171561498b5782820a905083811115614986576149856146d1565b5b6149b5565b6149988484846001614896565b925090508184048111156149af576149ae6146d1565b5b81810290505b9392505050565b60006149c782613abe565b91506149d283613e0e565b92506149ff7fffffffffffffffffffffffffffffffffffffffffffffffffffffffffffffffff84846148e9565b905092915050565b7f4e487b7100000000000000000000000000000000000000000000000000000000600052602160045260246000fd5b60028110614a4757614a46614a07565b5b50565b6000819050614a5882614a36565b919050565b6000614a6882614a4a565b9050919050565b614a7881614a5d565b82525050565b6000602082019050614a936000830184614a6f565b92915050565b6000614aac614aa784613a0e565b6139f3565b905082815260208101848484011115614ac857614ac761397d565b5b614ad3848285613c1f565b509392505050565b600082601f830112614af057614aef613978565b5b8151614b00848260208601614a99565b91505092915050565b600060208284031215614b1f57614b1e61396e565b5b600082015167ffffffffffffffff811115614b3d57614b3c613973565b5b614b4984828501614adb565b91505092915050565b7f796f000000000000000000000000000000000000000000000000000000000000600082015250565b6000614b88600283613da2565b9150614b9382614b52565b602082019050919050565b60006020820190508181036000830152614bb781614b7b565b9050919050565b6000819050919050565b6000819050919050565b614be3614bde82614bbe565b614bc8565b82525050565b6000614bf58284614bd2565b60208201915081905092915050565b60006060820190508181036000830152614c1e8186613c52565b90508181036020830152614c328185613db3565b90508181036040830152614c468184613db3565b9050949350505050565b60006060820190508181036000830152614c6a8186613c52565b9050614c796020830185614a6f565b8181036040830152614c8b8184613db3565b9050949350505050565b614c9e81614bbe565b82525050565b6000608082019050614cb96000830187614c95565b614cc66020830186613e1b565b614cd36040830185614c95565b614ce06060830184614c95565b95945050505050565b614cf281613af4565b82525050565b600081519050919050565b600082825260208201905092915050565b6000819050602082019050919050565b614d2d81613ed8565b82525050565b6000614d3f8383614d24565b60208301905092915050565b6000602082019050919050565b6000614d6382614cf8565b614d6d8185614d03565b9350614d7883614d14565b8060005b83811015614da9578151614d908882614d33565b9750614d9b83614d4b565b925050600181019050614d7c565b5085935050505092915050565b6000608082019050614dcb6000830187614ce9565b8181036020830152614ddd8186614d58565b90508181036040830152614df18185614d58565b90508181036060830152614e058184613db3565b905095945050505050565b600080fd5b600080fd5b600081519050614e2981614007565b92915050565b600081519050614e3e81613b08565b92915050565b600067ffffffffffffffff821115614e5f57614e5e613993565b5b602082029050602081019050919050565b600080fd5b600081519050614e8481613eea565b92915050565b6000614e9d614e9884614e44565b6139f3565b90508083825260208201905060208402830185811115614ec057614ebf614e70565b5b835b81811015614ee95780614ed58882614e75565b845260208401935050602081019050614ec2565b5050509392505050565b600082601f830112614f0857614f07613978565b5b8151614f18848260208601614e8a565b91505092915050565b600060c08284031215614f3757614f36614e10565b5b614f4160c06139f3565b90506000614f5184828501614e1a565b6000830152506020614f6584828501614e1a565b6020830152506040614f7984828501614e2f565b604083015250606082015167ffffffffffffffff811115614f9d57614f9c614e15565b5b614fa984828501614ef3565b606083015250608082015167ffffffffffffffff811115614fcd57614fcc614e15565b5b614fd984828501614ef3565b60808301525060a082015167ffffffffffffffff811115614ffd57614ffc614e15565b5b61500984828501614adb565b60a08301525092915050565b60006020828403121561502b5761502a61396e565b5b600082015167ffffffffffffffff81111561504957615048613973565b5b61505584828501614f21565b91505092915050565b60006060820190506150736000830186613f81565b81810360208301526150858185613db3565b905081810360408301526150998184613c52565b9050949350505050565b7f7b22747873223a205b2200000000000000000000000000000000000000000000600082015250565b60006150d9600a836140cd565b91506150e4826150a3565b600a82019050919050565b7f225d7d0000000000000000000000000000000000000000000000000000000000600082015250565b60006151256003836140cd565b9150615130826150ef565b600382019050919050565b6000615146826150cc565b9150615152828461414a565b915061515d82615118565b915081905092915050565b7f42756e646c6553696d756c6174696f6e4661696c65643a200000000000000000600082015250565b600061519e6018836140cd565b91506151a982615168565b601882019050919050565b60006151bf82615191565b91506151cb828461414a565b915081905092915050565b7f6574685f73656e6442756e646c65000000000000000000000000000000000000600082015250565b600061520c600e83613da2565b9150615217826151d6565b602082019050919050565b6000606082019050818103600083015261523c8185613db3565b9050818103602083015261524f816151ff565b905081810360408301526152638184613c52565b90509392505050565b7f42756e646c655375626d697373696f6e4661696c65643a200000000000000000600082015250565b60006152a26018836140cd565b91506152ad8261526c565b601882019050919050565b60006152c382615295565b91506152cf828461414a565b915081905092915050565b60006152e68285614540565b91506152f28284614540565b91508190509392505050565b60008160601b9050919050565b6000615316826152fe565b9050919050565b60006153288261530b565b9050919050565b61534061533b82613ed8565b61531d565b82525050565b6000615352828461532f565b60148201915081905092915050565b60006040820190506153766000830185613f81565b81810360208301526153888184613db3565b90509392505050565b7f696e76616c6964207369676e6174757265206c656e6774680000000000000000600082015250565b60006153c7601883613da2565b91506153d282615391565b602082019050919050565b600060208201905081810360008301526153f6816153ba565b9050919050565b600061540882613e0e565b915061541383613e0e565b92508260ff03821115615429576154286146d1565b5b828201905092915050565b7f7b22626c6f636b4e756d626572223a2022000000000000000000000000000000600082015250565b600061546a6011836140cd565b915061547582615434565b601182019050919050565b7f222c2022747873223a205b000000000000000000000000000000000000000000600082015250565b60006154b6600b836140cd565b91506154c182615480565b600b82019050919050565b60006154d78261545d565b91506154e3828461414a565b91506154ee826154a9565b915081905092915050565b7f2200000000000000000000000000000000000000000000000000000000000000600082015250565b600061552f6001836140cd565b915061553a826154f9565b600182019050919050565b60006155518285614540565b915061555c82615522565b9150615568828461414a565b915061557382615522565b91508190509392505050565b7f2c00000000000000000000000000000000000000000000000000000000000000600082015250565b60006155b56001836140cd565b91506155c08261557f565b600182019050919050565b60006155d78284614540565b91506155e2826155a8565b915081905092915050565b7f5d00000000000000000000000000000000000000000000000000000000000000600082015250565b60006156236001836140cd565b915061562e826155ed565b600182019050919050565b60006156458284614540565b915061565082615616565b915081905092915050565b7f7d00000000000000000000000000000000000000000000000000000000000000600082015250565b60006156916001836140cd565b915061569c8261565b565b600182019050919050565b60006156b38284614540565b91506156be82615684565b915081905092915050565b6000819050919050565b6156e46156df82613abe565b6156c9565b82525050565b60006156f682846156d3565b60208201915081905092915050565b7f4e487b7100000000000000000000000000000000000000000000000000000000600052601260045260246000fd5b600061573f82613abe565b915061574a83613abe565b92508261575a57615759615705565b5b828204905092915050565b600061577082613abe565b915061577b83613abe565b92506157a87fffffffffffffffffffffffffffffffffffffffffffffffffffffffffffffffff84846148e9565b905092915050565b60006157bb82613abe565b91506157c683613abe565b9250826157d6576157d5615705565b5b82820690509291505056fe68747470733a2f2f646174612d6170692e62696e616e63652e766973696f6e2f6170692f76332f7469636b65722f70726963653f73796d626f6c3d68747470733a2f2f657468657265756d2d686f6c65736b792d7270632e7075626c69636e6f64652e636f6d68747470733a2f2f72656c61792d686f6c65736b792e666c617368626f74732e6e6574a264697066735822122001989053d785728702041973c309603302ba37c34baef4aeac40a77ea3add0bc64736f6c634300080d0033",
  "devdoc": {
    "kind": "dev",
    "methods": {},
    "version": 1
  },
  "userdoc": {
    "kind": "user",
    "methods": {},
    "version": 1
  },
  "storageLayout": {
    "storage": [
      {
        "astId": 3596,
        "contract": "contracts/oracle/BinanceOracle.sol:BinanceOracle",
        "label": "isInitialized",
        "offset": 0,
        "slot": "0",
        "type": "t_bool"
      },
      {
        "astId": 3599,
        "contract": "contracts/oracle/BinanceOracle.sol:BinanceOracle",
        "label": "pkBidId",
        "offset": 1,
        "slot": "0",
        "type": "t_userDefinedValueType(DataId)858"
      },
      {
        "astId": 3601,
        "contract": "contracts/oracle/BinanceOracle.sol:BinanceOracle",
        "label": "controller",
        "offset": 0,
        "slot": "1",
        "type": "t_address"
      },
      {
        "astId": 3603,
        "contract": "contracts/oracle/BinanceOracle.sol:BinanceOracle",
        "label": "settlementContract",
        "offset": 0,
        "slot": "2",
        "type": "t_address"
      }
    ],
    "types": {
      "t_address": {
        "encoding": "inplace",
        "label": "address",
        "numberOfBytes": "20"
      },
      "t_bool": {
        "encoding": "inplace",
        "label": "bool",
        "numberOfBytes": "1"
      },
      "t_userDefinedValueType(DataId)858": {
        "encoding": "inplace",
        "label": "Suave.DataId",
        "numberOfBytes": "16"
      }
    }
  }
}