{
  "address": "0x13Ad2bEF187622839CdB1f86A62226434190DA69",
  "abi": [
    {
      "inputs": [
        {
          "internalType": "address",
          "name": "",
          "type": "address"
        },
        {
          "internalType": "bytes",
          "name": "",
          "type": "bytes"
        }
      ],
      "name": "PeekerReverted",
      "type": "error"
    },
    {
      "inputs": [
        {
          "internalType": "string",
          "name": "message",
          "type": "string"
        }
      ],
      "name": "SuaveError",
      "type": "error"
    },
    {
      "inputs": [
        {
          "internalType": "string",
          "name": "message",
          "type": "string"
        },
        {
          "internalType": "bytes",
          "name": "data",
          "type": "bytes"
        }
      ],
      "name": "SuaveErrorWithData",
      "type": "error"
    },
    {
      "anonymous": false,
      "inputs": [
        {
          "indexed": false,
          "internalType": "string",
          "name": "ticker",
          "type": "string"
        },
        {
          "indexed": false,
          "internalType": "uint256",
          "name": "price",
          "type": "uint256"
        }
      ],
      "name": "PriceSubmission",
      "type": "event"
    },
    {
      "stateMutability": "payable",
      "type": "fallback"
    },
    {
      "inputs": [],
      "name": "DECIMALS",
      "outputs": [
        {
          "internalType": "uint8",
          "name": "",
          "type": "uint8"
        }
      ],
      "stateMutability": "view",
      "type": "function"
    },
    {
      "inputs": [],
      "name": "GOERLI_BUNDLE_ENDPOINT",
      "outputs": [
        {
          "internalType": "string",
          "name": "",
          "type": "string"
        }
      ],
      "stateMutability": "view",
      "type": "function"
    },
    {
      "inputs": [],
      "name": "GOERLI_CHAINID",
      "outputs": [
        {
          "internalType": "uint256",
          "name": "",
          "type": "uint256"
        }
      ],
      "stateMutability": "view",
      "type": "function"
    },
    {
      "inputs": [],
      "name": "GOERLI_CHAINID_STR",
      "outputs": [
        {
          "internalType": "string",
          "name": "",
          "type": "string"
        }
      ],
      "stateMutability": "view",
      "type": "function"
    },
    {
      "inputs": [],
      "name": "INFURA_GOERLI_RPC",
      "outputs": [
        {
          "internalType": "string",
          "name": "",
          "type": "string"
        }
      ],
      "stateMutability": "view",
      "type": "function"
    },
    {
      "inputs": [],
      "name": "S_NAMESPACE",
      "outputs": [
        {
          "internalType": "string",
          "name": "",
          "type": "string"
        }
      ],
      "stateMutability": "view",
      "type": "function"
    },
    {
      "inputs": [],
      "name": "URL_PARTIAL",
      "outputs": [
        {
          "internalType": "string",
          "name": "",
          "type": "string"
        }
      ],
      "stateMutability": "view",
      "type": "function"
    },
    {
      "inputs": [],
      "name": "confidentialConstructor",
      "outputs": [
        {
          "internalType": "bytes",
          "name": "",
          "type": "bytes"
        }
      ],
      "stateMutability": "view",
      "type": "function"
    },
    {
      "inputs": [
        {
          "internalType": "Suave.DataId",
          "name": "_pkBidId",
          "type": "bytes16"
        },
        {
          "internalType": "address",
          "name": "pkAddress",
          "type": "address"
        }
      ],
      "name": "confidentialConstructorCallback",
      "outputs": [],
      "stateMutability": "nonpayable",
      "type": "function"
    },
    {
      "inputs": [],
      "name": "controller",
      "outputs": [
        {
          "internalType": "address",
          "name": "",
          "type": "address"
        }
      ],
      "stateMutability": "view",
      "type": "function"
    },
    {
      "inputs": [],
      "name": "pkBidId",
      "outputs": [
        {
          "internalType": "Suave.DataId",
          "name": "",
          "type": "bytes16"
        }
      ],
      "stateMutability": "view",
      "type": "function"
    },
    {
      "inputs": [
        {
          "internalType": "string",
          "name": "ticker",
          "type": "string"
        },
        {
          "internalType": "uint256",
          "name": "nonce",
          "type": "uint256"
        },
        {
          "internalType": "uint256",
          "name": "gasPrice",
          "type": "uint256"
        },
        {
          "internalType": "uint64",
          "name": "settlementBlockNum",
          "type": "uint64"
        }
      ],
      "name": "queryAndSubmit",
      "outputs": [
        {
          "internalType": "uint256",
          "name": "",
          "type": "uint256"
        }
      ],
      "stateMutability": "view",
      "type": "function"
    },
    {
      "inputs": [
        {
          "internalType": "string",
          "name": "ticker",
          "type": "string"
        },
        {
          "internalType": "uint256",
          "name": "price",
          "type": "uint256"
        }
      ],
      "name": "queryAndSubmitCallback",
      "outputs": [],
      "stateMutability": "nonpayable",
      "type": "function"
    },
    {
      "inputs": [
        {
          "internalType": "string",
          "name": "ticker",
          "type": "string"
        }
      ],
      "name": "queryLatestPrice",
      "outputs": [
        {
          "internalType": "uint256",
          "name": "price",
          "type": "uint256"
        }
      ],
      "stateMutability": "view",
      "type": "function"
    },
    {
      "inputs": [
        {
          "internalType": "address",
          "name": "_settlementContract",
          "type": "address"
        }
      ],
      "name": "registerCallback",
      "outputs": [],
      "stateMutability": "nonpayable",
      "type": "function"
    },
    {
      "inputs": [
        {
          "internalType": "address",
          "name": "_settlementContract",
          "type": "address"
        }
      ],
      "name": "registerSettlementContract",
      "outputs": [
        {
          "internalType": "bytes",
          "name": "",
          "type": "bytes"
        }
      ],
      "stateMutability": "view",
      "type": "function"
    },
    {
      "inputs": [
        {
          "internalType": "bytes",
          "name": "txSigned",
          "type": "bytes"
        }
      ],
      "name": "sendRawTx",
      "outputs": [
        {
          "internalType": "bytes",
          "name": "",
          "type": "bytes"
        }
      ],
      "stateMutability": "view",
      "type": "function"
    },
    {
      "inputs": [],
      "name": "settlementContract",
      "outputs": [
        {
          "internalType": "address",
          "name": "",
          "type": "address"
        }
      ],
      "stateMutability": "view",
      "type": "function"
    }
  ],
  "transactionHash": "0x31f9179d16b944cb0beb205fa11b67d1f148111ca0141d082c1fa01a0c058466",
  "args": [],
  "numDeployments": 1,
  "solcInputHash": "f3002e1c8db8b22e6d171da1d3b2b4ff",
  "bytecode": "0x608060405234801561001057600080fd5b50614ef4806100206000396000f3fe60806040526004361061010d5760003560e01c80639e0f4f4511610095578063d3596e7f11610064578063d3596e7f14610385578063d40ec066146103b0578063e2411625146103d9578063ea42418b14610402578063f77c47911461042d5761010e565b80639e0f4f45146102db578063adb8b6d614610306578063b72a654014610331578063cf1b037c1461035c5761010e565b806350723553116100dc57806350723553146101e057806357e3c1b51461021d57806370c905a51461025a5780637e48532c146102855780639829ba42146102b05761010e565b80630c79e696146101105780631d148b8d1461014d5780632e0f26251461018a5780633eb84396146101b55761010e565b5b005b34801561011c57600080fd5b5061013760048036038101906101329190613684565b610458565b6040516101449190613716565b60405180910390f35b34801561015957600080fd5b50610174600480360381019061016f91906137d2565b6104c6565b60405161018191906138a3565b60405180910390f35b34801561019657600080fd5b5061019f610637565b6040516101ac91906138e1565b60405180910390f35b3480156101c157600080fd5b506101ca61063c565b6040516101d79190613716565b60405180910390f35b3480156101ec57600080fd5b50610207600480360381019061020291906138fc565b610641565b6040516102149190613716565b60405180910390f35b34801561022957600080fd5b50610244600480360381019061023f91906139a3565b6106cd565b60405161025191906138a3565b60405180910390f35b34801561026657600080fd5b5061026f61083b565b60405161027c9190613a25565b60405180910390f35b34801561029157600080fd5b5061029a610857565b6040516102a791906138a3565b60405180910390f35b3480156102bc57600080fd5b506102c5610994565b6040516102d29190613a25565b60405180910390f35b3480156102e757600080fd5b506102f06109cd565b6040516102fd9190613a25565b60405180910390f35b34801561031257600080fd5b5061031b6109e9565b6040516103289190613a25565b60405180910390f35b34801561033d57600080fd5b50610346610a22565b6040516103539190613a25565b60405180910390f35b34801561036857600080fd5b50610383600480360381019061037e91906139a3565b610a3e565b005b34801561039157600080fd5b5061039a610b6b565b6040516103a79190613a94565b60405180910390f35b3480156103bc57600080fd5b506103d760048036038101906103d29190613aaf565b610b7e565b005b3480156103e557600080fd5b5061040060048036038101906103fb9190613b37565b610bbb565b005b34801561040e57600080fd5b50610417610c91565b6040516104249190613b86565b60405180910390f35b34801561043957600080fd5b50610442610cb7565b60405161044f9190613b86565b60405180910390f35b60006104a0610465610cdd565b6040518060400160405280601081526020017f4e6f7420636f6e666964656e7469616c00000000000000000000000000000000815250610da5565b60006104ab86610641565b90506104ba8682878787610deb565b80915050949350505050565b606060006104d383610e0d565b6040516020016104e39190613c9b565b60405160208183030381529060405290506104fc61340a565b6040518060400160405280600481526020017f504f5354000000000000000000000000000000000000000000000000000000008152508160200181905250818160600181905250600167ffffffffffffffff81111561055e5761055d6134e3565b5b60405190808252806020026020018201604052801561059157816020015b606081526020019060019003908161057c5790505b5081604001819052506040518060400160405280601e81526020017f436f6e74656e742d547970653a206170706c69636174696f6e2f6a736f6e000081525081604001516000815181106105e8576105e7613cc8565b5b602002602001018190525060008160800190151590811515815250506040518060600160405280603c8152602001614e83603c9139816000018190525061062e81610e33565b92505050919050565b600481565b600581565b60008061064d83610eec565b9050600061065a82611091565b905060006106ae6106a96040518060400160405280600781526020017f2270726963652200000000000000000000000000000000000000000000000000815250846110bd90919063ffffffff16565b611140565b90506106c36106bc82611162565b600461122f565b9350505050919050565b60606107156106da610cdd565b6040518060400160405280601081526020017f4e6f7420636f6e666964656e7469616c00000000000000000000000000000000815250610da5565b600073ffffffffffffffffffffffffffffffffffffffff16600260009054906101000a900473ffffffffffffffffffffffffffffffffffffffff1673ffffffffffffffffffffffffffffffffffffffff16146107a6576040517f08c379a000000000000000000000000000000000000000000000000000000000815260040161079d90613d43565b60405180910390fd5b60006107b1836113f6565b90506107bc816104c6565b5063cf1b037c60e01b836040516024016107d69190613b86565b604051602081830303815290604052907bffffffffffffffffffffffffffffffffffffffffffffffffffffffff19166020820180517bffffffffffffffffffffffffffffffffffffffffffffffffffffffff8381831617835250505050915050919050565b604051806060016040528060228152602001614e616022913981565b606061089f610864610cdd565b6040518060400160405280601081526020017f4e6f7420636f6e666964656e7469616c00000000000000000000000000000000815250610da5565b6108ec60008054906101000a900460ff16156040518060400160405280601381526020017f416c726561647920696e697469616c697a656400000000000000000000000000815250610da5565b60006108f86000611593565b905060006109058261168a565b90506000610912836116f6565b905063e241162560e01b818360405160240161092f929190613d63565b604051602081830303815290604052907bffffffffffffffffffffffffffffffffffffffffffffffffffffffff19166020820180517bffffffffffffffffffffffffffffffffffffffffffffffffffffffff8381831617835250505050935050505090565b6040518060400160405280601281526020017f6f7261636c653a76303a706b736563726574000000000000000000000000000081525081565b6040518060600160405280603c8152602001614e83603c913981565b6040518060400160405280600381526020017f307835000000000000000000000000000000000000000000000000000000000081525081565b6040518060600160405280603b8152602001614e26603b913981565b600260009054906101000a900473ffffffffffffffffffffffffffffffffffffffff1673ffffffffffffffffffffffffffffffffffffffff168173ffffffffffffffffffffffffffffffffffffffff161480610ae85750600073ffffffffffffffffffffffffffffffffffffffff16600260009054906101000a900473ffffffffffffffffffffffffffffffffffffffff1673ffffffffffffffffffffffffffffffffffffffff16145b610b27576040517f08c379a0000000000000000000000000000000000000000000000000000000008152600401610b1e90613d43565b60405180910390fd5b80600260006101000a81548173ffffffffffffffffffffffffffffffffffffffff021916908373ffffffffffffffffffffffffffffffffffffffff16021790555050565b600060019054906101000a900460801b81565b7ff61f2fd6ab65716facd3516c91d806d98dffa9670f127beac522f8cacfd1d8df8282604051610baf929190613d8c565b60405180910390a15050565b610c0860008054906101000a900460ff16156040518060400160405280601381526020017f416c726561647920696e697469616c697a656400000000000000000000000000815250610da5565b81600060016101000a8154816fffffffffffffffffffffffffffffffff021916908360801c021790555080600160006101000a81548173ffffffffffffffffffffffffffffffffffffffff021916908373ffffffffffffffffffffffffffffffffffffffff16021790555060016000806101000a81548160ff0219169083151502179055505050565b600260009054906101000a900473ffffffffffffffffffffffffffffffffffffffff1681565b600160009054906101000a900473ffffffffffffffffffffffffffffffffffffffff1681565b6000806000634201000073ffffffffffffffffffffffffffffffffffffffff16604051610d0990613ded565b600060405180830381855afa9150503d8060008114610d44576040519150601f19603f3d011682016040523d82523d6000602084013e610d49565b606091505b509150915081610d96576342010000816040517f75fff467000000000000000000000000000000000000000000000000000000008152600401610d8d929190613e02565b60405180910390fd5b80516020820151935050505090565b81610de757806040517f0c25cd98000000000000000000000000000000000000000000000000000000008152600401610dde9190613a25565b60405180910390fd5b5050565b6000610df9868686866118d2565b9050610e04816104c6565b50505050505050565b6060610e1882611a9b565b90506002815101613078825260028203915080825250919050565b6060600080634320000273ffffffffffffffffffffffffffffffffffffffff1684604051602001610e64919061402e565b604051602081830303815290604052604051610e809190614081565b600060405180830381855afa9150503d8060008114610ebb576040519150601f19603f3d011682016040523d82523d6000602084013e610ec0565b606091505b5091509150610ecf8282610da5565b80806020019051810190610ee39190614108565b92505050919050565b60606000600167ffffffffffffffff811115610f0b57610f0a6134e3565b5b604051908082528060200260200182016040528015610f3e57816020015b6060815260200190600190039081610f295790505b5090506040518060400160405280601e81526020017f436f6e74656e742d547970653a206170706c69636174696f6e2f6a736f6e000081525081600081518110610f8b57610f8a613cc8565b5b602002602001018190525060006040518060a001604052806040518060600160405280603b8152602001614e26603b913986604051602001610fce929190614151565b60405160208183030381529060405281526020016040518060400160405280600381526020017f47455400000000000000000000000000000000000000000000000000000000008152508152602001838152602001600067ffffffffffffffff81111561103e5761103d6134e3565b5b6040519080825280601f01601f1916602001820160405280156110705781602001600182028036833780820191505090505b50815260200160001515815250905061108881610e33565b92505050919050565b61109961343b565b8060405260006110b26110ab84611b09565b60ff611b13565b905080915050919050565b6110c561343b565b80604052606090506110d6836123d7565b1561113a5760008280519060200120905060006110f2856123ee565b9050600060058251901b90505b60008114611136578082015195506020810390508261111d87612410565b805190602001200361113157859350611136565b6110ff565b5050505b92915050565b6060600061115761115084612442565b6000611b13565b905080915050919050565b6060600082905060028151116111ad576040517f08c379a00000000000000000000000000000000000000000000000000000000081526004016111a4906141c1565b60405180910390fd5b6000600282516111bd9190614210565b905060008167ffffffffffffffff8111156111db576111da6134e3565b5b6040519080825280601f01601f19166020018201604052801561120d5781602001600182028036833780820191505090505b5090506021830160208201845182518252848452505050809350505050919050565b600080839050600080600090505b82518110156112ab57602e60f81b83828151811061125e5761125d613cc8565b5b602001015160f81c60f81b7effffffffffffffffffffffffffffffffffffffffffffffffffffffffffffff191603611298578091506112ab565b80806112a390614244565b91505061123d565b5060008060006001905060008490505b600081111561133a57816030876001846112d59190614210565b815181106112e6576112e5613cc8565b5b602001015160f81c60f81b60f81c6112fe919061428c565b60ff1661130b91906142c0565b84611316919061431a565b9350600a8261132591906142c0565b9150808061133290614370565b9150506112bb565b506001905060008760ff1685611350919061431a565b90505b848111156113c55781603087838151811061137157611370613cc8565b5b602001015160f81c60f81b60f81c611389919061428c565b60ff1661139691906142c0565b836113a1919061431a565b9250600a826113b091906142c0565b915080806113bd90614370565b915050611353565b508187600a6113d491906144cc565b846113df91906142c0565b6113e9919061431a565b9550505050505092915050565b606060006040518061014001604052808473ffffffffffffffffffffffffffffffffffffffff168152602001620186a0815260200164174876e800815260200160008152602001600081526020016040516024016040516020818303038152906040527f1aa3a008000000000000000000000000000000000000000000000000000000007bffffffffffffffffffffffffffffffffffffffffffffffffffffffff19166020820180517bffffffffffffffffffffffffffffffffffffffffffffffffffffffff83818316178352505050508152602001600581526020017f111111111111111111111111111111111111111111111111111111111111111181526020017f11111111111111111111111111111111111111111111111111111111111111118152602001601b67ffffffffffffffff168152509050600061153b8261244c565b905060006115476126fd565b9050611589826040518060400160405280600381526020017f307835000000000000000000000000000000000000000000000000000000000081525083612758565b9350505050919050565b6060600080635320000373ffffffffffffffffffffffffffffffffffffffff16846040516020016115c4919061458e565b6040516020818303038152906040526040516115e09190614081565b600060405180830381855afa9150503d806000811461161b576040519150601f19603f3d011682016040523d82523d6000602084013e611620565b606091505b50915091508161166d576353200003816040517f75fff467000000000000000000000000000000000000000000000000000000008152600401611664929190613e02565b60405180910390fd5b808060200190518101906116819190614619565b92505050919050565b60008060405160200161169c906146ae565b60405160208183030381529060405280519060200120905060006116e1826040516020016116ca91906146f9565b604051602081830303815290604052600086612855565b90506116ed8282612963565b92505050919050565b600080600367ffffffffffffffff811115611714576117136134e3565b5b6040519080825280602002602001820160405280156117425781602001602082028036833780820191505090505b509050308160008151811061175a57611759613cc8565b5b602002602001019073ffffffffffffffffffffffffffffffffffffffff16908173ffffffffffffffffffffffffffffffffffffffff16815250506342030001816001815181106117ad576117ac613cc8565b5b602002602001019073ffffffffffffffffffffffffffffffffffffffff16908173ffffffffffffffffffffffffffffffffffffffff1681525050634202000181600281518110611800576117ff613cc8565b5b602002602001019073ffffffffffffffffffffffffffffffffffffffff16908173ffffffffffffffffffffffffffffffffffffffff1681525050600061187e600083846040518060400160405280601281526020017f6f7261636c653a76303a706b73656372657400000000000000000000000000008152506129d2565b90506118c481600001516040518060400160405280601281526020017f6f7261636c653a76303a706b736563726574000000000000000000000000000081525086612ad8565b806000015192505050919050565b60606000604051806101400160405280600260009054906101000a900473ffffffffffffffffffffffffffffffffffffffff1673ffffffffffffffffffffffffffffffffffffffff168152602001620186a0815260200184815260200160008152602001858152602001878760405160240161194f929190613d8c565b6040516020818303038152906040527f4a432a46000000000000000000000000000000000000000000000000000000007bffffffffffffffffffffffffffffffffffffffffffffffffffffffff19166020820180517bffffffffffffffffffffffffffffffffffffffffffffffffffffffff83818316178352505050508152602001600581526020017f111111111111111111111111111111111111111111111111111111111111111181526020017f11111111111111111111111111111111111111111111111111111111111111118152602001601b67ffffffffffffffff1681525090506000611a408261244c565b90506000611a4c6126fd565b9050611a8e826040518060400160405280600381526020017f307835000000000000000000000000000000000000000000000000000000000081525083612758565b9350505050949350505050565b60608151600260405101915080810182526f30313233343536373839616263646566600f52602082018184015b808514611af657600185019450600f855116516001830153600f855160041c16518253600282019150611ac8565b6000825260208201604052505050919050565b6000819050919050565b600061231f565b63101827966000526004601cfd5b6000815160001a9050919050565b60008190505b600115611b66576001640100002600611b5483611b28565b1c1615611b6757600181019050611b3c565b5b92915050565b600063ffffffff84113d3d3e83831b8263ffffffff851b19161790509392505050565b600081831c63ffffffff16905092915050565b60006040519050611bc88486036078611bc3602086018803605888611b6d565b611b6d565b925085831781526020810160405295945050505050565b600080611bf0846018600051611b6d565b611bfa8787611b36565b9150868210611c095750611d5c565b611c1282611b28565b600115611d4d5760228103611c465782611c2e89858589611f9e565b9350611c3e60048583868a611ba3565b945050611d4d565b605b8103611c6357611c5a88848488611d65565b93509350611d4d565b607b8103611c8057611c7788848488611e3d565b93509350611d4d565b6001611ff9602d1b821c1615611ca557611c9c888484886120ad565b93509350611d4d565b876004840111611d085782835160e01c63747275658103611cdd57600485019450611cd460058684878b611ba3565b95505050611d4d565b636e756c6c8103611d0557600485019450611cfc60068684878b611ba3565b95505050611d4d565b50505b876005840111611d445782835160d81c6466616c73658103611d4157600585019450611d3860058684878b611ba3565b95505050611d4d565b50505b611d4c611b1a565b5b50611d588783611b36565b9150505b94509492505050565b60008060006001860191505b600115611e0f57868210611d8857611d87611b1a565b5b82611dab57611d978783611b36565b9150605d611da483611b28565b0315611e0f575b611db787838587611bdf565b925092508215611e0057611dd18160988551604017611b6d565b8352600181019050611de282611b28565b605d8103611df05750611e0f565b602c8103611dfe5750611e04565b505b8691505b600182019150611d71565b600182019150611e2183603887611b6d565b9450611e31600183888888611ba3565b92505094509492505050565b6000806001850190505b600115611f3057858110611e5e57611e5d611b1a565b5b81611e8157611e6d8682611b36565b9050607d611e7a82611b28565b0315611f30575b611e8b8682611b36565b905080611e9a87838587611f9e565b611ea48882611b36565b9250603a611eb184611b28565b03611f1f57611ec588600185018688611bdf565b935093508315611f1e57611ef16020860183036098611eec85850360b88951608017611b6d565b611b6d565b8452611efc83611b28565b607d8103611f0c57505050611f30565b602c8103611f1c57505050611f25565b505b5b87925050505b600181019050611e47565b600181019050611f4282603886611b6d565b9350611f52600282878787611ba3565b915094509492505050565b6001667e0000007e03ff6030611f74858501611b28565b031c16611f8457611f83611b1a565b5b60058214611f9a57611f996001830182611f5d565b5b5050565b6000848410611fb057611faf611b1a565b5b6001840190505b60011561204957611fc781611b28565b60228103611fd55750612049565b605c8114611fe95760018201915050612044565b611ff560018301611b28565b905060016a0510110400000000002001602283031c161561201c5760028201915050612044565b6075810361203b5761202f600283611f5d565b60068201915050612044565b85915050612049565b611fb7565b84811061205957612058611b1a565b5b600181019050949350505050565b60008190505b60011561209357600a603061208183611b28565b0310156120935760018101905061206d565b8082148416156120a6576120a5611b1a565b5b9392505050565b600080849050602d6120be82611b28565b036120ca576001810190505b600a60306120d783611b28565b03106120e6576120e5611b1a565b5b6120ef81611b28565b6001820191506030811461210c5761210960008884612067565b91505b602e61211783611b28565b0361212e5761212b60018860018501612067565b91505b815160658160001a6020170361215d5761215a6001896001860162010001600e8660011a031a01612067565b92505b61216b600384898989611ba3565b9350505094509492505050565b600060405190508282019150601f1980601f8601165b6001156121a857808401518184015281810190508061218e575b50848252600085602084010152846040830101604052509392505050565b6000606090508151600281600716116122b25782158115176122b25760208116156121fd576121f6603882611b90565b91506122b2565b604051915060208201612211603883611b90565b5b8015612246578082528051612228601882611b90565b61223487601884611b6d565b83528092506020840193505050612212565b50601f1983820381018060051c85528260405261226585603886611b6d565b9350836020178652604081106122ae57602085018186015b6001156122ab5781518151835280825284820191506020830192508183106122a557506122ab565b5061227d565b50505b5050505b50919050565b60006060905081518015831517156122d05750612317565b6122da8482611b90565b9150808616612315576122ee60d882611b90565b6123026122fb8784611b90565b8483612178565b925061230f838684611b6d565b87178452505b505b949350505050565b816000811461239857600181146123ae57600381146123c457602084018451810180821461237d5761235081611b28565b602282536123648760d8602260f81b611b6d565b600052612374828460008a611bdf565b93509450808253505b8315818310171561239157612390611b1a565b5b50506123d0565b6123a7601060786058876122b8565b91506123d0565b6123bd600860b86098876122b8565b91506123d0565b6123cd846121c6565b91505b5092915050565b6000600260ff166007836000015116149050919050565b606060006124056123fe84612442565b6003611b13565b905080915050919050565b6060600060808360000151161461243d57600061243661242f84612442565b6001611b13565b9050809150505b919050565b6000819050919050565b60606000600967ffffffffffffffff81111561246b5761246a6134e3565b5b60405190808252806020026020018201604052801561249e57816020015b60608152602001906001900390816124895790505b5090506124ae8360800151612bbb565b816000815181106124c2576124c1613cc8565b5b60200260200101819052506124da8360400151612bbb565b816001815181106124ee576124ed613cc8565b5b60200260200101819052506125068360200151612bbb565b8160028151811061251a57612519613cc8565b5b6020026020010181905250600073ffffffffffffffffffffffffffffffffffffffff16836000015173ffffffffffffffffffffffffffffffffffffffff16036125995761257560405180602001604052806000815250612bd5565b8160038151811061258957612588613cc8565b5b60200260200101819052506125c6565b6125a68360000151612c53565b816003815181106125ba576125b9613cc8565b5b60200260200101819052505b6125d38360600151612bbb565b816004815181106125e7576125e6613cc8565b5b60200260200101819052506125ff8360a00151612bd5565b8160058151811061261357612612613cc8565b5b602002602001018190525061263683610120015167ffffffffffffffff16612bbb565b8160068151811061264a57612649613cc8565b5b60200260200101819052506126818360e0015160405160200161266d91906146f9565b604051602081830303815290604052612bd5565b8160078151811061269557612694613cc8565b5b60200260200101819052506126cd8361010001516040516020016126b991906146f9565b604051602081830303815290604052612bd5565b816008815181106126e1576126e0613cc8565b5b60200260200101819052506126f581612c84565b915050919050565b6060600061274f600060019054906101000a900460801b6040518060400160405280601281526020017f6f7261636c653a76303a706b7365637265740000000000000000000000000000815250612cc8565b90508091505090565b6060600080634010000173ffffffffffffffffffffffffffffffffffffffff1686868660405160200161278d93929190614714565b6040516020818303038152906040526040516127a99190614081565b600060405180830381855afa9150503d80600081146127e4576040519150601f19603f3d011682016040523d82523d6000602084013e6127e9565b606091505b509150915081612836576340100001816040517f75fff46700000000000000000000000000000000000000000000000000000000815260040161282d929190613e02565b60405180910390fd5b8080602001905181019061284a9190614108565b925050509392505050565b606061285f610cdd565b61286857600080fd5b600080634010000373ffffffffffffffffffffffffffffffffffffffff1686868660405160200161289b93929190614760565b6040516020818303038152906040526040516128b79190614081565b600060405180830381855afa9150503d80600081146128f2576040519150601f19603f3d011682016040523d82523d6000602084013e6128f7565b606091505b509150915081612944576340100003816040517f75fff46700000000000000000000000000000000000000000000000000000000815260040161293b929190613e02565b60405180910390fd5b808060200190518101906129589190614108565b925050509392505050565b60008060008061297285612daf565b9250925092506001868285856040516000815260200160405260405161299b94939291906147b4565b6020604051602081039080840390855afa1580156129bd573d6000803e3d6000fd5b50505060206040510351935050505092915050565b6129da61344e565b600080634203000073ffffffffffffffffffffffffffffffffffffffff1687878787604051602001612a0f94939291906148c6565b604051602081830303815290604052604051612a2b9190614081565b600060405180830381855afa9150503d8060008114612a66576040519150601f19603f3d011682016040523d82523d6000602084013e612a6b565b606091505b509150915081612ab8576342030000816040517f75fff467000000000000000000000000000000000000000000000000000000008152600401612aaf929190613e02565b60405180910390fd5b80806020019051810190612acc9190614b25565b92505050949350505050565b600080634202000073ffffffffffffffffffffffffffffffffffffffff16858585604051602001612b0b93929190614b6e565b604051602081830303815290604052604051612b279190614081565b600060405180830381855afa9150503d8060008114612b62576040519150601f19603f3d011682016040523d82523d6000602084013e612b67565b606091505b509150915081612bb4576342020000816040517f75fff467000000000000000000000000000000000000000000000000000000008152600401612bab929190613e02565b60405180910390fd5b5050505050565b6060612bce612bc983612e33565b612bd5565b9050919050565b60608060018351148015612c0d5750608083600081518110612bfa57612bf9613cc8565b5b602001015160f81c60f81b60f81c60ff16105b15612c1a57829050612c4a565b612c2683516080612fb6565b83604051602001612c38929190614bb3565b60405160208183030381529060405290505b80915050919050565b6060612c7d82604051602001612c699190614c1f565b604051602081830303815290604052612bd5565b9050919050565b60606000612c9183613202565b9050612c9f815160c0612fb6565b81604051602001612cb1929190614bb3565b604051602081830303815290604052915050919050565b6060600080634202000173ffffffffffffffffffffffffffffffffffffffff168585604051602001612cfb929190614c3a565b604051602081830303815290604052604051612d179190614081565b600060405180830381855afa9150503d8060008114612d52576040519150601f19603f3d011682016040523d82523d6000602084013e612d57565b606091505b509150915081612da4576342020001816040517f75fff467000000000000000000000000000000000000000000000000000000008152600401612d9b929190613e02565b60405180910390fd5b809250505092915050565b60008060006041845114612df8576040517f08c379a0000000000000000000000000000000000000000000000000000000008152600401612def90614cb6565b60405180910390fd5b6020840151925060408401519150606084015160001a9050601b8160ff161015612e2c57601b81612e299190614cd6565b90505b9193909250565b6060600082604051602001612e489190614d2e565b604051602081830303815290604052905060005b6020811015612ec257600060f81b828281518110612e7d57612e7c613cc8565b5b602001015160f81c60f81b7effffffffffffffffffffffffffffffffffffffffffffffffffffffffffffff191603612ec2578080612eba90614244565b915050612e5c565b6000816020612ed19190614210565b67ffffffffffffffff811115612eea57612ee96134e3565b5b6040519080825280601f01601f191660200182016040528015612f1c5781602001600182028036833780820191505090505b50905060005b8151811015612faa57838380612f3790614244565b945081518110612f4a57612f49613cc8565b5b602001015160f81c60f81b828281518110612f6857612f67613cc8565b5b60200101907effffffffffffffffffffffffffffffffffffffffffffffffffffffffffffff1916908160001a9053508080612fa290614244565b915050612f22565b50809350505050919050565b606080603884101561306957600167ffffffffffffffff811115612fdd57612fdc6134e3565b5b6040519080825280601f01601f19166020018201604052801561300f5781602001600182028036833780820191505090505b509050828461301e9190614cd6565b60f81b8160008151811061303557613034613cc8565b5b60200101907effffffffffffffffffffffffffffffffffffffffffffffffffffffffffffff1916908160001a9053506131f8565b600080600190505b6000818761307f9190614d78565b146130a757818061308f90614244565b925050610100816130a091906142c0565b9050613071565b6001826130b4919061431a565b67ffffffffffffffff8111156130cd576130cc6134e3565b5b6040519080825280601f01601f1916602001820160405280156130ff5781602001600182028036833780820191505090505b509250603785836131109190614cd6565b61311a9190614cd6565b60f81b8360008151811061313157613130613cc8565b5b60200101907effffffffffffffffffffffffffffffffffffffffffffffffffffffffffffff1916908160001a905350600190505b8181116131f557610100818361317b9190614210565b6101006131889190614da9565b876131939190614d78565b61319d9190614df4565b60f81b8382815181106131b3576131b2613cc8565b5b60200101907effffffffffffffffffffffffffffffffffffffffffffffffffffffffffffff1916908160001a90535080806131ed90614244565b915050613165565b50505b8091505092915050565b6060600082510361326257600067ffffffffffffffff811115613228576132276134e3565b5b6040519080825280601f01601f19166020018201604052801561325a5781602001600182028036833780820191505090505b50905061338f565b600080600090505b83518110156132af5783818151811061328657613285613cc8565b5b6020026020010151518261329a919061431a565b915080806132a790614244565b91505061326a565b60008267ffffffffffffffff8111156132cb576132ca6134e3565b5b6040519080825280601f01601f1916602001820160405280156132fd5781602001600182028036833780820191505090505b5090506000602082019050600092505b855183101561338757600086848151811061332b5761332a613cc8565b5b60200260200101519050600060208201905061334983828451613394565b87858151811061335c5761335b613cc8565b5b60200260200101515183613370919061431a565b92505050828061337f90614244565b93505061330d565b819450505050505b919050565b6000839050600083905060008390505b602081106133e257815183526020836133bd919061431a565b92506020826133cc919061431a565b91506020816133db9190614210565b90506133a4565b60006001826020036101000a0390508019835116818551168181178652505050505050505050565b6040518060a00160405280606081526020016060815260200160608152602001606081526020016000151581525090565b6040518060200160405280600081525090565b6040518060c0016040528060006fffffffffffffffffffffffffffffffff1916815260200160006fffffffffffffffffffffffffffffffff19168152602001600067ffffffffffffffff1681526020016060815260200160608152602001606081525090565b6000604051905090565b600080fd5b600080fd5b600080fd5b600080fd5b6000601f19601f8301169050919050565b7f4e487b7100000000000000000000000000000000000000000000000000000000600052604160045260246000fd5b61351b826134d2565b810181811067ffffffffffffffff8211171561353a576135396134e3565b5b80604052505050565b600061354d6134b4565b90506135598282613512565b919050565b600067ffffffffffffffff821115613579576135786134e3565b5b613582826134d2565b9050602081019050919050565b82818337600083830152505050565b60006135b16135ac8461355e565b613543565b9050828152602081018484840111156135cd576135cc6134cd565b5b6135d884828561358f565b509392505050565b600082601f8301126135f5576135f46134c8565b5b813561360584826020860161359e565b91505092915050565b6000819050919050565b6136218161360e565b811461362c57600080fd5b50565b60008135905061363e81613618565b92915050565b600067ffffffffffffffff82169050919050565b61366181613644565b811461366c57600080fd5b50565b60008135905061367e81613658565b92915050565b6000806000806080858703121561369e5761369d6134be565b5b600085013567ffffffffffffffff8111156136bc576136bb6134c3565b5b6136c8878288016135e0565b94505060206136d98782880161362f565b93505060406136ea8782880161362f565b92505060606136fb8782880161366f565b91505092959194509250565b6137108161360e565b82525050565b600060208201905061372b6000830184613707565b92915050565b600067ffffffffffffffff82111561374c5761374b6134e3565b5b613755826134d2565b9050602081019050919050565b600061377561377084613731565b613543565b905082815260208101848484011115613791576137906134cd565b5b61379c84828561358f565b509392505050565b600082601f8301126137b9576137b86134c8565b5b81356137c9848260208601613762565b91505092915050565b6000602082840312156137e8576137e76134be565b5b600082013567ffffffffffffffff811115613806576138056134c3565b5b613812848285016137a4565b91505092915050565b600081519050919050565b600082825260208201905092915050565b60005b8381101561385557808201518184015260208101905061383a565b83811115613864576000848401525b50505050565b60006138758261381b565b61387f8185613826565b935061388f818560208601613837565b613898816134d2565b840191505092915050565b600060208201905081810360008301526138bd818461386a565b905092915050565b600060ff82169050919050565b6138db816138c5565b82525050565b60006020820190506138f660008301846138d2565b92915050565b600060208284031215613912576139116134be565b5b600082013567ffffffffffffffff8111156139305761392f6134c3565b5b61393c848285016135e0565b91505092915050565b600073ffffffffffffffffffffffffffffffffffffffff82169050919050565b600061397082613945565b9050919050565b61398081613965565b811461398b57600080fd5b50565b60008135905061399d81613977565b92915050565b6000602082840312156139b9576139b86134be565b5b60006139c78482850161398e565b91505092915050565b600081519050919050565b600082825260208201905092915050565b60006139f7826139d0565b613a0181856139db565b9350613a11818560208601613837565b613a1a816134d2565b840191505092915050565b60006020820190508181036000830152613a3f81846139ec565b905092915050565b60007fffffffffffffffffffffffffffffffff0000000000000000000000000000000082169050919050565b6000613a7e82613a47565b9050919050565b613a8e81613a73565b82525050565b6000602082019050613aa96000830184613a85565b92915050565b60008060408385031215613ac657613ac56134be565b5b600083013567ffffffffffffffff811115613ae457613ae36134c3565b5b613af0858286016135e0565b9250506020613b018582860161362f565b9150509250929050565b613b1481613a47565b8114613b1f57600080fd5b50565b600081359050613b3181613b0b565b92915050565b60008060408385031215613b4e57613b4d6134be565b5b6000613b5c85828601613b22565b9250506020613b6d8582860161398e565b9150509250929050565b613b8081613965565b82525050565b6000602082019050613b9b6000830184613b77565b92915050565b600081905092915050565b7f7b226a736f6e727063223a22322e30222c226d6574686f64223a226574685f7360008201527f656e645261775472616e73616374696f6e222c22706172616d73223a5b220000602082015250565b6000613c08603e83613ba1565b9150613c1382613bac565b603e82019050919050565b6000613c29826139d0565b613c338185613ba1565b9350613c43818560208601613837565b80840191505092915050565b7f225d2c226964223a317d00000000000000000000000000000000000000000000600082015250565b6000613c85600a83613ba1565b9150613c9082613c4f565b600a82019050919050565b6000613ca682613bfb565b9150613cb28284613c1e565b9150613cbd82613c78565b915081905092915050565b7f4e487b7100000000000000000000000000000000000000000000000000000000600052603260045260246000fd5b7f416c726561647920726567697374657265640000000000000000000000000000600082015250565b6000613d2d6012836139db565b9150613d3882613cf7565b602082019050919050565b60006020820190508181036000830152613d5c81613d20565b9050919050565b6000604082019050613d786000830185613a85565b613d856020830184613b77565b9392505050565b60006040820190508181036000830152613da681856139ec565b9050613db56020830184613707565b9392505050565b600081905092915050565b50565b6000613dd7600083613dbc565b9150613de282613dc7565b600082019050919050565b6000613df882613dca565b9150819050919050565b6000604082019050613e176000830185613b77565b8181036020830152613e29818461386a565b90509392505050565b600082825260208201905092915050565b6000613e4e826139d0565b613e588185613e32565b9350613e68818560208601613837565b613e71816134d2565b840191505092915050565b600081519050919050565b600082825260208201905092915050565b6000819050602082019050919050565b6000613eb48383613e43565b905092915050565b6000602082019050919050565b6000613ed482613e7c565b613ede8185613e87565b935083602082028501613ef085613e98565b8060005b85811015613f2c5784840389528151613f0d8582613ea8565b9450613f1883613ebc565b925060208a01995050600181019050613ef4565b50829750879550505050505092915050565b600082825260208201905092915050565b6000613f5a8261381b565b613f648185613f3e565b9350613f74818560208601613837565b613f7d816134d2565b840191505092915050565b60008115159050919050565b613f9d81613f88565b82525050565b600060a0830160008301518482036000860152613fc08282613e43565b91505060208301518482036020860152613fda8282613e43565b91505060408301518482036040860152613ff48282613ec9565b9150506060830151848203606086015261400e8282613f4f565b91505060808301516140236080860182613f94565b508091505092915050565b600060208201905081810360008301526140488184613fa3565b905092915050565b600061405b8261381b565b6140658185613dbc565b9350614075818560208601613837565b80840191505092915050565b600061408d8284614050565b915081905092915050565b60006140ab6140a684613731565b613543565b9050828152602081018484840111156140c7576140c66134cd565b5b6140d2848285613837565b509392505050565b600082601f8301126140ef576140ee6134c8565b5b81516140ff848260208601614098565b91505092915050565b60006020828403121561411e5761411d6134be565b5b600082015167ffffffffffffffff81111561413c5761413b6134c3565b5b614148848285016140da565b91505092915050565b600061415d8285613c1e565b91506141698284613c1e565b91508190509392505050565b7f496e70757420746f6f2073686f72740000000000000000000000000000000000600082015250565b60006141ab600f836139db565b91506141b682614175565b602082019050919050565b600060208201905081810360008301526141da8161419e565b9050919050565b7f4e487b7100000000000000000000000000000000000000000000000000000000600052601160045260246000fd5b600061421b8261360e565b91506142268361360e565b925082821015614239576142386141e1565b5b828203905092915050565b600061424f8261360e565b91507fffffffffffffffffffffffffffffffffffffffffffffffffffffffffffffffff8203614281576142806141e1565b5b600182019050919050565b6000614297826138c5565b91506142a2836138c5565b9250828210156142b5576142b46141e1565b5b828203905092915050565b60006142cb8261360e565b91506142d68361360e565b9250817fffffffffffffffffffffffffffffffffffffffffffffffffffffffffffffffff048311821515161561430f5761430e6141e1565b5b828202905092915050565b60006143258261360e565b91506143308361360e565b9250827fffffffffffffffffffffffffffffffffffffffffffffffffffffffffffffffff03821115614365576143646141e1565b5b828201905092915050565b600061437b8261360e565b91506000820361438e5761438d6141e1565b5b600182039050919050565b60008160011c9050919050565b6000808291508390505b60018511156143f0578086048111156143cc576143cb6141e1565b5b60018516156143db5780820291505b80810290506143e985614399565b94506143b0565b94509492505050565b60008261440957600190506144c5565b8161441757600090506144c5565b816001811461442d576002811461443757614466565b60019150506144c5565b60ff841115614449576144486141e1565b5b8360020a9150848211156144605761445f6141e1565b5b506144c5565b5060208310610133831016604e8410600b841016171561449b5782820a905083811115614496576144956141e1565b5b6144c5565b6144a884848460016143a6565b925090508184048111156144bf576144be6141e1565b5b81810290505b9392505050565b60006144d78261360e565b91506144e2836138c5565b925061450f7fffffffffffffffffffffffffffffffffffffffffffffffffffffffffffffffff84846143f9565b905092915050565b7f4e487b7100000000000000000000000000000000000000000000000000000000600052602160045260246000fd5b6002811061455757614556614517565b5b50565b600081905061456882614546565b919050565b60006145788261455a565b9050919050565b6145888161456d565b82525050565b60006020820190506145a3600083018461457f565b92915050565b60006145bc6145b78461355e565b613543565b9050828152602081018484840111156145d8576145d76134cd565b5b6145e3848285613837565b509392505050565b600082601f830112614600576145ff6134c8565b5b81516146108482602086016145a9565b91505092915050565b60006020828403121561462f5761462e6134be565b5b600082015167ffffffffffffffff81111561464d5761464c6134c3565b5b614659848285016145eb565b91505092915050565b7f796f000000000000000000000000000000000000000000000000000000000000600082015250565b60006146986002836139db565b91506146a382614662565b602082019050919050565b600060208201905081810360008301526146c78161468b565b9050919050565b6000819050919050565b6000819050919050565b6146f36146ee826146ce565b6146d8565b82525050565b600061470582846146e2565b60208201915081905092915050565b6000606082019050818103600083015261472e818661386a565b9050818103602083015261474281856139ec565b9050818103604083015261475681846139ec565b9050949350505050565b6000606082019050818103600083015261477a818661386a565b9050614789602083018561457f565b818103604083015261479b81846139ec565b9050949350505050565b6147ae816146ce565b82525050565b60006080820190506147c960008301876147a5565b6147d660208301866138d2565b6147e360408301856147a5565b6147f060608301846147a5565b95945050505050565b61480281613644565b82525050565b600081519050919050565b600082825260208201905092915050565b6000819050602082019050919050565b61483d81613965565b82525050565b600061484f8383614834565b60208301905092915050565b6000602082019050919050565b600061487382614808565b61487d8185614813565b935061488883614824565b8060005b838110156148b95781516148a08882614843565b97506148ab8361485b565b92505060018101905061488c565b5085935050505092915050565b60006080820190506148db60008301876147f9565b81810360208301526148ed8186614868565b905081810360408301526149018185614868565b9050818103606083015261491581846139ec565b905095945050505050565b600080fd5b600080fd5b60008151905061493981613b0b565b92915050565b60008151905061494e81613658565b92915050565b600067ffffffffffffffff82111561496f5761496e6134e3565b5b602082029050602081019050919050565b600080fd5b60008151905061499481613977565b92915050565b60006149ad6149a884614954565b613543565b905080838252602082019050602084028301858111156149d0576149cf614980565b5b835b818110156149f957806149e58882614985565b8452602084019350506020810190506149d2565b5050509392505050565b600082601f830112614a1857614a176134c8565b5b8151614a2884826020860161499a565b91505092915050565b600060c08284031215614a4757614a46614920565b5b614a5160c0613543565b90506000614a618482850161492a565b6000830152506020614a758482850161492a565b6020830152506040614a898482850161493f565b604083015250606082015167ffffffffffffffff811115614aad57614aac614925565b5b614ab984828501614a03565b606083015250608082015167ffffffffffffffff811115614add57614adc614925565b5b614ae984828501614a03565b60808301525060a082015167ffffffffffffffff811115614b0d57614b0c614925565b5b614b19848285016145eb565b60a08301525092915050565b600060208284031215614b3b57614b3a6134be565b5b600082015167ffffffffffffffff811115614b5957614b586134c3565b5b614b6584828501614a31565b91505092915050565b6000606082019050614b836000830186613a85565b8181036020830152614b9581856139ec565b90508181036040830152614ba9818461386a565b9050949350505050565b6000614bbf8285614050565b9150614bcb8284614050565b91508190509392505050565b60008160601b9050919050565b6000614bef82614bd7565b9050919050565b6000614c0182614be4565b9050919050565b614c19614c1482613965565b614bf6565b82525050565b6000614c2b8284614c08565b60148201915081905092915050565b6000604082019050614c4f6000830185613a85565b8181036020830152614c6181846139ec565b90509392505050565b7f696e76616c6964207369676e6174757265206c656e6774680000000000000000600082015250565b6000614ca06018836139db565b9150614cab82614c6a565b602082019050919050565b60006020820190508181036000830152614ccf81614c93565b9050919050565b6000614ce1826138c5565b9150614cec836138c5565b92508260ff03821115614d0257614d016141e1565b5b828201905092915050565b6000819050919050565b614d28614d238261360e565b614d0d565b82525050565b6000614d3a8284614d17565b60208201915081905092915050565b7f4e487b7100000000000000000000000000000000000000000000000000000000600052601260045260246000fd5b6000614d838261360e565b9150614d8e8361360e565b925082614d9e57614d9d614d49565b5b828204905092915050565b6000614db48261360e565b9150614dbf8361360e565b9250614dec7fffffffffffffffffffffffffffffffffffffffffffffffffffffffffffffffff84846143f9565b905092915050565b6000614dff8261360e565b9150614e0a8361360e565b925082614e1a57614e19614d49565b5b82820690509291505056fe68747470733a2f2f646174612d6170692e62696e616e63652e766973696f6e2f6170692f76332f7469636b65722f70726963653f73796d626f6c3d68747470733a2f2f72656c61792d676f65726c692e666c617368626f74732e6e657468747470733a2f2f676f65726c692e696e667572612e696f2f76332f3961613364393562336263343430666138386561313265616134343536313631a264697066735822122051af2885264fb714c6cf80a4a229b0e9dcfb7dc378be215fd56ade56bd22bc4364736f6c634300080d0033",
  "devdoc": {
    "kind": "dev",
    "methods": {},
    "version": 1
  },
  "userdoc": {
    "kind": "user",
    "methods": {},
    "version": 1
  },
  "storageLayout": {
    "storage": [
      {
        "astId": 5384,
        "contract": "contracts/oracle/BinanceOracle.sol:BinanceOracle",
        "label": "isInitialized",
        "offset": 0,
        "slot": "0",
        "type": "t_bool"
      },
      {
        "astId": 5387,
        "contract": "contracts/oracle/BinanceOracle.sol:BinanceOracle",
        "label": "pkBidId",
        "offset": 1,
        "slot": "0",
        "type": "t_userDefinedValueType(DataId)2642"
      },
      {
        "astId": 5389,
        "contract": "contracts/oracle/BinanceOracle.sol:BinanceOracle",
        "label": "controller",
        "offset": 0,
        "slot": "1",
        "type": "t_address"
      },
      {
        "astId": 5391,
        "contract": "contracts/oracle/BinanceOracle.sol:BinanceOracle",
        "label": "settlementContract",
        "offset": 0,
        "slot": "2",
        "type": "t_address"
      }
    ],
    "types": {
      "t_address": {
        "encoding": "inplace",
        "label": "address",
        "numberOfBytes": "20"
      },
      "t_bool": {
        "encoding": "inplace",
        "label": "bool",
        "numberOfBytes": "1"
      },
      "t_userDefinedValueType(DataId)2642": {
        "encoding": "inplace",
        "label": "Suave.DataId",
        "numberOfBytes": "16"
      }
    }
  }
}