{
  "address": "0xee9794177378e98268b30Ca14964f2FDFc71bD6D",
  "abi": [
    {
      "inputs": [
        {
          "internalType": "string",
          "name": "boostRelayUrl_",
          "type": "string"
        }
      ],
      "stateMutability": "nonpayable",
      "type": "constructor"
    },
    {
      "inputs": [
        {
          "internalType": "address",
          "name": "",
          "type": "address"
        },
        {
          "internalType": "bytes",
          "name": "",
          "type": "bytes"
        }
      ],
      "name": "PeekerReverted",
      "type": "error"
    },
    {
      "inputs": [
        {
          "internalType": "string",
          "name": "message",
          "type": "string"
        }
      ],
      "name": "SuaveError",
      "type": "error"
    },
    {
      "inputs": [
        {
          "internalType": "string",
          "name": "message",
          "type": "string"
        },
        {
          "internalType": "bytes",
          "name": "data",
          "type": "bytes"
        }
      ],
      "name": "SuaveErrorWithData",
      "type": "error"
    },
    {
      "anonymous": false,
      "inputs": [
        {
          "indexed": false,
          "internalType": "Suave.BidId",
          "name": "bidId",
          "type": "bytes16"
        },
        {
          "indexed": false,
          "internalType": "uint64",
          "name": "decryptionCondition",
          "type": "uint64"
        },
        {
          "indexed": false,
          "internalType": "address[]",
          "name": "allowedPeekers",
          "type": "address[]"
        }
      ],
      "name": "BidEvent",
      "type": "event"
    },
    {
      "anonymous": false,
      "inputs": [
        {
          "indexed": false,
          "internalType": "uint256",
          "name": "id",
          "type": "uint256"
        },
        {
          "indexed": false,
          "internalType": "string",
          "name": "extra",
          "type": "string"
        },
        {
          "indexed": false,
          "internalType": "uint256",
          "name": "blockLimit",
          "type": "uint256"
        }
      ],
      "name": "RequestAdded",
      "type": "event"
    },
    {
      "anonymous": false,
      "inputs": [
        {
          "indexed": false,
          "internalType": "uint256",
          "name": "id",
          "type": "uint256"
        },
        {
          "indexed": false,
          "internalType": "uint64",
          "name": "egp",
          "type": "uint64"
        },
        {
          "indexed": false,
          "internalType": "string",
          "name": "blockHash",
          "type": "string"
        }
      ],
      "name": "RequestIncluded",
      "type": "event"
    },
    {
      "anonymous": false,
      "inputs": [
        {
          "indexed": false,
          "internalType": "uint256",
          "name": "id",
          "type": "uint256"
        }
      ],
      "name": "RequestRemoved",
      "type": "event"
    },
    {
      "inputs": [
        {
          "components": [
            {
              "internalType": "uint64",
              "name": "slot",
              "type": "uint64"
            },
            {
              "internalType": "bytes",
              "name": "proposerPubkey",
              "type": "bytes"
            },
            {
              "internalType": "bytes32",
              "name": "parent",
              "type": "bytes32"
            },
            {
              "internalType": "uint64",
              "name": "timestamp",
              "type": "uint64"
            },
            {
              "internalType": "address",
              "name": "feeRecipient",
              "type": "address"
            },
            {
              "internalType": "uint64",
              "name": "gasLimit",
              "type": "uint64"
            },
            {
              "internalType": "bytes32",
              "name": "random",
              "type": "bytes32"
            },
            {
              "components": [
                {
                  "internalType": "uint64",
                  "name": "index",
                  "type": "uint64"
                },
                {
                  "internalType": "uint64",
                  "name": "validator",
                  "type": "uint64"
                },
                {
                  "internalType": "address",
                  "name": "Address",
                  "type": "address"
                },
                {
                  "internalType": "uint64",
                  "name": "amount",
                  "type": "uint64"
                }
              ],
              "internalType": "struct Suave.Withdrawal[]",
              "name": "withdrawals",
              "type": "tuple[]"
            },
            {
              "internalType": "bytes",
              "name": "extra",
              "type": "bytes"
            }
          ],
          "internalType": "struct Suave.BuildBlockArgs",
          "name": "blockArgs",
          "type": "tuple"
        },
        {
          "internalType": "uint64",
          "name": "blockHeight",
          "type": "uint64"
        }
      ],
      "name": "buildBlock",
      "outputs": [
        {
          "internalType": "bytes",
          "name": "",
          "type": "bytes"
        }
      ],
      "stateMutability": "nonpayable",
      "type": "function"
    },
    {
      "inputs": [
        {
          "internalType": "bytes",
          "name": "builderCall",
          "type": "bytes"
        },
        {
          "internalType": "bytes",
          "name": "includedRequestB",
          "type": "bytes"
        },
        {
          "internalType": "bytes",
          "name": "pendingRemovalsB",
          "type": "bytes"
        },
        {
          "components": [
            {
              "internalType": "bytes32",
              "name": "key",
              "type": "bytes32"
            },
            {
              "internalType": "bytes32",
              "name": "nextHash",
              "type": "bytes32"
            }
          ],
          "internalType": "struct ConfidentialControl.UnlockArgs",
          "name": "uArgs",
          "type": "tuple"
        }
      ],
      "name": "buildCallback",
      "outputs": [],
      "stateMutability": "nonpayable",
      "type": "function"
    },
    {
      "inputs": [],
      "name": "builder",
      "outputs": [
        {
          "internalType": "contract Builder",
          "name": "",
          "type": "address"
        }
      ],
      "stateMutability": "view",
      "type": "function"
    },
    {
      "inputs": [
        {
          "internalType": "uint64",
          "name": "blockLimit",
          "type": "uint64"
        },
        {
          "internalType": "string",
          "name": "extra",
          "type": "string"
        }
      ],
      "name": "buyAd",
      "outputs": [
        {
          "internalType": "bytes",
          "name": "",
          "type": "bytes"
        }
      ],
      "stateMutability": "nonpayable",
      "type": "function"
    },
    {
      "inputs": [
        {
          "components": [
            {
              "internalType": "uint256",
              "name": "id",
              "type": "uint256"
            },
            {
              "internalType": "string",
              "name": "extra",
              "type": "string"
            },
            {
              "internalType": "uint256",
              "name": "blockLimit",
              "type": "uint256"
            },
            {
              "internalType": "Suave.BidId",
              "name": "paymentBidId",
              "type": "bytes16"
            }
          ],
          "internalType": "struct BlockAdAuctionV2.AdRequest",
          "name": "request",
          "type": "tuple"
        },
        {
          "components": [
            {
              "internalType": "bytes32",
              "name": "key",
              "type": "bytes32"
            },
            {
              "internalType": "bytes32",
              "name": "nextHash",
              "type": "bytes32"
            }
          ],
          "internalType": "struct ConfidentialControl.UnlockArgs",
          "name": "uArgs",
          "type": "tuple"
        }
      ],
      "name": "buyAdCallback",
      "outputs": [],
      "stateMutability": "nonpayable",
      "type": "function"
    },
    {
      "inputs": [
        {
          "internalType": "bytes32",
          "name": "nextHash",
          "type": "bytes32"
        },
        {
          "internalType": "Suave.BidId",
          "name": "sBidId",
          "type": "bytes16"
        }
      ],
      "name": "ccCallback",
      "outputs": [],
      "stateMutability": "nonpayable",
      "type": "function"
    },
    {
      "inputs": [],
      "name": "confidentialConstructor",
      "outputs": [
        {
          "internalType": "bytes",
          "name": "",
          "type": "bytes"
        }
      ],
      "stateMutability": "view",
      "type": "function"
    },
    {
      "inputs": [
        {
          "components": [
            {
              "internalType": "Suave.BidId",
              "name": "id",
              "type": "bytes16"
            },
            {
              "internalType": "Suave.BidId",
              "name": "salt",
              "type": "bytes16"
            },
            {
              "internalType": "uint64",
              "name": "decryptionCondition",
              "type": "uint64"
            },
            {
              "internalType": "address[]",
              "name": "allowedPeekers",
              "type": "address[]"
            },
            {
              "internalType": "address[]",
              "name": "allowedStores",
              "type": "address[]"
            },
            {
              "internalType": "string",
              "name": "version",
              "type": "string"
            }
          ],
          "internalType": "struct Suave.Bid",
          "name": "bid",
          "type": "tuple"
        }
      ],
      "name": "emitBid",
      "outputs": [],
      "stateMutability": "nonpayable",
      "type": "function"
    },
    {
      "inputs": [],
      "name": "fetchBidConfidentialBundleData",
      "outputs": [
        {
          "internalType": "bytes",
          "name": "",
          "type": "bytes"
        }
      ],
      "stateMutability": "nonpayable",
      "type": "function"
    },
    {
      "inputs": [],
      "name": "isInitialized",
      "outputs": [
        {
          "internalType": "bool",
          "name": "",
          "type": "bool"
        }
      ],
      "stateMutability": "view",
      "type": "function"
    },
    {
      "inputs": [],
      "name": "nextId",
      "outputs": [
        {
          "internalType": "uint256",
          "name": "",
          "type": "uint256"
        }
      ],
      "stateMutability": "view",
      "type": "function"
    },
    {
      "inputs": [
        {
          "internalType": "uint256",
          "name": "",
          "type": "uint256"
        }
      ],
      "name": "requests",
      "outputs": [
        {
          "internalType": "uint256",
          "name": "id",
          "type": "uint256"
        },
        {
          "internalType": "string",
          "name": "extra",
          "type": "string"
        },
        {
          "internalType": "uint256",
          "name": "blockLimit",
          "type": "uint256"
        },
        {
          "internalType": "Suave.BidId",
          "name": "paymentBidId",
          "type": "bytes16"
        }
      ],
      "stateMutability": "view",
      "type": "function"
    },
    {
      "inputs": [],
      "name": "requestsLength",
      "outputs": [
        {
          "internalType": "uint256",
          "name": "",
          "type": "uint256"
        }
      ],
      "stateMutability": "view",
      "type": "function"
    }
  ],
  "transactionHash": "0x1a8101606f4e0bb6e50e4b026b6aab1f40bf1b2a851fdf2a4e52a37eb12f3bf1",
  "args": [
    "https://0xafa4c6985aa049fb79dd37010438cfebeb0f2bd42b115b89dd678dab0670c1de38da0c4e9138c9290a398ecd9a0b3110@boost-relay-goerli.flashbots.net"
  ],
  "numDeployments": 2,
  "solcInputHash": "d56c3b6b48ef78ff3bd00d86650d8c66",
  "bytecode": "0x60806040523480156200001157600080fd5b506040516200896538038062008965833981810160405281019062000037919062000262565b806040516200004690620000b7565b62000052919062000310565b604051809103906000f0801580156200006f573d6000803e3d6000fd5b50600360006101000a81548173ffffffffffffffffffffffffffffffffffffffff021916908373ffffffffffffffffffffffffffffffffffffffff1602179055505062000334565b61437380620045f283390190565b6000604051905090565b600080fd5b600080fd5b600080fd5b600080fd5b6000601f19601f8301169050919050565b7f4e487b7100000000000000000000000000000000000000000000000000000000600052604160045260246000fd5b6200012e82620000e3565b810181811067ffffffffffffffff8211171562000150576200014f620000f4565b5b80604052505050565b600062000165620000c5565b905062000173828262000123565b919050565b600067ffffffffffffffff821115620001965762000195620000f4565b5b620001a182620000e3565b9050602081019050919050565b60005b83811015620001ce578082015181840152602081019050620001b1565b83811115620001de576000848401525b50505050565b6000620001fb620001f58462000178565b62000159565b9050828152602081018484840111156200021a5762000219620000de565b5b62000227848285620001ae565b509392505050565b600082601f830112620002475762000246620000d9565b5b815162000259848260208601620001e4565b91505092915050565b6000602082840312156200027b576200027a620000cf565b5b600082015167ffffffffffffffff8111156200029c576200029b620000d4565b5b620002aa848285016200022f565b91505092915050565b600081519050919050565b600082825260208201905092915050565b6000620002dc82620002b3565b620002e88185620002be565b9350620002fa818560208601620001ae565b6200030581620000e3565b840191505092915050565b600060208201905081810360008301526200032c8184620002cf565b905092915050565b6142ae80620003446000396000f3fe608060405234801561001057600080fd5b50600436106100cf5760003560e01c806392f07a581161008c578063d7e84fbf11610066578063d7e84fbf14610203578063ee2cc36414610221578063fd38f21d1461023d578063ffbbfcb01461026d576100cf565b806392f07a58146101ad578063bb7bae0a146101cb578063c0b9d287146101e7576100cf565b8063392e53cd146100d457806360727f8e146100f257806361b8ce8c1461012257806364e65a62146101405780637e48532c1461015c57806381d12c581461017a575b600080fd5b6100dc61028b565b6040516100e991906122a9565b60405180910390f35b61010c60048036038101906101079190612770565b61029b565b6040516101199190612854565b60405180910390f35b61012a61051b565b604051610137919061288f565b60405180910390f35b61015a600480360381019061015591906128ce565b610521565b005b6101646105ee565b6040516101719190612854565b60405180910390f35b610194600480360381019061018f91906129b5565b610643565b6040516101a49493929190612a84565b60405180910390f35b6101b561070b565b6040516101c29190612854565b60405180910390f35b6101e560048036038101906101e09190612afc565b610744565b005b61020160048036038101906101fc9190612b5b565b6107b0565b005b61020b610827565b6040516102189190612c03565b60405180910390f35b61023b60048036038101906102369190612c3d565b61084d565b005b61025760048036038101906102529190612d3a565b610966565b6040516102649190612854565b60405180910390f35b610275610b67565b604051610282919061288f565b60405180910390f35b60008060001b6001541415905090565b60606102e36102a8610b74565b6040518060400160405280601081526020017f4e6f7420636f6e666964656e7469616c00000000000000000000000000000000815250610c3c565b61032a6000600480549050116040518060400160405280600b81526020017f4e6f207265717565737473000000000000000000000000000000000000000000815250610c3c565b6000806103408467ffffffffffffffff16610c82565b915091506103946000836040015167ffffffffffffffff16116040518060400160405280600f81526020017f4e6f2076616c6964206f66666572730000000000000000000000000000000000815250610c3c565b61039e8483610eca565b81602001518561010001819052506000600360009054906101000a900473ffffffffffffffffffffffffffffffffffffffff1673ffffffffffffffffffffffffffffffffffffffff1663346ab17587876040518363ffffffff1660e01b815260040161040b929190612ff3565b600060405180830381600087803b15801561042557600080fd5b505af1158015610439573d6000803e3d6000fd5b505050506040513d6000823e3d601f19601f820116820180604052508101906104629190613093565b90506364e65a6260e01b81846000015185604001516040516020016104889291906130dc565b604051602081830303815290604052846104a0611125565b6040516024016104b39493929190613134565b604051602081830303815290604052907bffffffffffffffffffffffffffffffffffffffffffffffffffffffff19166020820180517bffffffffffffffffffffffffffffffffffffffffffffffffffffffff8381831617835250505050935050505092915050565b60055481565b8061056d6105328260000135611167565b6040518060400160405280600b81526020017f496e76616c6964206b6579000000000000000000000000000000000000000000815250610c3c565b600083511115610589576105886105838461119b565b6111ad565b5b60006105b7600360009054906101000a900473ffffffffffffffffffffffffffffffffffffffff1687611378565b90506105c38582611446565b508060200135600181905550600260008154809291906105e2906131bd565b91905055505050505050565b60606106366105fb610b74565b6040518060400160405280601081526020017f4e6f7420636f6e666964656e7469616c00000000000000000000000000000000815250610c3c565b61063e6114a2565b905090565b6004818154811061065357600080fd5b906000526020600020906004020160009150905080600001549080600101805461067c90613235565b80601f01602080910402602001604051908101604052809291908181526020018280546106a890613235565b80156106f55780601f106106ca576101008083540402835291602001916106f5565b820191906000526020600020905b8154815290600101906020018083116106d857829003601f168201915b5050505050908060020154908060030154905084565b6060610715610b74565b61071e57600080fd5b60006107286115ed565b90508080602001905181019061073e9190613093565b91505090565b61078b61074f61028b565b156040518060400160405280601381526020017f416c726561647920696e697469616c697a656400000000000000000000000000815250610c3c565b81600181905550806000816fffffffffffffffffffffffffffffffff19169055505050565b7f83481d5b04dea534715acad673a8177a46fc93882760f36bdc16ccac439d504e81600001356fffffffffffffffffffffffffffffffff19168260400160208101906107fc9190613267565b83806060019061080c91906132a3565b60405161081c94939291906133ba565b60405180910390a150565b600360009054906101000a900473ffffffffffffffffffffffffffffffffffffffff1681565b8061089961085e8260000135611167565b6040518060400160405280600b81526020017f496e76616c6964206b6579000000000000000000000000000000000000000000815250610c3c565b600483908060018154018082558091505060019003906000526020600020906004020160009091909190915081816108d1919061383d565b5050600560008154809291906108e6906131bd565b91905055507fbf51327c63fb3c8741d4233ae0315e3e1a74641532f4e59c307f72314a346235836000013584806020019061092191906134ae565b86604001356040516109369493929190613878565b60405180910390a180602001356001819055506002600081548092919061095c906131bd565b9190505550505050565b60606109ae610973610b74565b6040518060400160405280601081526020017f4e6f7420636f6e666964656e7469616c00000000000000000000000000000000815250610c3c565b60003073ffffffffffffffffffffffffffffffffffffffff166392f07a586040518163ffffffff1660e01b8152600401600060405180830381600087803b1580156109f857600080fd5b505af1158015610a0c573d6000803e3d6000fd5b505050506040513d6000823e3d601f19601f82011682018060405250810190610a359190613093565b9050610a8c6000610a45836116c4565b67ffffffffffffffff1614156040518060400160405280600b81526020017f65677020746f6f206c6f77000000000000000000000000000000000000000000815250610c3c565b6000610a97826117bb565b90506000604051806080016040528060055481526020018681526020018767ffffffffffffffff168152602001836fffffffffffffffffffffffffffffffff1916815250905063ee2cc36460e01b81610aee611125565b604051602401610aff929190613983565b604051602081830303815290604052907bffffffffffffffffffffffffffffffffffffffffffffffffffffffff19166020820180517bffffffffffffffffffffffffffffffffffffffffffffffffffffffff8381831617835250505050935050505092915050565b6000600480549050905090565b6000806000634201000073ffffffffffffffffffffffffffffffffffffffff16604051610ba0906139e4565b600060405180830381855afa9150503d8060008114610bdb576040519150601f19603f3d011682016040523d82523d6000602084013e610be0565b606091505b509150915081610c2d576342010000816040517f75fff467000000000000000000000000000000000000000000000000000000008152600401610c24929190613a08565b60405180910390fd5b80516020820151935050505090565b81610c7e57806040517f0c25cd98000000000000000000000000000000000000000000000000000000008152600401610c759190613a38565b60405180910390fd5b5050565b610c8a6120ec565b606060005b600480549050811015610ec457600060048281548110610cb257610cb1613a5a565b5b906000526020600020906004020160405180608001604052908160008201548152602001600182018054610ce590613235565b80601f0160208091040260200160405190810160405280929190818152602001828054610d1190613235565b8015610d5e5780601f10610d3357610100808354040283529160200191610d5e565b820191906000526020600020905b815481529060010190602001808311610d4157829003601f168201915b505050505081526020016002820154815260200160038201546fffffffffffffffffffffffffffffffff19166fffffffffffffffffffffffffffffffff19168152505090508481604001511015610dca57610dc282846118f190919063ffffffff16565b925050610eb3565b6000610e0f82606001516040518060400160405280601881526020017f626c6f636b61643a76303a7061796d656e7442756e646c650000000000000000815250611925565b9050600080610e1d83611a0c565b91509150811580610e38575060008167ffffffffffffffff16145b15610e5757610e5085876118f190919063ffffffff16565b9550610eae565b866040015167ffffffffffffffff168167ffffffffffffffff161115610ead57604051806080016040528085600001518152602001856020015181526020018267ffffffffffffffff1681526020018481525096505b5b505050505b80610ebd906131bd565b9050610c8f565b50915091565b6000600367ffffffffffffffff811115610ee757610ee66122ee565b5b604051908082528060200260200182016040528015610f155781602001602082028036833780820191505090505b509050600360009054906101000a900473ffffffffffffffffffffffffffffffffffffffff1681600081518110610f4f57610f4e613a5a565b5b602002602001019073ffffffffffffffffffffffffffffffffffffffff16908173ffffffffffffffffffffffffffffffffffffffff1681525050634210000181600181518110610fa257610fa1613a5a565b5b602002602001019073ffffffffffffffffffffffffffffffffffffffff16908173ffffffffffffffffffffffffffffffffffffffff16815250503081600281518110610ff157610ff0613a5a565b5b602002602001019073ffffffffffffffffffffffffffffffffffffffff16908173ffffffffffffffffffffffffffffffffffffffff1681525050600061106e8483846040518060400160405280601581526020017f64656661756c743a76303a65746842756e646c65730000000000000000000000815250611ad2565b90506110b881600001516040518060400160405280601581526020017f64656661756c743a76303a65746842756e646c657300000000000000000000008152508560600151611bd8565b61111f81600001516040518060400160405280601e81526020017f64656661756c743a76303a65746842756e646c6553696d526573756c74730000815250856040015160405160200161110b9190613a89565b604051602081830303815290604052611bd8565b50505050565b61112d61211e565b6040518060400160405280611143600254611cbb565b815260200161115f600160025461115a9190613aa4565b611cd5565b815250905090565b60006001548260405160200161117d9190613b09565b60405160208183030381529060405280519060200120149050919050565b60606111a682611d0d565b9050919050565b6000815190505b6000811115611374576000826001836111cd9190613b24565b815181106111de576111dd613a5a565b5b602002602001015190506000600482815481106111fe576111fd613a5a565b5b906000526020600020906004020160000154905060016004805490506112249190613b24565b8210156112d7576004600160048054905061123f9190613b24565b815481106112505761124f613a5a565b5b90600052602060002090600402016004838154811061127257611271613a5a565b5b906000526020600020906004020160008201548160000155600182018160010190805461129e90613235565b6112a992919061213e565b5060028201548160020155600382015481600301906fffffffffffffffffffffffffffffffff191690559050505b60048054806112e9576112e8613b58565b5b600190038181906000526020600020906004020160008082016000905560018201600061131691906121cb565b60028201600090556003820160009055505090557f5fa4d8243d9549d33d615899224efcef51bfcacb970a31f68862ce74c858dbf081604051611359919061288f565b60405180910390a150508061136d90613b87565b90506111b4565b5050565b60606000808473ffffffffffffffffffffffffffffffffffffffff16846040516113a29190613be2565b6000604051808303816000865af19150503d80600081146113df576040519150601f19603f3d011682016040523d82523d6000602084013e6113e4565b606091505b5091509150611428826040518060400160405280601481526020017f45787465726e616c2063616c6c206661696c6564000000000000000000000000815250610c3c565b8080602001905181019061143c9190613c69565b9250505092915050565b6000808380602001905181019061145d9190613cdc565b915091507f91badfc611f9ad79e4d6a58176e5c4cedc4f8ed9001447825f503e792bbf09e282828560405161149493929190613d1c565b60405180910390a150505050565b60606114ea6114af610b74565b6040518060400160405280601081526020017f4e6f7420636f6e666964656e7469616c00000000000000000000000000000000815250610c3c565b6115316114f561028b565b156040518060400160405280601381526020017f416c726561647920696e697469616c697a656400000000000000000000000000815250610c3c565b600061153b6115ed565b9050600061154882611dd8565b9050600061156b838060200190518101906115639190613d6f565b600254611fb4565b905063bb7bae0a60e01b8183604051602401611588929190613d9c565b604051602081830303815290604052907bffffffffffffffffffffffffffffffffffffffffffffffffffffffff19166020820180517bffffffffffffffffffffffffffffffffffffffffffffffffffffffff8381831617835250505050935050505090565b6060600080634201000173ffffffffffffffffffffffffffffffffffffffff1660405160200160405160208183030381529060405260405161162f9190613be2565b600060405180830381855afa9150503d806000811461166a576040519150601f19603f3d011682016040523d82523d6000602084013e61166f565b606091505b5091509150816116bc576342010001816040517f75fff4670000000000000000000000000000000000000000000000000000000081526004016116b3929190613a08565b60405180910390fd5b809250505090565b6000806000634210000073ffffffffffffffffffffffffffffffffffffffff16846040516020016116f59190612854565b6040516020818303038152906040526040516117119190613be2565b600060405180830381855afa9150503d806000811461174c576040519150601f19603f3d011682016040523d82523d6000602084013e611751565b606091505b50915091508161179e576342100000816040517f75fff467000000000000000000000000000000000000000000000000000000008152600401611795929190613a08565b60405180910390fd5b808060200190518101906117b29190613dc5565b92505050919050565b600080600167ffffffffffffffff8111156117d9576117d86122ee565b5b6040519080825280602002602001820160405280156118075781602001602082028036833780820191505090505b509050308160008151811061181f5761181e613a5a565b5b602002602001019073ffffffffffffffffffffffffffffffffffffffff16908173ffffffffffffffffffffffffffffffffffffffff1681525050600061189d600083846040518060400160405280601881526020017f626c6f636b61643a76303a7061796d656e7442756e646c650000000000000000815250611ad2565b90506118e381600001516040518060400160405280601881526020017f626c6f636b61643a76303a7061796d656e7442756e646c65000000000000000081525086611bd8565b806000015192505050919050565b6060826118fd83611fee565b60405160200161190e929190613df2565b604051602081830303815290604052905092915050565b6060600080634202000173ffffffffffffffffffffffffffffffffffffffff168585604051602001611958929190613e16565b6040516020818303038152906040526040516119749190613be2565b600060405180830381855afa9150503d80600081146119af576040519150601f19603f3d011682016040523d82523d6000602084013e6119b4565b606091505b509150915081611a01576342020001816040517f75fff4670000000000000000000000000000000000000000000000000000000081526004016119f8929190613a08565b60405180910390fd5b809250505092915050565b600080600080634210000073ffffffffffffffffffffffffffffffffffffffff16614e2086604051602001611a419190612854565b604051602081830303815290604052604051611a5d9190613be2565b6000604051808303818686fa925050503d8060008114611a99576040519150601f19603f3d011682016040523d82523d6000602084013e611a9e565b606091505b50915091508115611aca57600181806020019051810190611abf9190613dc5565b935093505050611acd565b50505b915091565b611ada61220b565b600080634203000073ffffffffffffffffffffffffffffffffffffffff1687878787604051602001611b0f9493929190613ecc565b604051602081830303815290604052604051611b2b9190613be2565b600060405180830381855afa9150503d8060008114611b66576040519150601f19603f3d011682016040523d82523d6000602084013e611b6b565b606091505b509150915081611bb8576342030000816040517f75fff467000000000000000000000000000000000000000000000000000000008152600401611baf929190613a08565b60405180910390fd5b80806020019051810190611bcc9190614107565b92505050949350505050565b600080634202000073ffffffffffffffffffffffffffffffffffffffff16858585604051602001611c0b93929190614150565b604051602081830303815290604052604051611c279190613be2565b600060405180830381855afa9150503d8060008114611c62576040519150601f19603f3d011682016040523d82523d6000602084013e611c67565b606091505b509150915081611cb4576342020000816040517f75fff467000000000000000000000000000000000000000000000000000000008152600401611cab929190613a08565b60405180910390fd5b5050505050565b6000611cce611cc861204b565b836120ab565b9050919050565b6000611ce082611cbb565b604051602001611cf09190613b09565b604051602081830303815290604052805190602001209050919050565b606060208251611d1d91906141c4565b67ffffffffffffffff811115611d3657611d356122ee565b5b604051908082528060200260200182016040528015611d645781602001602082028036833780820191505090505b50905060005b60208351611d7891906141c4565b811015611dd257611da08360208084611d9191906141f5565b611d9b9190613aa4565b6120de565b828281518110611db357611db2613a5a565b5b6020026020010181815250508080611dca906131bd565b915050611d6a565b50919050565b600080600367ffffffffffffffff811115611df657611df56122ee565b5b604051908082528060200260200182016040528015611e245781602001602082028036833780820191505090505b5090503081600081518110611e3c57611e3b613a5a565b5b602002602001019073ffffffffffffffffffffffffffffffffffffffff16908173ffffffffffffffffffffffffffffffffffffffff1681525050634203000181600181518110611e8f57611e8e613a5a565b5b602002602001019073ffffffffffffffffffffffffffffffffffffffff16908173ffffffffffffffffffffffffffffffffffffffff1681525050634202000181600281518110611ee257611ee1613a5a565b5b602002602001019073ffffffffffffffffffffffffffffffffffffffff16908173ffffffffffffffffffffffffffffffffffffffff16815250506000611f60600083846040518060400160405280601181526020017f626c6f636b61643a76303a736563726574000000000000000000000000000000815250611ad2565b9050611fa681600001516040518060400160405280601181526020017f626c6f636b61643a76303a73656372657400000000000000000000000000000081525086611bd8565b806000015192505050919050565b6000611fc083836120ab565b604051602001611fd09190613b09565b60405160208183030381529060405280519060200120905092915050565b6060602067ffffffffffffffff81111561200b5761200a6122ee565b5b6040519080825280601f01601f19166020018201604052801561203d5781602001600182028036833780820191505090505b509050816020820152919050565b60008061208f6000546040518060400160405280601181526020017f626c6f636b61643a76303a736563726574000000000000000000000000000000815250611925565b9050808060200190518101906120a59190613d6f565b91505090565b600082826040516020016120c092919061424f565b60405160208183030381529060405280519060200120905092915050565b600081830151905092915050565b60405180608001604052806000815260200160608152602001600067ffffffffffffffff168152602001606081525090565b604051806040016040528060008019168152602001600080191681525090565b82805461214a90613235565b90600052602060002090601f01602090048101928261216c57600085556121ba565b82601f1061217d57805485556121ba565b828001600101855582156121ba57600052602060002091601f016020900482015b828111156121b957825482559160010191906001019061219e565b5b5090506121c79190612271565b5090565b5080546121d790613235565b6000825580601f106121e95750612208565b601f0160209004906000526020600020908101906122079190612271565b5b50565b6040518060c0016040528060006fffffffffffffffffffffffffffffffff1916815260200160006fffffffffffffffffffffffffffffffff19168152602001600067ffffffffffffffff1681526020016060815260200160608152602001606081525090565b5b8082111561228a576000816000905550600101612272565b5090565b60008115159050919050565b6122a38161228e565b82525050565b60006020820190506122be600083018461229a565b92915050565b6000604051905090565b600080fd5b600080fd5b600080fd5b6000601f19601f8301169050919050565b7f4e487b7100000000000000000000000000000000000000000000000000000000600052604160045260246000fd5b612326826122dd565b810181811067ffffffffffffffff82111715612345576123446122ee565b5b80604052505050565b60006123586122c4565b9050612364828261231d565b919050565b600080fd5b600067ffffffffffffffff82169050919050565b61238b8161236e565b811461239657600080fd5b50565b6000813590506123a881612382565b92915050565b600080fd5b600080fd5b600067ffffffffffffffff8211156123d3576123d26122ee565b5b6123dc826122dd565b9050602081019050919050565b82818337600083830152505050565b600061240b612406846123b8565b61234e565b905082815260208101848484011115612427576124266123b3565b5b6124328482856123e9565b509392505050565b600082601f83011261244f5761244e6123ae565b5b813561245f8482602086016123f8565b91505092915050565b6000819050919050565b61247b81612468565b811461248657600080fd5b50565b60008135905061249881612472565b92915050565b600073ffffffffffffffffffffffffffffffffffffffff82169050919050565b60006124c98261249e565b9050919050565b6124d9816124be565b81146124e457600080fd5b50565b6000813590506124f6816124d0565b92915050565b600067ffffffffffffffff821115612517576125166122ee565b5b602082029050602081019050919050565b600080fd5b600060808284031215612543576125426122d8565b5b61254d608061234e565b9050600061255d84828501612399565b600083015250602061257184828501612399565b6020830152506040612585848285016124e7565b604083015250606061259984828501612399565b60608301525092915050565b60006125b86125b3846124fc565b61234e565b905080838252602082019050608084028301858111156125db576125da612528565b5b835b8181101561260457806125f0888261252d565b8452602084019350506080810190506125dd565b5050509392505050565b600082601f830112612623576126226123ae565b5b81356126338482602086016125a5565b91505092915050565b60006101208284031215612653576126526122d8565b5b61265e61012061234e565b9050600061266e84828501612399565b600083015250602082013567ffffffffffffffff81111561269257612691612369565b5b61269e8482850161243a565b60208301525060406126b284828501612489565b60408301525060606126c684828501612399565b60608301525060806126da848285016124e7565b60808301525060a06126ee84828501612399565b60a08301525060c061270284828501612489565b60c08301525060e082013567ffffffffffffffff81111561272657612725612369565b5b6127328482850161260e565b60e08301525061010082013567ffffffffffffffff81111561275757612756612369565b5b6127638482850161243a565b6101008301525092915050565b60008060408385031215612787576127866122ce565b5b600083013567ffffffffffffffff8111156127a5576127a46122d3565b5b6127b18582860161263c565b92505060206127c285828601612399565b9150509250929050565b600081519050919050565b600082825260208201905092915050565b60005b838110156128065780820151818401526020810190506127eb565b83811115612815576000848401525b50505050565b6000612826826127cc565b61283081856127d7565b93506128408185602086016127e8565b612849816122dd565b840191505092915050565b6000602082019050818103600083015261286e818461281b565b905092915050565b6000819050919050565b61288981612876565b82525050565b60006020820190506128a46000830184612880565b92915050565b600080fd5b6000604082840312156128c5576128c46128aa565b5b81905092915050565b60008060008060a085870312156128e8576128e76122ce565b5b600085013567ffffffffffffffff811115612906576129056122d3565b5b6129128782880161243a565b945050602085013567ffffffffffffffff811115612933576129326122d3565b5b61293f8782880161243a565b935050604085013567ffffffffffffffff8111156129605761295f6122d3565b5b61296c8782880161243a565b925050606061297d878288016128af565b91505092959194509250565b61299281612876565b811461299d57600080fd5b50565b6000813590506129af81612989565b92915050565b6000602082840312156129cb576129ca6122ce565b5b60006129d9848285016129a0565b91505092915050565b600081519050919050565b600082825260208201905092915050565b6000612a09826129e2565b612a1381856129ed565b9350612a238185602086016127e8565b612a2c816122dd565b840191505092915050565b60007fffffffffffffffffffffffffffffffff0000000000000000000000000000000082169050919050565b6000612a6e82612a37565b9050919050565b612a7e81612a63565b82525050565b6000608082019050612a996000830187612880565b8181036020830152612aab81866129fe565b9050612aba6040830185612880565b612ac76060830184612a75565b95945050505050565b612ad981612a37565b8114612ae457600080fd5b50565b600081359050612af681612ad0565b92915050565b60008060408385031215612b1357612b126122ce565b5b6000612b2185828601612489565b9250506020612b3285828601612ae7565b9150509250929050565b600060c08284031215612b5257612b516128aa565b5b81905092915050565b600060208284031215612b7157612b706122ce565b5b600082013567ffffffffffffffff811115612b8f57612b8e6122d3565b5b612b9b84828501612b3c565b91505092915050565b6000819050919050565b6000612bc9612bc4612bbf8461249e565b612ba4565b61249e565b9050919050565b6000612bdb82612bae565b9050919050565b6000612bed82612bd0565b9050919050565b612bfd81612be2565b82525050565b6000602082019050612c186000830184612bf4565b92915050565b600060808284031215612c3457612c336128aa565b5b81905092915050565b60008060608385031215612c5457612c536122ce565b5b600083013567ffffffffffffffff811115612c7257612c716122d3565b5b612c7e85828601612c1e565b9250506020612c8f858286016128af565b9150509250929050565b600067ffffffffffffffff821115612cb457612cb36122ee565b5b612cbd826122dd565b9050602081019050919050565b6000612cdd612cd884612c99565b61234e565b905082815260208101848484011115612cf957612cf86123b3565b5b612d048482856123e9565b509392505050565b600082601f830112612d2157612d206123ae565b5b8135612d31848260208601612cca565b91505092915050565b60008060408385031215612d5157612d506122ce565b5b6000612d5f85828601612399565b925050602083013567ffffffffffffffff811115612d8057612d7f6122d3565b5b612d8c85828601612d0c565b9150509250929050565b612d9f8161236e565b82525050565b600082825260208201905092915050565b6000612dc1826127cc565b612dcb8185612da5565b9350612ddb8185602086016127e8565b612de4816122dd565b840191505092915050565b612df881612468565b82525050565b612e07816124be565b82525050565b600081519050919050565b600082825260208201905092915050565b6000819050602082019050919050565b608082016000820151612e4f6000850182612d96565b506020820151612e626020850182612d96565b506040820151612e756040850182612dfe565b506060820151612e886060850182612d96565b50505050565b6000612e9a8383612e39565b60808301905092915050565b6000602082019050919050565b6000612ebe82612e0d565b612ec88185612e18565b9350612ed383612e29565b8060005b83811015612f04578151612eeb8882612e8e565b9750612ef683612ea6565b925050600181019050612ed7565b5085935050505092915050565b600061012083016000830151612f2a6000860182612d96565b5060208301518482036020860152612f428282612db6565b9150506040830151612f576040860182612def565b506060830151612f6a6060860182612d96565b506080830151612f7d6080860182612dfe565b5060a0830151612f9060a0860182612d96565b5060c0830151612fa360c0860182612def565b5060e083015184820360e0860152612fbb8282612eb3565b915050610100830151848203610100860152612fd78282612db6565b9150508091505092915050565b612fed8161236e565b82525050565b6000604082019050818103600083015261300d8185612f11565b905061301c6020830184612fe4565b9392505050565b6000613036613031846123b8565b61234e565b905082815260208101848484011115613052576130516123b3565b5b61305d8482856127e8565b509392505050565b600082601f83011261307a576130796123ae565b5b815161308a848260208601613023565b91505092915050565b6000602082840312156130a9576130a86122ce565b5b600082015167ffffffffffffffff8111156130c7576130c66122d3565b5b6130d384828501613065565b91505092915050565b60006040820190506130f16000830185612880565b6130fe6020830184612fe4565b9392505050565b60408201600082015161311b6000850182612def565b50602082015161312e6020850182612def565b50505050565b600060a082019050818103600083015261314e818761281b565b90508181036020830152613162818661281b565b90508181036040830152613176818561281b565b90506131856060830184613105565b95945050505050565b7f4e487b7100000000000000000000000000000000000000000000000000000000600052601160045260246000fd5b60006131c882612876565b91507fffffffffffffffffffffffffffffffffffffffffffffffffffffffffffffffff8214156131fb576131fa61318e565b5b600182019050919050565b7f4e487b7100000000000000000000000000000000000000000000000000000000600052602260045260246000fd5b6000600282049050600182168061324d57607f821691505b6020821081141561326157613260613206565b5b50919050565b60006020828403121561327d5761327c6122ce565b5b600061328b84828501612399565b91505092915050565b600080fd5b600080fd5b600080fd5b600080833560016020038436030381126132c0576132bf613294565b5b80840192508235915067ffffffffffffffff8211156132e2576132e1613299565b5b6020830192506020820236038313156132fe576132fd61329e565b5b509250929050565b600082825260208201905092915050565b6000819050919050565b600061332d8383612dfe565b60208301905092915050565b600061334860208401846124e7565b905092915050565b6000602082019050919050565b60006133698385613306565b935061337482613317565b8060005b858110156133ad5761338a8284613339565b6133948882613321565b975061339f83613350565b925050600181019050613378565b5085925050509392505050565b60006060820190506133cf6000830187612a75565b6133dc6020830186612fe4565b81810360408301526133ef81848661335d565b905095945050505050565b6000813561340781612989565b80915050919050565b60008160001b9050919050565b60007fffffffffffffffffffffffffffffffffffffffffffffffffffffffffffffffff61344984613410565b9350801983169250808416831791505092915050565b600061347a61347561347084612876565b612ba4565b612876565b9050919050565b6000819050919050565b6134948261345f565b6134a76134a082613481565b835461341d565b8255505050565b600080833560016020038436030381126134cb576134ca613294565b5b80840192508235915067ffffffffffffffff8211156134ed576134ec613299565b5b6020830192506001820236038313156135095761350861329e565b5b509250929050565b600082905092915050565b60008190508160005260206000209050919050565b60006020601f8301049050919050565b600082821b905092915050565b60006008830261357e7fffffffffffffffffffffffffffffffffffffffffffffffffffffffffffffffff82613541565b6135888683613541565b95508019841693508086168417925050509392505050565b6135a98361345f565b6135bd6135b582613481565b84845461354e565b825550505050565b600090565b6135d26135c5565b6135dd8184846135a0565b505050565b5b81811015613601576135f66000826135ca565b6001810190506135e3565b5050565b601f821115613646576136178161351c565b61362084613531565b8101602085101561362f578190505b61364361363b85613531565b8301826135e2565b50505b505050565b600082821c905092915050565b60006136696000198460080261364b565b1980831691505092915050565b60006136828383613658565b9150826002028217905092915050565b61369c8383613511565b67ffffffffffffffff8111156136b5576136b46122ee565b5b6136bf8254613235565b6136ca828285613605565b6000601f8311600181146136f957600084156136e7578287013590505b6136f18582613676565b865550613759565b601f1984166137078661351c565b60005b8281101561372f5784890135825560018201915060208501945060208101905061370a565b8683101561374c5784890135613748601f891682613658565b8355505b6001600288020188555050505b50505050505050565b61376d838383613692565b505050565b6000813561377f81612ad0565b80915050919050565b6000819050919050565b61379b82612a63565b6137ae6137a782613788565b835461341d565b8255505050565b6000810160008301806137c7816133fa565b90506137d3818461348b565b50505060018101602083016137e881856134ae565b6137f3818386613762565b50505050600281016040830180613809816133fa565b9050613815818461348b565b50505060038101606083018061382a81613772565b90506138368184613792565b5050505050565b61384782826137b5565b5050565b600061385783856129ed565b93506138648385846123e9565b61386d836122dd565b840190509392505050565b600060608201905061388d6000830187612880565b81810360208301526138a081858761384b565b90506138af6040830184612880565b95945050505050565b6138c181612876565b82525050565b600082825260208201905092915050565b60006138e3826129e2565b6138ed81856138c7565b93506138fd8185602086016127e8565b613906816122dd565b840191505092915050565b61391a81612a63565b82525050565b600060808301600083015161393860008601826138b8565b506020830151848203602086015261395082826138d8565b915050604083015161396560408601826138b8565b5060608301516139786060860182613911565b508091505092915050565b6000606082019050818103600083015261399d8185613920565b90506139ac6020830184613105565b9392505050565b600081905092915050565b50565b60006139ce6000836139b3565b91506139d9826139be565b600082019050919050565b60006139ef826139c1565b9150819050919050565b613a02816124be565b82525050565b6000604082019050613a1d60008301856139f9565b8181036020830152613a2f818461281b565b90509392505050565b60006020820190508181036000830152613a5281846129fe565b905092915050565b7f4e487b7100000000000000000000000000000000000000000000000000000000600052603260045260246000fd5b6000602082019050613a9e6000830184612fe4565b92915050565b6000613aaf82612876565b9150613aba83612876565b9250827fffffffffffffffffffffffffffffffffffffffffffffffffffffffffffffffff03821115613aef57613aee61318e565b5b828201905092915050565b613b0381612468565b82525050565b6000602082019050613b1e6000830184613afa565b92915050565b6000613b2f82612876565b9150613b3a83612876565b925082821015613b4d57613b4c61318e565b5b828203905092915050565b7f4e487b7100000000000000000000000000000000000000000000000000000000600052603160045260246000fd5b6000613b9282612876565b91506000821415613ba657613ba561318e565b5b600182039050919050565b6000613bbc826127cc565b613bc681856139b3565b9350613bd68185602086016127e8565b80840191505092915050565b6000613bee8284613bb1565b915081905092915050565b6000613c0c613c0784612c99565b61234e565b905082815260208101848484011115613c2857613c276123b3565b5b613c338482856127e8565b509392505050565b600082601f830112613c5057613c4f6123ae565b5b8151613c60848260208601613bf9565b91505092915050565b600060208284031215613c7f57613c7e6122ce565b5b600082015167ffffffffffffffff811115613c9d57613c9c6122d3565b5b613ca984828501613c3b565b91505092915050565b600081519050613cc181612989565b92915050565b600081519050613cd681612382565b92915050565b60008060408385031215613cf357613cf26122ce565b5b6000613d0185828601613cb2565b9250506020613d1285828601613cc7565b9150509250929050565b6000606082019050613d316000830186612880565b613d3e6020830185612fe4565b8181036040830152613d5081846129fe565b9050949350505050565b600081519050613d6981612472565b92915050565b600060208284031215613d8557613d846122ce565b5b6000613d9384828501613d5a565b91505092915050565b6000604082019050613db16000830185613afa565b613dbe6020830184612a75565b9392505050565b600060208284031215613ddb57613dda6122ce565b5b6000613de984828501613cc7565b91505092915050565b6000613dfe8285613bb1565b9150613e0a8284613bb1565b91508190509392505050565b6000604082019050613e2b6000830185612a75565b8181036020830152613e3d81846129fe565b90509392505050565b600081519050919050565b6000819050602082019050919050565b6000602082019050919050565b6000613e7982613e46565b613e838185613306565b9350613e8e83613e51565b8060005b83811015613ebf578151613ea68882613321565b9750613eb183613e61565b925050600181019050613e92565b5085935050505092915050565b6000608082019050613ee16000830187612fe4565b8181036020830152613ef38186613e6e565b90508181036040830152613f078185613e6e565b90508181036060830152613f1b81846129fe565b905095945050505050565b600081519050613f3581612ad0565b92915050565b600067ffffffffffffffff821115613f5657613f556122ee565b5b602082029050602081019050919050565b600081519050613f76816124d0565b92915050565b6000613f8f613f8a84613f3b565b61234e565b90508083825260208201905060208402830185811115613fb257613fb1612528565b5b835b81811015613fdb5780613fc78882613f67565b845260208401935050602081019050613fb4565b5050509392505050565b600082601f830112613ffa57613ff96123ae565b5b815161400a848260208601613f7c565b91505092915050565b600060c08284031215614029576140286122d8565b5b61403360c061234e565b9050600061404384828501613f26565b600083015250602061405784828501613f26565b602083015250604061406b84828501613cc7565b604083015250606082015167ffffffffffffffff81111561408f5761408e612369565b5b61409b84828501613fe5565b606083015250608082015167ffffffffffffffff8111156140bf576140be612369565b5b6140cb84828501613fe5565b60808301525060a082015167ffffffffffffffff8111156140ef576140ee612369565b5b6140fb84828501613c3b565b60a08301525092915050565b60006020828403121561411d5761411c6122ce565b5b600082015167ffffffffffffffff81111561413b5761413a6122d3565b5b61414784828501614013565b91505092915050565b60006060820190506141656000830186612a75565b818103602083015261417781856129fe565b9050818103604083015261418b818461281b565b9050949350505050565b7f4e487b7100000000000000000000000000000000000000000000000000000000600052601260045260246000fd5b60006141cf82612876565b91506141da83612876565b9250826141ea576141e9614195565b5b828204905092915050565b600061420082612876565b915061420b83612876565b9250817fffffffffffffffffffffffffffffffffffffffffffffffffffffffffffffffff04831182151516156142445761424361318e565b5b828202905092915050565b60006040820190506142646000830185613afa565b6142716020830184612880565b939250505056fea2646970667358221220ac913f6142a02fac4dc6530a9626a04768e11731f9a8dd8c6cdbac4125ab33d264736f6c6343000808003360806040523480156200001157600080fd5b5060405162004373380380620043738339818101604052810190620000379190620002a4565b80600090805190602001906200004f92919062000057565b50506200035a565b828054620000659062000324565b90600052602060002090601f016020900481019282620000895760008555620000d5565b82601f10620000a457805160ff1916838001178555620000d5565b82800160010185558215620000d5579182015b82811115620000d4578251825591602001919060010190620000b7565b5b509050620000e49190620000e8565b5090565b5b8082111562000103576000816000905550600101620000e9565b5090565b6000604051905090565b600080fd5b600080fd5b600080fd5b600080fd5b6000601f19601f8301169050919050565b7f4e487b7100000000000000000000000000000000000000000000000000000000600052604160045260246000fd5b620001708262000125565b810181811067ffffffffffffffff8211171562000192576200019162000136565b5b80604052505050565b6000620001a762000107565b9050620001b5828262000165565b919050565b600067ffffffffffffffff821115620001d857620001d762000136565b5b620001e38262000125565b9050602081019050919050565b60005b8381101562000210578082015181840152602081019050620001f3565b8381111562000220576000848401525b50505050565b60006200023d6200023784620001ba565b6200019b565b9050828152602081018484840111156200025c576200025b62000120565b5b62000269848285620001f0565b509392505050565b600082601f8301126200028957620002886200011b565b5b81516200029b84826020860162000226565b91505092915050565b600060208284031215620002bd57620002bc62000111565b5b600082015167ffffffffffffffff811115620002de57620002dd62000116565b5b620002ec8482850162000271565b91505092915050565b7f4e487b7100000000000000000000000000000000000000000000000000000000600052602260045260246000fd5b600060028204905060018216806200033d57607f821691505b60208210811415620003545762000353620002f5565b5b50919050565b614009806200036a6000396000f3fe608060405234801561001057600080fd5b50600436106100b45760003560e01c806392f07a581161007157806392f07a58146101da578063b33e4715146101f8578063c0b9d28714610229578063d503387a14610245578063e48c31e014610275578063e829cd5d146102a5576100b4565b8063232ef1f4146100b9578063346ab175146100ea578063464b0c3a1461011a5780636a9cc4b31461014a57806373e9710f1461017a5780637df1cde2146101aa575b600080fd5b6100d360048036038101906100ce9190612533565b6102d5565b6040516100e1929190612850565b60405180910390f35b61010460048036038101906100ff9190612887565b6104e4565b60405161011191906128e3565b60405180910390f35b610134600480360381019061012f9190612533565b61090e565b60405161014191906128e3565b60405180910390f35b610164600480360381019061015f919061293b565b610ab0565b60405161017191906129e1565b60405180910390f35b610194600480360381019061018f9190612a03565b610b52565b6040516101a191906128e3565b60405180910390f35b6101c460048036038101906101bf9190612a30565b610c45565b6040516101d191906128e3565b60405180910390f35b6101e2610ca5565b6040516101ef91906128e3565b60405180910390f35b610212600480360381019061020d9190612c43565b610cde565b604051610220929190612850565b60405180910390f35b610243600480360381019061023e9190612cdf565b610d79565b005b61025f600480360381019061025a9190612887565b610df0565b60405161026c91906128e3565b60405180910390f35b61028f600480360381019061028a9190612d28565b61143d565b60405161029c91906129e1565b60405180910390f35b6102bf60048036038101906102ba9190612d84565b61147f565b6040516102cc9190612ddf565b60405180910390f35b6102dd611e2e565b60606000600267ffffffffffffffff8111156102fc576102fb611ef5565b5b60405190808252806020026020018201604052801561032a5781602001602082028036833780820191505090505b509050308160008151811061034257610341612dfa565b5b602002602001019073ffffffffffffffffffffffffffffffffffffffff16908173ffffffffffffffffffffffffffffffffffffffff168152505063421000018160018151811061039557610394612dfa565b5b602002602001019073ffffffffffffffffffffffffffffffffffffffff16908173ffffffffffffffffffffffffffffffffffffffff168152505060006104128783846040518060400160405280601581526020017f64656661756c743a76303a6d6572676564426964730000000000000000000000815250611586565b905061047781600001516040518060400160405280601581526020017f64656661756c743a76303a6d6572676564426964730000000000000000000000815250886040516020016104639190612ed8565b60405160208183030381529060405261168c565b6000806104898a84600001518961176f565b915091506104d183600001516040518060400160405280601981526020017f64656661756c743a76303a6275696c6465725061796c6f6164000000000000008152508361168c565b8282955095505050505094509492505050565b60606104ee611870565b6104f757600080fd5b6000610538836040518060400160405280601581526020017f64656661756c743a76303a65746842756e646c65730000000000000000000000815250611938565b905060008151141561058157306040517f75fff4670000000000000000000000000000000000000000000000000000000081526004016105789190612f55565b60405180910390fd5b6000815167ffffffffffffffff81111561059e5761059d611ef5565b5b6040519080825280602002602001820160405280156105d757816020015b6105c4611e94565b8152602001906001900390816105bc5790505b50905060005b82518110156106e25760006106458483815181106105fe576105fd612dfa565b5b6020026020010151600001516040518060400160405280601e81526020017f64656661756c743a76303a65746842756e646c6553696d526573756c74730000815250611a32565b905060008180602001905181019061065d9190612f98565b905060405180604001604052808267ffffffffffffffff16815260200186858151811061068d5761068c612dfa565b5b6020026020010151600001516fffffffffffffffffffffffffffffffff19168152508484815181106106c2576106c1612dfa565b5b6020026020010181905250505080806106da90612ff4565b9150506105dd565b5060008151905060005b6001826106f9919061303d565b81101561081257600060018261070f9190613071565b90505b828110156107fe5783818151811061072d5761072c612dfa565b5b60200260200101516000015167ffffffffffffffff1684838151811061075657610755612dfa565b5b60200260200101516000015167ffffffffffffffff1610156107eb57600084838151811061078757610786612dfa565b5b602002602001015190508482815181106107a4576107a3612dfa565b5b60200260200101518584815181106107bf576107be612dfa565b5b6020026020010181905250808583815181106107de576107dd612dfa565b5b6020026020010181905250505b80806107f690612ff4565b915050610712565b50808061080a90612ff4565b9150506106ec565b506000835167ffffffffffffffff8111156108305761082f611ef5565b5b60405190808252806020026020018201604052801561085e5781602001602082028036833780820191505090505b50905060005b83518110156108e6578381815181106108805761087f612dfa565b5b60200260200101516020015182828151811061089f5761089e612dfa565b5b60200260200101906fffffffffffffffffffffffffffffffff191690816fffffffffffffffffffffffffffffffff19168152505080806108de90612ff4565b915050610864565b506109028787836040518060200160405280600081525061090e565b94505050505092915050565b606061095661091b611870565b6040518060400160405280601081526020017f4e6f7420636f6e666964656e7469616c00000000000000000000000000000000815250611b19565b6000803073ffffffffffffffffffffffffffffffffffffffff1663232ef1f4888888886040518563ffffffff1660e01b81526004016109989493929190613306565b60006040518083038186803b1580156109b057600080fd5b505afa1580156109c4573d6000803e3d6000fd5b505050506040513d6000823e3d601f19601f820116820180604052508101906109ed91906135f5565b915091506109ff826000015182611b5f565b610a0881611c41565b6000610a2282896000015167ffffffffffffffff16610ab0565b905063e48c31e060e01b818380519060200120604051602401610a4692919061367c565b604051602081830303815290604052907bffffffffffffffffffffffffffffffffffffffffffffffffffffffff19166020820180517bffffffffffffffffffffffffffffffffffffffffffffffffffffffff83818316178352505050509350505050949350505050565b60606000604090506000610ac384611d1d565b6079610acf9190613071565b905060008267ffffffffffffffff811115610aed57610aec611ef5565b5b6040519080825280601f01601f191660200182016040528015610b1f5781602001600182028036833780820191505090505b50905060205b60208401811015610b455780830187015181830152602081019050610b25565b5080935050505092915050565b6060610b9a610b5f611870565b6040518060400160405280601081526020017f4e6f7420636f6e666964656e7469616c00000000000000000000000000000000815250611b19565b6000610ba4611d57565b9050610baf81611c41565b6000610bbb8285610ab0565b905063e48c31e060e01b818380519060200120604051602401610bdf92919061367c565b604051602081830303815290604052907bffffffffffffffffffffffffffffffffffffffffffffffffffffffff19166020820180517bffffffffffffffffffffffffffffffffffffffffffffffffffffffff838183161783525050505092505050919050565b6060610c4f611870565b610c5857600080fd5b6000610c99846040518060400160405280601981526020017f64656661756c743a76303a6275696c6465725061796c6f616400000000000000815250611a32565b90508091505092915050565b6060610caf611870565b610cb857600080fd5b6000610cc2611d57565b905080806020019051810190610cd891906136ac565b91505090565b610ce6611e2e565b60607f67fa9c16cd72410c4cc1d47205b31852a81ec5e92d1c8cebc3ecbe98ed67fe3f846000015184604051610d1d929190613704565b60405180910390a17f83481d5b04dea534715acad673a8177a46fc93882760f36bdc16ccac439d504e846000015185604001518660600151604051610d64939291906137a3565b60405180910390a18383915091509250929050565b7f83481d5b04dea534715acad673a8177a46fc93882760f36bdc16ccac439d504e81600001356fffffffffffffffffffffffffffffffff1916826040016020810190610dc591906137e1565b838060600190610dd5919061381d565b604051610de5949392919061390b565b60405180910390a150565b6060610dfa611870565b610e0357600080fd5b6000610e44836040518060400160405280601581526020017f6d657673686172653a76303a6d61746368426964730000000000000000000000815250611938565b90506000610e87846040518060400160405280601c81526020017f6d657673686172653a76303a756e6d61746368656442756e646c657300000000815250611938565b9050600081511415610ed057306040517f75fff467000000000000000000000000000000000000000000000000000000008152600401610ec79190612f55565b60405180910390fd5b6000815167ffffffffffffffff811115610eed57610eec611ef5565b5b604051908082528060200260200182016040528015610f2657816020015b610f13611e2e565b815260200190600190039081610f0b5790505b50905060005b8251811015611087576000838281518110610f4a57610f49612dfa565b5b6020026020010151905060005b8551811015611053576000610fbf878381518110610f7857610f77612dfa565b5b6020026020010151600001516040518060400160405280601681526020017f6d657673686172653a76303a6d65726765644269647300000000000000000000815250611a32565b806020019051810190610fd291906139e2565b905061101781600081518110610feb57610fea612dfa565b5b602002602001015187868151811061100657611005612dfa565b5b60200260200101516000015161147f565b1561103f5786828151811061102f5761102e612dfa565b5b6020026020010151925050611053565b50808061104b90612ff4565b915050610f57565b508083838151811061106857611067612dfa565b5b602002602001018190525050808061107f90612ff4565b915050610f2c565b506000815167ffffffffffffffff8111156110a5576110a4611ef5565b5b6040519080825280602002602001820160405280156110de57816020015b6110cb611e94565b8152602001906001900390816110c35790505b50905060005b82518110156111e957600061114c84838151811061110557611104612dfa565b5b6020026020010151600001516040518060400160405280601f81526020017f6d657673686172653a76303a65746842756e646c6553696d526573756c747300815250611a32565b90506000818060200190518101906111649190612f98565b905060405180604001604052808267ffffffffffffffff16815260200186858151811061119457611193612dfa565b5b6020026020010151600001516fffffffffffffffffffffffffffffffff19168152508484815181106111c9576111c8612dfa565b5b6020026020010181905250505080806111e190612ff4565b9150506110e4565b5060008151905060005b600182611200919061303d565b8110156113195760006001826112169190613071565b90505b828110156113055783818151811061123457611233612dfa565b5b60200260200101516000015167ffffffffffffffff1684838151811061125d5761125c612dfa565b5b60200260200101516000015167ffffffffffffffff1610156112f257600084838151811061128e5761128d612dfa565b5b602002602001015190508482815181106112ab576112aa612dfa565b5b60200260200101518584815181106112c6576112c5612dfa565b5b6020026020010181905250808583815181106112e5576112e4612dfa565b5b6020026020010181905250505b80806112fd90612ff4565b915050611219565b50808061131190612ff4565b9150506111f3565b506000835167ffffffffffffffff81111561133757611336611ef5565b5b6040519080825280602002602001820160405280156113655781602001602082028036833780820191505090505b50905060005b83518110156113ed5783818151811061138757611386612dfa565b5b6020026020010151602001518282815181106113a6576113a5612dfa565b5b60200260200101906fffffffffffffffffffffffffffffffff191690816fffffffffffffffffffffffffffffffff19168152505080806113e590612ff4565b91505061136b565b5061142f8989836040518060400160405280600b81526020017f6d657673686172653a763000000000000000000000000000000000000000000081525061090e565b965050505050505092915050565b60607f53e8ee078f2cd7d535018fdc18210ac92e4b70ee40542d1a43816dba5faae1698260405161146e9190613a2b565b60405180910390a182905092915050565b600080836040516020016114939190613a67565b60405160208183030381529060405290506000836040516020016114b79190613a67565b604051602081830303815290604052905060005b8251811015611578578181815181106114e7576114e6612dfa565b5b602001015160f81c60f81b7effffffffffffffffffffffffffffffffffffffffffffffffffffffffffffff191683828151811061152757611526612dfa565b5b602001015160f81c60f81b7effffffffffffffffffffffffffffffffffffffffffffffffffffffffffffff1916146115655760009350505050611580565b808061157090612ff4565b9150506114cb565b506001925050505b92915050565b61158e611e2e565b600080634203000073ffffffffffffffffffffffffffffffffffffffff16878787876040516020016115c39493929190613a82565b6040516020818303038152906040526040516115df9190613b18565b600060405180830381855afa9150503d806000811461161a576040519150601f19603f3d011682016040523d82523d6000602084013e61161f565b606091505b50915091508161166c576342030000816040517f75fff467000000000000000000000000000000000000000000000000000000008152600401611663929190613b2f565b60405180910390fd5b808060200190518101906116809190613b5f565b92505050949350505050565b600080634202000073ffffffffffffffffffffffffffffffffffffffff168585856040516020016116bf93929190613ba8565b6040516020818303038152906040526040516116db9190613b18565b600060405180830381855afa9150503d8060008114611716576040519150601f19603f3d011682016040523d82523d6000602084013e61171b565b606091505b509150915081611768576342020000816040517f75fff46700000000000000000000000000000000000000000000000000000000815260040161175f929190613b2f565b60405180910390fd5b5050505050565b606080600080634210000173ffffffffffffffffffffffffffffffffffffffff168787876040516020016117a593929190613bed565b6040516020818303038152906040526040516117c19190613b18565b600060405180830381855afa9150503d80600081146117fc576040519150601f19603f3d011682016040523d82523d6000602084013e611801565b606091505b50915091508161184e576342100001816040517f75fff467000000000000000000000000000000000000000000000000000000008152600401611845929190613b2f565b60405180910390fd5b808060200190518101906118629190613c32565b935093505050935093915050565b6000806000634201000073ffffffffffffffffffffffffffffffffffffffff1660405161189c90613cd0565b600060405180830381855afa9150503d80600081146118d7576040519150601f19603f3d011682016040523d82523d6000602084013e6118dc565b606091505b509150915081611929576342010000816040517f75fff467000000000000000000000000000000000000000000000000000000008152600401611920929190613b2f565b60405180910390fd5b80516020820151935050505090565b6060600080634203000173ffffffffffffffffffffffffffffffffffffffff16858560405160200161196b929190613ce5565b6040516020818303038152906040526040516119879190613b18565b600060405180830381855afa9150503d80600081146119c2576040519150601f19603f3d011682016040523d82523d6000602084013e6119c7565b606091505b509150915081611a14576342030001816040517f75fff467000000000000000000000000000000000000000000000000000000008152600401611a0b929190613b2f565b60405180910390fd5b80806020019051810190611a289190613df6565b9250505092915050565b6060600080634202000173ffffffffffffffffffffffffffffffffffffffff168585604051602001611a65929190613e3f565b604051602081830303815290604052604051611a819190613b18565b600060405180830381855afa9150503d8060008114611abc576040519150601f19603f3d011682016040523d82523d6000602084013e611ac1565b606091505b509150915081611b0e576342020001816040517f75fff467000000000000000000000000000000000000000000000000000000008152600401611b05929190613b2f565b60405180910390fd5b809250505092915050565b81611b5b57806040517f0c25cd98000000000000000000000000000000000000000000000000000000008152600401611b5291906129e1565b60405180910390fd5b5050565b6000600167ffffffffffffffff811115611b7c57611b7b611ef5565b5b604051908082528060200260200182016040528015611baa5781602001602082028036833780820191505090505b5090503081600081518110611bc257611bc1612dfa565b5b602002602001019073ffffffffffffffffffffffffffffffffffffffff16908173ffffffffffffffffffffffffffffffffffffffff1681525050611c3c836040518060400160405280601581526020017f626c6f636b61643a76303a6275696c64657242696400000000000000000000008152508461168c565b505050565b600080634210000273ffffffffffffffffffffffffffffffffffffffff16600084604051602001611c73929190613f65565b604051602081830303815290604052604051611c8f9190613b18565b600060405180830381855afa9150503d8060008114611cca576040519150601f19603f3d011682016040523d82523d6000602084013e611ccf565b606091505b509150915081611d185780836040517fda3e641f000000000000000000000000000000000000000000000000000000008152600401611d0f929190613f9c565b60405180910390fd5b505050565b6000600a5b600115611d515760018201915080831060018114611d3f57611d45565b50611d51565b50600a81029050611d22565b50919050565b6060600080634201000173ffffffffffffffffffffffffffffffffffffffff16604051602001604051602081830303815290604052604051611d999190613b18565b600060405180830381855afa9150503d8060008114611dd4576040519150601f19603f3d011682016040523d82523d6000602084013e611dd9565b606091505b509150915081611e26576342010001816040517f75fff467000000000000000000000000000000000000000000000000000000008152600401611e1d929190613b2f565b60405180910390fd5b809250505090565b6040518060c0016040528060006fffffffffffffffffffffffffffffffff1916815260200160006fffffffffffffffffffffffffffffffff19168152602001600067ffffffffffffffff1681526020016060815260200160608152602001606081525090565b6040518060400160405280600067ffffffffffffffff16815260200160006fffffffffffffffffffffffffffffffff191681525090565b6000604051905090565b600080fd5b600080fd5b600080fd5b6000601f19601f8301169050919050565b7f4e487b7100000000000000000000000000000000000000000000000000000000600052604160045260246000fd5b611f2d82611ee4565b810181811067ffffffffffffffff82111715611f4c57611f4b611ef5565b5b80604052505050565b6000611f5f611ecb565b9050611f6b8282611f24565b919050565b600080fd5b600067ffffffffffffffff82169050919050565b611f9281611f75565b8114611f9d57600080fd5b50565b600081359050611faf81611f89565b92915050565b600080fd5b600080fd5b600067ffffffffffffffff821115611fda57611fd9611ef5565b5b611fe382611ee4565b9050602081019050919050565b82818337600083830152505050565b600061201261200d84611fbf565b611f55565b90508281526020810184848401111561202e5761202d611fba565b5b612039848285611ff0565b509392505050565b600082601f83011261205657612055611fb5565b5b8135612066848260208601611fff565b91505092915050565b6000819050919050565b6120828161206f565b811461208d57600080fd5b50565b60008135905061209f81612079565b92915050565b600073ffffffffffffffffffffffffffffffffffffffff82169050919050565b60006120d0826120a5565b9050919050565b6120e0816120c5565b81146120eb57600080fd5b50565b6000813590506120fd816120d7565b92915050565b600067ffffffffffffffff82111561211e5761211d611ef5565b5b602082029050602081019050919050565b600080fd5b60006080828403121561214a57612149611edf565b5b6121546080611f55565b9050600061216484828501611fa0565b600083015250602061217884828501611fa0565b602083015250604061218c848285016120ee565b60408301525060606121a084828501611fa0565b60608301525092915050565b60006121bf6121ba84612103565b611f55565b905080838252602082019050608084028301858111156121e2576121e161212f565b5b835b8181101561220b57806121f78882612134565b8452602084019350506080810190506121e4565b5050509392505050565b600082601f83011261222a57612229611fb5565b5b813561223a8482602086016121ac565b91505092915050565b6000610120828403121561225a57612259611edf565b5b612265610120611f55565b9050600061227584828501611fa0565b600083015250602082013567ffffffffffffffff81111561229957612298611f70565b5b6122a584828501612041565b60208301525060406122b984828501612090565b60408301525060606122cd84828501611fa0565b60608301525060806122e1848285016120ee565b60808301525060a06122f584828501611fa0565b60a08301525060c061230984828501612090565b60c08301525060e082013567ffffffffffffffff81111561232d5761232c611f70565b5b61233984828501612215565b60e08301525061010082013567ffffffffffffffff81111561235e5761235d611f70565b5b61236a84828501612041565b6101008301525092915050565b600067ffffffffffffffff82111561239257612391611ef5565b5b602082029050602081019050919050565b60007fffffffffffffffffffffffffffffffff0000000000000000000000000000000082169050919050565b6123d8816123a3565b81146123e357600080fd5b50565b6000813590506123f5816123cf565b92915050565b600061240e61240984612377565b611f55565b905080838252602082019050602084028301858111156124315761243061212f565b5b835b8181101561245a578061244688826123e6565b845260208401935050602081019050612433565b5050509392505050565b600082601f83011261247957612478611fb5565b5b81356124898482602086016123fb565b91505092915050565b600067ffffffffffffffff8211156124ad576124ac611ef5565b5b6124b682611ee4565b9050602081019050919050565b60006124d66124d184612492565b611f55565b9050828152602081018484840111156124f2576124f1611fba565b5b6124fd848285611ff0565b509392505050565b600082601f83011261251a57612519611fb5565b5b813561252a8482602086016124c3565b91505092915050565b6000806000806080858703121561254d5761254c611ed5565b5b600085013567ffffffffffffffff81111561256b5761256a611eda565b5b61257787828801612243565b945050602061258887828801611fa0565b935050604085013567ffffffffffffffff8111156125a9576125a8611eda565b5b6125b587828801612464565b925050606085013567ffffffffffffffff8111156125d6576125d5611eda565b5b6125e287828801612505565b91505092959194509250565b60006125f9826123a3565b9050919050565b612609816125ee565b82525050565b61261881611f75565b82525050565b600081519050919050565b600082825260208201905092915050565b6000819050602082019050919050565b612653816120c5565b82525050565b6000612665838361264a565b60208301905092915050565b6000602082019050919050565b60006126898261261e565b6126938185612629565b935061269e8361263a565b8060005b838110156126cf5781516126b68882612659565b97506126c183612671565b9250506001810190506126a2565b5085935050505092915050565b600081519050919050565b600082825260208201905092915050565b60005b838110156127165780820151818401526020810190506126fb565b83811115612725576000848401525b50505050565b6000612736826126dc565b61274081856126e7565b93506127508185602086016126f8565b61275981611ee4565b840191505092915050565b600060c08301600083015161277c6000860182612600565b50602083015161278f6020860182612600565b5060408301516127a2604086018261260f565b50606083015184820360608601526127ba828261267e565b915050608083015184820360808601526127d4828261267e565b91505060a083015184820360a08601526127ee828261272b565b9150508091505092915050565b600081519050919050565b600082825260208201905092915050565b6000612822826127fb565b61282c8185612806565b935061283c8185602086016126f8565b61284581611ee4565b840191505092915050565b6000604082019050818103600083015261286a8185612764565b9050818103602083015261287e8184612817565b90509392505050565b6000806040838503121561289e5761289d611ed5565b5b600083013567ffffffffffffffff8111156128bc576128bb611eda565b5b6128c885828601612243565b92505060206128d985828601611fa0565b9150509250929050565b600060208201905081810360008301526128fd8184612817565b905092915050565b6000819050919050565b61291881612905565b811461292357600080fd5b50565b6000813590506129358161290f565b92915050565b6000806040838503121561295257612951611ed5565b5b600083013567ffffffffffffffff8111156129705761296f611eda565b5b61297c85828601612041565b925050602061298d85828601612926565b9150509250929050565b600082825260208201905092915050565b60006129b3826126dc565b6129bd8185612997565b93506129cd8185602086016126f8565b6129d681611ee4565b840191505092915050565b600060208201905081810360008301526129fb81846129a8565b905092915050565b600060208284031215612a1957612a18611ed5565b5b6000612a2784828501612926565b91505092915050565b60008060408385031215612a4757612a46611ed5565b5b6000612a55858286016123e6565b925050602083013567ffffffffffffffff811115612a7657612a75611eda565b5b612a8285828601612041565b9150509250929050565b600067ffffffffffffffff821115612aa757612aa6611ef5565b5b602082029050602081019050919050565b6000612acb612ac684612a8c565b611f55565b90508083825260208201905060208402830185811115612aee57612aed61212f565b5b835b81811015612b175780612b0388826120ee565b845260208401935050602081019050612af0565b5050509392505050565b600082601f830112612b3657612b35611fb5565b5b8135612b46848260208601612ab8565b91505092915050565b600060c08284031215612b6557612b64611edf565b5b612b6f60c0611f55565b90506000612b7f848285016123e6565b6000830152506020612b93848285016123e6565b6020830152506040612ba784828501611fa0565b604083015250606082013567ffffffffffffffff811115612bcb57612bca611f70565b5b612bd784828501612b21565b606083015250608082013567ffffffffffffffff811115612bfb57612bfa611f70565b5b612c0784828501612b21565b60808301525060a082013567ffffffffffffffff811115612c2b57612c2a611f70565b5b612c3784828501612505565b60a08301525092915050565b60008060408385031215612c5a57612c59611ed5565b5b600083013567ffffffffffffffff811115612c7857612c77611eda565b5b612c8485828601612b4f565b925050602083013567ffffffffffffffff811115612ca557612ca4611eda565b5b612cb185828601612041565b9150509250929050565b600080fd5b600060c08284031215612cd657612cd5612cbb565b5b81905092915050565b600060208284031215612cf557612cf4611ed5565b5b600082013567ffffffffffffffff811115612d1357612d12611eda565b5b612d1f84828501612cc0565b91505092915050565b60008060408385031215612d3f57612d3e611ed5565b5b600083013567ffffffffffffffff811115612d5d57612d5c611eda565b5b612d6985828601612505565b9250506020612d7a85828601612090565b9150509250929050565b60008060408385031215612d9b57612d9a611ed5565b5b6000612da9858286016123e6565b9250506020612dba858286016123e6565b9150509250929050565b60008115159050919050565b612dd981612dc4565b82525050565b6000602082019050612df46000830184612dd0565b92915050565b7f4e487b7100000000000000000000000000000000000000000000000000000000600052603260045260246000fd5b600081519050919050565b600082825260208201905092915050565b6000819050602082019050919050565b6000612e618383612600565b60208301905092915050565b6000602082019050919050565b6000612e8582612e29565b612e8f8185612e34565b9350612e9a83612e45565b8060005b83811015612ecb578151612eb28882612e55565b9750612ebd83612e6d565b925050600181019050612e9e565b5085935050505092915050565b60006020820190508181036000830152612ef28184612e7a565b905092915050565b612f03816120c5565b82525050565b7f6e6f206269647300000000000000000000000000000000000000000000000000600082015250565b6000612f3f600783612806565b9150612f4a82612f09565b602082019050919050565b6000604082019050612f6a6000830184612efa565b8181036020830152612f7b81612f32565b905092915050565b600081519050612f9281611f89565b92915050565b600060208284031215612fae57612fad611ed5565b5b6000612fbc84828501612f83565b91505092915050565b7f4e487b7100000000000000000000000000000000000000000000000000000000600052601160045260246000fd5b6000612fff82612905565b91507fffffffffffffffffffffffffffffffffffffffffffffffffffffffffffffffff82141561303257613031612fc5565b5b600182019050919050565b600061304882612905565b915061305383612905565b92508282101561306657613065612fc5565b5b828203905092915050565b600061307c82612905565b915061308783612905565b9250827fffffffffffffffffffffffffffffffffffffffffffffffffffffffffffffffff038211156130bc576130bb612fc5565b5b828201905092915050565b600082825260208201905092915050565b60006130e3826127fb565b6130ed81856130c7565b93506130fd8185602086016126f8565b61310681611ee4565b840191505092915050565b61311a8161206f565b82525050565b600081519050919050565b600082825260208201905092915050565b6000819050602082019050919050565b608082016000820151613162600085018261260f565b506020820151613175602085018261260f565b506040820151613188604085018261264a565b50606082015161319b606085018261260f565b50505050565b60006131ad838361314c565b60808301905092915050565b6000602082019050919050565b60006131d182613120565b6131db818561312b565b93506131e68361313c565b8060005b838110156132175781516131fe88826131a1565b9750613209836131b9565b9250506001810190506131ea565b5085935050505092915050565b60006101208301600083015161323d600086018261260f565b506020830151848203602086015261325582826130d8565b915050604083015161326a6040860182613111565b50606083015161327d606086018261260f565b506080830151613290608086018261264a565b5060a08301516132a360a086018261260f565b5060c08301516132b660c0860182613111565b5060e083015184820360e08601526132ce82826131c6565b9150506101008301518482036101008601526132ea82826130d8565b9150508091505092915050565b61330081611f75565b82525050565b600060808201905081810360008301526133208187613224565b905061332f60208301866132f7565b81810360408301526133418185612e7a565b9050818103606083015261335581846129a8565b905095945050505050565b60008151905061336f816123cf565b92915050565b600081519050613384816120d7565b92915050565b600061339d61339884612a8c565b611f55565b905080838252602082019050602084028301858111156133c0576133bf61212f565b5b835b818110156133e957806133d58882613375565b8452602084019350506020810190506133c2565b5050509392505050565b600082601f83011261340857613407611fb5565b5b815161341884826020860161338a565b91505092915050565b600061343461342f84612492565b611f55565b9050828152602081018484840111156134505761344f611fba565b5b61345b8482856126f8565b509392505050565b600082601f83011261347857613477611fb5565b5b8151613488848260208601613421565b91505092915050565b600060c082840312156134a7576134a6611edf565b5b6134b160c0611f55565b905060006134c184828501613360565b60008301525060206134d584828501613360565b60208301525060406134e984828501612f83565b604083015250606082015167ffffffffffffffff81111561350d5761350c611f70565b5b613519848285016133f3565b606083015250608082015167ffffffffffffffff81111561353d5761353c611f70565b5b613549848285016133f3565b60808301525060a082015167ffffffffffffffff81111561356d5761356c611f70565b5b61357984828501613463565b60a08301525092915050565b600061359861359384611fbf565b611f55565b9050828152602081018484840111156135b4576135b3611fba565b5b6135bf8482856126f8565b509392505050565b600082601f8301126135dc576135db611fb5565b5b81516135ec848260208601613585565b91505092915050565b6000806040838503121561360c5761360b611ed5565b5b600083015167ffffffffffffffff81111561362a57613629611eda565b5b61363685828601613491565b925050602083015167ffffffffffffffff81111561365757613656611eda565b5b613663858286016135c7565b9150509250929050565b6136768161206f565b82525050565b6000604082019050818103600083015261369681856129a8565b90506136a5602083018461366d565b9392505050565b6000602082840312156136c2576136c1611ed5565b5b600082015167ffffffffffffffff8111156136e0576136df611eda565b5b6136ec848285016135c7565b91505092915050565b6136fe816125ee565b82525050565b600060408201905061371960008301856136f5565b818103602083015261372b8184612817565b90509392505050565b600082825260208201905092915050565b60006137508261261e565b61375a8185613734565b93506137658361263a565b8060005b8381101561379657815161377d8882612659565b975061378883612671565b925050600181019050613769565b5085935050505092915050565b60006060820190506137b860008301866136f5565b6137c560208301856132f7565b81810360408301526137d78184613745565b9050949350505050565b6000602082840312156137f7576137f6611ed5565b5b600061380584828501611fa0565b91505092915050565b600080fd5b600080fd5b600080fd5b6000808335600160200384360303811261383a5761383961380e565b5b80840192508235915067ffffffffffffffff82111561385c5761385b613813565b5b60208301925060208202360383131561387857613877613818565b5b509250929050565b6000819050919050565b600061389960208401846120ee565b905092915050565b6000602082019050919050565b60006138ba8385613734565b93506138c582613880565b8060005b858110156138fe576138db828461388a565b6138e58882612659565b97506138f0836138a1565b9250506001810190506138c9565b5085925050509392505050565b600060608201905061392060008301876136f5565b61392d60208301866132f7565b81810360408301526139408184866138ae565b905095945050505050565b600061395e61395984612377565b611f55565b905080838252602082019050602084028301858111156139815761398061212f565b5b835b818110156139aa57806139968882613360565b845260208401935050602081019050613983565b5050509392505050565b600082601f8301126139c9576139c8611fb5565b5b81516139d984826020860161394b565b91505092915050565b6000602082840312156139f8576139f7611ed5565b5b600082015167ffffffffffffffff811115613a1657613a15611eda565b5b613a22848285016139b4565b91505092915050565b6000602082019050613a40600083018461366d565b92915050565b6000819050919050565b613a61613a5c826125ee565b613a46565b82525050565b6000613a738284613a50565b60108201915081905092915050565b6000608082019050613a9760008301876132f7565b8181036020830152613aa98186613745565b90508181036040830152613abd8185613745565b90508181036060830152613ad181846129a8565b905095945050505050565b600081905092915050565b6000613af2826127fb565b613afc8185613adc565b9350613b0c8185602086016126f8565b80840191505092915050565b6000613b248284613ae7565b915081905092915050565b6000604082019050613b446000830185612efa565b8181036020830152613b568184612817565b90509392505050565b600060208284031215613b7557613b74611ed5565b5b600082015167ffffffffffffffff811115613b9357613b92611eda565b5b613b9f84828501613491565b91505092915050565b6000606082019050613bbd60008301866136f5565b8181036020830152613bcf81856129a8565b90508181036040830152613be38184612817565b9050949350505050565b60006060820190508181036000830152613c078186613224565b9050613c1660208301856136f5565b8181036040830152613c2881846129a8565b9050949350505050565b60008060408385031215613c4957613c48611ed5565b5b600083015167ffffffffffffffff811115613c6757613c66611eda565b5b613c73858286016135c7565b925050602083015167ffffffffffffffff811115613c9457613c93611eda565b5b613ca0858286016135c7565b9150509250929050565b50565b6000613cba600083613adc565b9150613cc582613caa565b600082019050919050565b6000613cdb82613cad565b9150819050919050565b6000604082019050613cfa60008301856132f7565b8181036020830152613d0c81846129a8565b90509392505050565b600067ffffffffffffffff821115613d3057613d2f611ef5565b5b602082029050602081019050919050565b6000613d54613d4f84613d15565b611f55565b90508083825260208201905060208402830185811115613d7757613d7661212f565b5b835b81811015613dbe57805167ffffffffffffffff811115613d9c57613d9b611fb5565b5b808601613da98982613491565b85526020850194505050602081019050613d79565b5050509392505050565b600082601f830112613ddd57613ddc611fb5565b5b8151613ded848260208601613d41565b91505092915050565b600060208284031215613e0c57613e0b611ed5565b5b600082015167ffffffffffffffff811115613e2a57613e29611eda565b5b613e3684828501613dc8565b91505092915050565b6000604082019050613e5460008301856136f5565b8181036020830152613e6681846129a8565b90509392505050565b7f4e487b7100000000000000000000000000000000000000000000000000000000600052602260045260246000fd5b60006002820490506001821680613eb657607f821691505b60208210811415613eca57613ec9613e6f565b5b50919050565b60008190508160005260206000209050919050565b60008154613ef281613e9e565b613efc8186612997565b94506001821660008114613f175760018114613f2957613f5c565b60ff1983168652602086019350613f5c565b613f3285613ed0565b60005b83811015613f5457815481890152600182019150602081019050613f35565b808801955050505b50505092915050565b60006040820190508181036000830152613f7f8185613ee5565b90508181036020830152613f938184612817565b90509392505050565b60006040820190508181036000830152613fb681856129a8565b90508181036020830152613fca8184612817565b9050939250505056fea26469706673582212203dc5528070d2d058d90c2d520f0bd76705dc4eb0aa71e33a8e5d1a1945d03f3364736f6c63430008080033",
  "devdoc": {
    "kind": "dev",
    "methods": {},
    "version": 1
  },
  "userdoc": {
    "kind": "user",
    "methods": {},
    "version": 1
  },
  "storageLayout": {
    "storage": [
      {
        "astId": 975,
        "contract": "contracts/blockad/BlockAdV2.sol:BlockAdAuctionV2",
        "label": "secretBidId",
        "offset": 0,
        "slot": "0",
        "type": "t_userDefinedValueType(BidId)1463"
      },
      {
        "astId": 977,
        "contract": "contracts/blockad/BlockAdV2.sol:BlockAdAuctionV2",
        "label": "presentHash",
        "offset": 0,
        "slot": "1",
        "type": "t_bytes32"
      },
      {
        "astId": 979,
        "contract": "contracts/blockad/BlockAdV2.sol:BlockAdAuctionV2",
        "label": "nonce",
        "offset": 0,
        "slot": "2",
        "type": "t_uint256"
      },
      {
        "astId": 68,
        "contract": "contracts/blockad/BlockAdV2.sol:BlockAdAuctionV2",
        "label": "builder",
        "offset": 0,
        "slot": "3",
        "type": "t_contract(Builder)934"
      },
      {
        "astId": 72,
        "contract": "contracts/blockad/BlockAdV2.sol:BlockAdAuctionV2",
        "label": "requests",
        "offset": 0,
        "slot": "4",
        "type": "t_array(t_struct(AdRequest)27_storage)dyn_storage"
      },
      {
        "astId": 74,
        "contract": "contracts/blockad/BlockAdV2.sol:BlockAdAuctionV2",
        "label": "nextId",
        "offset": 0,
        "slot": "5",
        "type": "t_uint256"
      }
    ],
    "types": {
      "t_array(t_struct(AdRequest)27_storage)dyn_storage": {
        "base": "t_struct(AdRequest)27_storage",
        "encoding": "dynamic_array",
        "label": "struct BlockAdAuctionV2.AdRequest[]",
        "numberOfBytes": "32"
      },
      "t_bytes32": {
        "encoding": "inplace",
        "label": "bytes32",
        "numberOfBytes": "32"
      },
      "t_contract(Builder)934": {
        "encoding": "inplace",
        "label": "contract Builder",
        "numberOfBytes": "20"
      },
      "t_string_storage": {
        "encoding": "bytes",
        "label": "string",
        "numberOfBytes": "32"
      },
      "t_struct(AdRequest)27_storage": {
        "encoding": "inplace",
        "label": "struct BlockAdAuctionV2.AdRequest",
        "members": [
          {
            "astId": 19,
            "contract": "contracts/blockad/BlockAdV2.sol:BlockAdAuctionV2",
            "label": "id",
            "offset": 0,
            "slot": "0",
            "type": "t_uint256"
          },
          {
            "astId": 21,
            "contract": "contracts/blockad/BlockAdV2.sol:BlockAdAuctionV2",
            "label": "extra",
            "offset": 0,
            "slot": "1",
            "type": "t_string_storage"
          },
          {
            "astId": 23,
            "contract": "contracts/blockad/BlockAdV2.sol:BlockAdAuctionV2",
            "label": "blockLimit",
            "offset": 0,
            "slot": "2",
            "type": "t_uint256"
          },
          {
            "astId": 26,
            "contract": "contracts/blockad/BlockAdV2.sol:BlockAdAuctionV2",
            "label": "paymentBidId",
            "offset": 0,
            "slot": "3",
            "type": "t_userDefinedValueType(BidId)1463"
          }
        ],
        "numberOfBytes": "128"
      },
      "t_uint256": {
        "encoding": "inplace",
        "label": "uint256",
        "numberOfBytes": "32"
      },
      "t_userDefinedValueType(BidId)1463": {
        "encoding": "inplace",
        "label": "Suave.BidId",
        "numberOfBytes": "32"
      }
    }
  }
}