{
  "address": "0x7fD0E599a3232F3c53a419aa8208692CFae65Dc5",
  "abi": [
    {
      "inputs": [
        {
          "internalType": "string",
          "name": "boostRelayUrl_",
          "type": "string"
        }
      ],
      "stateMutability": "nonpayable",
      "type": "constructor"
    },
    {
      "inputs": [
        {
          "internalType": "address",
          "name": "",
          "type": "address"
        },
        {
          "internalType": "bytes",
          "name": "",
          "type": "bytes"
        }
      ],
      "name": "PeekerReverted",
      "type": "error"
    },
    {
      "inputs": [
        {
          "internalType": "string",
          "name": "message",
          "type": "string"
        }
      ],
      "name": "SuaveError",
      "type": "error"
    },
    {
      "inputs": [
        {
          "internalType": "string",
          "name": "message",
          "type": "string"
        },
        {
          "internalType": "bytes",
          "name": "data",
          "type": "bytes"
        }
      ],
      "name": "SuaveErrorWithData",
      "type": "error"
    },
    {
      "anonymous": false,
      "inputs": [
        {
          "indexed": false,
          "internalType": "Suave.DataId",
          "name": "dataId",
          "type": "bytes16"
        },
        {
          "indexed": false,
          "internalType": "uint64",
          "name": "decryptionCondition",
          "type": "uint64"
        },
        {
          "indexed": false,
          "internalType": "address[]",
          "name": "allowedPeekers",
          "type": "address[]"
        }
      ],
      "name": "DataRecordEvent",
      "type": "event"
    },
    {
      "anonymous": false,
      "inputs": [
        {
          "indexed": true,
          "internalType": "uint256",
          "name": "id",
          "type": "uint256"
        },
        {
          "indexed": false,
          "internalType": "string",
          "name": "extra",
          "type": "string"
        },
        {
          "indexed": false,
          "internalType": "uint256",
          "name": "blockLimit",
          "type": "uint256"
        }
      ],
      "name": "RequestAdded",
      "type": "event"
    },
    {
      "anonymous": false,
      "inputs": [
        {
          "indexed": true,
          "internalType": "uint256",
          "name": "id",
          "type": "uint256"
        },
        {
          "indexed": false,
          "internalType": "uint64",
          "name": "egp",
          "type": "uint64"
        },
        {
          "indexed": false,
          "internalType": "string",
          "name": "blockHash",
          "type": "string"
        }
      ],
      "name": "RequestIncluded",
      "type": "event"
    },
    {
      "anonymous": false,
      "inputs": [
        {
          "indexed": true,
          "internalType": "uint256",
          "name": "id",
          "type": "uint256"
        }
      ],
      "name": "RequestRemoved",
      "type": "event"
    },
    {
      "inputs": [
        {
          "components": [
            {
              "internalType": "uint64",
              "name": "slot",
              "type": "uint64"
            },
            {
              "internalType": "bytes",
              "name": "proposerPubkey",
              "type": "bytes"
            },
            {
              "internalType": "bytes32",
              "name": "parent",
              "type": "bytes32"
            },
            {
              "internalType": "uint64",
              "name": "timestamp",
              "type": "uint64"
            },
            {
              "internalType": "address",
              "name": "feeRecipient",
              "type": "address"
            },
            {
              "internalType": "uint64",
              "name": "gasLimit",
              "type": "uint64"
            },
            {
              "internalType": "bytes32",
              "name": "random",
              "type": "bytes32"
            },
            {
              "components": [
                {
                  "internalType": "uint64",
                  "name": "index",
                  "type": "uint64"
                },
                {
                  "internalType": "uint64",
                  "name": "validator",
                  "type": "uint64"
                },
                {
                  "internalType": "address",
                  "name": "Address",
                  "type": "address"
                },
                {
                  "internalType": "uint64",
                  "name": "amount",
                  "type": "uint64"
                }
              ],
              "internalType": "struct Suave.Withdrawal[]",
              "name": "withdrawals",
              "type": "tuple[]"
            },
            {
              "internalType": "bytes",
              "name": "extra",
              "type": "bytes"
            }
          ],
          "internalType": "struct Suave.BuildBlockArgs",
          "name": "blockArgs",
          "type": "tuple"
        },
        {
          "internalType": "uint64",
          "name": "blockHeight",
          "type": "uint64"
        }
      ],
      "name": "buildBlock",
      "outputs": [
        {
          "internalType": "bytes",
          "name": "",
          "type": "bytes"
        }
      ],
      "stateMutability": "nonpayable",
      "type": "function"
    },
    {
      "inputs": [
        {
          "internalType": "bytes",
          "name": "builderCall",
          "type": "bytes"
        },
        {
          "internalType": "bytes",
          "name": "includedRequestB",
          "type": "bytes"
        },
        {
          "internalType": "bytes",
          "name": "pendingRemovalsB",
          "type": "bytes"
        },
        {
          "components": [
            {
              "internalType": "bytes32",
              "name": "key",
              "type": "bytes32"
            },
            {
              "internalType": "bytes32",
              "name": "nextHash",
              "type": "bytes32"
            }
          ],
          "internalType": "struct ConfidentialControl.UnlockArgs",
          "name": "uArgs",
          "type": "tuple"
        }
      ],
      "name": "buildCallback",
      "outputs": [],
      "stateMutability": "nonpayable",
      "type": "function"
    },
    {
      "inputs": [],
      "name": "builder",
      "outputs": [
        {
          "internalType": "contract Builder",
          "name": "",
          "type": "address"
        }
      ],
      "stateMutability": "view",
      "type": "function"
    },
    {
      "inputs": [
        {
          "internalType": "uint64",
          "name": "blockLimit",
          "type": "uint64"
        },
        {
          "internalType": "string",
          "name": "extra",
          "type": "string"
        }
      ],
      "name": "buyAd",
      "outputs": [
        {
          "internalType": "bytes",
          "name": "",
          "type": "bytes"
        }
      ],
      "stateMutability": "nonpayable",
      "type": "function"
    },
    {
      "inputs": [
        {
          "components": [
            {
              "internalType": "uint256",
              "name": "id",
              "type": "uint256"
            },
            {
              "internalType": "string",
              "name": "extra",
              "type": "string"
            },
            {
              "internalType": "uint256",
              "name": "blockLimit",
              "type": "uint256"
            },
            {
              "internalType": "Suave.DataId",
              "name": "paymentBidId",
              "type": "bytes16"
            }
          ],
          "internalType": "struct BlockAdAuctionV2.AdRequest",
          "name": "request",
          "type": "tuple"
        },
        {
          "components": [
            {
              "internalType": "bytes32",
              "name": "key",
              "type": "bytes32"
            },
            {
              "internalType": "bytes32",
              "name": "nextHash",
              "type": "bytes32"
            }
          ],
          "internalType": "struct ConfidentialControl.UnlockArgs",
          "name": "uArgs",
          "type": "tuple"
        }
      ],
      "name": "buyAdCallback",
      "outputs": [],
      "stateMutability": "nonpayable",
      "type": "function"
    },
    {
      "inputs": [
        {
          "internalType": "bytes32",
          "name": "nextHash",
          "type": "bytes32"
        },
        {
          "internalType": "Suave.DataId",
          "name": "sBidId",
          "type": "bytes16"
        }
      ],
      "name": "ccCallback",
      "outputs": [],
      "stateMutability": "nonpayable",
      "type": "function"
    },
    {
      "inputs": [],
      "name": "confidentialConstructor",
      "outputs": [
        {
          "internalType": "bytes",
          "name": "",
          "type": "bytes"
        }
      ],
      "stateMutability": "view",
      "type": "function"
    },
    {
      "inputs": [
        {
          "components": [
            {
              "internalType": "Suave.DataId",
              "name": "id",
              "type": "bytes16"
            },
            {
              "internalType": "Suave.DataId",
              "name": "salt",
              "type": "bytes16"
            },
            {
              "internalType": "uint64",
              "name": "decryptionCondition",
              "type": "uint64"
            },
            {
              "internalType": "address[]",
              "name": "allowedPeekers",
              "type": "address[]"
            },
            {
              "internalType": "address[]",
              "name": "allowedStores",
              "type": "address[]"
            },
            {
              "internalType": "string",
              "name": "version",
              "type": "string"
            }
          ],
          "internalType": "struct Suave.DataRecord",
          "name": "dataRecord",
          "type": "tuple"
        }
      ],
      "name": "emitDataRecord",
      "outputs": [],
      "stateMutability": "nonpayable",
      "type": "function"
    },
    {
      "inputs": [],
      "name": "fetchConfidentialBundleData",
      "outputs": [
        {
          "internalType": "bytes",
          "name": "",
          "type": "bytes"
        }
      ],
      "stateMutability": "nonpayable",
      "type": "function"
    },
    {
      "inputs": [],
      "name": "isInitialized",
      "outputs": [
        {
          "internalType": "bool",
          "name": "",
          "type": "bool"
        }
      ],
      "stateMutability": "view",
      "type": "function"
    },
    {
      "inputs": [],
      "name": "nextId",
      "outputs": [
        {
          "internalType": "uint256",
          "name": "",
          "type": "uint256"
        }
      ],
      "stateMutability": "view",
      "type": "function"
    },
    {
      "inputs": [
        {
          "internalType": "uint256",
          "name": "",
          "type": "uint256"
        }
      ],
      "name": "requests",
      "outputs": [
        {
          "internalType": "uint256",
          "name": "id",
          "type": "uint256"
        },
        {
          "internalType": "string",
          "name": "extra",
          "type": "string"
        },
        {
          "internalType": "uint256",
          "name": "blockLimit",
          "type": "uint256"
        },
        {
          "internalType": "Suave.DataId",
          "name": "paymentBidId",
          "type": "bytes16"
        }
      ],
      "stateMutability": "view",
      "type": "function"
    },
    {
      "inputs": [],
      "name": "requestsLength",
      "outputs": [
        {
          "internalType": "uint256",
          "name": "",
          "type": "uint256"
        }
      ],
      "stateMutability": "view",
      "type": "function"
    }
  ],
  "transactionHash": "0xb331e9a4d2de0b063bfbe1f5e9f377f3138010216db549deae6212ccdf808a73",
  "args": [
    "https://0xafa4c6985aa049fb79dd37010438cfebeb0f2bd42b115b89dd678dab0670c1de38da0c4e9138c9290a398ecd9a0b3110@boost-relay-goerli.flashbots.net"
  ],
  "numDeployments": 1,
  "solcInputHash": "750d55e722395a029ab3340462de1dcd",
  "bytecode": "0x60806040523480156200001157600080fd5b506040516200886538038062008865833981810160405281019062000037919062000262565b806040516200004690620000b7565b62000052919062000310565b604051809103906000f0801580156200006f573d6000803e3d6000fd5b50600360006101000a81548173ffffffffffffffffffffffffffffffffffffffff021916908373ffffffffffffffffffffffffffffffffffffffff1602179055505062000334565b61437380620044f283390190565b6000604051905090565b600080fd5b600080fd5b600080fd5b600080fd5b6000601f19601f8301169050919050565b7f4e487b7100000000000000000000000000000000000000000000000000000000600052604160045260246000fd5b6200012e82620000e3565b810181811067ffffffffffffffff8211171562000150576200014f620000f4565b5b80604052505050565b600062000165620000c5565b905062000173828262000123565b919050565b600067ffffffffffffffff821115620001965762000195620000f4565b5b620001a182620000e3565b9050602081019050919050565b60005b83811015620001ce578082015181840152602081019050620001b1565b83811115620001de576000848401525b50505050565b6000620001fb620001f58462000178565b62000159565b9050828152602081018484840111156200021a5762000219620000de565b5b62000227848285620001ae565b509392505050565b600082601f830112620002475762000246620000d9565b5b815162000259848260208601620001e4565b91505092915050565b6000602082840312156200027b576200027a620000cf565b5b600082015167ffffffffffffffff8111156200029c576200029b620000d4565b5b620002aa848285016200022f565b91505092915050565b600081519050919050565b600082825260208201905092915050565b6000620002dc82620002b3565b620002e88185620002be565b9350620002fa818560208601620001ae565b6200030581620000e3565b840191505092915050565b600060208201905081810360008301526200032c8184620002cf565b905092915050565b6141ae80620003446000396000f3fe608060405234801561001057600080fd5b50600436106100cf5760003560e01c8063bb7bae0a1161008c578063ee2cc36411610066578063ee2cc36414610203578063fd38f21d1461021f578063ff4aec7d1461024f578063ffbbfcb01461026d576100cf565b8063bb7bae0a146101ad578063bcbb3597146101c9578063d7e84fbf146101e5576100cf565b8063392e53cd146100d457806360727f8e146100f257806361b8ce8c1461012257806364e65a62146101405780637e48532c1461015c57806381d12c581461017a575b600080fd5b6100dc61028b565b6040516100e991906121c5565b60405180910390f35b61010c6004803603810190610107919061268c565b61029b565b6040516101199190612770565b60405180910390f35b61012a61051b565b60405161013791906127ab565b60405180910390f35b61015a600480360381019061015591906127ea565b610521565b005b6101646105ee565b6040516101719190612770565b60405180910390f35b610194600480360381019061018f91906128d1565b610643565b6040516101a494939291906129a0565b60405180910390f35b6101c760048036038101906101c29190612a18565b61070b565b005b6101e360048036038101906101de9190612a77565b610777565b005b6101ed6107ee565b6040516101fa9190612b1f565b60405180910390f35b61021d60048036038101906102189190612b59565b610814565b005b61023960048036038101906102349190612c56565b61092c565b6040516102469190612770565b60405180910390f35b610257610b35565b6040516102649190612770565b60405180910390f35b610275610b6e565b60405161028291906127ab565b60405180910390f35b60008060001b6001541415905090565b60606102e36102a8610b7b565b6040518060400160405280601081526020017f4e6f7420636f6e666964656e7469616c00000000000000000000000000000000815250610c43565b61032a6000600480549050116040518060400160405280600b81526020017f4e6f207265717565737473000000000000000000000000000000000000000000815250610c43565b6000806103408467ffffffffffffffff16610c89565b915091506103946000836040015167ffffffffffffffff16116040518060400160405280600f81526020017f4e6f2076616c6964206f66666572730000000000000000000000000000000000815250610c43565b61039e8483610ed3565b81602001518561010001819052506000600360009054906101000a900473ffffffffffffffffffffffffffffffffffffffff1673ffffffffffffffffffffffffffffffffffffffff1663346ab17587876040518363ffffffff1660e01b815260040161040b929190612f0f565b600060405180830381600087803b15801561042557600080fd5b505af1158015610439573d6000803e3d6000fd5b505050506040513d6000823e3d601f19601f820116820180604052508101906104629190612faf565b90506364e65a6260e01b8184600001518560400151604051602001610488929190612ff8565b604051602081830303815290604052846104a061112e565b6040516024016104b39493929190613050565b604051602081830303815290604052907bffffffffffffffffffffffffffffffffffffffffffffffffffffffff19166020820180517bffffffffffffffffffffffffffffffffffffffffffffffffffffffff8381831617835250505050935050505092915050565b60055481565b8061056d6105328260000135611170565b6040518060400160405280600b81526020017f496e76616c6964206b6579000000000000000000000000000000000000000000815250610c43565b60008351111561058957610588610583846111a4565b6111b6565b5b60006105b7600360009054906101000a900473ffffffffffffffffffffffffffffffffffffffff1687611377565b90506105c38582611445565b508060200135600181905550600260008154809291906105e2906130d9565b91905055505050505050565b60606106366105fb610b7b565b6040518060400160405280601081526020017f4e6f7420636f6e666964656e7469616c00000000000000000000000000000000815250610c43565b61063e6114a0565b905090565b6004818154811061065357600080fd5b906000526020600020906004020160009150905080600001549080600101805461067c90613151565b80601f01602080910402602001604051908101604052809291908181526020018280546106a890613151565b80156106f55780601f106106ca576101008083540402835291602001916106f5565b820191906000526020600020905b8154815290600101906020018083116106d857829003601f168201915b5050505050908060020154908060030154905084565b61075261071661028b565b156040518060400160405280601381526020017f416c726561647920696e697469616c697a656400000000000000000000000000815250610c43565b81600181905550806000816fffffffffffffffffffffffffffffffff19169055505050565b7ff7645ba1634d8aed79d5bd07dd401d4ef0860e018d7eb3949c3f4da8fa26fb4781600001356fffffffffffffffffffffffffffffffff19168260400160208101906107c39190613183565b8380606001906107d391906131bf565b6040516107e394939291906132d6565b60405180910390a150565b600360009054906101000a900473ffffffffffffffffffffffffffffffffffffffff1681565b806108606108258260000135611170565b6040518060400160405280600b81526020017f496e76616c6964206b6579000000000000000000000000000000000000000000815250610c43565b600483908060018154018082558091505060019003906000526020600020906004020160009091909190915081816108989190613759565b5050600560008154809291906108ad906130d9565b919050555082600001357fbf51327c63fb3c8741d4233ae0315e3e1a74641532f4e59c307f72314a3462358480602001906108e891906133ca565b86604001356040516108fc93929190613794565b60405180910390a2806020013560018190555060026000815480929190610922906130d9565b9190505550505050565b6060610974610939610b7b565b6040518060400160405280601081526020017f4e6f7420636f6e666964656e7469616c00000000000000000000000000000000815250610c43565b60003073ffffffffffffffffffffffffffffffffffffffff1663ff4aec7d6040518163ffffffff1660e01b8152600401600060405180830381600087803b1580156109be57600080fd5b505af11580156109d2573d6000803e3d6000fd5b505050506040513d6000823e3d601f19601f820116820180604052508101906109fb9190612faf565b90506000610a0a8260016115eb565b915050610a5960008267ffffffffffffffff16116040518060400160405280600b81526020017f65677020746f6f206c6f77000000000000000000000000000000000000000000815250610c43565b6000610a64836116c6565b90506000604051806080016040528060055481526020018781526020018867ffffffffffffffff168152602001836fffffffffffffffffffffffffffffffff1916815250905063ee2cc36460e01b81610abb61112e565b604051602401610acc929190613891565b604051602081830303815290604052907bffffffffffffffffffffffffffffffffffffffffffffffffffffffff19166020820180517bffffffffffffffffffffffffffffffffffffffffffffffffffffffff838183161783525050505094505050505092915050565b6060610b3f610b7b565b610b4857600080fd5b6000610b526117fc565b905080806020019051810190610b689190612faf565b91505090565b6000600480549050905090565b6000806000634201000073ffffffffffffffffffffffffffffffffffffffff16604051610ba7906138f2565b600060405180830381855afa9150503d8060008114610be2576040519150601f19603f3d011682016040523d82523d6000602084013e610be7565b606091505b509150915081610c34576342010000816040517f75fff467000000000000000000000000000000000000000000000000000000008152600401610c2b929190613916565b60405180910390fd5b80516020820151935050505090565b81610c8557806040517f0c25cd98000000000000000000000000000000000000000000000000000000008152600401610c7c9190613946565b60405180910390fd5b5050565b610c91612008565b606060005b600480549050811015610ecd57600060048281548110610cb957610cb8613968565b5b906000526020600020906004020160405180608001604052908160008201548152602001600182018054610cec90613151565b80601f0160208091040260200160405190810160405280929190818152602001828054610d1890613151565b8015610d655780601f10610d3a57610100808354040283529160200191610d65565b820191906000526020600020905b815481529060010190602001808311610d4857829003601f168201915b505050505081526020016002820154815260200160038201546fffffffffffffffffffffffffffffffff19166fffffffffffffffffffffffffffffffff19168152505090508481604001511015610dd157610dc982846118d390919063ffffffff16565b925050610ebc565b6000610e1682606001516040518060400160405280601881526020017f626c6f636b61643a76303a7061796d656e7442756e646c650000000000000000815250611907565b9050600080610e268360006115eb565b91509150811580610e41575060008167ffffffffffffffff16145b15610e6057610e5985876118d390919063ffffffff16565b9550610eb7565b866040015167ffffffffffffffff168167ffffffffffffffff161115610eb657604051806080016040528085600001518152602001856020015181526020018267ffffffffffffffff1681526020018481525096505b5b505050505b80610ec6906130d9565b9050610c96565b50915091565b6000600367ffffffffffffffff811115610ef057610eef61220a565b5b604051908082528060200260200182016040528015610f1e5781602001602082028036833780820191505090505b509050600360009054906101000a900473ffffffffffffffffffffffffffffffffffffffff1681600081518110610f5857610f57613968565b5b602002602001019073ffffffffffffffffffffffffffffffffffffffff16908173ffffffffffffffffffffffffffffffffffffffff1681525050634210000181600181518110610fab57610faa613968565b5b602002602001019073ffffffffffffffffffffffffffffffffffffffff16908173ffffffffffffffffffffffffffffffffffffffff16815250503081600281518110610ffa57610ff9613968565b5b602002602001019073ffffffffffffffffffffffffffffffffffffffff16908173ffffffffffffffffffffffffffffffffffffffff168152505060006110778483846040518060400160405280601581526020017f64656661756c743a76303a65746842756e646c657300000000000000000000008152506119ee565b90506110c181600001516040518060400160405280601581526020017f64656661756c743a76303a65746842756e646c657300000000000000000000008152508560600151611af4565b61112881600001516040518060400160405280601e81526020017f64656661756c743a76303a65746842756e646c6553696d526573756c7473000081525085604001516040516020016111149190613997565b604051602081830303815290604052611af4565b50505050565b61113661203a565b604051806040016040528061114c600254611bd7565b8152602001611168600160025461116391906139b2565b611bf1565b815250905090565b6000600154826040516020016111869190613a17565b60405160208183030381529060405280519060200120149050919050565b60606111af82611c29565b9050919050565b6000815190505b6000811115611373576000826001836111d69190613a32565b815181106111e7576111e6613968565b5b6020026020010151905060006004828154811061120757611206613968565b5b9060005260206000209060040201600001549050600160048054905061122d9190613a32565b8210156112e057600460016004805490506112489190613a32565b8154811061125957611258613968565b5b90600052602060002090600402016004838154811061127b5761127a613968565b5b90600052602060002090600402016000820154816000015560018201816001019080546112a790613151565b6112b292919061205a565b5060028201548160020155600382015481600301906fffffffffffffffffffffffffffffffff191690559050505b60048054806112f2576112f1613a66565b5b600190038181906000526020600020906004020160008082016000905560018201600061131f91906120e7565b6002820160009055600382016000905550509055807f5fa4d8243d9549d33d615899224efcef51bfcacb970a31f68862ce74c858dbf060405160405180910390a250508061136c90613a95565b90506111bd565b5050565b60606000808473ffffffffffffffffffffffffffffffffffffffff16846040516113a19190613af0565b6000604051808303816000865af19150503d80600081146113de576040519150601f19603f3d011682016040523d82523d6000602084013e6113e3565b606091505b5091509150611427826040518060400160405280601481526020017f45787465726e616c2063616c6c206661696c6564000000000000000000000000815250610c43565b8080602001905181019061143b9190613b77565b9250505092915050565b6000808380602001905181019061145c9190613bea565b91509150817f91badfc611f9ad79e4d6a58176e5c4cedc4f8ed9001447825f503e792bbf09e28285604051611492929190613c2a565b60405180910390a250505050565b60606114e86114ad610b7b565b6040518060400160405280601081526020017f4e6f7420636f6e666964656e7469616c00000000000000000000000000000000815250610c43565b61152f6114f361028b565b156040518060400160405280601381526020017f416c726561647920696e697469616c697a656400000000000000000000000000815250610c43565b60006115396117fc565b9050600061154682611cf4565b90506000611569838060200190518101906115619190613c6f565b600254611ed0565b905063bb7bae0a60e01b8183604051602401611586929190613c9c565b604051602081830303815290604052907bffffffffffffffffffffffffffffffffffffffffffffffffffffffff19166020820180517bffffffffffffffffffffffffffffffffffffffffffffffffffffffff8381831617835250505050935050505090565b600080600080634210000073ffffffffffffffffffffffffffffffffffffffff16614e20876040516020016116209190612770565b60405160208183030381529060405260405161163c9190613af0565b6000604051808303818686fa925050503d8060008114611678576040519150601f19603f3d011682016040523d82523d6000602084013e61167d565b606091505b509150915061169585158061168f5750825b82610c43565b81156116bc576001818060200190518101906116b19190613cc5565b9350935050506116bf565b50505b9250929050565b600080600167ffffffffffffffff8111156116e4576116e361220a565b5b6040519080825280602002602001820160405280156117125781602001602082028036833780820191505090505b509050308160008151811061172a57611729613968565b5b602002602001019073ffffffffffffffffffffffffffffffffffffffff16908173ffffffffffffffffffffffffffffffffffffffff168152505060006117a8600083846040518060400160405280601881526020017f626c6f636b61643a76303a7061796d656e7442756e646c6500000000000000008152506119ee565b90506117ee81600001516040518060400160405280601881526020017f626c6f636b61643a76303a7061796d656e7442756e646c65000000000000000081525086611af4565b806000015192505050919050565b6060600080634201000173ffffffffffffffffffffffffffffffffffffffff1660405160200160405160208183030381529060405260405161183e9190613af0565b600060405180830381855afa9150503d8060008114611879576040519150601f19603f3d011682016040523d82523d6000602084013e61187e565b606091505b5091509150816118cb576342010001816040517f75fff4670000000000000000000000000000000000000000000000000000000081526004016118c2929190613916565b60405180910390fd5b809250505090565b6060826118df83611f0a565b6040516020016118f0929190613cf2565b604051602081830303815290604052905092915050565b6060600080634202000173ffffffffffffffffffffffffffffffffffffffff16858560405160200161193a929190613d16565b6040516020818303038152906040526040516119569190613af0565b600060405180830381855afa9150503d8060008114611991576040519150601f19603f3d011682016040523d82523d6000602084013e611996565b606091505b5091509150816119e3576342020001816040517f75fff4670000000000000000000000000000000000000000000000000000000081526004016119da929190613916565b60405180910390fd5b809250505092915050565b6119f6612127565b600080634203000073ffffffffffffffffffffffffffffffffffffffff1687878787604051602001611a2b9493929190613dcc565b604051602081830303815290604052604051611a479190613af0565b600060405180830381855afa9150503d8060008114611a82576040519150601f19603f3d011682016040523d82523d6000602084013e611a87565b606091505b509150915081611ad4576342030000816040517f75fff467000000000000000000000000000000000000000000000000000000008152600401611acb929190613916565b60405180910390fd5b80806020019051810190611ae89190614007565b92505050949350505050565b600080634202000073ffffffffffffffffffffffffffffffffffffffff16858585604051602001611b2793929190614050565b604051602081830303815290604052604051611b439190613af0565b600060405180830381855afa9150503d8060008114611b7e576040519150601f19603f3d011682016040523d82523d6000602084013e611b83565b606091505b509150915081611bd0576342020000816040517f75fff467000000000000000000000000000000000000000000000000000000008152600401611bc7929190613916565b60405180910390fd5b5050505050565b6000611bea611be4611f67565b83611fc7565b9050919050565b6000611bfc82611bd7565b604051602001611c0c9190613a17565b604051602081830303815290604052805190602001209050919050565b606060208251611c3991906140c4565b67ffffffffffffffff811115611c5257611c5161220a565b5b604051908082528060200260200182016040528015611c805781602001602082028036833780820191505090505b50905060005b60208351611c9491906140c4565b811015611cee57611cbc8360208084611cad91906140f5565b611cb791906139b2565b611ffa565b828281518110611ccf57611cce613968565b5b6020026020010181815250508080611ce6906130d9565b915050611c86565b50919050565b600080600367ffffffffffffffff811115611d1257611d1161220a565b5b604051908082528060200260200182016040528015611d405781602001602082028036833780820191505090505b5090503081600081518110611d5857611d57613968565b5b602002602001019073ffffffffffffffffffffffffffffffffffffffff16908173ffffffffffffffffffffffffffffffffffffffff1681525050634203000181600181518110611dab57611daa613968565b5b602002602001019073ffffffffffffffffffffffffffffffffffffffff16908173ffffffffffffffffffffffffffffffffffffffff1681525050634202000181600281518110611dfe57611dfd613968565b5b602002602001019073ffffffffffffffffffffffffffffffffffffffff16908173ffffffffffffffffffffffffffffffffffffffff16815250506000611e7c600083846040518060400160405280601181526020017f626c6f636b61643a76303a7365637265740000000000000000000000000000008152506119ee565b9050611ec281600001516040518060400160405280601181526020017f626c6f636b61643a76303a73656372657400000000000000000000000000000081525086611af4565b806000015192505050919050565b6000611edc8383611fc7565b604051602001611eec9190613a17565b60405160208183030381529060405280519060200120905092915050565b6060602067ffffffffffffffff811115611f2757611f2661220a565b5b6040519080825280601f01601f191660200182016040528015611f595781602001600182028036833780820191505090505b509050816020820152919050565b600080611fab6000546040518060400160405280601181526020017f626c6f636b61643a76303a736563726574000000000000000000000000000000815250611907565b905080806020019051810190611fc19190613c6f565b91505090565b60008282604051602001611fdc92919061414f565b60405160208183030381529060405280519060200120905092915050565b600081830151905092915050565b60405180608001604052806000815260200160608152602001600067ffffffffffffffff168152602001606081525090565b604051806040016040528060008019168152602001600080191681525090565b82805461206690613151565b90600052602060002090601f01602090048101928261208857600085556120d6565b82601f1061209957805485556120d6565b828001600101855582156120d657600052602060002091601f016020900482015b828111156120d55782548255916001019190600101906120ba565b5b5090506120e3919061218d565b5090565b5080546120f390613151565b6000825580601f106121055750612124565b601f016020900490600052602060002090810190612123919061218d565b5b50565b6040518060c0016040528060006fffffffffffffffffffffffffffffffff1916815260200160006fffffffffffffffffffffffffffffffff19168152602001600067ffffffffffffffff1681526020016060815260200160608152602001606081525090565b5b808211156121a657600081600090555060010161218e565b5090565b60008115159050919050565b6121bf816121aa565b82525050565b60006020820190506121da60008301846121b6565b92915050565b6000604051905090565b600080fd5b600080fd5b600080fd5b6000601f19601f8301169050919050565b7f4e487b7100000000000000000000000000000000000000000000000000000000600052604160045260246000fd5b612242826121f9565b810181811067ffffffffffffffff821117156122615761226061220a565b5b80604052505050565b60006122746121e0565b90506122808282612239565b919050565b600080fd5b600067ffffffffffffffff82169050919050565b6122a78161228a565b81146122b257600080fd5b50565b6000813590506122c48161229e565b92915050565b600080fd5b600080fd5b600067ffffffffffffffff8211156122ef576122ee61220a565b5b6122f8826121f9565b9050602081019050919050565b82818337600083830152505050565b6000612327612322846122d4565b61226a565b905082815260208101848484011115612343576123426122cf565b5b61234e848285612305565b509392505050565b600082601f83011261236b5761236a6122ca565b5b813561237b848260208601612314565b91505092915050565b6000819050919050565b61239781612384565b81146123a257600080fd5b50565b6000813590506123b48161238e565b92915050565b600073ffffffffffffffffffffffffffffffffffffffff82169050919050565b60006123e5826123ba565b9050919050565b6123f5816123da565b811461240057600080fd5b50565b600081359050612412816123ec565b92915050565b600067ffffffffffffffff8211156124335761243261220a565b5b602082029050602081019050919050565b600080fd5b60006080828403121561245f5761245e6121f4565b5b612469608061226a565b90506000612479848285016122b5565b600083015250602061248d848285016122b5565b60208301525060406124a184828501612403565b60408301525060606124b5848285016122b5565b60608301525092915050565b60006124d46124cf84612418565b61226a565b905080838252602082019050608084028301858111156124f7576124f6612444565b5b835b81811015612520578061250c8882612449565b8452602084019350506080810190506124f9565b5050509392505050565b600082601f83011261253f5761253e6122ca565b5b813561254f8482602086016124c1565b91505092915050565b6000610120828403121561256f5761256e6121f4565b5b61257a61012061226a565b9050600061258a848285016122b5565b600083015250602082013567ffffffffffffffff8111156125ae576125ad612285565b5b6125ba84828501612356565b60208301525060406125ce848285016123a5565b60408301525060606125e2848285016122b5565b60608301525060806125f684828501612403565b60808301525060a061260a848285016122b5565b60a08301525060c061261e848285016123a5565b60c08301525060e082013567ffffffffffffffff81111561264257612641612285565b5b61264e8482850161252a565b60e08301525061010082013567ffffffffffffffff81111561267357612672612285565b5b61267f84828501612356565b6101008301525092915050565b600080604083850312156126a3576126a26121ea565b5b600083013567ffffffffffffffff8111156126c1576126c06121ef565b5b6126cd85828601612558565b92505060206126de858286016122b5565b9150509250929050565b600081519050919050565b600082825260208201905092915050565b60005b83811015612722578082015181840152602081019050612707565b83811115612731576000848401525b50505050565b6000612742826126e8565b61274c81856126f3565b935061275c818560208601612704565b612765816121f9565b840191505092915050565b6000602082019050818103600083015261278a8184612737565b905092915050565b6000819050919050565b6127a581612792565b82525050565b60006020820190506127c0600083018461279c565b92915050565b600080fd5b6000604082840312156127e1576127e06127c6565b5b81905092915050565b60008060008060a08587031215612804576128036121ea565b5b600085013567ffffffffffffffff811115612822576128216121ef565b5b61282e87828801612356565b945050602085013567ffffffffffffffff81111561284f5761284e6121ef565b5b61285b87828801612356565b935050604085013567ffffffffffffffff81111561287c5761287b6121ef565b5b61288887828801612356565b9250506060612899878288016127cb565b91505092959194509250565b6128ae81612792565b81146128b957600080fd5b50565b6000813590506128cb816128a5565b92915050565b6000602082840312156128e7576128e66121ea565b5b60006128f5848285016128bc565b91505092915050565b600081519050919050565b600082825260208201905092915050565b6000612925826128fe565b61292f8185612909565b935061293f818560208601612704565b612948816121f9565b840191505092915050565b60007fffffffffffffffffffffffffffffffff0000000000000000000000000000000082169050919050565b600061298a82612953565b9050919050565b61299a8161297f565b82525050565b60006080820190506129b5600083018761279c565b81810360208301526129c7818661291a565b90506129d6604083018561279c565b6129e36060830184612991565b95945050505050565b6129f581612953565b8114612a0057600080fd5b50565b600081359050612a12816129ec565b92915050565b60008060408385031215612a2f57612a2e6121ea565b5b6000612a3d858286016123a5565b9250506020612a4e85828601612a03565b9150509250929050565b600060c08284031215612a6e57612a6d6127c6565b5b81905092915050565b600060208284031215612a8d57612a8c6121ea565b5b600082013567ffffffffffffffff811115612aab57612aaa6121ef565b5b612ab784828501612a58565b91505092915050565b6000819050919050565b6000612ae5612ae0612adb846123ba565b612ac0565b6123ba565b9050919050565b6000612af782612aca565b9050919050565b6000612b0982612aec565b9050919050565b612b1981612afe565b82525050565b6000602082019050612b346000830184612b10565b92915050565b600060808284031215612b5057612b4f6127c6565b5b81905092915050565b60008060608385031215612b7057612b6f6121ea565b5b600083013567ffffffffffffffff811115612b8e57612b8d6121ef565b5b612b9a85828601612b3a565b9250506020612bab858286016127cb565b9150509250929050565b600067ffffffffffffffff821115612bd057612bcf61220a565b5b612bd9826121f9565b9050602081019050919050565b6000612bf9612bf484612bb5565b61226a565b905082815260208101848484011115612c1557612c146122cf565b5b612c20848285612305565b509392505050565b600082601f830112612c3d57612c3c6122ca565b5b8135612c4d848260208601612be6565b91505092915050565b60008060408385031215612c6d57612c6c6121ea565b5b6000612c7b858286016122b5565b925050602083013567ffffffffffffffff811115612c9c57612c9b6121ef565b5b612ca885828601612c28565b9150509250929050565b612cbb8161228a565b82525050565b600082825260208201905092915050565b6000612cdd826126e8565b612ce78185612cc1565b9350612cf7818560208601612704565b612d00816121f9565b840191505092915050565b612d1481612384565b82525050565b612d23816123da565b82525050565b600081519050919050565b600082825260208201905092915050565b6000819050602082019050919050565b608082016000820151612d6b6000850182612cb2565b506020820151612d7e6020850182612cb2565b506040820151612d916040850182612d1a565b506060820151612da46060850182612cb2565b50505050565b6000612db68383612d55565b60808301905092915050565b6000602082019050919050565b6000612dda82612d29565b612de48185612d34565b9350612def83612d45565b8060005b83811015612e20578151612e078882612daa565b9750612e1283612dc2565b925050600181019050612df3565b5085935050505092915050565b600061012083016000830151612e466000860182612cb2565b5060208301518482036020860152612e5e8282612cd2565b9150506040830151612e736040860182612d0b565b506060830151612e866060860182612cb2565b506080830151612e996080860182612d1a565b5060a0830151612eac60a0860182612cb2565b5060c0830151612ebf60c0860182612d0b565b5060e083015184820360e0860152612ed78282612dcf565b915050610100830151848203610100860152612ef38282612cd2565b9150508091505092915050565b612f098161228a565b82525050565b60006040820190508181036000830152612f298185612e2d565b9050612f386020830184612f00565b9392505050565b6000612f52612f4d846122d4565b61226a565b905082815260208101848484011115612f6e57612f6d6122cf565b5b612f79848285612704565b509392505050565b600082601f830112612f9657612f956122ca565b5b8151612fa6848260208601612f3f565b91505092915050565b600060208284031215612fc557612fc46121ea565b5b600082015167ffffffffffffffff811115612fe357612fe26121ef565b5b612fef84828501612f81565b91505092915050565b600060408201905061300d600083018561279c565b61301a6020830184612f00565b9392505050565b6040820160008201516130376000850182612d0b565b50602082015161304a6020850182612d0b565b50505050565b600060a082019050818103600083015261306a8187612737565b9050818103602083015261307e8186612737565b905081810360408301526130928185612737565b90506130a16060830184613021565b95945050505050565b7f4e487b7100000000000000000000000000000000000000000000000000000000600052601160045260246000fd5b60006130e482612792565b91507fffffffffffffffffffffffffffffffffffffffffffffffffffffffffffffffff821415613117576131166130aa565b5b600182019050919050565b7f4e487b7100000000000000000000000000000000000000000000000000000000600052602260045260246000fd5b6000600282049050600182168061316957607f821691505b6020821081141561317d5761317c613122565b5b50919050565b600060208284031215613199576131986121ea565b5b60006131a7848285016122b5565b91505092915050565b600080fd5b600080fd5b600080fd5b600080833560016020038436030381126131dc576131db6131b0565b5b80840192508235915067ffffffffffffffff8211156131fe576131fd6131b5565b5b60208301925060208202360383131561321a576132196131ba565b5b509250929050565b600082825260208201905092915050565b6000819050919050565b60006132498383612d1a565b60208301905092915050565b60006132646020840184612403565b905092915050565b6000602082019050919050565b60006132858385613222565b935061329082613233565b8060005b858110156132c9576132a68284613255565b6132b0888261323d565b97506132bb8361326c565b925050600181019050613294565b5085925050509392505050565b60006060820190506132eb6000830187612991565b6132f86020830186612f00565b818103604083015261330b818486613279565b905095945050505050565b60008135613323816128a5565b80915050919050565b60008160001b9050919050565b60007fffffffffffffffffffffffffffffffffffffffffffffffffffffffffffffffff6133658461332c565b9350801983169250808416831791505092915050565b600061339661339161338c84612792565b612ac0565b612792565b9050919050565b6000819050919050565b6133b08261337b565b6133c36133bc8261339d565b8354613339565b8255505050565b600080833560016020038436030381126133e7576133e66131b0565b5b80840192508235915067ffffffffffffffff821115613409576134086131b5565b5b602083019250600182023603831315613425576134246131ba565b5b509250929050565b600082905092915050565b60008190508160005260206000209050919050565b60006020601f8301049050919050565b600082821b905092915050565b60006008830261349a7fffffffffffffffffffffffffffffffffffffffffffffffffffffffffffffffff8261345d565b6134a4868361345d565b95508019841693508086168417925050509392505050565b6134c58361337b565b6134d96134d18261339d565b84845461346a565b825550505050565b600090565b6134ee6134e1565b6134f98184846134bc565b505050565b5b8181101561351d576135126000826134e6565b6001810190506134ff565b5050565b601f8211156135625761353381613438565b61353c8461344d565b8101602085101561354b578190505b61355f6135578561344d565b8301826134fe565b50505b505050565b600082821c905092915050565b600061358560001984600802613567565b1980831691505092915050565b600061359e8383613574565b9150826002028217905092915050565b6135b8838361342d565b67ffffffffffffffff8111156135d1576135d061220a565b5b6135db8254613151565b6135e6828285613521565b6000601f8311600181146136155760008415613603578287013590505b61360d8582613592565b865550613675565b601f19841661362386613438565b60005b8281101561364b57848901358255600182019150602085019450602081019050613626565b868310156136685784890135613664601f891682613574565b8355505b6001600288020188555050505b50505050505050565b6136898383836135ae565b505050565b6000813561369b816129ec565b80915050919050565b6000819050919050565b6136b78261297f565b6136ca6136c3826136a4565b8354613339565b8255505050565b6000810160008301806136e381613316565b90506136ef81846133a7565b505050600181016020830161370481856133ca565b61370f81838661367e565b5050505060028101604083018061372581613316565b905061373181846133a7565b5050506003810160608301806137468161368e565b905061375281846136ae565b5050505050565b61376382826136d1565b5050565b60006137738385612909565b9350613780838584612305565b613789836121f9565b840190509392505050565b600060408201905081810360008301526137af818587613767565b90506137be602083018461279c565b949350505050565b6137cf81612792565b82525050565b600082825260208201905092915050565b60006137f1826128fe565b6137fb81856137d5565b935061380b818560208601612704565b613814816121f9565b840191505092915050565b6138288161297f565b82525050565b600060808301600083015161384660008601826137c6565b506020830151848203602086015261385e82826137e6565b915050604083015161387360408601826137c6565b506060830151613886606086018261381f565b508091505092915050565b600060608201905081810360008301526138ab818561382e565b90506138ba6020830184613021565b9392505050565b600081905092915050565b50565b60006138dc6000836138c1565b91506138e7826138cc565b600082019050919050565b60006138fd826138cf565b9150819050919050565b613910816123da565b82525050565b600060408201905061392b6000830185613907565b818103602083015261393d8184612737565b90509392505050565b60006020820190508181036000830152613960818461291a565b905092915050565b7f4e487b7100000000000000000000000000000000000000000000000000000000600052603260045260246000fd5b60006020820190506139ac6000830184612f00565b92915050565b60006139bd82612792565b91506139c883612792565b9250827fffffffffffffffffffffffffffffffffffffffffffffffffffffffffffffffff038211156139fd576139fc6130aa565b5b828201905092915050565b613a1181612384565b82525050565b6000602082019050613a2c6000830184613a08565b92915050565b6000613a3d82612792565b9150613a4883612792565b925082821015613a5b57613a5a6130aa565b5b828203905092915050565b7f4e487b7100000000000000000000000000000000000000000000000000000000600052603160045260246000fd5b6000613aa082612792565b91506000821415613ab457613ab36130aa565b5b600182039050919050565b6000613aca826126e8565b613ad481856138c1565b9350613ae4818560208601612704565b80840191505092915050565b6000613afc8284613abf565b915081905092915050565b6000613b1a613b1584612bb5565b61226a565b905082815260208101848484011115613b3657613b356122cf565b5b613b41848285612704565b509392505050565b600082601f830112613b5e57613b5d6122ca565b5b8151613b6e848260208601613b07565b91505092915050565b600060208284031215613b8d57613b8c6121ea565b5b600082015167ffffffffffffffff811115613bab57613baa6121ef565b5b613bb784828501613b49565b91505092915050565b600081519050613bcf816128a5565b92915050565b600081519050613be48161229e565b92915050565b60008060408385031215613c0157613c006121ea565b5b6000613c0f85828601613bc0565b9250506020613c2085828601613bd5565b9150509250929050565b6000604082019050613c3f6000830185612f00565b8181036020830152613c51818461291a565b90509392505050565b600081519050613c698161238e565b92915050565b600060208284031215613c8557613c846121ea565b5b6000613c9384828501613c5a565b91505092915050565b6000604082019050613cb16000830185613a08565b613cbe6020830184612991565b9392505050565b600060208284031215613cdb57613cda6121ea565b5b6000613ce984828501613bd5565b91505092915050565b6000613cfe8285613abf565b9150613d0a8284613abf565b91508190509392505050565b6000604082019050613d2b6000830185612991565b8181036020830152613d3d818461291a565b90509392505050565b600081519050919050565b6000819050602082019050919050565b6000602082019050919050565b6000613d7982613d46565b613d838185613222565b9350613d8e83613d51565b8060005b83811015613dbf578151613da6888261323d565b9750613db183613d61565b925050600181019050613d92565b5085935050505092915050565b6000608082019050613de16000830187612f00565b8181036020830152613df38186613d6e565b90508181036040830152613e078185613d6e565b90508181036060830152613e1b818461291a565b905095945050505050565b600081519050613e35816129ec565b92915050565b600067ffffffffffffffff821115613e5657613e5561220a565b5b602082029050602081019050919050565b600081519050613e76816123ec565b92915050565b6000613e8f613e8a84613e3b565b61226a565b90508083825260208201905060208402830185811115613eb257613eb1612444565b5b835b81811015613edb5780613ec78882613e67565b845260208401935050602081019050613eb4565b5050509392505050565b600082601f830112613efa57613ef96122ca565b5b8151613f0a848260208601613e7c565b91505092915050565b600060c08284031215613f2957613f286121f4565b5b613f3360c061226a565b90506000613f4384828501613e26565b6000830152506020613f5784828501613e26565b6020830152506040613f6b84828501613bd5565b604083015250606082015167ffffffffffffffff811115613f8f57613f8e612285565b5b613f9b84828501613ee5565b606083015250608082015167ffffffffffffffff811115613fbf57613fbe612285565b5b613fcb84828501613ee5565b60808301525060a082015167ffffffffffffffff811115613fef57613fee612285565b5b613ffb84828501613b49565b60a08301525092915050565b60006020828403121561401d5761401c6121ea565b5b600082015167ffffffffffffffff81111561403b5761403a6121ef565b5b61404784828501613f13565b91505092915050565b60006060820190506140656000830186612991565b8181036020830152614077818561291a565b9050818103604083015261408b8184612737565b9050949350505050565b7f4e487b7100000000000000000000000000000000000000000000000000000000600052601260045260246000fd5b60006140cf82612792565b91506140da83612792565b9250826140ea576140e9614095565b5b828204905092915050565b600061410082612792565b915061410b83612792565b9250817fffffffffffffffffffffffffffffffffffffffffffffffffffffffffffffffff0483118215151615614144576141436130aa565b5b828202905092915050565b60006040820190506141646000830185613a08565b614171602083018461279c565b939250505056fea26469706673582212206a464a07964f75fd8d4f231f0c049515a788f1764bb466b0b94e7d8fbb10f10964736f6c6343000808003360806040523480156200001157600080fd5b5060405162004373380380620043738339818101604052810190620000379190620002a4565b80600090805190602001906200004f92919062000057565b50506200035a565b828054620000659062000324565b90600052602060002090601f016020900481019282620000895760008555620000d5565b82601f10620000a457805160ff1916838001178555620000d5565b82800160010185558215620000d5579182015b82811115620000d4578251825591602001919060010190620000b7565b5b509050620000e49190620000e8565b5090565b5b8082111562000103576000816000905550600101620000e9565b5090565b6000604051905090565b600080fd5b600080fd5b600080fd5b600080fd5b6000601f19601f8301169050919050565b7f4e487b7100000000000000000000000000000000000000000000000000000000600052604160045260246000fd5b620001708262000125565b810181811067ffffffffffffffff8211171562000192576200019162000136565b5b80604052505050565b6000620001a762000107565b9050620001b5828262000165565b919050565b600067ffffffffffffffff821115620001d857620001d762000136565b5b620001e38262000125565b9050602081019050919050565b60005b8381101562000210578082015181840152602081019050620001f3565b8381111562000220576000848401525b50505050565b60006200023d6200023784620001ba565b6200019b565b9050828152602081018484840111156200025c576200025b62000120565b5b62000269848285620001f0565b509392505050565b600082601f8301126200028957620002886200011b565b5b81516200029b84826020860162000226565b91505092915050565b600060208284031215620002bd57620002bc62000111565b5b600082015167ffffffffffffffff811115620002de57620002dd62000116565b5b620002ec8482850162000271565b91505092915050565b7f4e487b7100000000000000000000000000000000000000000000000000000000600052602260045260246000fd5b600060028204905060018216806200033d57607f821691505b60208210811415620003545762000353620002f5565b5b50919050565b614009806200036a6000396000f3fe608060405234801561001057600080fd5b50600436106100b45760003560e01c8063b33e471511610071578063b33e4715146101da578063bcbb35971461020b578063d503387a14610227578063e48c31e014610257578063e829cd5d14610287578063ff4aec7d146102b7576100b4565b8063232ef1f4146100b9578063346ab175146100ea578063464b0c3a1461011a5780636a9cc4b31461014a57806373e9710f1461017a5780637df1cde2146101aa575b600080fd5b6100d360048036038101906100ce9190612533565b6102d5565b6040516100e1929190612850565b60405180910390f35b61010460048036038101906100ff9190612887565b6104e4565b60405161011191906128e3565b60405180910390f35b610134600480360381019061012f9190612533565b61090e565b60405161014191906128e3565b60405180910390f35b610164600480360381019061015f919061293b565b610ab0565b60405161017191906129e1565b60405180910390f35b610194600480360381019061018f9190612a03565b610b52565b6040516101a191906128e3565b60405180910390f35b6101c460048036038101906101bf9190612a30565b610c45565b6040516101d191906128e3565b60405180910390f35b6101f460048036038101906101ef9190612c43565b610ca5565b604051610202929190612850565b60405180910390f35b61022560048036038101906102209190612cdf565b610d40565b005b610241600480360381019061023c9190612887565b610db7565b60405161024e91906128e3565b60405180910390f35b610271600480360381019061026c9190612d28565b611404565b60405161027e91906129e1565b60405180910390f35b6102a1600480360381019061029c9190612d84565b611446565b6040516102ae9190612ddf565b60405180910390f35b6102bf61154d565b6040516102cc91906128e3565b60405180910390f35b6102dd611e2e565b60606000600267ffffffffffffffff8111156102fc576102fb611ef5565b5b60405190808252806020026020018201604052801561032a5781602001602082028036833780820191505090505b509050308160008151811061034257610341612dfa565b5b602002602001019073ffffffffffffffffffffffffffffffffffffffff16908173ffffffffffffffffffffffffffffffffffffffff168152505063421000018160018151811061039557610394612dfa565b5b602002602001019073ffffffffffffffffffffffffffffffffffffffff16908173ffffffffffffffffffffffffffffffffffffffff168152505060006104128783846040518060400160405280601c81526020017f64656661756c743a76303a6d6572676564446174615265636f72647300000000815250611586565b905061047781600001516040518060400160405280601c81526020017f64656661756c743a76303a6d6572676564446174615265636f72647300000000815250886040516020016104639190612ed8565b60405160208183030381529060405261168c565b6000806104898a84600001518961176f565b915091506104d183600001516040518060400160405280601981526020017f64656661756c743a76303a6275696c6465725061796c6f6164000000000000008152508361168c565b8282955095505050505094509492505050565b60606104ee611870565b6104f757600080fd5b6000610538836040518060400160405280601581526020017f64656661756c743a76303a65746842756e646c65730000000000000000000000815250611938565b905060008151141561058157306040517f75fff4670000000000000000000000000000000000000000000000000000000081526004016105789190612f55565b60405180910390fd5b6000815167ffffffffffffffff81111561059e5761059d611ef5565b5b6040519080825280602002602001820160405280156105d757816020015b6105c4611e94565b8152602001906001900390816105bc5790505b50905060005b82518110156106e25760006106458483815181106105fe576105fd612dfa565b5b6020026020010151600001516040518060400160405280601e81526020017f64656661756c743a76303a65746842756e646c6553696d526573756c74730000815250611a32565b905060008180602001905181019061065d9190612f98565b905060405180604001604052808267ffffffffffffffff16815260200186858151811061068d5761068c612dfa565b5b6020026020010151600001516fffffffffffffffffffffffffffffffff19168152508484815181106106c2576106c1612dfa565b5b6020026020010181905250505080806106da90612ff4565b9150506105dd565b5060008151905060005b6001826106f9919061303d565b81101561081257600060018261070f9190613071565b90505b828110156107fe5783818151811061072d5761072c612dfa565b5b60200260200101516000015167ffffffffffffffff1684838151811061075657610755612dfa565b5b60200260200101516000015167ffffffffffffffff1610156107eb57600084838151811061078757610786612dfa565b5b602002602001015190508482815181106107a4576107a3612dfa565b5b60200260200101518584815181106107bf576107be612dfa565b5b6020026020010181905250808583815181106107de576107dd612dfa565b5b6020026020010181905250505b80806107f690612ff4565b915050610712565b50808061080a90612ff4565b9150506106ec565b506000835167ffffffffffffffff8111156108305761082f611ef5565b5b60405190808252806020026020018201604052801561085e5781602001602082028036833780820191505090505b50905060005b83518110156108e6578381815181106108805761087f612dfa565b5b60200260200101516020015182828151811061089f5761089e612dfa565b5b60200260200101906fffffffffffffffffffffffffffffffff191690816fffffffffffffffffffffffffffffffff19168152505080806108de90612ff4565b915050610864565b506109028787836040518060200160405280600081525061090e565b94505050505092915050565b606061095661091b611870565b6040518060400160405280601081526020017f4e6f7420636f6e666964656e7469616c00000000000000000000000000000000815250611b19565b6000803073ffffffffffffffffffffffffffffffffffffffff1663232ef1f4888888886040518563ffffffff1660e01b81526004016109989493929190613306565b60006040518083038186803b1580156109b057600080fd5b505afa1580156109c4573d6000803e3d6000fd5b505050506040513d6000823e3d601f19601f820116820180604052508101906109ed91906135f5565b915091506109ff826000015182611b5f565b610a0881611c41565b6000610a2282896000015167ffffffffffffffff16610ab0565b905063e48c31e060e01b818380519060200120604051602401610a4692919061367c565b604051602081830303815290604052907bffffffffffffffffffffffffffffffffffffffffffffffffffffffff19166020820180517bffffffffffffffffffffffffffffffffffffffffffffffffffffffff83818316178352505050509350505050949350505050565b60606000604090506000610ac384611d1d565b6079610acf9190613071565b905060008267ffffffffffffffff811115610aed57610aec611ef5565b5b6040519080825280601f01601f191660200182016040528015610b1f5781602001600182028036833780820191505090505b50905060205b60208401811015610b455780830187015181830152602081019050610b25565b5080935050505092915050565b6060610b9a610b5f611870565b6040518060400160405280601081526020017f4e6f7420636f6e666964656e7469616c00000000000000000000000000000000815250611b19565b6000610ba4611d57565b9050610baf81611c41565b6000610bbb8285610ab0565b905063e48c31e060e01b818380519060200120604051602401610bdf92919061367c565b604051602081830303815290604052907bffffffffffffffffffffffffffffffffffffffffffffffffffffffff19166020820180517bffffffffffffffffffffffffffffffffffffffffffffffffffffffff838183161783525050505092505050919050565b6060610c4f611870565b610c5857600080fd5b6000610c99846040518060400160405280601981526020017f64656661756c743a76303a6275696c6465725061796c6f616400000000000000815250611a32565b90508091505092915050565b610cad611e2e565b60607f67fa9c16cd72410c4cc1d47205b31852a81ec5e92d1c8cebc3ecbe98ed67fe3f846000015184604051610ce49291906136bb565b60405180910390a17ff7645ba1634d8aed79d5bd07dd401d4ef0860e018d7eb3949c3f4da8fa26fb47846000015185604001518660600151604051610d2b9392919061375a565b60405180910390a18383915091509250929050565b7ff7645ba1634d8aed79d5bd07dd401d4ef0860e018d7eb3949c3f4da8fa26fb4781600001356fffffffffffffffffffffffffffffffff1916826040016020810190610d8c9190613798565b838060600190610d9c91906137d4565b604051610dac94939291906138c2565b60405180910390a150565b6060610dc1611870565b610dca57600080fd5b6000610e0b836040518060400160405280601c81526020017f6d657673686172653a76303a6d61746368446174615265636f72647300000000815250611938565b90506000610e4e846040518060400160405280601c81526020017f6d657673686172653a76303a756e6d61746368656442756e646c657300000000815250611938565b9050600081511415610e9757306040517f75fff467000000000000000000000000000000000000000000000000000000008152600401610e8e9190612f55565b60405180910390fd5b6000815167ffffffffffffffff811115610eb457610eb3611ef5565b5b604051908082528060200260200182016040528015610eed57816020015b610eda611e2e565b815260200190600190039081610ed25790505b50905060005b825181101561104e576000838281518110610f1157610f10612dfa565b5b6020026020010151905060005b855181101561101a576000610f86878381518110610f3f57610f3e612dfa565b5b6020026020010151600001516040518060400160405280601d81526020017f6d657673686172653a76303a6d6572676564446174615265636f726473000000815250611a32565b806020019051810190610f999190613999565b9050610fde81600081518110610fb257610fb1612dfa565b5b6020026020010151878681518110610fcd57610fcc612dfa565b5b602002602001015160000151611446565b1561100657868281518110610ff657610ff5612dfa565b5b602002602001015192505061101a565b50808061101290612ff4565b915050610f1e565b508083838151811061102f5761102e612dfa565b5b602002602001018190525050808061104690612ff4565b915050610ef3565b506000815167ffffffffffffffff81111561106c5761106b611ef5565b5b6040519080825280602002602001820160405280156110a557816020015b611092611e94565b81526020019060019003908161108a5790505b50905060005b82518110156111b05760006111138483815181106110cc576110cb612dfa565b5b6020026020010151600001516040518060400160405280601f81526020017f6d657673686172653a76303a65746842756e646c6553696d526573756c747300815250611a32565b905060008180602001905181019061112b9190612f98565b905060405180604001604052808267ffffffffffffffff16815260200186858151811061115b5761115a612dfa565b5b6020026020010151600001516fffffffffffffffffffffffffffffffff19168152508484815181106111905761118f612dfa565b5b6020026020010181905250505080806111a890612ff4565b9150506110ab565b5060008151905060005b6001826111c7919061303d565b8110156112e05760006001826111dd9190613071565b90505b828110156112cc578381815181106111fb576111fa612dfa565b5b60200260200101516000015167ffffffffffffffff1684838151811061122457611223612dfa565b5b60200260200101516000015167ffffffffffffffff1610156112b957600084838151811061125557611254612dfa565b5b6020026020010151905084828151811061127257611271612dfa565b5b602002602001015185848151811061128d5761128c612dfa565b5b6020026020010181905250808583815181106112ac576112ab612dfa565b5b6020026020010181905250505b80806112c490612ff4565b9150506111e0565b5080806112d890612ff4565b9150506111ba565b506000835167ffffffffffffffff8111156112fe576112fd611ef5565b5b60405190808252806020026020018201604052801561132c5781602001602082028036833780820191505090505b50905060005b83518110156113b45783818151811061134e5761134d612dfa565b5b60200260200101516020015182828151811061136d5761136c612dfa565b5b60200260200101906fffffffffffffffffffffffffffffffff191690816fffffffffffffffffffffffffffffffff19168152505080806113ac90612ff4565b915050611332565b506113f68989836040518060400160405280600b81526020017f6d657673686172653a763000000000000000000000000000000000000000000081525061090e565b965050505050505092915050565b60607f53e8ee078f2cd7d535018fdc18210ac92e4b70ee40542d1a43816dba5faae1698260405161143591906139e2565b60405180910390a182905092915050565b6000808360405160200161145a9190613a1e565b604051602081830303815290604052905060008360405160200161147e9190613a1e565b604051602081830303815290604052905060005b825181101561153f578181815181106114ae576114ad612dfa565b5b602001015160f81c60f81b7effffffffffffffffffffffffffffffffffffffffffffffffffffffffffffff19168382815181106114ee576114ed612dfa565b5b602001015160f81c60f81b7effffffffffffffffffffffffffffffffffffffffffffffffffffffffffffff19161461152c5760009350505050611547565b808061153790612ff4565b915050611492565b506001925050505b92915050565b6060611557611870565b61156057600080fd5b600061156a611d57565b9050808060200190518101906115809190613a39565b91505090565b61158e611e2e565b600080634203000073ffffffffffffffffffffffffffffffffffffffff16878787876040516020016115c39493929190613a82565b6040516020818303038152906040526040516115df9190613b18565b600060405180830381855afa9150503d806000811461161a576040519150601f19603f3d011682016040523d82523d6000602084013e61161f565b606091505b50915091508161166c576342030000816040517f75fff467000000000000000000000000000000000000000000000000000000008152600401611663929190613b2f565b60405180910390fd5b808060200190518101906116809190613b5f565b92505050949350505050565b600080634202000073ffffffffffffffffffffffffffffffffffffffff168585856040516020016116bf93929190613ba8565b6040516020818303038152906040526040516116db9190613b18565b600060405180830381855afa9150503d8060008114611716576040519150601f19603f3d011682016040523d82523d6000602084013e61171b565b606091505b509150915081611768576342020000816040517f75fff46700000000000000000000000000000000000000000000000000000000815260040161175f929190613b2f565b60405180910390fd5b5050505050565b606080600080634210000173ffffffffffffffffffffffffffffffffffffffff168787876040516020016117a593929190613bed565b6040516020818303038152906040526040516117c19190613b18565b600060405180830381855afa9150503d80600081146117fc576040519150601f19603f3d011682016040523d82523d6000602084013e611801565b606091505b50915091508161184e576342100001816040517f75fff467000000000000000000000000000000000000000000000000000000008152600401611845929190613b2f565b60405180910390fd5b808060200190518101906118629190613c32565b935093505050935093915050565b6000806000634201000073ffffffffffffffffffffffffffffffffffffffff1660405161189c90613cd0565b600060405180830381855afa9150503d80600081146118d7576040519150601f19603f3d011682016040523d82523d6000602084013e6118dc565b606091505b509150915081611929576342010000816040517f75fff467000000000000000000000000000000000000000000000000000000008152600401611920929190613b2f565b60405180910390fd5b80516020820151935050505090565b6060600080634203000173ffffffffffffffffffffffffffffffffffffffff16858560405160200161196b929190613ce5565b6040516020818303038152906040526040516119879190613b18565b600060405180830381855afa9150503d80600081146119c2576040519150601f19603f3d011682016040523d82523d6000602084013e6119c7565b606091505b509150915081611a14576342030001816040517f75fff467000000000000000000000000000000000000000000000000000000008152600401611a0b929190613b2f565b60405180910390fd5b80806020019051810190611a289190613df6565b9250505092915050565b6060600080634202000173ffffffffffffffffffffffffffffffffffffffff168585604051602001611a65929190613e3f565b604051602081830303815290604052604051611a819190613b18565b600060405180830381855afa9150503d8060008114611abc576040519150601f19603f3d011682016040523d82523d6000602084013e611ac1565b606091505b509150915081611b0e576342020001816040517f75fff467000000000000000000000000000000000000000000000000000000008152600401611b05929190613b2f565b60405180910390fd5b809250505092915050565b81611b5b57806040517f0c25cd98000000000000000000000000000000000000000000000000000000008152600401611b5291906129e1565b60405180910390fd5b5050565b6000600167ffffffffffffffff811115611b7c57611b7b611ef5565b5b604051908082528060200260200182016040528015611baa5781602001602082028036833780820191505090505b5090503081600081518110611bc257611bc1612dfa565b5b602002602001019073ffffffffffffffffffffffffffffffffffffffff16908173ffffffffffffffffffffffffffffffffffffffff1681525050611c3c836040518060400160405280601581526020017f626c6f636b61643a76303a6275696c64657242696400000000000000000000008152508461168c565b505050565b600080634210000273ffffffffffffffffffffffffffffffffffffffff16600084604051602001611c73929190613f65565b604051602081830303815290604052604051611c8f9190613b18565b600060405180830381855afa9150503d8060008114611cca576040519150601f19603f3d011682016040523d82523d6000602084013e611ccf565b606091505b509150915081611d185780836040517fda3e641f000000000000000000000000000000000000000000000000000000008152600401611d0f929190613f9c565b60405180910390fd5b505050565b6000600a5b600115611d515760018201915080831060018114611d3f57611d45565b50611d51565b50600a81029050611d22565b50919050565b6060600080634201000173ffffffffffffffffffffffffffffffffffffffff16604051602001604051602081830303815290604052604051611d999190613b18565b600060405180830381855afa9150503d8060008114611dd4576040519150601f19603f3d011682016040523d82523d6000602084013e611dd9565b606091505b509150915081611e26576342010001816040517f75fff467000000000000000000000000000000000000000000000000000000008152600401611e1d929190613b2f565b60405180910390fd5b809250505090565b6040518060c0016040528060006fffffffffffffffffffffffffffffffff1916815260200160006fffffffffffffffffffffffffffffffff19168152602001600067ffffffffffffffff1681526020016060815260200160608152602001606081525090565b6040518060400160405280600067ffffffffffffffff16815260200160006fffffffffffffffffffffffffffffffff191681525090565b6000604051905090565b600080fd5b600080fd5b600080fd5b6000601f19601f8301169050919050565b7f4e487b7100000000000000000000000000000000000000000000000000000000600052604160045260246000fd5b611f2d82611ee4565b810181811067ffffffffffffffff82111715611f4c57611f4b611ef5565b5b80604052505050565b6000611f5f611ecb565b9050611f6b8282611f24565b919050565b600080fd5b600067ffffffffffffffff82169050919050565b611f9281611f75565b8114611f9d57600080fd5b50565b600081359050611faf81611f89565b92915050565b600080fd5b600080fd5b600067ffffffffffffffff821115611fda57611fd9611ef5565b5b611fe382611ee4565b9050602081019050919050565b82818337600083830152505050565b600061201261200d84611fbf565b611f55565b90508281526020810184848401111561202e5761202d611fba565b5b612039848285611ff0565b509392505050565b600082601f83011261205657612055611fb5565b5b8135612066848260208601611fff565b91505092915050565b6000819050919050565b6120828161206f565b811461208d57600080fd5b50565b60008135905061209f81612079565b92915050565b600073ffffffffffffffffffffffffffffffffffffffff82169050919050565b60006120d0826120a5565b9050919050565b6120e0816120c5565b81146120eb57600080fd5b50565b6000813590506120fd816120d7565b92915050565b600067ffffffffffffffff82111561211e5761211d611ef5565b5b602082029050602081019050919050565b600080fd5b60006080828403121561214a57612149611edf565b5b6121546080611f55565b9050600061216484828501611fa0565b600083015250602061217884828501611fa0565b602083015250604061218c848285016120ee565b60408301525060606121a084828501611fa0565b60608301525092915050565b60006121bf6121ba84612103565b611f55565b905080838252602082019050608084028301858111156121e2576121e161212f565b5b835b8181101561220b57806121f78882612134565b8452602084019350506080810190506121e4565b5050509392505050565b600082601f83011261222a57612229611fb5565b5b813561223a8482602086016121ac565b91505092915050565b6000610120828403121561225a57612259611edf565b5b612265610120611f55565b9050600061227584828501611fa0565b600083015250602082013567ffffffffffffffff81111561229957612298611f70565b5b6122a584828501612041565b60208301525060406122b984828501612090565b60408301525060606122cd84828501611fa0565b60608301525060806122e1848285016120ee565b60808301525060a06122f584828501611fa0565b60a08301525060c061230984828501612090565b60c08301525060e082013567ffffffffffffffff81111561232d5761232c611f70565b5b61233984828501612215565b60e08301525061010082013567ffffffffffffffff81111561235e5761235d611f70565b5b61236a84828501612041565b6101008301525092915050565b600067ffffffffffffffff82111561239257612391611ef5565b5b602082029050602081019050919050565b60007fffffffffffffffffffffffffffffffff0000000000000000000000000000000082169050919050565b6123d8816123a3565b81146123e357600080fd5b50565b6000813590506123f5816123cf565b92915050565b600061240e61240984612377565b611f55565b905080838252602082019050602084028301858111156124315761243061212f565b5b835b8181101561245a578061244688826123e6565b845260208401935050602081019050612433565b5050509392505050565b600082601f83011261247957612478611fb5565b5b81356124898482602086016123fb565b91505092915050565b600067ffffffffffffffff8211156124ad576124ac611ef5565b5b6124b682611ee4565b9050602081019050919050565b60006124d66124d184612492565b611f55565b9050828152602081018484840111156124f2576124f1611fba565b5b6124fd848285611ff0565b509392505050565b600082601f83011261251a57612519611fb5565b5b813561252a8482602086016124c3565b91505092915050565b6000806000806080858703121561254d5761254c611ed5565b5b600085013567ffffffffffffffff81111561256b5761256a611eda565b5b61257787828801612243565b945050602061258887828801611fa0565b935050604085013567ffffffffffffffff8111156125a9576125a8611eda565b5b6125b587828801612464565b925050606085013567ffffffffffffffff8111156125d6576125d5611eda565b5b6125e287828801612505565b91505092959194509250565b60006125f9826123a3565b9050919050565b612609816125ee565b82525050565b61261881611f75565b82525050565b600081519050919050565b600082825260208201905092915050565b6000819050602082019050919050565b612653816120c5565b82525050565b6000612665838361264a565b60208301905092915050565b6000602082019050919050565b60006126898261261e565b6126938185612629565b935061269e8361263a565b8060005b838110156126cf5781516126b68882612659565b97506126c183612671565b9250506001810190506126a2565b5085935050505092915050565b600081519050919050565b600082825260208201905092915050565b60005b838110156127165780820151818401526020810190506126fb565b83811115612725576000848401525b50505050565b6000612736826126dc565b61274081856126e7565b93506127508185602086016126f8565b61275981611ee4565b840191505092915050565b600060c08301600083015161277c6000860182612600565b50602083015161278f6020860182612600565b5060408301516127a2604086018261260f565b50606083015184820360608601526127ba828261267e565b915050608083015184820360808601526127d4828261267e565b91505060a083015184820360a08601526127ee828261272b565b9150508091505092915050565b600081519050919050565b600082825260208201905092915050565b6000612822826127fb565b61282c8185612806565b935061283c8185602086016126f8565b61284581611ee4565b840191505092915050565b6000604082019050818103600083015261286a8185612764565b9050818103602083015261287e8184612817565b90509392505050565b6000806040838503121561289e5761289d611ed5565b5b600083013567ffffffffffffffff8111156128bc576128bb611eda565b5b6128c885828601612243565b92505060206128d985828601611fa0565b9150509250929050565b600060208201905081810360008301526128fd8184612817565b905092915050565b6000819050919050565b61291881612905565b811461292357600080fd5b50565b6000813590506129358161290f565b92915050565b6000806040838503121561295257612951611ed5565b5b600083013567ffffffffffffffff8111156129705761296f611eda565b5b61297c85828601612041565b925050602061298d85828601612926565b9150509250929050565b600082825260208201905092915050565b60006129b3826126dc565b6129bd8185612997565b93506129cd8185602086016126f8565b6129d681611ee4565b840191505092915050565b600060208201905081810360008301526129fb81846129a8565b905092915050565b600060208284031215612a1957612a18611ed5565b5b6000612a2784828501612926565b91505092915050565b60008060408385031215612a4757612a46611ed5565b5b6000612a55858286016123e6565b925050602083013567ffffffffffffffff811115612a7657612a75611eda565b5b612a8285828601612041565b9150509250929050565b600067ffffffffffffffff821115612aa757612aa6611ef5565b5b602082029050602081019050919050565b6000612acb612ac684612a8c565b611f55565b90508083825260208201905060208402830185811115612aee57612aed61212f565b5b835b81811015612b175780612b0388826120ee565b845260208401935050602081019050612af0565b5050509392505050565b600082601f830112612b3657612b35611fb5565b5b8135612b46848260208601612ab8565b91505092915050565b600060c08284031215612b6557612b64611edf565b5b612b6f60c0611f55565b90506000612b7f848285016123e6565b6000830152506020612b93848285016123e6565b6020830152506040612ba784828501611fa0565b604083015250606082013567ffffffffffffffff811115612bcb57612bca611f70565b5b612bd784828501612b21565b606083015250608082013567ffffffffffffffff811115612bfb57612bfa611f70565b5b612c0784828501612b21565b60808301525060a082013567ffffffffffffffff811115612c2b57612c2a611f70565b5b612c3784828501612505565b60a08301525092915050565b60008060408385031215612c5a57612c59611ed5565b5b600083013567ffffffffffffffff811115612c7857612c77611eda565b5b612c8485828601612b4f565b925050602083013567ffffffffffffffff811115612ca557612ca4611eda565b5b612cb185828601612041565b9150509250929050565b600080fd5b600060c08284031215612cd657612cd5612cbb565b5b81905092915050565b600060208284031215612cf557612cf4611ed5565b5b600082013567ffffffffffffffff811115612d1357612d12611eda565b5b612d1f84828501612cc0565b91505092915050565b60008060408385031215612d3f57612d3e611ed5565b5b600083013567ffffffffffffffff811115612d5d57612d5c611eda565b5b612d6985828601612505565b9250506020612d7a85828601612090565b9150509250929050565b60008060408385031215612d9b57612d9a611ed5565b5b6000612da9858286016123e6565b9250506020612dba858286016123e6565b9150509250929050565b60008115159050919050565b612dd981612dc4565b82525050565b6000602082019050612df46000830184612dd0565b92915050565b7f4e487b7100000000000000000000000000000000000000000000000000000000600052603260045260246000fd5b600081519050919050565b600082825260208201905092915050565b6000819050602082019050919050565b6000612e618383612600565b60208301905092915050565b6000602082019050919050565b6000612e8582612e29565b612e8f8185612e34565b9350612e9a83612e45565b8060005b83811015612ecb578151612eb28882612e55565b9750612ebd83612e6d565b925050600181019050612e9e565b5085935050505092915050565b60006020820190508181036000830152612ef28184612e7a565b905092915050565b612f03816120c5565b82525050565b7f6e6f2064617461207265636f7264730000000000000000000000000000000000600082015250565b6000612f3f600f83612806565b9150612f4a82612f09565b602082019050919050565b6000604082019050612f6a6000830184612efa565b8181036020830152612f7b81612f32565b905092915050565b600081519050612f9281611f89565b92915050565b600060208284031215612fae57612fad611ed5565b5b6000612fbc84828501612f83565b91505092915050565b7f4e487b7100000000000000000000000000000000000000000000000000000000600052601160045260246000fd5b6000612fff82612905565b91507fffffffffffffffffffffffffffffffffffffffffffffffffffffffffffffffff82141561303257613031612fc5565b5b600182019050919050565b600061304882612905565b915061305383612905565b92508282101561306657613065612fc5565b5b828203905092915050565b600061307c82612905565b915061308783612905565b9250827fffffffffffffffffffffffffffffffffffffffffffffffffffffffffffffffff038211156130bc576130bb612fc5565b5b828201905092915050565b600082825260208201905092915050565b60006130e3826127fb565b6130ed81856130c7565b93506130fd8185602086016126f8565b61310681611ee4565b840191505092915050565b61311a8161206f565b82525050565b600081519050919050565b600082825260208201905092915050565b6000819050602082019050919050565b608082016000820151613162600085018261260f565b506020820151613175602085018261260f565b506040820151613188604085018261264a565b50606082015161319b606085018261260f565b50505050565b60006131ad838361314c565b60808301905092915050565b6000602082019050919050565b60006131d182613120565b6131db818561312b565b93506131e68361313c565b8060005b838110156132175781516131fe88826131a1565b9750613209836131b9565b9250506001810190506131ea565b5085935050505092915050565b60006101208301600083015161323d600086018261260f565b506020830151848203602086015261325582826130d8565b915050604083015161326a6040860182613111565b50606083015161327d606086018261260f565b506080830151613290608086018261264a565b5060a08301516132a360a086018261260f565b5060c08301516132b660c0860182613111565b5060e083015184820360e08601526132ce82826131c6565b9150506101008301518482036101008601526132ea82826130d8565b9150508091505092915050565b61330081611f75565b82525050565b600060808201905081810360008301526133208187613224565b905061332f60208301866132f7565b81810360408301526133418185612e7a565b9050818103606083015261335581846129a8565b905095945050505050565b60008151905061336f816123cf565b92915050565b600081519050613384816120d7565b92915050565b600061339d61339884612a8c565b611f55565b905080838252602082019050602084028301858111156133c0576133bf61212f565b5b835b818110156133e957806133d58882613375565b8452602084019350506020810190506133c2565b5050509392505050565b600082601f83011261340857613407611fb5565b5b815161341884826020860161338a565b91505092915050565b600061343461342f84612492565b611f55565b9050828152602081018484840111156134505761344f611fba565b5b61345b8482856126f8565b509392505050565b600082601f83011261347857613477611fb5565b5b8151613488848260208601613421565b91505092915050565b600060c082840312156134a7576134a6611edf565b5b6134b160c0611f55565b905060006134c184828501613360565b60008301525060206134d584828501613360565b60208301525060406134e984828501612f83565b604083015250606082015167ffffffffffffffff81111561350d5761350c611f70565b5b613519848285016133f3565b606083015250608082015167ffffffffffffffff81111561353d5761353c611f70565b5b613549848285016133f3565b60808301525060a082015167ffffffffffffffff81111561356d5761356c611f70565b5b61357984828501613463565b60a08301525092915050565b600061359861359384611fbf565b611f55565b9050828152602081018484840111156135b4576135b3611fba565b5b6135bf8482856126f8565b509392505050565b600082601f8301126135dc576135db611fb5565b5b81516135ec848260208601613585565b91505092915050565b6000806040838503121561360c5761360b611ed5565b5b600083015167ffffffffffffffff81111561362a57613629611eda565b5b61363685828601613491565b925050602083015167ffffffffffffffff81111561365757613656611eda565b5b613663858286016135c7565b9150509250929050565b6136768161206f565b82525050565b6000604082019050818103600083015261369681856129a8565b90506136a5602083018461366d565b9392505050565b6136b5816125ee565b82525050565b60006040820190506136d060008301856136ac565b81810360208301526136e28184612817565b90509392505050565b600082825260208201905092915050565b60006137078261261e565b61371181856136eb565b935061371c8361263a565b8060005b8381101561374d5781516137348882612659565b975061373f83612671565b925050600181019050613720565b5085935050505092915050565b600060608201905061376f60008301866136ac565b61377c60208301856132f7565b818103604083015261378e81846136fc565b9050949350505050565b6000602082840312156137ae576137ad611ed5565b5b60006137bc84828501611fa0565b91505092915050565b600080fd5b600080fd5b600080fd5b600080833560016020038436030381126137f1576137f06137c5565b5b80840192508235915067ffffffffffffffff821115613813576138126137ca565b5b60208301925060208202360383131561382f5761382e6137cf565b5b509250929050565b6000819050919050565b600061385060208401846120ee565b905092915050565b6000602082019050919050565b600061387183856136eb565b935061387c82613837565b8060005b858110156138b5576138928284613841565b61389c8882612659565b97506138a783613858565b925050600181019050613880565b5085925050509392505050565b60006060820190506138d760008301876136ac565b6138e460208301866132f7565b81810360408301526138f7818486613865565b905095945050505050565b600061391561391084612377565b611f55565b905080838252602082019050602084028301858111156139385761393761212f565b5b835b81811015613961578061394d8882613360565b84526020840193505060208101905061393a565b5050509392505050565b600082601f8301126139805761397f611fb5565b5b8151613990848260208601613902565b91505092915050565b6000602082840312156139af576139ae611ed5565b5b600082015167ffffffffffffffff8111156139cd576139cc611eda565b5b6139d98482850161396b565b91505092915050565b60006020820190506139f7600083018461366d565b92915050565b6000819050919050565b613a18613a13826125ee565b6139fd565b82525050565b6000613a2a8284613a07565b60108201915081905092915050565b600060208284031215613a4f57613a4e611ed5565b5b600082015167ffffffffffffffff811115613a6d57613a6c611eda565b5b613a79848285016135c7565b91505092915050565b6000608082019050613a9760008301876132f7565b8181036020830152613aa981866136fc565b90508181036040830152613abd81856136fc565b90508181036060830152613ad181846129a8565b905095945050505050565b600081905092915050565b6000613af2826127fb565b613afc8185613adc565b9350613b0c8185602086016126f8565b80840191505092915050565b6000613b248284613ae7565b915081905092915050565b6000604082019050613b446000830185612efa565b8181036020830152613b568184612817565b90509392505050565b600060208284031215613b7557613b74611ed5565b5b600082015167ffffffffffffffff811115613b9357613b92611eda565b5b613b9f84828501613491565b91505092915050565b6000606082019050613bbd60008301866136ac565b8181036020830152613bcf81856129a8565b90508181036040830152613be38184612817565b9050949350505050565b60006060820190508181036000830152613c078186613224565b9050613c1660208301856136ac565b8181036040830152613c2881846129a8565b9050949350505050565b60008060408385031215613c4957613c48611ed5565b5b600083015167ffffffffffffffff811115613c6757613c66611eda565b5b613c73858286016135c7565b925050602083015167ffffffffffffffff811115613c9457613c93611eda565b5b613ca0858286016135c7565b9150509250929050565b50565b6000613cba600083613adc565b9150613cc582613caa565b600082019050919050565b6000613cdb82613cad565b9150819050919050565b6000604082019050613cfa60008301856132f7565b8181036020830152613d0c81846129a8565b90509392505050565b600067ffffffffffffffff821115613d3057613d2f611ef5565b5b602082029050602081019050919050565b6000613d54613d4f84613d15565b611f55565b90508083825260208201905060208402830185811115613d7757613d7661212f565b5b835b81811015613dbe57805167ffffffffffffffff811115613d9c57613d9b611fb5565b5b808601613da98982613491565b85526020850194505050602081019050613d79565b5050509392505050565b600082601f830112613ddd57613ddc611fb5565b5b8151613ded848260208601613d41565b91505092915050565b600060208284031215613e0c57613e0b611ed5565b5b600082015167ffffffffffffffff811115613e2a57613e29611eda565b5b613e3684828501613dc8565b91505092915050565b6000604082019050613e5460008301856136ac565b8181036020830152613e6681846129a8565b90509392505050565b7f4e487b7100000000000000000000000000000000000000000000000000000000600052602260045260246000fd5b60006002820490506001821680613eb657607f821691505b60208210811415613eca57613ec9613e6f565b5b50919050565b60008190508160005260206000209050919050565b60008154613ef281613e9e565b613efc8186612997565b94506001821660008114613f175760018114613f2957613f5c565b60ff1983168652602086019350613f5c565b613f3285613ed0565b60005b83811015613f5457815481890152600182019150602081019050613f35565b808801955050505b50505092915050565b60006040820190508181036000830152613f7f8185613ee5565b90508181036020830152613f938184612817565b90509392505050565b60006040820190508181036000830152613fb681856129a8565b90508181036020830152613fca8184612817565b9050939250505056fea2646970667358221220fcdb43b0e6243c4192d2e3121973076a4a598f40394f4de0f4eab2ecb6203e3564736f6c63430008080033",
  "devdoc": {
    "kind": "dev",
    "methods": {},
    "version": 1
  },
  "userdoc": {
    "kind": "user",
    "methods": {},
    "version": 1
  },
  "storageLayout": {
    "storage": [
      {
        "astId": 980,
        "contract": "contracts/blockad/BlockAdV2.sol:BlockAdAuctionV2",
        "label": "secretBidId",
        "offset": 0,
        "slot": "0",
        "type": "t_userDefinedValueType(DataId)1481"
      },
      {
        "astId": 982,
        "contract": "contracts/blockad/BlockAdV2.sol:BlockAdAuctionV2",
        "label": "presentHash",
        "offset": 0,
        "slot": "1",
        "type": "t_bytes32"
      },
      {
        "astId": 984,
        "contract": "contracts/blockad/BlockAdV2.sol:BlockAdAuctionV2",
        "label": "nonce",
        "offset": 0,
        "slot": "2",
        "type": "t_uint256"
      },
      {
        "astId": 68,
        "contract": "contracts/blockad/BlockAdV2.sol:BlockAdAuctionV2",
        "label": "builder",
        "offset": 0,
        "slot": "3",
        "type": "t_contract(Builder)939"
      },
      {
        "astId": 72,
        "contract": "contracts/blockad/BlockAdV2.sol:BlockAdAuctionV2",
        "label": "requests",
        "offset": 0,
        "slot": "4",
        "type": "t_array(t_struct(AdRequest)27_storage)dyn_storage"
      },
      {
        "astId": 74,
        "contract": "contracts/blockad/BlockAdV2.sol:BlockAdAuctionV2",
        "label": "nextId",
        "offset": 0,
        "slot": "5",
        "type": "t_uint256"
      }
    ],
    "types": {
      "t_array(t_struct(AdRequest)27_storage)dyn_storage": {
        "base": "t_struct(AdRequest)27_storage",
        "encoding": "dynamic_array",
        "label": "struct BlockAdAuctionV2.AdRequest[]",
        "numberOfBytes": "32"
      },
      "t_bytes32": {
        "encoding": "inplace",
        "label": "bytes32",
        "numberOfBytes": "32"
      },
      "t_contract(Builder)939": {
        "encoding": "inplace",
        "label": "contract Builder",
        "numberOfBytes": "20"
      },
      "t_string_storage": {
        "encoding": "bytes",
        "label": "string",
        "numberOfBytes": "32"
      },
      "t_struct(AdRequest)27_storage": {
        "encoding": "inplace",
        "label": "struct BlockAdAuctionV2.AdRequest",
        "members": [
          {
            "astId": 19,
            "contract": "contracts/blockad/BlockAdV2.sol:BlockAdAuctionV2",
            "label": "id",
            "offset": 0,
            "slot": "0",
            "type": "t_uint256"
          },
          {
            "astId": 21,
            "contract": "contracts/blockad/BlockAdV2.sol:BlockAdAuctionV2",
            "label": "extra",
            "offset": 0,
            "slot": "1",
            "type": "t_string_storage"
          },
          {
            "astId": 23,
            "contract": "contracts/blockad/BlockAdV2.sol:BlockAdAuctionV2",
            "label": "blockLimit",
            "offset": 0,
            "slot": "2",
            "type": "t_uint256"
          },
          {
            "astId": 26,
            "contract": "contracts/blockad/BlockAdV2.sol:BlockAdAuctionV2",
            "label": "paymentBidId",
            "offset": 0,
            "slot": "3",
            "type": "t_userDefinedValueType(DataId)1481"
          }
        ],
        "numberOfBytes": "128"
      },
      "t_uint256": {
        "encoding": "inplace",
        "label": "uint256",
        "numberOfBytes": "32"
      },
      "t_userDefinedValueType(DataId)1481": {
        "encoding": "inplace",
        "label": "Suave.DataId",
        "numberOfBytes": "32"
      }
    }
  }
}