{
  "address": "0xbA1B456C993B5c18DBCC25aBEA7FcCE081EF57a8",
  "abi": [
    {
      "inputs": [
        {
          "internalType": "string",
          "name": "boostRelayUrl_",
          "type": "string"
        }
      ],
      "stateMutability": "nonpayable",
      "type": "constructor"
    },
    {
      "inputs": [
        {
          "internalType": "address",
          "name": "",
          "type": "address"
        },
        {
          "internalType": "bytes",
          "name": "",
          "type": "bytes"
        }
      ],
      "name": "PeekerReverted",
      "type": "error"
    },
    {
      "inputs": [
        {
          "internalType": "string",
          "name": "message",
          "type": "string"
        }
      ],
      "name": "SuaveError",
      "type": "error"
    },
    {
      "inputs": [
        {
          "internalType": "string",
          "name": "message",
          "type": "string"
        },
        {
          "internalType": "bytes",
          "name": "data",
          "type": "bytes"
        }
      ],
      "name": "SuaveErrorWithData",
      "type": "error"
    },
    {
      "anonymous": false,
      "inputs": [
        {
          "indexed": false,
          "internalType": "Suave.DataId",
          "name": "dataId",
          "type": "bytes16"
        },
        {
          "indexed": false,
          "internalType": "uint64",
          "name": "decryptionCondition",
          "type": "uint64"
        },
        {
          "indexed": false,
          "internalType": "address[]",
          "name": "allowedPeekers",
          "type": "address[]"
        }
      ],
      "name": "DataRecordEvent",
      "type": "event"
    },
    {
      "anonymous": false,
      "inputs": [
        {
          "indexed": true,
          "internalType": "uint256",
          "name": "id",
          "type": "uint256"
        },
        {
          "indexed": false,
          "internalType": "string",
          "name": "extra",
          "type": "string"
        },
        {
          "indexed": false,
          "internalType": "uint256",
          "name": "blockLimit",
          "type": "uint256"
        }
      ],
      "name": "RequestAdded",
      "type": "event"
    },
    {
      "anonymous": false,
      "inputs": [
        {
          "indexed": true,
          "internalType": "uint256",
          "name": "id",
          "type": "uint256"
        },
        {
          "indexed": false,
          "internalType": "uint64",
          "name": "egp",
          "type": "uint64"
        },
        {
          "indexed": false,
          "internalType": "string",
          "name": "blockHash",
          "type": "string"
        }
      ],
      "name": "RequestIncluded",
      "type": "event"
    },
    {
      "anonymous": false,
      "inputs": [
        {
          "indexed": true,
          "internalType": "uint256",
          "name": "id",
          "type": "uint256"
        }
      ],
      "name": "RequestRemoved",
      "type": "event"
    },
    {
      "inputs": [
        {
          "components": [
            {
              "internalType": "uint64",
              "name": "slot",
              "type": "uint64"
            },
            {
              "internalType": "bytes",
              "name": "proposerPubkey",
              "type": "bytes"
            },
            {
              "internalType": "bytes32",
              "name": "parent",
              "type": "bytes32"
            },
            {
              "internalType": "uint64",
              "name": "timestamp",
              "type": "uint64"
            },
            {
              "internalType": "address",
              "name": "feeRecipient",
              "type": "address"
            },
            {
              "internalType": "uint64",
              "name": "gasLimit",
              "type": "uint64"
            },
            {
              "internalType": "bytes32",
              "name": "random",
              "type": "bytes32"
            },
            {
              "components": [
                {
                  "internalType": "uint64",
                  "name": "index",
                  "type": "uint64"
                },
                {
                  "internalType": "uint64",
                  "name": "validator",
                  "type": "uint64"
                },
                {
                  "internalType": "address",
                  "name": "Address",
                  "type": "address"
                },
                {
                  "internalType": "uint64",
                  "name": "amount",
                  "type": "uint64"
                }
              ],
              "internalType": "struct Suave.Withdrawal[]",
              "name": "withdrawals",
              "type": "tuple[]"
            },
            {
              "internalType": "bytes",
              "name": "extra",
              "type": "bytes"
            },
            {
              "internalType": "bool",
              "name": "fillPending",
              "type": "bool"
            }
          ],
          "internalType": "struct Suave.BuildBlockArgs",
          "name": "blockArgs",
          "type": "tuple"
        },
        {
          "internalType": "uint64",
          "name": "blockHeight",
          "type": "uint64"
        }
      ],
      "name": "buildBlock",
      "outputs": [
        {
          "internalType": "bytes",
          "name": "",
          "type": "bytes"
        }
      ],
      "stateMutability": "nonpayable",
      "type": "function"
    },
    {
      "inputs": [
        {
          "internalType": "bytes",
          "name": "builderCall",
          "type": "bytes"
        },
        {
          "internalType": "bytes",
          "name": "includedRequestB",
          "type": "bytes"
        },
        {
          "internalType": "bytes",
          "name": "pendingRemovalsB",
          "type": "bytes"
        },
        {
          "components": [
            {
              "internalType": "bytes32",
              "name": "key",
              "type": "bytes32"
            },
            {
              "internalType": "bytes32",
              "name": "nextHash",
              "type": "bytes32"
            }
          ],
          "internalType": "struct ConfidentialControl.UnlockArgs",
          "name": "uArgs",
          "type": "tuple"
        }
      ],
      "name": "buildCallback",
      "outputs": [],
      "stateMutability": "nonpayable",
      "type": "function"
    },
    {
      "inputs": [],
      "name": "builder",
      "outputs": [
        {
          "internalType": "contract Builder",
          "name": "",
          "type": "address"
        }
      ],
      "stateMutability": "view",
      "type": "function"
    },
    {
      "inputs": [
        {
          "internalType": "uint64",
          "name": "blockLimit",
          "type": "uint64"
        },
        {
          "internalType": "string",
          "name": "extra",
          "type": "string"
        }
      ],
      "name": "buyAd",
      "outputs": [
        {
          "internalType": "bytes",
          "name": "",
          "type": "bytes"
        }
      ],
      "stateMutability": "nonpayable",
      "type": "function"
    },
    {
      "inputs": [
        {
          "components": [
            {
              "internalType": "uint256",
              "name": "id",
              "type": "uint256"
            },
            {
              "internalType": "string",
              "name": "extra",
              "type": "string"
            },
            {
              "internalType": "uint256",
              "name": "blockLimit",
              "type": "uint256"
            },
            {
              "internalType": "Suave.DataId",
              "name": "paymentBidId",
              "type": "bytes16"
            }
          ],
          "internalType": "struct BlockAdAuctionV2.AdRequest",
          "name": "request",
          "type": "tuple"
        },
        {
          "components": [
            {
              "internalType": "bytes32",
              "name": "key",
              "type": "bytes32"
            },
            {
              "internalType": "bytes32",
              "name": "nextHash",
              "type": "bytes32"
            }
          ],
          "internalType": "struct ConfidentialControl.UnlockArgs",
          "name": "uArgs",
          "type": "tuple"
        }
      ],
      "name": "buyAdCallback",
      "outputs": [],
      "stateMutability": "nonpayable",
      "type": "function"
    },
    {
      "inputs": [
        {
          "internalType": "bytes32",
          "name": "nextHash",
          "type": "bytes32"
        },
        {
          "internalType": "Suave.DataId",
          "name": "sBidId",
          "type": "bytes16"
        }
      ],
      "name": "ccCallback",
      "outputs": [],
      "stateMutability": "nonpayable",
      "type": "function"
    },
    {
      "inputs": [],
      "name": "confidentialConstructor",
      "outputs": [
        {
          "internalType": "bytes",
          "name": "",
          "type": "bytes"
        }
      ],
      "stateMutability": "view",
      "type": "function"
    },
    {
      "inputs": [
        {
          "components": [
            {
              "internalType": "Suave.DataId",
              "name": "id",
              "type": "bytes16"
            },
            {
              "internalType": "Suave.DataId",
              "name": "salt",
              "type": "bytes16"
            },
            {
              "internalType": "uint64",
              "name": "decryptionCondition",
              "type": "uint64"
            },
            {
              "internalType": "address[]",
              "name": "allowedPeekers",
              "type": "address[]"
            },
            {
              "internalType": "address[]",
              "name": "allowedStores",
              "type": "address[]"
            },
            {
              "internalType": "string",
              "name": "version",
              "type": "string"
            }
          ],
          "internalType": "struct Suave.DataRecord",
          "name": "dataRecord",
          "type": "tuple"
        }
      ],
      "name": "emitDataRecord",
      "outputs": [],
      "stateMutability": "nonpayable",
      "type": "function"
    },
    {
      "inputs": [],
      "name": "fetchConfidentialBundleData",
      "outputs": [
        {
          "internalType": "bytes",
          "name": "",
          "type": "bytes"
        }
      ],
      "stateMutability": "nonpayable",
      "type": "function"
    },
    {
      "inputs": [],
      "name": "isInitialized",
      "outputs": [
        {
          "internalType": "bool",
          "name": "",
          "type": "bool"
        }
      ],
      "stateMutability": "view",
      "type": "function"
    },
    {
      "inputs": [],
      "name": "nextId",
      "outputs": [
        {
          "internalType": "uint256",
          "name": "",
          "type": "uint256"
        }
      ],
      "stateMutability": "view",
      "type": "function"
    },
    {
      "inputs": [
        {
          "internalType": "uint256",
          "name": "",
          "type": "uint256"
        }
      ],
      "name": "requests",
      "outputs": [
        {
          "internalType": "uint256",
          "name": "id",
          "type": "uint256"
        },
        {
          "internalType": "string",
          "name": "extra",
          "type": "string"
        },
        {
          "internalType": "uint256",
          "name": "blockLimit",
          "type": "uint256"
        },
        {
          "internalType": "Suave.DataId",
          "name": "paymentBidId",
          "type": "bytes16"
        }
      ],
      "stateMutability": "view",
      "type": "function"
    },
    {
      "inputs": [],
      "name": "requestsLength",
      "outputs": [
        {
          "internalType": "uint256",
          "name": "",
          "type": "uint256"
        }
      ],
      "stateMutability": "view",
      "type": "function"
    }
  ],
  "transactionHash": "0xd36d2cbc004a9a453d62f841b78e8e08f494f5b9d416bb238192aaaacb333ba9",
  "args": [
    "https://0xafa4c6985aa049fb79dd37010438cfebeb0f2bd42b115b89dd678dab0670c1de38da0c4e9138c9290a398ecd9a0b3110@boost-relay-goerli.flashbots.net"
  ],
  "numDeployments": 3,
  "solcInputHash": "3f2cfcf165740f55302d083efbeaea10",
  "bytecode": "0x60806040523480156200001157600080fd5b506040516200893138038062008931833981810160405281019062000037919062000262565b806040516200004690620000b7565b62000052919062000310565b604051809103906000f0801580156200006f573d6000803e3d6000fd5b50600360006101000a81548173ffffffffffffffffffffffffffffffffffffffff021916908373ffffffffffffffffffffffffffffffffffffffff1602179055505062000334565b6143d9806200455883390190565b6000604051905090565b600080fd5b600080fd5b600080fd5b600080fd5b6000601f19601f8301169050919050565b7f4e487b7100000000000000000000000000000000000000000000000000000000600052604160045260246000fd5b6200012e82620000e3565b810181811067ffffffffffffffff8211171562000150576200014f620000f4565b5b80604052505050565b600062000165620000c5565b905062000173828262000123565b919050565b600067ffffffffffffffff821115620001965762000195620000f4565b5b620001a182620000e3565b9050602081019050919050565b60005b83811015620001ce578082015181840152602081019050620001b1565b83811115620001de576000848401525b50505050565b6000620001fb620001f58462000178565b62000159565b9050828152602081018484840111156200021a5762000219620000de565b5b62000227848285620001ae565b509392505050565b600082601f830112620002475762000246620000d9565b5b815162000259848260208601620001e4565b91505092915050565b6000602082840312156200027b576200027a620000cf565b5b600082015167ffffffffffffffff8111156200029c576200029b620000d4565b5b620002aa848285016200022f565b91505092915050565b600081519050919050565b600082825260208201905092915050565b6000620002dc82620002b3565b620002e88185620002be565b9350620002fa818560208601620001ae565b6200030581620000e3565b840191505092915050565b600060208201905081810360008301526200032c8184620002cf565b905092915050565b61421480620003446000396000f3fe608060405234801561001057600080fd5b50600436106100cf5760003560e01c8063bb7bae0a1161008c578063ee2cc36411610066578063ee2cc36414610203578063fd38f21d1461021f578063ff4aec7d1461024f578063ffbbfcb01461026d576100cf565b8063bb7bae0a146101ad578063bcbb3597146101c9578063d7e84fbf146101e5576100cf565b806332821faa146100d4578063392e53cd1461010457806361b8ce8c1461012257806364e65a62146101405780637e48532c1461015c57806381d12c581461017a575b600080fd5b6100ee60048036038101906100e991906126a4565b61028b565b6040516100fb9190612788565b60405180910390f35b61010c61050b565b60405161011991906127b9565b60405180910390f35b61012a61051b565b60405161013791906127ed565b60405180910390f35b61015a6004803603810190610155919061282c565b610521565b005b6101646105ee565b6040516101719190612788565b60405180910390f35b610194600480360381019061018f9190612913565b610643565b6040516101a494939291906129e2565b60405180910390f35b6101c760048036038101906101c29190612a5a565b61070b565b005b6101e360048036038101906101de9190612ab9565b610777565b005b6101ed6107ee565b6040516101fa9190612b61565b60405180910390f35b61021d60048036038101906102189190612b9b565b610814565b005b61023960048036038101906102349190612c98565b61092c565b6040516102469190612788565b60405180910390f35b610257610b35565b6040516102649190612788565b60405180910390f35b610275610b6e565b60405161028291906127ed565b60405180910390f35b60606102d3610298610b7b565b6040518060400160405280601081526020017f4e6f7420636f6e666964656e7469616c00000000000000000000000000000000815250610c43565b61031a6000600480549050116040518060400160405280600b81526020017f4e6f207265717565737473000000000000000000000000000000000000000000815250610c43565b6000806103308467ffffffffffffffff16610c89565b915091506103846000836040015167ffffffffffffffff16116040518060400160405280600f81526020017f4e6f2076616c6964206f66666572730000000000000000000000000000000000815250610c43565b61038e8483610ed3565b81602001518561010001819052506000600360009054906101000a900473ffffffffffffffffffffffffffffffffffffffff1673ffffffffffffffffffffffffffffffffffffffff1663088243fb87876040518363ffffffff1660e01b81526004016103fb929190612f75565b600060405180830381600087803b15801561041557600080fd5b505af1158015610429573d6000803e3d6000fd5b505050506040513d6000823e3d601f19601f820116820180604052508101906104529190613015565b90506364e65a6260e01b818460000151856040015160405160200161047892919061305e565b6040516020818303038152906040528461049061112e565b6040516024016104a394939291906130b6565b604051602081830303815290604052907bffffffffffffffffffffffffffffffffffffffffffffffffffffffff19166020820180517bffffffffffffffffffffffffffffffffffffffffffffffffffffffff8381831617835250505050935050505092915050565b60008060001b6001541415905090565b60055481565b8061056d6105328260000135611170565b6040518060400160405280600b81526020017f496e76616c6964206b6579000000000000000000000000000000000000000000815250610c43565b60008351111561058957610588610583846111a4565b6111b6565b5b60006105b7600360009054906101000a900473ffffffffffffffffffffffffffffffffffffffff1687611377565b90506105c38582611445565b508060200135600181905550600260008154809291906105e29061313f565b91905055505050505050565b60606106366105fb610b7b565b6040518060400160405280601081526020017f4e6f7420636f6e666964656e7469616c00000000000000000000000000000000815250610c43565b61063e6114a0565b905090565b6004818154811061065357600080fd5b906000526020600020906004020160009150905080600001549080600101805461067c906131b7565b80601f01602080910402602001604051908101604052809291908181526020018280546106a8906131b7565b80156106f55780601f106106ca576101008083540402835291602001916106f5565b820191906000526020600020905b8154815290600101906020018083116106d857829003601f168201915b5050505050908060020154908060030154905084565b61075261071661050b565b156040518060400160405280601381526020017f416c726561647920696e697469616c697a656400000000000000000000000000815250610c43565b81600181905550806000816fffffffffffffffffffffffffffffffff19169055505050565b7ff7645ba1634d8aed79d5bd07dd401d4ef0860e018d7eb3949c3f4da8fa26fb4781600001356fffffffffffffffffffffffffffffffff19168260400160208101906107c391906131e9565b8380606001906107d39190613225565b6040516107e3949392919061333c565b60405180910390a150565b600360009054906101000a900473ffffffffffffffffffffffffffffffffffffffff1681565b806108606108258260000135611170565b6040518060400160405280600b81526020017f496e76616c6964206b6579000000000000000000000000000000000000000000815250610c43565b6004839080600181540180825580915050600190039060005260206000209060040201600090919091909150818161089891906137bf565b5050600560008154809291906108ad9061313f565b919050555082600001357fbf51327c63fb3c8741d4233ae0315e3e1a74641532f4e59c307f72314a3462358480602001906108e89190613430565b86604001356040516108fc939291906137fa565b60405180910390a28060200135600181905550600260008154809291906109229061313f565b9190505550505050565b6060610974610939610b7b565b6040518060400160405280601081526020017f4e6f7420636f6e666964656e7469616c00000000000000000000000000000000815250610c43565b60003073ffffffffffffffffffffffffffffffffffffffff1663ff4aec7d6040518163ffffffff1660e01b8152600401600060405180830381600087803b1580156109be57600080fd5b505af11580156109d2573d6000803e3d6000fd5b505050506040513d6000823e3d601f19601f820116820180604052508101906109fb9190613015565b90506000610a0a8260016115eb565b915050610a5960008267ffffffffffffffff16116040518060400160405280600b81526020017f65677020746f6f206c6f77000000000000000000000000000000000000000000815250610c43565b6000610a64836116c6565b90506000604051806080016040528060055481526020018781526020018867ffffffffffffffff168152602001836fffffffffffffffffffffffffffffffff1916815250905063ee2cc36460e01b81610abb61112e565b604051602401610acc9291906138f7565b604051602081830303815290604052907bffffffffffffffffffffffffffffffffffffffffffffffffffffffff19166020820180517bffffffffffffffffffffffffffffffffffffffffffffffffffffffff838183161783525050505094505050505092915050565b6060610b3f610b7b565b610b4857600080fd5b6000610b526117fc565b905080806020019051810190610b689190613015565b91505090565b6000600480549050905090565b6000806000634201000073ffffffffffffffffffffffffffffffffffffffff16604051610ba790613958565b600060405180830381855afa9150503d8060008114610be2576040519150601f19603f3d011682016040523d82523d6000602084013e610be7565b606091505b509150915081610c34576342010000816040517f75fff467000000000000000000000000000000000000000000000000000000008152600401610c2b92919061397c565b60405180910390fd5b80516020820151935050505090565b81610c8557806040517f0c25cd98000000000000000000000000000000000000000000000000000000008152600401610c7c91906139ac565b60405180910390fd5b5050565b610c91612008565b606060005b600480549050811015610ecd57600060048281548110610cb957610cb86139ce565b5b906000526020600020906004020160405180608001604052908160008201548152602001600182018054610cec906131b7565b80601f0160208091040260200160405190810160405280929190818152602001828054610d18906131b7565b8015610d655780601f10610d3a57610100808354040283529160200191610d65565b820191906000526020600020905b815481529060010190602001808311610d4857829003601f168201915b505050505081526020016002820154815260200160038201546fffffffffffffffffffffffffffffffff19166fffffffffffffffffffffffffffffffff19168152505090508481604001511015610dd157610dc982846118d390919063ffffffff16565b925050610ebc565b6000610e1682606001516040518060400160405280601881526020017f626c6f636b61643a76303a7061796d656e7442756e646c650000000000000000815250611907565b9050600080610e268360006115eb565b91509150811580610e41575060008167ffffffffffffffff16145b15610e6057610e5985876118d390919063ffffffff16565b9550610eb7565b866040015167ffffffffffffffff168167ffffffffffffffff161115610eb657604051806080016040528085600001518152602001856020015181526020018267ffffffffffffffff1681526020018481525096505b5b505050505b80610ec69061313f565b9050610c96565b50915091565b6000600367ffffffffffffffff811115610ef057610eef6121d4565b5b604051908082528060200260200182016040528015610f1e5781602001602082028036833780820191505090505b509050600360009054906101000a900473ffffffffffffffffffffffffffffffffffffffff1681600081518110610f5857610f576139ce565b5b602002602001019073ffffffffffffffffffffffffffffffffffffffff16908173ffffffffffffffffffffffffffffffffffffffff1681525050634210000181600181518110610fab57610faa6139ce565b5b602002602001019073ffffffffffffffffffffffffffffffffffffffff16908173ffffffffffffffffffffffffffffffffffffffff16815250503081600281518110610ffa57610ff96139ce565b5b602002602001019073ffffffffffffffffffffffffffffffffffffffff16908173ffffffffffffffffffffffffffffffffffffffff168152505060006110778483846040518060400160405280601581526020017f64656661756c743a76303a65746842756e646c657300000000000000000000008152506119ee565b90506110c181600001516040518060400160405280601581526020017f64656661756c743a76303a65746842756e646c657300000000000000000000008152508560600151611af4565b61112881600001516040518060400160405280601e81526020017f64656661756c743a76303a65746842756e646c6553696d526573756c74730000815250856040015160405160200161111491906139fd565b604051602081830303815290604052611af4565b50505050565b61113661203a565b604051806040016040528061114c600254611bd7565b815260200161116860016002546111639190613a18565b611bf1565b815250905090565b6000600154826040516020016111869190613a7d565b60405160208183030381529060405280519060200120149050919050565b60606111af82611c29565b9050919050565b6000815190505b6000811115611373576000826001836111d69190613a98565b815181106111e7576111e66139ce565b5b60200260200101519050600060048281548110611207576112066139ce565b5b9060005260206000209060040201600001549050600160048054905061122d9190613a98565b8210156112e057600460016004805490506112489190613a98565b81548110611259576112586139ce565b5b90600052602060002090600402016004838154811061127b5761127a6139ce565b5b90600052602060002090600402016000820154816000015560018201816001019080546112a7906131b7565b6112b292919061205a565b5060028201548160020155600382015481600301906fffffffffffffffffffffffffffffffff191690559050505b60048054806112f2576112f1613acc565b5b600190038181906000526020600020906004020160008082016000905560018201600061131f91906120e7565b6002820160009055600382016000905550509055807f5fa4d8243d9549d33d615899224efcef51bfcacb970a31f68862ce74c858dbf060405160405180910390a250508061136c90613afb565b90506111bd565b5050565b60606000808473ffffffffffffffffffffffffffffffffffffffff16846040516113a19190613b56565b6000604051808303816000865af19150503d80600081146113de576040519150601f19603f3d011682016040523d82523d6000602084013e6113e3565b606091505b5091509150611427826040518060400160405280601481526020017f45787465726e616c2063616c6c206661696c6564000000000000000000000000815250610c43565b8080602001905181019061143b9190613bdd565b9250505092915050565b6000808380602001905181019061145c9190613c50565b91509150817f91badfc611f9ad79e4d6a58176e5c4cedc4f8ed9001447825f503e792bbf09e28285604051611492929190613c90565b60405180910390a250505050565b60606114e86114ad610b7b565b6040518060400160405280601081526020017f4e6f7420636f6e666964656e7469616c00000000000000000000000000000000815250610c43565b61152f6114f361050b565b156040518060400160405280601381526020017f416c726561647920696e697469616c697a656400000000000000000000000000815250610c43565b60006115396117fc565b9050600061154682611cf4565b90506000611569838060200190518101906115619190613cd5565b600254611ed0565b905063bb7bae0a60e01b8183604051602401611586929190613d02565b604051602081830303815290604052907bffffffffffffffffffffffffffffffffffffffffffffffffffffffff19166020820180517bffffffffffffffffffffffffffffffffffffffffffffffffffffffff8381831617835250505050935050505090565b600080600080634210000073ffffffffffffffffffffffffffffffffffffffff16614e20876040516020016116209190612788565b60405160208183030381529060405260405161163c9190613b56565b6000604051808303818686fa925050503d8060008114611678576040519150601f19603f3d011682016040523d82523d6000602084013e61167d565b606091505b509150915061169585158061168f5750825b82610c43565b81156116bc576001818060200190518101906116b19190613d2b565b9350935050506116bf565b50505b9250929050565b600080600167ffffffffffffffff8111156116e4576116e36121d4565b5b6040519080825280602002602001820160405280156117125781602001602082028036833780820191505090505b509050308160008151811061172a576117296139ce565b5b602002602001019073ffffffffffffffffffffffffffffffffffffffff16908173ffffffffffffffffffffffffffffffffffffffff168152505060006117a8600083846040518060400160405280601881526020017f626c6f636b61643a76303a7061796d656e7442756e646c6500000000000000008152506119ee565b90506117ee81600001516040518060400160405280601881526020017f626c6f636b61643a76303a7061796d656e7442756e646c65000000000000000081525086611af4565b806000015192505050919050565b6060600080634201000173ffffffffffffffffffffffffffffffffffffffff1660405160200160405160208183030381529060405260405161183e9190613b56565b600060405180830381855afa9150503d8060008114611879576040519150601f19603f3d011682016040523d82523d6000602084013e61187e565b606091505b5091509150816118cb576342010001816040517f75fff4670000000000000000000000000000000000000000000000000000000081526004016118c292919061397c565b60405180910390fd5b809250505090565b6060826118df83611f0a565b6040516020016118f0929190613d58565b604051602081830303815290604052905092915050565b6060600080634202000173ffffffffffffffffffffffffffffffffffffffff16858560405160200161193a929190613d7c565b6040516020818303038152906040526040516119569190613b56565b600060405180830381855afa9150503d8060008114611991576040519150601f19603f3d011682016040523d82523d6000602084013e611996565b606091505b5091509150816119e3576342020001816040517f75fff4670000000000000000000000000000000000000000000000000000000081526004016119da92919061397c565b60405180910390fd5b809250505092915050565b6119f6612127565b600080634203000073ffffffffffffffffffffffffffffffffffffffff1687878787604051602001611a2b9493929190613e32565b604051602081830303815290604052604051611a479190613b56565b600060405180830381855afa9150503d8060008114611a82576040519150601f19603f3d011682016040523d82523d6000602084013e611a87565b606091505b509150915081611ad4576342030000816040517f75fff467000000000000000000000000000000000000000000000000000000008152600401611acb92919061397c565b60405180910390fd5b80806020019051810190611ae8919061406d565b92505050949350505050565b600080634202000073ffffffffffffffffffffffffffffffffffffffff16858585604051602001611b27939291906140b6565b604051602081830303815290604052604051611b439190613b56565b600060405180830381855afa9150503d8060008114611b7e576040519150601f19603f3d011682016040523d82523d6000602084013e611b83565b606091505b509150915081611bd0576342020000816040517f75fff467000000000000000000000000000000000000000000000000000000008152600401611bc792919061397c565b60405180910390fd5b5050505050565b6000611bea611be4611f67565b83611fc7565b9050919050565b6000611bfc82611bd7565b604051602001611c0c9190613a7d565b604051602081830303815290604052805190602001209050919050565b606060208251611c39919061412a565b67ffffffffffffffff811115611c5257611c516121d4565b5b604051908082528060200260200182016040528015611c805781602001602082028036833780820191505090505b50905060005b60208351611c94919061412a565b811015611cee57611cbc8360208084611cad919061415b565b611cb79190613a18565b611ffa565b828281518110611ccf57611cce6139ce565b5b6020026020010181815250508080611ce69061313f565b915050611c86565b50919050565b600080600367ffffffffffffffff811115611d1257611d116121d4565b5b604051908082528060200260200182016040528015611d405781602001602082028036833780820191505090505b5090503081600081518110611d5857611d576139ce565b5b602002602001019073ffffffffffffffffffffffffffffffffffffffff16908173ffffffffffffffffffffffffffffffffffffffff1681525050634203000181600181518110611dab57611daa6139ce565b5b602002602001019073ffffffffffffffffffffffffffffffffffffffff16908173ffffffffffffffffffffffffffffffffffffffff1681525050634202000181600281518110611dfe57611dfd6139ce565b5b602002602001019073ffffffffffffffffffffffffffffffffffffffff16908173ffffffffffffffffffffffffffffffffffffffff16815250506000611e7c600083846040518060400160405280601181526020017f626c6f636b61643a76303a7365637265740000000000000000000000000000008152506119ee565b9050611ec281600001516040518060400160405280601181526020017f626c6f636b61643a76303a73656372657400000000000000000000000000000081525086611af4565b806000015192505050919050565b6000611edc8383611fc7565b604051602001611eec9190613a7d565b60405160208183030381529060405280519060200120905092915050565b6060602067ffffffffffffffff811115611f2757611f266121d4565b5b6040519080825280601f01601f191660200182016040528015611f595781602001600182028036833780820191505090505b509050816020820152919050565b600080611fab6000546040518060400160405280601181526020017f626c6f636b61643a76303a736563726574000000000000000000000000000000815250611907565b905080806020019051810190611fc19190613cd5565b91505090565b60008282604051602001611fdc9291906141b5565b60405160208183030381529060405280519060200120905092915050565b600081830151905092915050565b60405180608001604052806000815260200160608152602001600067ffffffffffffffff168152602001606081525090565b604051806040016040528060008019168152602001600080191681525090565b828054612066906131b7565b90600052602060002090601f01602090048101928261208857600085556120d6565b82601f1061209957805485556120d6565b828001600101855582156120d657600052602060002091601f016020900482015b828111156120d55782548255916001019190600101906120ba565b5b5090506120e3919061218d565b5090565b5080546120f3906131b7565b6000825580601f106121055750612124565b601f016020900490600052602060002090810190612123919061218d565b5b50565b6040518060c0016040528060006fffffffffffffffffffffffffffffffff1916815260200160006fffffffffffffffffffffffffffffffff19168152602001600067ffffffffffffffff1681526020016060815260200160608152602001606081525090565b5b808211156121a657600081600090555060010161218e565b5090565b6000604051905090565b600080fd5b600080fd5b600080fd5b6000601f19601f8301169050919050565b7f4e487b7100000000000000000000000000000000000000000000000000000000600052604160045260246000fd5b61220c826121c3565b810181811067ffffffffffffffff8211171561222b5761222a6121d4565b5b80604052505050565b600061223e6121aa565b905061224a8282612203565b919050565b600080fd5b600067ffffffffffffffff82169050919050565b61227181612254565b811461227c57600080fd5b50565b60008135905061228e81612268565b92915050565b600080fd5b600080fd5b600067ffffffffffffffff8211156122b9576122b86121d4565b5b6122c2826121c3565b9050602081019050919050565b82818337600083830152505050565b60006122f16122ec8461229e565b612234565b90508281526020810184848401111561230d5761230c612299565b5b6123188482856122cf565b509392505050565b600082601f83011261233557612334612294565b5b81356123458482602086016122de565b91505092915050565b6000819050919050565b6123618161234e565b811461236c57600080fd5b50565b60008135905061237e81612358565b92915050565b600073ffffffffffffffffffffffffffffffffffffffff82169050919050565b60006123af82612384565b9050919050565b6123bf816123a4565b81146123ca57600080fd5b50565b6000813590506123dc816123b6565b92915050565b600067ffffffffffffffff8211156123fd576123fc6121d4565b5b602082029050602081019050919050565b600080fd5b600060808284031215612429576124286121be565b5b6124336080612234565b905060006124438482850161227f565b60008301525060206124578482850161227f565b602083015250604061246b848285016123cd565b604083015250606061247f8482850161227f565b60608301525092915050565b600061249e612499846123e2565b612234565b905080838252602082019050608084028301858111156124c1576124c061240e565b5b835b818110156124ea57806124d68882612413565b8452602084019350506080810190506124c3565b5050509392505050565b600082601f83011261250957612508612294565b5b813561251984826020860161248b565b91505092915050565b60008115159050919050565b61253781612522565b811461254257600080fd5b50565b6000813590506125548161252e565b92915050565b60006101408284031215612571576125706121be565b5b61257c610140612234565b9050600061258c8482850161227f565b600083015250602082013567ffffffffffffffff8111156125b0576125af61224f565b5b6125bc84828501612320565b60208301525060406125d08482850161236f565b60408301525060606125e48482850161227f565b60608301525060806125f8848285016123cd565b60808301525060a061260c8482850161227f565b60a08301525060c06126208482850161236f565b60c08301525060e082013567ffffffffffffffff8111156126445761264361224f565b5b612650848285016124f4565b60e08301525061010082013567ffffffffffffffff8111156126755761267461224f565b5b61268184828501612320565b6101008301525061012061269784828501612545565b6101208301525092915050565b600080604083850312156126bb576126ba6121b4565b5b600083013567ffffffffffffffff8111156126d9576126d86121b9565b5b6126e58582860161255a565b92505060206126f68582860161227f565b9150509250929050565b600081519050919050565b600082825260208201905092915050565b60005b8381101561273a57808201518184015260208101905061271f565b83811115612749576000848401525b50505050565b600061275a82612700565b612764818561270b565b935061277481856020860161271c565b61277d816121c3565b840191505092915050565b600060208201905081810360008301526127a2818461274f565b905092915050565b6127b381612522565b82525050565b60006020820190506127ce60008301846127aa565b92915050565b6000819050919050565b6127e7816127d4565b82525050565b600060208201905061280260008301846127de565b92915050565b600080fd5b60006040828403121561282357612822612808565b5b81905092915050565b60008060008060a08587031215612846576128456121b4565b5b600085013567ffffffffffffffff811115612864576128636121b9565b5b61287087828801612320565b945050602085013567ffffffffffffffff811115612891576128906121b9565b5b61289d87828801612320565b935050604085013567ffffffffffffffff8111156128be576128bd6121b9565b5b6128ca87828801612320565b92505060606128db8782880161280d565b91505092959194509250565b6128f0816127d4565b81146128fb57600080fd5b50565b60008135905061290d816128e7565b92915050565b600060208284031215612929576129286121b4565b5b6000612937848285016128fe565b91505092915050565b600081519050919050565b600082825260208201905092915050565b600061296782612940565b612971818561294b565b935061298181856020860161271c565b61298a816121c3565b840191505092915050565b60007fffffffffffffffffffffffffffffffff0000000000000000000000000000000082169050919050565b60006129cc82612995565b9050919050565b6129dc816129c1565b82525050565b60006080820190506129f760008301876127de565b8181036020830152612a09818661295c565b9050612a1860408301856127de565b612a2560608301846129d3565b95945050505050565b612a3781612995565b8114612a4257600080fd5b50565b600081359050612a5481612a2e565b92915050565b60008060408385031215612a7157612a706121b4565b5b6000612a7f8582860161236f565b9250506020612a9085828601612a45565b9150509250929050565b600060c08284031215612ab057612aaf612808565b5b81905092915050565b600060208284031215612acf57612ace6121b4565b5b600082013567ffffffffffffffff811115612aed57612aec6121b9565b5b612af984828501612a9a565b91505092915050565b6000819050919050565b6000612b27612b22612b1d84612384565b612b02565b612384565b9050919050565b6000612b3982612b0c565b9050919050565b6000612b4b82612b2e565b9050919050565b612b5b81612b40565b82525050565b6000602082019050612b766000830184612b52565b92915050565b600060808284031215612b9257612b91612808565b5b81905092915050565b60008060608385031215612bb257612bb16121b4565b5b600083013567ffffffffffffffff811115612bd057612bcf6121b9565b5b612bdc85828601612b7c565b9250506020612bed8582860161280d565b9150509250929050565b600067ffffffffffffffff821115612c1257612c116121d4565b5b612c1b826121c3565b9050602081019050919050565b6000612c3b612c3684612bf7565b612234565b905082815260208101848484011115612c5757612c56612299565b5b612c628482856122cf565b509392505050565b600082601f830112612c7f57612c7e612294565b5b8135612c8f848260208601612c28565b91505092915050565b60008060408385031215612caf57612cae6121b4565b5b6000612cbd8582860161227f565b925050602083013567ffffffffffffffff811115612cde57612cdd6121b9565b5b612cea85828601612c6a565b9150509250929050565b612cfd81612254565b82525050565b600082825260208201905092915050565b6000612d1f82612700565b612d298185612d03565b9350612d3981856020860161271c565b612d42816121c3565b840191505092915050565b612d568161234e565b82525050565b612d65816123a4565b82525050565b600081519050919050565b600082825260208201905092915050565b6000819050602082019050919050565b608082016000820151612dad6000850182612cf4565b506020820151612dc06020850182612cf4565b506040820151612dd36040850182612d5c565b506060820151612de66060850182612cf4565b50505050565b6000612df88383612d97565b60808301905092915050565b6000602082019050919050565b6000612e1c82612d6b565b612e268185612d76565b9350612e3183612d87565b8060005b83811015612e62578151612e498882612dec565b9750612e5483612e04565b925050600181019050612e35565b5085935050505092915050565b612e7881612522565b82525050565b600061014083016000830151612e976000860182612cf4565b5060208301518482036020860152612eaf8282612d14565b9150506040830151612ec46040860182612d4d565b506060830151612ed76060860182612cf4565b506080830151612eea6080860182612d5c565b5060a0830151612efd60a0860182612cf4565b5060c0830151612f1060c0860182612d4d565b5060e083015184820360e0860152612f288282612e11565b915050610100830151848203610100860152612f448282612d14565b915050610120830151612f5b610120860182612e6f565b508091505092915050565b612f6f81612254565b82525050565b60006040820190508181036000830152612f8f8185612e7e565b9050612f9e6020830184612f66565b9392505050565b6000612fb8612fb38461229e565b612234565b905082815260208101848484011115612fd457612fd3612299565b5b612fdf84828561271c565b509392505050565b600082601f830112612ffc57612ffb612294565b5b815161300c848260208601612fa5565b91505092915050565b60006020828403121561302b5761302a6121b4565b5b600082015167ffffffffffffffff811115613049576130486121b9565b5b61305584828501612fe7565b91505092915050565b600060408201905061307360008301856127de565b6130806020830184612f66565b9392505050565b60408201600082015161309d6000850182612d4d565b5060208201516130b06020850182612d4d565b50505050565b600060a08201905081810360008301526130d0818761274f565b905081810360208301526130e4818661274f565b905081810360408301526130f8818561274f565b90506131076060830184613087565b95945050505050565b7f4e487b7100000000000000000000000000000000000000000000000000000000600052601160045260246000fd5b600061314a826127d4565b91507fffffffffffffffffffffffffffffffffffffffffffffffffffffffffffffffff82141561317d5761317c613110565b5b600182019050919050565b7f4e487b7100000000000000000000000000000000000000000000000000000000600052602260045260246000fd5b600060028204905060018216806131cf57607f821691505b602082108114156131e3576131e2613188565b5b50919050565b6000602082840312156131ff576131fe6121b4565b5b600061320d8482850161227f565b91505092915050565b600080fd5b600080fd5b600080fd5b6000808335600160200384360303811261324257613241613216565b5b80840192508235915067ffffffffffffffff8211156132645761326361321b565b5b6020830192506020820236038313156132805761327f613220565b5b509250929050565b600082825260208201905092915050565b6000819050919050565b60006132af8383612d5c565b60208301905092915050565b60006132ca60208401846123cd565b905092915050565b6000602082019050919050565b60006132eb8385613288565b93506132f682613299565b8060005b8581101561332f5761330c82846132bb565b61331688826132a3565b9750613321836132d2565b9250506001810190506132fa565b5085925050509392505050565b600060608201905061335160008301876129d3565b61335e6020830186612f66565b81810360408301526133718184866132df565b905095945050505050565b60008135613389816128e7565b80915050919050565b60008160001b9050919050565b60007fffffffffffffffffffffffffffffffffffffffffffffffffffffffffffffffff6133cb84613392565b9350801983169250808416831791505092915050565b60006133fc6133f76133f2846127d4565b612b02565b6127d4565b9050919050565b6000819050919050565b613416826133e1565b61342961342282613403565b835461339f565b8255505050565b6000808335600160200384360303811261344d5761344c613216565b5b80840192508235915067ffffffffffffffff82111561346f5761346e61321b565b5b60208301925060018202360383131561348b5761348a613220565b5b509250929050565b600082905092915050565b60008190508160005260206000209050919050565b60006020601f8301049050919050565b600082821b905092915050565b6000600883026135007fffffffffffffffffffffffffffffffffffffffffffffffffffffffffffffffff826134c3565b61350a86836134c3565b95508019841693508086168417925050509392505050565b61352b836133e1565b61353f61353782613403565b8484546134d0565b825550505050565b600090565b613554613547565b61355f818484613522565b505050565b5b818110156135835761357860008261354c565b600181019050613565565b5050565b601f8211156135c8576135998161349e565b6135a2846134b3565b810160208510156135b1578190505b6135c56135bd856134b3565b830182613564565b50505b505050565b600082821c905092915050565b60006135eb600019846008026135cd565b1980831691505092915050565b600061360483836135da565b9150826002028217905092915050565b61361e8383613493565b67ffffffffffffffff811115613637576136366121d4565b5b61364182546131b7565b61364c828285613587565b6000601f83116001811461367b5760008415613669578287013590505b61367385826135f8565b8655506136db565b601f1984166136898661349e565b60005b828110156136b15784890135825560018201915060208501945060208101905061368c565b868310156136ce57848901356136ca601f8916826135da565b8355505b6001600288020188555050505b50505050505050565b6136ef838383613614565b505050565b6000813561370181612a2e565b80915050919050565b6000819050919050565b61371d826129c1565b6137306137298261370a565b835461339f565b8255505050565b6000810160008301806137498161337c565b9050613755818461340d565b505050600181016020830161376a8185613430565b6137758183866136e4565b5050505060028101604083018061378b8161337c565b9050613797818461340d565b5050506003810160608301806137ac816136f4565b90506137b88184613714565b5050505050565b6137c98282613737565b5050565b60006137d9838561294b565b93506137e68385846122cf565b6137ef836121c3565b840190509392505050565b600060408201905081810360008301526138158185876137cd565b905061382460208301846127de565b949350505050565b613835816127d4565b82525050565b600082825260208201905092915050565b600061385782612940565b613861818561383b565b935061387181856020860161271c565b61387a816121c3565b840191505092915050565b61388e816129c1565b82525050565b60006080830160008301516138ac600086018261382c565b50602083015184820360208601526138c4828261384c565b91505060408301516138d9604086018261382c565b5060608301516138ec6060860182613885565b508091505092915050565b600060608201905081810360008301526139118185613894565b90506139206020830184613087565b9392505050565b600081905092915050565b50565b6000613942600083613927565b915061394d82613932565b600082019050919050565b600061396382613935565b9150819050919050565b613976816123a4565b82525050565b6000604082019050613991600083018561396d565b81810360208301526139a3818461274f565b90509392505050565b600060208201905081810360008301526139c6818461295c565b905092915050565b7f4e487b7100000000000000000000000000000000000000000000000000000000600052603260045260246000fd5b6000602082019050613a126000830184612f66565b92915050565b6000613a23826127d4565b9150613a2e836127d4565b9250827fffffffffffffffffffffffffffffffffffffffffffffffffffffffffffffffff03821115613a6357613a62613110565b5b828201905092915050565b613a778161234e565b82525050565b6000602082019050613a926000830184613a6e565b92915050565b6000613aa3826127d4565b9150613aae836127d4565b925082821015613ac157613ac0613110565b5b828203905092915050565b7f4e487b7100000000000000000000000000000000000000000000000000000000600052603160045260246000fd5b6000613b06826127d4565b91506000821415613b1a57613b19613110565b5b600182039050919050565b6000613b3082612700565b613b3a8185613927565b9350613b4a81856020860161271c565b80840191505092915050565b6000613b628284613b25565b915081905092915050565b6000613b80613b7b84612bf7565b612234565b905082815260208101848484011115613b9c57613b9b612299565b5b613ba784828561271c565b509392505050565b600082601f830112613bc457613bc3612294565b5b8151613bd4848260208601613b6d565b91505092915050565b600060208284031215613bf357613bf26121b4565b5b600082015167ffffffffffffffff811115613c1157613c106121b9565b5b613c1d84828501613baf565b91505092915050565b600081519050613c35816128e7565b92915050565b600081519050613c4a81612268565b92915050565b60008060408385031215613c6757613c666121b4565b5b6000613c7585828601613c26565b9250506020613c8685828601613c3b565b9150509250929050565b6000604082019050613ca56000830185612f66565b8181036020830152613cb7818461295c565b90509392505050565b600081519050613ccf81612358565b92915050565b600060208284031215613ceb57613cea6121b4565b5b6000613cf984828501613cc0565b91505092915050565b6000604082019050613d176000830185613a6e565b613d2460208301846129d3565b9392505050565b600060208284031215613d4157613d406121b4565b5b6000613d4f84828501613c3b565b91505092915050565b6000613d648285613b25565b9150613d708284613b25565b91508190509392505050565b6000604082019050613d9160008301856129d3565b8181036020830152613da3818461295c565b90509392505050565b600081519050919050565b6000819050602082019050919050565b6000602082019050919050565b6000613ddf82613dac565b613de98185613288565b9350613df483613db7565b8060005b83811015613e25578151613e0c88826132a3565b9750613e1783613dc7565b925050600181019050613df8565b5085935050505092915050565b6000608082019050613e476000830187612f66565b8181036020830152613e598186613dd4565b90508181036040830152613e6d8185613dd4565b90508181036060830152613e81818461295c565b905095945050505050565b600081519050613e9b81612a2e565b92915050565b600067ffffffffffffffff821115613ebc57613ebb6121d4565b5b602082029050602081019050919050565b600081519050613edc816123b6565b92915050565b6000613ef5613ef084613ea1565b612234565b90508083825260208201905060208402830185811115613f1857613f1761240e565b5b835b81811015613f415780613f2d8882613ecd565b845260208401935050602081019050613f1a565b5050509392505050565b600082601f830112613f6057613f5f612294565b5b8151613f70848260208601613ee2565b91505092915050565b600060c08284031215613f8f57613f8e6121be565b5b613f9960c0612234565b90506000613fa984828501613e8c565b6000830152506020613fbd84828501613e8c565b6020830152506040613fd184828501613c3b565b604083015250606082015167ffffffffffffffff811115613ff557613ff461224f565b5b61400184828501613f4b565b606083015250608082015167ffffffffffffffff8111156140255761402461224f565b5b61403184828501613f4b565b60808301525060a082015167ffffffffffffffff8111156140555761405461224f565b5b61406184828501613baf565b60a08301525092915050565b600060208284031215614083576140826121b4565b5b600082015167ffffffffffffffff8111156140a1576140a06121b9565b5b6140ad84828501613f79565b91505092915050565b60006060820190506140cb60008301866129d3565b81810360208301526140dd818561295c565b905081810360408301526140f1818461274f565b9050949350505050565b7f4e487b7100000000000000000000000000000000000000000000000000000000600052601260045260246000fd5b6000614135826127d4565b9150614140836127d4565b9250826141505761414f6140fb565b5b828204905092915050565b6000614166826127d4565b9150614171836127d4565b9250817fffffffffffffffffffffffffffffffffffffffffffffffffffffffffffffffff04831182151516156141aa576141a9613110565b5b828202905092915050565b60006040820190506141ca6000830185613a6e565b6141d760208301846127de565b939250505056fea2646970667358221220dd0921e9f09665e92a2edcd352d2fd7e77bb0a715530e88b4aa8d6386069179164736f6c6343000808003360806040523480156200001157600080fd5b50604051620043d9380380620043d98339818101604052810190620000379190620002a4565b80600090805190602001906200004f92919062000057565b50506200035a565b828054620000659062000324565b90600052602060002090601f016020900481019282620000895760008555620000d5565b82601f10620000a457805160ff1916838001178555620000d5565b82800160010185558215620000d5579182015b82811115620000d4578251825591602001919060010190620000b7565b5b509050620000e49190620000e8565b5090565b5b8082111562000103576000816000905550600101620000e9565b5090565b6000604051905090565b600080fd5b600080fd5b600080fd5b600080fd5b6000601f19601f8301169050919050565b7f4e487b7100000000000000000000000000000000000000000000000000000000600052604160045260246000fd5b620001708262000125565b810181811067ffffffffffffffff8211171562000192576200019162000136565b5b80604052505050565b6000620001a762000107565b9050620001b5828262000165565b919050565b600067ffffffffffffffff821115620001d857620001d762000136565b5b620001e38262000125565b9050602081019050919050565b60005b8381101562000210578082015181840152602081019050620001f3565b8381111562000220576000848401525b50505050565b60006200023d6200023784620001ba565b6200019b565b9050828152602081018484840111156200025c576200025b62000120565b5b62000269848285620001f0565b509392505050565b600082601f8301126200028957620002886200011b565b5b81516200029b84826020860162000226565b91505092915050565b600060208284031215620002bd57620002bc62000111565b5b600082015167ffffffffffffffff811115620002de57620002dd62000116565b5b620002ec8482850162000271565b91505092915050565b7f4e487b7100000000000000000000000000000000000000000000000000000000600052602260045260246000fd5b600060028204905060018216806200033d57607f821691505b60208210811415620003545762000353620002f5565b5b50919050565b61406f806200036a6000396000f3fe608060405234801561001057600080fd5b50600436106100b45760003560e01c8063cf5c941311610071578063cf5c9413146101c6578063e3ec1029146101f7578063e48c31e014610227578063e829cd5d14610257578063f72b8d2914610287578063ff4aec7d146102b7576100b4565b8063088243fb146100b95780636a9cc4b3146100e957806373e9710f146101195780637df1cde214610149578063b33e471514610179578063bcbb3597146101aa575b600080fd5b6100d360048036038101906100ce91906123c5565b6102d5565b6040516100e091906124a9565b60405180910390f35b61010360048036038101906100fe9190612501565b6106ff565b60405161011091906125b2565b60405180910390f35b610133600480360381019061012e91906125d4565b6107a1565b60405161014091906124a9565b60405180910390f35b610163600480360381019061015e9190612659565b610894565b60405161017091906124a9565b60405180910390f35b610193600480360381019061018e919061290d565b6108f4565b6040516101a1929190612b54565b60405180910390f35b6101c460048036038101906101bf9190612baf565b61098f565b005b6101e060048036038101906101db9190612cbb565b610a06565b6040516101ee929190612b54565b60405180910390f35b610211600480360381019061020c9190612cbb565b610c15565b60405161021e91906124a9565b60405180910390f35b610241600480360381019061023c9190612d76565b610db7565b60405161024e91906125b2565b60405180910390f35b610271600480360381019061026c9190612dd2565b610df9565b60405161027e9190612e21565b60405180910390f35b6102a1600480360381019061029c91906123c5565b610f00565b6040516102ae91906124a9565b60405180910390f35b6102bf61154d565b6040516102cc91906124a9565b60405180910390f35b60606102df611586565b6102e857600080fd5b6000610329836040518060400160405280601581526020017f64656661756c743a76303a65746842756e646c6573000000000000000000000081525061164e565b905060008151141561037257306040517f75fff4670000000000000000000000000000000000000000000000000000000081526004016103699190612e97565b60405180910390fd5b6000815167ffffffffffffffff81111561038f5761038e611ef5565b5b6040519080825280602002602001820160405280156103c857816020015b6103b5611e2e565b8152602001906001900390816103ad5790505b50905060005b82518110156104d35760006104368483815181106103ef576103ee612ec5565b5b6020026020010151600001516040518060400160405280601e81526020017f64656661756c743a76303a65746842756e646c6553696d526573756c74730000815250611748565b905060008180602001905181019061044e9190612f09565b905060405180604001604052808267ffffffffffffffff16815260200186858151811061047e5761047d612ec5565b5b6020026020010151600001516fffffffffffffffffffffffffffffffff19168152508484815181106104b3576104b2612ec5565b5b6020026020010181905250505080806104cb90612f65565b9150506103ce565b5060008151905060005b6001826104ea9190612fae565b8110156106035760006001826105009190612fe2565b90505b828110156105ef5783818151811061051e5761051d612ec5565b5b60200260200101516000015167ffffffffffffffff1684838151811061054757610546612ec5565b5b60200260200101516000015167ffffffffffffffff1610156105dc57600084838151811061057857610577612ec5565b5b6020026020010151905084828151811061059557610594612ec5565b5b60200260200101518584815181106105b0576105af612ec5565b5b6020026020010181905250808583815181106105cf576105ce612ec5565b5b6020026020010181905250505b80806105e790612f65565b915050610503565b5080806105fb90612f65565b9150506104dd565b506000835167ffffffffffffffff81111561062157610620611ef5565b5b60405190808252806020026020018201604052801561064f5781602001602082028036833780820191505090505b50905060005b83518110156106d75783818151811061067157610670612ec5565b5b6020026020010151602001518282815181106106905761068f612ec5565b5b60200260200101906fffffffffffffffffffffffffffffffff191690816fffffffffffffffffffffffffffffffff19168152505080806106cf90612f65565b915050610655565b506106f387878360405180602001604052806000815250610c15565b94505050505092915050565b606060006040905060006107128461182f565b607961071e9190612fe2565b905060008267ffffffffffffffff81111561073c5761073b611ef5565b5b6040519080825280601f01601f19166020018201604052801561076e5781602001600182028036833780820191505090505b50905060205b602084018110156107945780830187015181830152602081019050610774565b5080935050505092915050565b60606107e96107ae611586565b6040518060400160405280601081526020017f4e6f7420636f6e666964656e7469616c00000000000000000000000000000000815250611869565b60006107f36118af565b90506107fe81611986565b600061080a82856106ff565b905063e48c31e060e01b81838051906020012060405160240161082e929190613047565b604051602081830303815290604052907bffffffffffffffffffffffffffffffffffffffffffffffffffffffff19166020820180517bffffffffffffffffffffffffffffffffffffffffffffffffffffffff838183161783525050505092505050919050565b606061089e611586565b6108a757600080fd5b60006108e8846040518060400160405280601981526020017f64656661756c743a76303a6275696c6465725061796c6f616400000000000000815250611748565b90508091505092915050565b6108fc611e65565b60607f67fa9c16cd72410c4cc1d47205b31852a81ec5e92d1c8cebc3ecbe98ed67fe3f846000015184604051610933929190613086565b60405180910390a17ff7645ba1634d8aed79d5bd07dd401d4ef0860e018d7eb3949c3f4da8fa26fb4784600001518560400151866060015160405161097a93929190613134565b60405180910390a18383915091509250929050565b7ff7645ba1634d8aed79d5bd07dd401d4ef0860e018d7eb3949c3f4da8fa26fb4781600001356fffffffffffffffffffffffffffffffff19168260400160208101906109db9190613172565b8380606001906109eb91906131ae565b6040516109fb949392919061329c565b60405180910390a150565b610a0e611e65565b60606000600267ffffffffffffffff811115610a2d57610a2c611ef5565b5b604051908082528060200260200182016040528015610a5b5781602001602082028036833780820191505090505b5090503081600081518110610a7357610a72612ec5565b5b602002602001019073ffffffffffffffffffffffffffffffffffffffff16908173ffffffffffffffffffffffffffffffffffffffff1681525050634210000181600181518110610ac657610ac5612ec5565b5b602002602001019073ffffffffffffffffffffffffffffffffffffffff16908173ffffffffffffffffffffffffffffffffffffffff16815250506000610b438783846040518060400160405280601c81526020017f64656661756c743a76303a6d6572676564446174615265636f72647300000000815250611a62565b9050610ba881600001516040518060400160405280601c81526020017f64656661756c743a76303a6d6572676564446174615265636f7264730000000081525088604051602001610b94919061338b565b604051602081830303815290604052611b68565b600080610bba8a846000015189611c4b565b91509150610c0283600001516040518060400160405280601981526020017f64656661756c743a76303a6275696c6465725061796c6f61640000000000000081525083611b68565b8282955095505050505094509492505050565b6060610c5d610c22611586565b6040518060400160405280601081526020017f4e6f7420636f6e666964656e7469616c00000000000000000000000000000000815250611869565b6000803073ffffffffffffffffffffffffffffffffffffffff1663cf5c9413888888886040518563ffffffff1660e01b8152600401610c9f9493929190613601565b60006040518083038186803b158015610cb757600080fd5b505afa158015610ccb573d6000803e3d6000fd5b505050506040513d6000823e3d601f19601f82011682018060405250810190610cf491906138f0565b91509150610d06826000015182611d4c565b610d0f81611986565b6000610d2982896000015167ffffffffffffffff166106ff565b905063e48c31e060e01b818380519060200120604051602401610d4d929190613047565b604051602081830303815290604052907bffffffffffffffffffffffffffffffffffffffffffffffffffffffff19166020820180517bffffffffffffffffffffffffffffffffffffffffffffffffffffffff83818316178352505050509350505050949350505050565b60607f53e8ee078f2cd7d535018fdc18210ac92e4b70ee40542d1a43816dba5faae16982604051610de89190613968565b60405180910390a182905092915050565b60008083604051602001610e0d91906139a4565b6040516020818303038152906040529050600083604051602001610e3191906139a4565b604051602081830303815290604052905060005b8251811015610ef257818181518110610e6157610e60612ec5565b5b602001015160f81c60f81b7effffffffffffffffffffffffffffffffffffffffffffffffffffffffffffff1916838281518110610ea157610ea0612ec5565b5b602001015160f81c60f81b7effffffffffffffffffffffffffffffffffffffffffffffffffffffffffffff191614610edf5760009350505050610efa565b8080610eea90612f65565b915050610e45565b506001925050505b92915050565b6060610f0a611586565b610f1357600080fd5b6000610f54836040518060400160405280601c81526020017f6d657673686172653a76303a6d61746368446174615265636f7264730000000081525061164e565b90506000610f97846040518060400160405280601c81526020017f6d657673686172653a76303a756e6d61746368656442756e646c65730000000081525061164e565b9050600081511415610fe057306040517f75fff467000000000000000000000000000000000000000000000000000000008152600401610fd79190612e97565b60405180910390fd5b6000815167ffffffffffffffff811115610ffd57610ffc611ef5565b5b60405190808252806020026020018201604052801561103657816020015b611023611e65565b81526020019060019003908161101b5790505b50905060005b825181101561119757600083828151811061105a57611059612ec5565b5b6020026020010151905060005b85518110156111635760006110cf87838151811061108857611087612ec5565b5b6020026020010151600001516040518060400160405280601d81526020017f6d657673686172653a76303a6d6572676564446174615265636f726473000000815250611748565b8060200190518101906110e29190613a56565b9050611127816000815181106110fb576110fa612ec5565b5b602002602001015187868151811061111657611115612ec5565b5b602002602001015160000151610df9565b1561114f5786828151811061113f5761113e612ec5565b5b6020026020010151925050611163565b50808061115b90612f65565b915050611067565b508083838151811061117857611177612ec5565b5b602002602001018190525050808061118f90612f65565b91505061103c565b506000815167ffffffffffffffff8111156111b5576111b4611ef5565b5b6040519080825280602002602001820160405280156111ee57816020015b6111db611e2e565b8152602001906001900390816111d35790505b50905060005b82518110156112f957600061125c84838151811061121557611214612ec5565b5b6020026020010151600001516040518060400160405280601f81526020017f6d657673686172653a76303a65746842756e646c6553696d526573756c747300815250611748565b90506000818060200190518101906112749190612f09565b905060405180604001604052808267ffffffffffffffff1681526020018685815181106112a4576112a3612ec5565b5b6020026020010151600001516fffffffffffffffffffffffffffffffff19168152508484815181106112d9576112d8612ec5565b5b6020026020010181905250505080806112f190612f65565b9150506111f4565b5060008151905060005b6001826113109190612fae565b8110156114295760006001826113269190612fe2565b90505b828110156114155783818151811061134457611343612ec5565b5b60200260200101516000015167ffffffffffffffff1684838151811061136d5761136c612ec5565b5b60200260200101516000015167ffffffffffffffff16101561140257600084838151811061139e5761139d612ec5565b5b602002602001015190508482815181106113bb576113ba612ec5565b5b60200260200101518584815181106113d6576113d5612ec5565b5b6020026020010181905250808583815181106113f5576113f4612ec5565b5b6020026020010181905250505b808061140d90612f65565b915050611329565b50808061142190612f65565b915050611303565b506000835167ffffffffffffffff81111561144757611446611ef5565b5b6040519080825280602002602001820160405280156114755781602001602082028036833780820191505090505b50905060005b83518110156114fd5783818151811061149757611496612ec5565b5b6020026020010151602001518282815181106114b6576114b5612ec5565b5b60200260200101906fffffffffffffffffffffffffffffffff191690816fffffffffffffffffffffffffffffffff19168152505080806114f590612f65565b91505061147b565b5061153f8989836040518060400160405280600b81526020017f6d657673686172653a7630000000000000000000000000000000000000000000815250610c15565b965050505050505092915050565b6060611557611586565b61156057600080fd5b600061156a6118af565b9050808060200190518101906115809190613a9f565b91505090565b6000806000634201000073ffffffffffffffffffffffffffffffffffffffff166040516115b290613b19565b600060405180830381855afa9150503d80600081146115ed576040519150601f19603f3d011682016040523d82523d6000602084013e6115f2565b606091505b50915091508161163f576342010000816040517f75fff467000000000000000000000000000000000000000000000000000000008152600401611636929190613b2e565b60405180910390fd5b80516020820151935050505090565b6060600080634203000173ffffffffffffffffffffffffffffffffffffffff168585604051602001611681929190613b5e565b60405160208183030381529060405260405161169d9190613bbf565b600060405180830381855afa9150503d80600081146116d8576040519150601f19603f3d011682016040523d82523d6000602084013e6116dd565b606091505b50915091508161172a576342030001816040517f75fff467000000000000000000000000000000000000000000000000000000008152600401611721929190613b2e565b60405180910390fd5b8080602001905181019061173e9190613cb7565b9250505092915050565b6060600080634202000173ffffffffffffffffffffffffffffffffffffffff16858560405160200161177b929190613d00565b6040516020818303038152906040526040516117979190613bbf565b600060405180830381855afa9150503d80600081146117d2576040519150601f19603f3d011682016040523d82523d6000602084013e6117d7565b606091505b509150915081611824576342020001816040517f75fff46700000000000000000000000000000000000000000000000000000000815260040161181b929190613b2e565b60405180910390fd5b809250505092915050565b6000600a5b600115611863576001820191508083106001811461185157611857565b50611863565b50600a81029050611834565b50919050565b816118ab57806040517f0c25cd980000000000000000000000000000000000000000000000000000000081526004016118a291906125b2565b60405180910390fd5b5050565b6060600080634201000173ffffffffffffffffffffffffffffffffffffffff166040516020016040516020818303038152906040526040516118f19190613bbf565b600060405180830381855afa9150503d806000811461192c576040519150601f19603f3d011682016040523d82523d6000602084013e611931565b606091505b50915091508161197e576342010001816040517f75fff467000000000000000000000000000000000000000000000000000000008152600401611975929190613b2e565b60405180910390fd5b809250505090565b600080634210000273ffffffffffffffffffffffffffffffffffffffff166000846040516020016119b8929190613e26565b6040516020818303038152906040526040516119d49190613bbf565b600060405180830381855afa9150503d8060008114611a0f576040519150601f19603f3d011682016040523d82523d6000602084013e611a14565b606091505b509150915081611a5d5780836040517fda3e641f000000000000000000000000000000000000000000000000000000008152600401611a54929190613e5d565b60405180910390fd5b505050565b611a6a611e65565b600080634203000073ffffffffffffffffffffffffffffffffffffffff1687878787604051602001611a9f9493929190613e94565b604051602081830303815290604052604051611abb9190613bbf565b600060405180830381855afa9150503d8060008114611af6576040519150601f19603f3d011682016040523d82523d6000602084013e611afb565b606091505b509150915081611b48576342030000816040517f75fff467000000000000000000000000000000000000000000000000000000008152600401611b3f929190613b2e565b60405180910390fd5b80806020019051810190611b5c9190613eee565b92505050949350505050565b600080634202000073ffffffffffffffffffffffffffffffffffffffff16858585604051602001611b9b93929190613f37565b604051602081830303815290604052604051611bb79190613bbf565b600060405180830381855afa9150503d8060008114611bf2576040519150601f19603f3d011682016040523d82523d6000602084013e611bf7565b606091505b509150915081611c44576342020000816040517f75fff467000000000000000000000000000000000000000000000000000000008152600401611c3b929190613b2e565b60405180910390fd5b5050505050565b606080600080634210000173ffffffffffffffffffffffffffffffffffffffff16878787604051602001611c8193929190613f7c565b604051602081830303815290604052604051611c9d9190613bbf565b600060405180830381855afa9150503d8060008114611cd8576040519150601f19603f3d011682016040523d82523d6000602084013e611cdd565b606091505b509150915081611d2a576342100001816040517f75fff467000000000000000000000000000000000000000000000000000000008152600401611d21929190613b2e565b60405180910390fd5b80806020019051810190611d3e9190613fc1565b935093505050935093915050565b6000600167ffffffffffffffff811115611d6957611d68611ef5565b5b604051908082528060200260200182016040528015611d975781602001602082028036833780820191505090505b5090503081600081518110611daf57611dae612ec5565b5b602002602001019073ffffffffffffffffffffffffffffffffffffffff16908173ffffffffffffffffffffffffffffffffffffffff1681525050611e29836040518060400160405280601581526020017f626c6f636b61643a76303a6275696c646572426964000000000000000000000081525084611b68565b505050565b6040518060400160405280600067ffffffffffffffff16815260200160006fffffffffffffffffffffffffffffffff191681525090565b6040518060c0016040528060006fffffffffffffffffffffffffffffffff1916815260200160006fffffffffffffffffffffffffffffffff19168152602001600067ffffffffffffffff1681526020016060815260200160608152602001606081525090565b6000604051905090565b600080fd5b600080fd5b600080fd5b6000601f19601f8301169050919050565b7f4e487b7100000000000000000000000000000000000000000000000000000000600052604160045260246000fd5b611f2d82611ee4565b810181811067ffffffffffffffff82111715611f4c57611f4b611ef5565b5b80604052505050565b6000611f5f611ecb565b9050611f6b8282611f24565b919050565b600080fd5b600067ffffffffffffffff82169050919050565b611f9281611f75565b8114611f9d57600080fd5b50565b600081359050611faf81611f89565b92915050565b600080fd5b600080fd5b600067ffffffffffffffff821115611fda57611fd9611ef5565b5b611fe382611ee4565b9050602081019050919050565b82818337600083830152505050565b600061201261200d84611fbf565b611f55565b90508281526020810184848401111561202e5761202d611fba565b5b612039848285611ff0565b509392505050565b600082601f83011261205657612055611fb5565b5b8135612066848260208601611fff565b91505092915050565b6000819050919050565b6120828161206f565b811461208d57600080fd5b50565b60008135905061209f81612079565b92915050565b600073ffffffffffffffffffffffffffffffffffffffff82169050919050565b60006120d0826120a5565b9050919050565b6120e0816120c5565b81146120eb57600080fd5b50565b6000813590506120fd816120d7565b92915050565b600067ffffffffffffffff82111561211e5761211d611ef5565b5b602082029050602081019050919050565b600080fd5b60006080828403121561214a57612149611edf565b5b6121546080611f55565b9050600061216484828501611fa0565b600083015250602061217884828501611fa0565b602083015250604061218c848285016120ee565b60408301525060606121a084828501611fa0565b60608301525092915050565b60006121bf6121ba84612103565b611f55565b905080838252602082019050608084028301858111156121e2576121e161212f565b5b835b8181101561220b57806121f78882612134565b8452602084019350506080810190506121e4565b5050509392505050565b600082601f83011261222a57612229611fb5565b5b813561223a8482602086016121ac565b91505092915050565b60008115159050919050565b61225881612243565b811461226357600080fd5b50565b6000813590506122758161224f565b92915050565b6000610140828403121561229257612291611edf565b5b61229d610140611f55565b905060006122ad84828501611fa0565b600083015250602082013567ffffffffffffffff8111156122d1576122d0611f70565b5b6122dd84828501612041565b60208301525060406122f184828501612090565b604083015250606061230584828501611fa0565b6060830152506080612319848285016120ee565b60808301525060a061232d84828501611fa0565b60a08301525060c061234184828501612090565b60c08301525060e082013567ffffffffffffffff81111561236557612364611f70565b5b61237184828501612215565b60e08301525061010082013567ffffffffffffffff81111561239657612395611f70565b5b6123a284828501612041565b610100830152506101206123b884828501612266565b6101208301525092915050565b600080604083850312156123dc576123db611ed5565b5b600083013567ffffffffffffffff8111156123fa576123f9611eda565b5b6124068582860161227b565b925050602061241785828601611fa0565b9150509250929050565b600081519050919050565b600082825260208201905092915050565b60005b8381101561245b578082015181840152602081019050612440565b8381111561246a576000848401525b50505050565b600061247b82612421565b612485818561242c565b935061249581856020860161243d565b61249e81611ee4565b840191505092915050565b600060208201905081810360008301526124c38184612470565b905092915050565b6000819050919050565b6124de816124cb565b81146124e957600080fd5b50565b6000813590506124fb816124d5565b92915050565b6000806040838503121561251857612517611ed5565b5b600083013567ffffffffffffffff81111561253657612535611eda565b5b61254285828601612041565b9250506020612553858286016124ec565b9150509250929050565b600081519050919050565b600082825260208201905092915050565b60006125848261255d565b61258e8185612568565b935061259e81856020860161243d565b6125a781611ee4565b840191505092915050565b600060208201905081810360008301526125cc8184612579565b905092915050565b6000602082840312156125ea576125e9611ed5565b5b60006125f8848285016124ec565b91505092915050565b60007fffffffffffffffffffffffffffffffff0000000000000000000000000000000082169050919050565b61263681612601565b811461264157600080fd5b50565b6000813590506126538161262d565b92915050565b600080604083850312156126705761266f611ed5565b5b600061267e85828601612644565b925050602083013567ffffffffffffffff81111561269f5761269e611eda565b5b6126ab85828601612041565b9150509250929050565b600067ffffffffffffffff8211156126d0576126cf611ef5565b5b602082029050602081019050919050565b60006126f46126ef846126b5565b611f55565b905080838252602082019050602084028301858111156127175761271661212f565b5b835b81811015612740578061272c88826120ee565b845260208401935050602081019050612719565b5050509392505050565b600082601f83011261275f5761275e611fb5565b5b813561276f8482602086016126e1565b91505092915050565b600067ffffffffffffffff82111561279357612792611ef5565b5b61279c82611ee4565b9050602081019050919050565b60006127bc6127b784612778565b611f55565b9050828152602081018484840111156127d8576127d7611fba565b5b6127e3848285611ff0565b509392505050565b600082601f830112612800576127ff611fb5565b5b81356128108482602086016127a9565b91505092915050565b600060c0828403121561282f5761282e611edf565b5b61283960c0611f55565b9050600061284984828501612644565b600083015250602061285d84828501612644565b602083015250604061287184828501611fa0565b604083015250606082013567ffffffffffffffff81111561289557612894611f70565b5b6128a18482850161274a565b606083015250608082013567ffffffffffffffff8111156128c5576128c4611f70565b5b6128d18482850161274a565b60808301525060a082013567ffffffffffffffff8111156128f5576128f4611f70565b5b612901848285016127eb565b60a08301525092915050565b6000806040838503121561292457612923611ed5565b5b600083013567ffffffffffffffff81111561294257612941611eda565b5b61294e85828601612819565b925050602083013567ffffffffffffffff81111561296f5761296e611eda565b5b61297b85828601612041565b9150509250929050565b600061299082612601565b9050919050565b6129a081612985565b82525050565b6129af81611f75565b82525050565b600081519050919050565b600082825260208201905092915050565b6000819050602082019050919050565b6129ea816120c5565b82525050565b60006129fc83836129e1565b60208301905092915050565b6000602082019050919050565b6000612a20826129b5565b612a2a81856129c0565b9350612a35836129d1565b8060005b83811015612a66578151612a4d88826129f0565b9750612a5883612a08565b925050600181019050612a39565b5085935050505092915050565b600082825260208201905092915050565b6000612a8f8261255d565b612a998185612a73565b9350612aa981856020860161243d565b612ab281611ee4565b840191505092915050565b600060c083016000830151612ad56000860182612997565b506020830151612ae86020860182612997565b506040830151612afb60408601826129a6565b5060608301518482036060860152612b138282612a15565b91505060808301518482036080860152612b2d8282612a15565b91505060a083015184820360a0860152612b478282612a84565b9150508091505092915050565b60006040820190508181036000830152612b6e8185612abd565b90508181036020830152612b828184612470565b90509392505050565b600080fd5b600060c08284031215612ba657612ba5612b8b565b5b81905092915050565b600060208284031215612bc557612bc4611ed5565b5b600082013567ffffffffffffffff811115612be357612be2611eda565b5b612bef84828501612b90565b91505092915050565b600067ffffffffffffffff821115612c1357612c12611ef5565b5b602082029050602081019050919050565b6000612c37612c3284612bf8565b611f55565b90508083825260208201905060208402830185811115612c5a57612c5961212f565b5b835b81811015612c835780612c6f8882612644565b845260208401935050602081019050612c5c565b5050509392505050565b600082601f830112612ca257612ca1611fb5565b5b8135612cb2848260208601612c24565b91505092915050565b60008060008060808587031215612cd557612cd4611ed5565b5b600085013567ffffffffffffffff811115612cf357612cf2611eda565b5b612cff8782880161227b565b9450506020612d1087828801611fa0565b935050604085013567ffffffffffffffff811115612d3157612d30611eda565b5b612d3d87828801612c8d565b925050606085013567ffffffffffffffff811115612d5e57612d5d611eda565b5b612d6a878288016127eb565b91505092959194509250565b60008060408385031215612d8d57612d8c611ed5565b5b600083013567ffffffffffffffff811115612dab57612daa611eda565b5b612db7858286016127eb565b9250506020612dc885828601612090565b9150509250929050565b60008060408385031215612de957612de8611ed5565b5b6000612df785828601612644565b9250506020612e0885828601612644565b9150509250929050565b612e1b81612243565b82525050565b6000602082019050612e366000830184612e12565b92915050565b612e45816120c5565b82525050565b7f6e6f2064617461207265636f7264730000000000000000000000000000000000600082015250565b6000612e81600f8361242c565b9150612e8c82612e4b565b602082019050919050565b6000604082019050612eac6000830184612e3c565b8181036020830152612ebd81612e74565b905092915050565b7f4e487b7100000000000000000000000000000000000000000000000000000000600052603260045260246000fd5b600081519050612f0381611f89565b92915050565b600060208284031215612f1f57612f1e611ed5565b5b6000612f2d84828501612ef4565b91505092915050565b7f4e487b7100000000000000000000000000000000000000000000000000000000600052601160045260246000fd5b6000612f70826124cb565b91507fffffffffffffffffffffffffffffffffffffffffffffffffffffffffffffffff821415612fa357612fa2612f36565b5b600182019050919050565b6000612fb9826124cb565b9150612fc4836124cb565b925082821015612fd757612fd6612f36565b5b828203905092915050565b6000612fed826124cb565b9150612ff8836124cb565b9250827fffffffffffffffffffffffffffffffffffffffffffffffffffffffffffffffff0382111561302d5761302c612f36565b5b828201905092915050565b6130418161206f565b82525050565b600060408201905081810360008301526130618185612579565b90506130706020830184613038565b9392505050565b61308081612985565b82525050565b600060408201905061309b6000830185613077565b81810360208301526130ad8184612470565b90509392505050565b6130bf81611f75565b82525050565b600082825260208201905092915050565b60006130e1826129b5565b6130eb81856130c5565b93506130f6836129d1565b8060005b8381101561312757815161310e88826129f0565b975061311983612a08565b9250506001810190506130fa565b5085935050505092915050565b60006060820190506131496000830186613077565b61315660208301856130b6565b818103604083015261316881846130d6565b9050949350505050565b60006020828403121561318857613187611ed5565b5b600061319684828501611fa0565b91505092915050565b600080fd5b600080fd5b600080fd5b600080833560016020038436030381126131cb576131ca61319f565b5b80840192508235915067ffffffffffffffff8211156131ed576131ec6131a4565b5b602083019250602082023603831315613209576132086131a9565b5b509250929050565b6000819050919050565b600061322a60208401846120ee565b905092915050565b6000602082019050919050565b600061324b83856130c5565b935061325682613211565b8060005b8581101561328f5761326c828461321b565b61327688826129f0565b975061328183613232565b92505060018101905061325a565b5085925050509392505050565b60006060820190506132b16000830187613077565b6132be60208301866130b6565b81810360408301526132d181848661323f565b905095945050505050565b600081519050919050565b600082825260208201905092915050565b6000819050602082019050919050565b60006133148383612997565b60208301905092915050565b6000602082019050919050565b6000613338826132dc565b61334281856132e7565b935061334d836132f8565b8060005b8381101561337e5781516133658882613308565b975061337083613320565b925050600181019050613351565b5085935050505092915050565b600060208201905081810360008301526133a5818461332d565b905092915050565b600082825260208201905092915050565b60006133c982612421565b6133d381856133ad565b93506133e381856020860161243d565b6133ec81611ee4565b840191505092915050565b6134008161206f565b82525050565b600081519050919050565b600082825260208201905092915050565b6000819050602082019050919050565b60808201600082015161344860008501826129a6565b50602082015161345b60208501826129a6565b50604082015161346e60408501826129e1565b50606082015161348160608501826129a6565b50505050565b60006134938383613432565b60808301905092915050565b6000602082019050919050565b60006134b782613406565b6134c18185613411565b93506134cc83613422565b8060005b838110156134fd5781516134e48882613487565b97506134ef8361349f565b9250506001810190506134d0565b5085935050505092915050565b61351381612243565b82525050565b60006101408301600083015161353260008601826129a6565b506020830151848203602086015261354a82826133be565b915050604083015161355f60408601826133f7565b50606083015161357260608601826129a6565b50608083015161358560808601826129e1565b5060a083015161359860a08601826129a6565b5060c08301516135ab60c08601826133f7565b5060e083015184820360e08601526135c382826134ac565b9150506101008301518482036101008601526135df82826133be565b9150506101208301516135f661012086018261350a565b508091505092915050565b6000608082019050818103600083015261361b8187613519565b905061362a60208301866130b6565b818103604083015261363c818561332d565b905081810360608301526136508184612579565b905095945050505050565b60008151905061366a8161262d565b92915050565b60008151905061367f816120d7565b92915050565b6000613698613693846126b5565b611f55565b905080838252602082019050602084028301858111156136bb576136ba61212f565b5b835b818110156136e457806136d08882613670565b8452602084019350506020810190506136bd565b5050509392505050565b600082601f83011261370357613702611fb5565b5b8151613713848260208601613685565b91505092915050565b600061372f61372a84612778565b611f55565b90508281526020810184848401111561374b5761374a611fba565b5b61375684828561243d565b509392505050565b600082601f83011261377357613772611fb5565b5b815161378384826020860161371c565b91505092915050565b600060c082840312156137a2576137a1611edf565b5b6137ac60c0611f55565b905060006137bc8482850161365b565b60008301525060206137d08482850161365b565b60208301525060406137e484828501612ef4565b604083015250606082015167ffffffffffffffff81111561380857613807611f70565b5b613814848285016136ee565b606083015250608082015167ffffffffffffffff81111561383857613837611f70565b5b613844848285016136ee565b60808301525060a082015167ffffffffffffffff81111561386857613867611f70565b5b6138748482850161375e565b60a08301525092915050565b600061389361388e84611fbf565b611f55565b9050828152602081018484840111156138af576138ae611fba565b5b6138ba84828561243d565b509392505050565b600082601f8301126138d7576138d6611fb5565b5b81516138e7848260208601613880565b91505092915050565b6000806040838503121561390757613906611ed5565b5b600083015167ffffffffffffffff81111561392557613924611eda565b5b6139318582860161378c565b925050602083015167ffffffffffffffff81111561395257613951611eda565b5b61395e858286016138c2565b9150509250929050565b600060208201905061397d6000830184613038565b92915050565b6000819050919050565b61399e61399982612985565b613983565b82525050565b60006139b0828461398d565b60108201915081905092915050565b60006139d26139cd84612bf8565b611f55565b905080838252602082019050602084028301858111156139f5576139f461212f565b5b835b81811015613a1e5780613a0a888261365b565b8452602084019350506020810190506139f7565b5050509392505050565b600082601f830112613a3d57613a3c611fb5565b5b8151613a4d8482602086016139bf565b91505092915050565b600060208284031215613a6c57613a6b611ed5565b5b600082015167ffffffffffffffff811115613a8a57613a89611eda565b5b613a9684828501613a28565b91505092915050565b600060208284031215613ab557613ab4611ed5565b5b600082015167ffffffffffffffff811115613ad357613ad2611eda565b5b613adf848285016138c2565b91505092915050565b600081905092915050565b50565b6000613b03600083613ae8565b9150613b0e82613af3565b600082019050919050565b6000613b2482613af6565b9150819050919050565b6000604082019050613b436000830185612e3c565b8181036020830152613b558184612470565b90509392505050565b6000604082019050613b7360008301856130b6565b8181036020830152613b858184612579565b90509392505050565b6000613b9982612421565b613ba38185613ae8565b9350613bb381856020860161243d565b80840191505092915050565b6000613bcb8284613b8e565b915081905092915050565b600067ffffffffffffffff821115613bf157613bf0611ef5565b5b602082029050602081019050919050565b6000613c15613c1084613bd6565b611f55565b90508083825260208201905060208402830185811115613c3857613c3761212f565b5b835b81811015613c7f57805167ffffffffffffffff811115613c5d57613c5c611fb5565b5b808601613c6a898261378c565b85526020850194505050602081019050613c3a565b5050509392505050565b600082601f830112613c9e57613c9d611fb5565b5b8151613cae848260208601613c02565b91505092915050565b600060208284031215613ccd57613ccc611ed5565b5b600082015167ffffffffffffffff811115613ceb57613cea611eda565b5b613cf784828501613c89565b91505092915050565b6000604082019050613d156000830185613077565b8181036020830152613d278184612579565b90509392505050565b7f4e487b7100000000000000000000000000000000000000000000000000000000600052602260045260246000fd5b60006002820490506001821680613d7757607f821691505b60208210811415613d8b57613d8a613d30565b5b50919050565b60008190508160005260206000209050919050565b60008154613db381613d5f565b613dbd8186612568565b94506001821660008114613dd85760018114613dea57613e1d565b60ff1983168652602086019350613e1d565b613df385613d91565b60005b83811015613e1557815481890152600182019150602081019050613df6565b808801955050505b50505092915050565b60006040820190508181036000830152613e408185613da6565b90508181036020830152613e548184612470565b90509392505050565b60006040820190508181036000830152613e778185612579565b90508181036020830152613e8b8184612470565b90509392505050565b6000608082019050613ea960008301876130b6565b8181036020830152613ebb81866130d6565b90508181036040830152613ecf81856130d6565b90508181036060830152613ee38184612579565b905095945050505050565b600060208284031215613f0457613f03611ed5565b5b600082015167ffffffffffffffff811115613f2257613f21611eda565b5b613f2e8482850161378c565b91505092915050565b6000606082019050613f4c6000830186613077565b8181036020830152613f5e8185612579565b90508181036040830152613f728184612470565b9050949350505050565b60006060820190508181036000830152613f968186613519565b9050613fa56020830185613077565b8181036040830152613fb78184612579565b9050949350505050565b60008060408385031215613fd857613fd7611ed5565b5b600083015167ffffffffffffffff811115613ff657613ff5611eda565b5b614002858286016138c2565b925050602083015167ffffffffffffffff81111561402357614022611eda565b5b61402f858286016138c2565b915050925092905056fea2646970667358221220f7930f77612462e2c58b7d6b7d7d053f804dec3eb0b2f11acb3deeb9afe9896664736f6c63430008080033",
  "devdoc": {
    "kind": "dev",
    "methods": {},
    "version": 1
  },
  "userdoc": {
    "kind": "user",
    "methods": {},
    "version": 1
  },
  "storageLayout": {
    "storage": [
      {
        "astId": 1385,
        "contract": "contracts/blockad/BlockAdV2.sol:BlockAdAuctionV2",
        "label": "secretBidId",
        "offset": 0,
        "slot": "0",
        "type": "t_userDefinedValueType(DataId)1886"
      },
      {
        "astId": 1387,
        "contract": "contracts/blockad/BlockAdV2.sol:BlockAdAuctionV2",
        "label": "presentHash",
        "offset": 0,
        "slot": "1",
        "type": "t_bytes32"
      },
      {
        "astId": 1389,
        "contract": "contracts/blockad/BlockAdV2.sol:BlockAdAuctionV2",
        "label": "nonce",
        "offset": 0,
        "slot": "2",
        "type": "t_uint256"
      },
      {
        "astId": 473,
        "contract": "contracts/blockad/BlockAdV2.sol:BlockAdAuctionV2",
        "label": "builder",
        "offset": 0,
        "slot": "3",
        "type": "t_contract(Builder)1344"
      },
      {
        "astId": 477,
        "contract": "contracts/blockad/BlockAdV2.sol:BlockAdAuctionV2",
        "label": "requests",
        "offset": 0,
        "slot": "4",
        "type": "t_array(t_struct(AdRequest)432_storage)dyn_storage"
      },
      {
        "astId": 479,
        "contract": "contracts/blockad/BlockAdV2.sol:BlockAdAuctionV2",
        "label": "nextId",
        "offset": 0,
        "slot": "5",
        "type": "t_uint256"
      }
    ],
    "types": {
      "t_array(t_struct(AdRequest)432_storage)dyn_storage": {
        "base": "t_struct(AdRequest)432_storage",
        "encoding": "dynamic_array",
        "label": "struct BlockAdAuctionV2.AdRequest[]",
        "numberOfBytes": "32"
      },
      "t_bytes32": {
        "encoding": "inplace",
        "label": "bytes32",
        "numberOfBytes": "32"
      },
      "t_contract(Builder)1344": {
        "encoding": "inplace",
        "label": "contract Builder",
        "numberOfBytes": "20"
      },
      "t_string_storage": {
        "encoding": "bytes",
        "label": "string",
        "numberOfBytes": "32"
      },
      "t_struct(AdRequest)432_storage": {
        "encoding": "inplace",
        "label": "struct BlockAdAuctionV2.AdRequest",
        "members": [
          {
            "astId": 424,
            "contract": "contracts/blockad/BlockAdV2.sol:BlockAdAuctionV2",
            "label": "id",
            "offset": 0,
            "slot": "0",
            "type": "t_uint256"
          },
          {
            "astId": 426,
            "contract": "contracts/blockad/BlockAdV2.sol:BlockAdAuctionV2",
            "label": "extra",
            "offset": 0,
            "slot": "1",
            "type": "t_string_storage"
          },
          {
            "astId": 428,
            "contract": "contracts/blockad/BlockAdV2.sol:BlockAdAuctionV2",
            "label": "blockLimit",
            "offset": 0,
            "slot": "2",
            "type": "t_uint256"
          },
          {
            "astId": 431,
            "contract": "contracts/blockad/BlockAdV2.sol:BlockAdAuctionV2",
            "label": "paymentBidId",
            "offset": 0,
            "slot": "3",
            "type": "t_userDefinedValueType(DataId)1886"
          }
        ],
        "numberOfBytes": "128"
      },
      "t_uint256": {
        "encoding": "inplace",
        "label": "uint256",
        "numberOfBytes": "32"
      },
      "t_userDefinedValueType(DataId)1886": {
        "encoding": "inplace",
        "label": "Suave.DataId",
        "numberOfBytes": "32"
      }
    }
  }
}