{
  "address": "0x838B1EDFd7978458f689c3eB4c9f5aD4054Bc575",
  "abi": [
    {
      "inputs": [
        {
          "internalType": "string",
          "name": "boostRelayUrl_",
          "type": "string"
        }
      ],
      "stateMutability": "nonpayable",
      "type": "constructor"
    },
    {
      "inputs": [
        {
          "internalType": "address",
          "name": "",
          "type": "address"
        },
        {
          "internalType": "bytes",
          "name": "",
          "type": "bytes"
        }
      ],
      "name": "PeekerReverted",
      "type": "error"
    },
    {
      "anonymous": false,
      "inputs": [
        {
          "indexed": false,
          "internalType": "Suave.DataId",
          "name": "dataId",
          "type": "bytes16"
        },
        {
          "indexed": false,
          "internalType": "bytes",
          "name": "builderBid",
          "type": "bytes"
        }
      ],
      "name": "BuilderBoostBidEvent",
      "type": "event"
    },
    {
      "anonymous": false,
      "inputs": [
        {
          "indexed": false,
          "internalType": "Suave.DataId",
          "name": "dataId",
          "type": "bytes16"
        },
        {
          "indexed": false,
          "internalType": "uint64",
          "name": "decryptionCondition",
          "type": "uint64"
        },
        {
          "indexed": false,
          "internalType": "address[]",
          "name": "allowedPeekers",
          "type": "address[]"
        }
      ],
      "name": "DataRecordEvent",
      "type": "event"
    },
    {
      "inputs": [
        {
          "components": [
            {
              "internalType": "uint64",
              "name": "slot",
              "type": "uint64"
            },
            {
              "internalType": "bytes",
              "name": "proposerPubkey",
              "type": "bytes"
            },
            {
              "internalType": "bytes32",
              "name": "parent",
              "type": "bytes32"
            },
            {
              "internalType": "uint64",
              "name": "timestamp",
              "type": "uint64"
            },
            {
              "internalType": "address",
              "name": "feeRecipient",
              "type": "address"
            },
            {
              "internalType": "uint64",
              "name": "gasLimit",
              "type": "uint64"
            },
            {
              "internalType": "bytes32",
              "name": "random",
              "type": "bytes32"
            },
            {
              "components": [
                {
                  "internalType": "uint64",
                  "name": "index",
                  "type": "uint64"
                },
                {
                  "internalType": "uint64",
                  "name": "validator",
                  "type": "uint64"
                },
                {
                  "internalType": "address",
                  "name": "Address",
                  "type": "address"
                },
                {
                  "internalType": "uint64",
                  "name": "amount",
                  "type": "uint64"
                }
              ],
              "internalType": "struct Suave.Withdrawal[]",
              "name": "withdrawals",
              "type": "tuple[]"
            },
            {
              "internalType": "bytes",
              "name": "extra",
              "type": "bytes"
            }
          ],
          "internalType": "struct Suave.BuildBlockArgs",
          "name": "blockArgs",
          "type": "tuple"
        },
        {
          "internalType": "uint64",
          "name": "blockHeight",
          "type": "uint64"
        },
        {
          "internalType": "Suave.DataId[]",
          "name": "dataRecords",
          "type": "bytes16[]"
        },
        {
          "internalType": "string",
          "name": "namespace",
          "type": "string"
        }
      ],
      "name": "buildAndEmit",
      "outputs": [
        {
          "internalType": "bytes",
          "name": "",
          "type": "bytes"
        }
      ],
      "stateMutability": "nonpayable",
      "type": "function"
    },
    {
      "inputs": [
        {
          "components": [
            {
              "internalType": "uint64",
              "name": "slot",
              "type": "uint64"
            },
            {
              "internalType": "bytes",
              "name": "proposerPubkey",
              "type": "bytes"
            },
            {
              "internalType": "bytes32",
              "name": "parent",
              "type": "bytes32"
            },
            {
              "internalType": "uint64",
              "name": "timestamp",
              "type": "uint64"
            },
            {
              "internalType": "address",
              "name": "feeRecipient",
              "type": "address"
            },
            {
              "internalType": "uint64",
              "name": "gasLimit",
              "type": "uint64"
            },
            {
              "internalType": "bytes32",
              "name": "random",
              "type": "bytes32"
            },
            {
              "components": [
                {
                  "internalType": "uint64",
                  "name": "index",
                  "type": "uint64"
                },
                {
                  "internalType": "uint64",
                  "name": "validator",
                  "type": "uint64"
                },
                {
                  "internalType": "address",
                  "name": "Address",
                  "type": "address"
                },
                {
                  "internalType": "uint64",
                  "name": "amount",
                  "type": "uint64"
                }
              ],
              "internalType": "struct Suave.Withdrawal[]",
              "name": "withdrawals",
              "type": "tuple[]"
            },
            {
              "internalType": "bytes",
              "name": "extra",
              "type": "bytes"
            }
          ],
          "internalType": "struct Suave.BuildBlockArgs",
          "name": "blockArgs",
          "type": "tuple"
        },
        {
          "internalType": "uint64",
          "name": "blockHeight",
          "type": "uint64"
        }
      ],
      "name": "buildFromPool",
      "outputs": [
        {
          "internalType": "bytes",
          "name": "",
          "type": "bytes"
        }
      ],
      "stateMutability": "nonpayable",
      "type": "function"
    },
    {
      "inputs": [
        {
          "components": [
            {
              "internalType": "uint64",
              "name": "slot",
              "type": "uint64"
            },
            {
              "internalType": "bytes",
              "name": "proposerPubkey",
              "type": "bytes"
            },
            {
              "internalType": "bytes32",
              "name": "parent",
              "type": "bytes32"
            },
            {
              "internalType": "uint64",
              "name": "timestamp",
              "type": "uint64"
            },
            {
              "internalType": "address",
              "name": "feeRecipient",
              "type": "address"
            },
            {
              "internalType": "uint64",
              "name": "gasLimit",
              "type": "uint64"
            },
            {
              "internalType": "bytes32",
              "name": "random",
              "type": "bytes32"
            },
            {
              "components": [
                {
                  "internalType": "uint64",
                  "name": "index",
                  "type": "uint64"
                },
                {
                  "internalType": "uint64",
                  "name": "validator",
                  "type": "uint64"
                },
                {
                  "internalType": "address",
                  "name": "Address",
                  "type": "address"
                },
                {
                  "internalType": "uint64",
                  "name": "amount",
                  "type": "uint64"
                }
              ],
              "internalType": "struct Suave.Withdrawal[]",
              "name": "withdrawals",
              "type": "tuple[]"
            },
            {
              "internalType": "bytes",
              "name": "extra",
              "type": "bytes"
            }
          ],
          "internalType": "struct Suave.BuildBlockArgs",
          "name": "blockArgs",
          "type": "tuple"
        },
        {
          "internalType": "uint64",
          "name": "blockHeight",
          "type": "uint64"
        }
      ],
      "name": "buildMevShare",
      "outputs": [
        {
          "internalType": "bytes",
          "name": "",
          "type": "bytes"
        }
      ],
      "stateMutability": "nonpayable",
      "type": "function"
    },
    {
      "inputs": [
        {
          "components": [
            {
              "internalType": "uint64",
              "name": "slot",
              "type": "uint64"
            },
            {
              "internalType": "bytes",
              "name": "proposerPubkey",
              "type": "bytes"
            },
            {
              "internalType": "bytes32",
              "name": "parent",
              "type": "bytes32"
            },
            {
              "internalType": "uint64",
              "name": "timestamp",
              "type": "uint64"
            },
            {
              "internalType": "address",
              "name": "feeRecipient",
              "type": "address"
            },
            {
              "internalType": "uint64",
              "name": "gasLimit",
              "type": "uint64"
            },
            {
              "internalType": "bytes32",
              "name": "random",
              "type": "bytes32"
            },
            {
              "components": [
                {
                  "internalType": "uint64",
                  "name": "index",
                  "type": "uint64"
                },
                {
                  "internalType": "uint64",
                  "name": "validator",
                  "type": "uint64"
                },
                {
                  "internalType": "address",
                  "name": "Address",
                  "type": "address"
                },
                {
                  "internalType": "uint64",
                  "name": "amount",
                  "type": "uint64"
                }
              ],
              "internalType": "struct Suave.Withdrawal[]",
              "name": "withdrawals",
              "type": "tuple[]"
            },
            {
              "internalType": "bytes",
              "name": "extra",
              "type": "bytes"
            }
          ],
          "internalType": "struct Suave.BuildBlockArgs",
          "name": "blockArgs",
          "type": "tuple"
        },
        {
          "internalType": "uint64",
          "name": "blockHeight",
          "type": "uint64"
        },
        {
          "internalType": "Suave.DataId[]",
          "name": "records",
          "type": "bytes16[]"
        },
        {
          "internalType": "string",
          "name": "namespace",
          "type": "string"
        }
      ],
      "name": "doBuild",
      "outputs": [
        {
          "components": [
            {
              "internalType": "Suave.DataId",
              "name": "id",
              "type": "bytes16"
            },
            {
              "internalType": "Suave.DataId",
              "name": "salt",
              "type": "bytes16"
            },
            {
              "internalType": "uint64",
              "name": "decryptionCondition",
              "type": "uint64"
            },
            {
              "internalType": "address[]",
              "name": "allowedPeekers",
              "type": "address[]"
            },
            {
              "internalType": "address[]",
              "name": "allowedStores",
              "type": "address[]"
            },
            {
              "internalType": "string",
              "name": "version",
              "type": "string"
            }
          ],
          "internalType": "struct Suave.DataRecord",
          "name": "",
          "type": "tuple"
        },
        {
          "internalType": "bytes",
          "name": "",
          "type": "bytes"
        }
      ],
      "stateMutability": "view",
      "type": "function"
    },
    {
      "inputs": [
        {
          "components": [
            {
              "internalType": "Suave.DataId",
              "name": "id",
              "type": "bytes16"
            },
            {
              "internalType": "Suave.DataId",
              "name": "salt",
              "type": "bytes16"
            },
            {
              "internalType": "uint64",
              "name": "decryptionCondition",
              "type": "uint64"
            },
            {
              "internalType": "address[]",
              "name": "allowedPeekers",
              "type": "address[]"
            },
            {
              "internalType": "address[]",
              "name": "allowedStores",
              "type": "address[]"
            },
            {
              "internalType": "string",
              "name": "version",
              "type": "string"
            }
          ],
          "internalType": "struct Suave.DataRecord",
          "name": "dataRecord",
          "type": "tuple"
        },
        {
          "internalType": "bytes",
          "name": "builderBid",
          "type": "bytes"
        }
      ],
      "name": "emitBuilderBidAndBid",
      "outputs": [
        {
          "components": [
            {
              "internalType": "Suave.DataId",
              "name": "id",
              "type": "bytes16"
            },
            {
              "internalType": "Suave.DataId",
              "name": "salt",
              "type": "bytes16"
            },
            {
              "internalType": "uint64",
              "name": "decryptionCondition",
              "type": "uint64"
            },
            {
              "internalType": "address[]",
              "name": "allowedPeekers",
              "type": "address[]"
            },
            {
              "internalType": "address[]",
              "name": "allowedStores",
              "type": "address[]"
            },
            {
              "internalType": "string",
              "name": "version",
              "type": "string"
            }
          ],
          "internalType": "struct Suave.DataRecord",
          "name": "",
          "type": "tuple"
        },
        {
          "internalType": "bytes",
          "name": "",
          "type": "bytes"
        }
      ],
      "stateMutability": "nonpayable",
      "type": "function"
    },
    {
      "inputs": [
        {
          "components": [
            {
              "internalType": "Suave.DataId",
              "name": "id",
              "type": "bytes16"
            },
            {
              "internalType": "Suave.DataId",
              "name": "salt",
              "type": "bytes16"
            },
            {
              "internalType": "uint64",
              "name": "decryptionCondition",
              "type": "uint64"
            },
            {
              "internalType": "address[]",
              "name": "allowedPeekers",
              "type": "address[]"
            },
            {
              "internalType": "address[]",
              "name": "allowedStores",
              "type": "address[]"
            },
            {
              "internalType": "string",
              "name": "version",
              "type": "string"
            }
          ],
          "internalType": "struct Suave.DataRecord",
          "name": "dataRecord",
          "type": "tuple"
        }
      ],
      "name": "emitDataRecord",
      "outputs": [],
      "stateMutability": "nonpayable",
      "type": "function"
    },
    {
      "inputs": [],
      "name": "fetchConfidentialBundleData",
      "outputs": [
        {
          "internalType": "bytes",
          "name": "",
          "type": "bytes"
        }
      ],
      "stateMutability": "nonpayable",
      "type": "function"
    },
    {
      "inputs": [
        {
          "internalType": "Suave.DataId",
          "name": "_l",
          "type": "bytes16"
        },
        {
          "internalType": "Suave.DataId",
          "name": "_r",
          "type": "bytes16"
        }
      ],
      "name": "idsEqual",
      "outputs": [
        {
          "internalType": "bool",
          "name": "",
          "type": "bool"
        }
      ],
      "stateMutability": "pure",
      "type": "function"
    },
    {
      "inputs": [
        {
          "internalType": "Suave.DataId",
          "name": "dataId",
          "type": "bytes16"
        },
        {
          "internalType": "bytes",
          "name": "signedBlindedHeader",
          "type": "bytes"
        }
      ],
      "name": "unlock",
      "outputs": [
        {
          "internalType": "bytes",
          "name": "",
          "type": "bytes"
        }
      ],
      "stateMutability": "view",
      "type": "function"
    }
  ],
  "transactionHash": "0xa3adb6dd0ba9d0810539aeeeb7ad916ddfcb650b8fedf7d8924cade88d9ed58c",
  "args": [
    "https://0xafa4c6985aa049fb79dd37010438cfebeb0f2bd42b115b89dd678dab0670c1de38da0c4e9138c9290a398ecd9a0b3110@boost-relay-goerli.flashbots.net"
  ],
  "numDeployments": 2,
  "solcInputHash": "e084a7fc968f31c2b48012eddbdcd1ab",
  "bytecode": "0x60806040523480156200001157600080fd5b5060405162003e1f38038062003e1f8339818101604052810190620000379190620002a4565b80600090805190602001906200004f92919062000057565b50506200035a565b828054620000659062000324565b90600052602060002090601f016020900481019282620000895760008555620000d5565b82601f10620000a457805160ff1916838001178555620000d5565b82800160010185558215620000d5579182015b82811115620000d4578251825591602001919060010190620000b7565b5b509050620000e49190620000e8565b5090565b5b8082111562000103576000816000905550600101620000e9565b5090565b6000604051905090565b600080fd5b600080fd5b600080fd5b600080fd5b6000601f19601f8301169050919050565b7f4e487b7100000000000000000000000000000000000000000000000000000000600052604160045260246000fd5b620001708262000125565b810181811067ffffffffffffffff8211171562000192576200019162000136565b5b80604052505050565b6000620001a762000107565b9050620001b5828262000165565b919050565b600067ffffffffffffffff821115620001d857620001d762000136565b5b620001e38262000125565b9050602081019050919050565b60005b8381101562000210578082015181840152602081019050620001f3565b8381111562000220576000848401525b50505050565b60006200023d6200023784620001ba565b6200019b565b9050828152602081018484840111156200025c576200025b62000120565b5b62000269848285620001f0565b509392505050565b600082601f8301126200028957620002886200011b565b5b81516200029b84826020860162000226565b91505092915050565b600060208284031215620002bd57620002bc62000111565b5b600082015167ffffffffffffffff811115620002de57620002dd62000116565b5b620002ec8482850162000271565b91505092915050565b7f4e487b7100000000000000000000000000000000000000000000000000000000600052602260045260246000fd5b600060028204905060018216806200033d57607f821691505b60208210811415620003545762000353620002f5565b5b50919050565b613ab5806200036a6000396000f3fe608060405234801561001057600080fd5b50600436106100935760003560e01c8063b33e471511610066578063b33e471514610159578063bcbb35971461018a578063d503387a146101a6578063e829cd5d146101d6578063ff4aec7d1461020657610093565b8063232ef1f414610098578063346ab175146100c9578063464b0c3a146100f95780637df1cde214610129575b600080fd5b6100b260048036038101906100ad91906121a1565b610224565b6040516100c09291906124be565b60405180910390f35b6100e360048036038101906100de91906124f5565b610433565b6040516100f09190612551565b60405180910390f35b610113600480360381019061010e91906121a1565b61085d565b6040516101209190612551565b60405180910390f35b610143600480360381019061013e9190612573565b610a3b565b6040516101509190612551565b60405180910390f35b610173600480360381019061016e9190612786565b610a9b565b6040516101819291906124be565b60405180910390f35b6101a4600480360381019061019f9190612822565b610b36565b005b6101c060048036038101906101bb91906124f5565b610bad565b6040516101cd9190612551565b60405180910390f35b6101f060048036038101906101eb919061286b565b6111fa565b6040516101fd91906128c6565b60405180910390f35b61020e611301565b60405161021b9190612551565b60405180910390f35b61022c611a9c565b60606000600267ffffffffffffffff81111561024b5761024a611b63565b5b6040519080825280602002602001820160405280156102795781602001602082028036833780820191505090505b5090503081600081518110610291576102906128e1565b5b602002602001019073ffffffffffffffffffffffffffffffffffffffff16908173ffffffffffffffffffffffffffffffffffffffff16815250506342100001816001815181106102e4576102e36128e1565b5b602002602001019073ffffffffffffffffffffffffffffffffffffffff16908173ffffffffffffffffffffffffffffffffffffffff168152505060006103618783846040518060400160405280601c81526020017f64656661756c743a76303a6d6572676564446174615265636f7264730000000081525061133a565b90506103c681600001516040518060400160405280601c81526020017f64656661756c743a76303a6d6572676564446174615265636f72647300000000815250886040516020016103b291906129bf565b604051602081830303815290604052611440565b6000806103d88a846000015189611523565b9150915061042083600001516040518060400160405280601981526020017f64656661756c743a76303a6275696c6465725061796c6f61640000000000000081525083611440565b8282955095505050505094509492505050565b606061043d611624565b61044657600080fd5b6000610487836040518060400160405280601581526020017f64656661756c743a76303a65746842756e646c657300000000000000000000008152506116ec565b90506000815114156104d057306040517f75fff4670000000000000000000000000000000000000000000000000000000081526004016104c79190612a3c565b60405180910390fd5b6000815167ffffffffffffffff8111156104ed576104ec611b63565b5b60405190808252806020026020018201604052801561052657816020015b610513611b02565b81526020019060019003908161050b5790505b50905060005b825181101561063157600061059484838151811061054d5761054c6128e1565b5b6020026020010151600001516040518060400160405280601e81526020017f64656661756c743a76303a65746842756e646c6553696d526573756c747300008152506117e6565b90506000818060200190518101906105ac9190612a7f565b905060405180604001604052808267ffffffffffffffff1681526020018685815181106105dc576105db6128e1565b5b6020026020010151600001516fffffffffffffffffffffffffffffffff1916815250848481518110610611576106106128e1565b5b60200260200101819052505050808061062990612ae5565b91505061052c565b5060008151905060005b6001826106489190612b2e565b81101561076157600060018261065e9190612b62565b90505b8281101561074d5783818151811061067c5761067b6128e1565b5b60200260200101516000015167ffffffffffffffff168483815181106106a5576106a46128e1565b5b60200260200101516000015167ffffffffffffffff16101561073a5760008483815181106106d6576106d56128e1565b5b602002602001015190508482815181106106f3576106f26128e1565b5b602002602001015185848151811061070e5761070d6128e1565b5b60200260200101819052508085838151811061072d5761072c6128e1565b5b6020026020010181905250505b808061074590612ae5565b915050610661565b50808061075990612ae5565b91505061063b565b506000835167ffffffffffffffff81111561077f5761077e611b63565b5b6040519080825280602002602001820160405280156107ad5781602001602082028036833780820191505090505b50905060005b8351811015610835578381815181106107cf576107ce6128e1565b5b6020026020010151602001518282815181106107ee576107ed6128e1565b5b60200260200101906fffffffffffffffffffffffffffffffff191690816fffffffffffffffffffffffffffffffff191681525050808061082d90612ae5565b9150506107b3565b506108518787836040518060200160405280600081525061085d565b94505050505092915050565b6060610867611624565b61087057600080fd5b6000803073ffffffffffffffffffffffffffffffffffffffff1663232ef1f4888888886040518563ffffffff1660e01b81526004016108b29493929190612e41565b60006040518083038186803b1580156108ca57600080fd5b505afa1580156108de573d6000803e3d6000fd5b505050506040513d6000823e3d601f19601f820116820180604052508101906109079190613130565b9150915061099f6000805461091b906131d7565b80601f0160208091040260200160405190810160405280929190818152602001828054610947906131d7565b80156109945780601f1061096957610100808354040283529160200191610994565b820191906000526020600020905b81548152906001019060200180831161097757829003601f168201915b5050505050826118cd565b507ff7645ba1634d8aed79d5bd07dd401d4ef0860e018d7eb3949c3f4da8fa26fb478260000151836040015184606001516040516109df93929190613287565b60405180910390a163bcbb359760e01b82604051602001610a0091906132c5565b604051602081830303815290604052604051602001610a20929190613370565b60405160208183030381529060405292505050949350505050565b6060610a45611624565b610a4e57600080fd5b6000610a8f846040518060400160405280601981526020017f64656661756c743a76303a6275696c6465725061796c6f6164000000000000008152506117e6565b90508091505092915050565b610aa3611a9c565b60607f67fa9c16cd72410c4cc1d47205b31852a81ec5e92d1c8cebc3ecbe98ed67fe3f846000015184604051610ada929190613398565b60405180910390a17ff7645ba1634d8aed79d5bd07dd401d4ef0860e018d7eb3949c3f4da8fa26fb47846000015185604001518660600151604051610b2193929190613287565b60405180910390a18383915091509250929050565b7ff7645ba1634d8aed79d5bd07dd401d4ef0860e018d7eb3949c3f4da8fa26fb4781600001356fffffffffffffffffffffffffffffffff1916826040016020810190610b8291906133c8565b838060600190610b929190613404565b604051610ba294939291906134f2565b60405180910390a150565b6060610bb7611624565b610bc057600080fd5b6000610c01836040518060400160405280601c81526020017f6d657673686172653a76303a6d61746368446174615265636f726473000000008152506116ec565b90506000610c44846040518060400160405280601c81526020017f6d657673686172653a76303a756e6d61746368656442756e646c6573000000008152506116ec565b9050600081511415610c8d57306040517f75fff467000000000000000000000000000000000000000000000000000000008152600401610c849190612a3c565b60405180910390fd5b6000815167ffffffffffffffff811115610caa57610ca9611b63565b5b604051908082528060200260200182016040528015610ce357816020015b610cd0611a9c565b815260200190600190039081610cc85790505b50905060005b8251811015610e44576000838281518110610d0757610d066128e1565b5b6020026020010151905060005b8551811015610e10576000610d7c878381518110610d3557610d346128e1565b5b6020026020010151600001516040518060400160405280601d81526020017f6d657673686172653a76303a6d6572676564446174615265636f7264730000008152506117e6565b806020019051810190610d8f91906135c9565b9050610dd481600081518110610da857610da76128e1565b5b6020026020010151878681518110610dc357610dc26128e1565b5b6020026020010151600001516111fa565b15610dfc57868281518110610dec57610deb6128e1565b5b6020026020010151925050610e10565b508080610e0890612ae5565b915050610d14565b5080838381518110610e2557610e246128e1565b5b6020026020010181905250508080610e3c90612ae5565b915050610ce9565b506000815167ffffffffffffffff811115610e6257610e61611b63565b5b604051908082528060200260200182016040528015610e9b57816020015b610e88611b02565b815260200190600190039081610e805790505b50905060005b8251811015610fa6576000610f09848381518110610ec257610ec16128e1565b5b6020026020010151600001516040518060400160405280601f81526020017f6d657673686172653a76303a65746842756e646c6553696d526573756c7473008152506117e6565b9050600081806020019051810190610f219190612a7f565b905060405180604001604052808267ffffffffffffffff168152602001868581518110610f5157610f506128e1565b5b6020026020010151600001516fffffffffffffffffffffffffffffffff1916815250848481518110610f8657610f856128e1565b5b602002602001018190525050508080610f9e90612ae5565b915050610ea1565b5060008151905060005b600182610fbd9190612b2e565b8110156110d6576000600182610fd39190612b62565b90505b828110156110c257838181518110610ff157610ff06128e1565b5b60200260200101516000015167ffffffffffffffff1684838151811061101a576110196128e1565b5b60200260200101516000015167ffffffffffffffff1610156110af57600084838151811061104b5761104a6128e1565b5b60200260200101519050848281518110611068576110676128e1565b5b6020026020010151858481518110611083576110826128e1565b5b6020026020010181905250808583815181106110a2576110a16128e1565b5b6020026020010181905250505b80806110ba90612ae5565b915050610fd6565b5080806110ce90612ae5565b915050610fb0565b506000835167ffffffffffffffff8111156110f4576110f3611b63565b5b6040519080825280602002602001820160405280156111225781602001602082028036833780820191505090505b50905060005b83518110156111aa57838181518110611144576111436128e1565b5b602002602001015160200151828281518110611163576111626128e1565b5b60200260200101906fffffffffffffffffffffffffffffffff191690816fffffffffffffffffffffffffffffffff19168152505080806111a290612ae5565b915050611128565b506111ec8989836040518060400160405280600b81526020017f6d657673686172653a763000000000000000000000000000000000000000000081525061085d565b965050505050505092915050565b6000808360405160200161120e9190613633565b60405160208183030381529060405290506000836040516020016112329190613633565b604051602081830303815290604052905060005b82518110156112f357818181518110611262576112616128e1565b5b602001015160f81c60f81b7effffffffffffffffffffffffffffffffffffffffffffffffffffffffffffff19168382815181106112a2576112a16128e1565b5b602001015160f81c60f81b7effffffffffffffffffffffffffffffffffffffffffffffffffffffffffffff1916146112e057600093505050506112fb565b80806112eb90612ae5565b915050611246565b506001925050505b92915050565b606061130b611624565b61131457600080fd5b600061131e6119c5565b905080806020019051810190611334919061364e565b91505090565b611342611a9c565b600080634203000073ffffffffffffffffffffffffffffffffffffffff16878787876040516020016113779493929190613697565b60405160208183030381529060405260405161139391906136f1565b600060405180830381855afa9150503d80600081146113ce576040519150601f19603f3d011682016040523d82523d6000602084013e6113d3565b606091505b509150915081611420576342030000816040517f75fff467000000000000000000000000000000000000000000000000000000008152600401611417929190613708565b60405180910390fd5b808060200190518101906114349190613738565b92505050949350505050565b600080634202000073ffffffffffffffffffffffffffffffffffffffff1685858560405160200161147393929190613781565b60405160208183030381529060405260405161148f91906136f1565b600060405180830381855afa9150503d80600081146114ca576040519150601f19603f3d011682016040523d82523d6000602084013e6114cf565b606091505b50915091508161151c576342020000816040517f75fff467000000000000000000000000000000000000000000000000000000008152600401611513929190613708565b60405180910390fd5b5050505050565b606080600080634210000173ffffffffffffffffffffffffffffffffffffffff16878787604051602001611559939291906137c6565b60405160208183030381529060405260405161157591906136f1565b600060405180830381855afa9150503d80600081146115b0576040519150601f19603f3d011682016040523d82523d6000602084013e6115b5565b606091505b509150915081611602576342100001816040517f75fff4670000000000000000000000000000000000000000000000000000000081526004016115f9929190613708565b60405180910390fd5b80806020019051810190611616919061380b565b935093505050935093915050565b6000806000634201000073ffffffffffffffffffffffffffffffffffffffff16604051611650906138a9565b600060405180830381855afa9150503d806000811461168b576040519150601f19603f3d011682016040523d82523d6000602084013e611690565b606091505b5091509150816116dd576342010000816040517f75fff4670000000000000000000000000000000000000000000000000000000081526004016116d4929190613708565b60405180910390fd5b80516020820151935050505090565b6060600080634203000173ffffffffffffffffffffffffffffffffffffffff16858560405160200161171f9291906138be565b60405160208183030381529060405260405161173b91906136f1565b600060405180830381855afa9150503d8060008114611776576040519150601f19603f3d011682016040523d82523d6000602084013e61177b565b606091505b5091509150816117c8576342030001816040517f75fff4670000000000000000000000000000000000000000000000000000000081526004016117bf929190613708565b60405180910390fd5b808060200190518101906117dc91906139cf565b9250505092915050565b6060600080634202000173ffffffffffffffffffffffffffffffffffffffff168585604051602001611819929190613a18565b60405160208183030381529060405260405161183591906136f1565b600060405180830381855afa9150503d8060008114611870576040519150601f19603f3d011682016040523d82523d6000602084013e611875565b606091505b5091509150816118c2576342020001816040517f75fff4670000000000000000000000000000000000000000000000000000000081526004016118b9929190613708565b60405180910390fd5b809250505092915050565b60606118d7611624565b6118e057600080fd5b600080634210000273ffffffffffffffffffffffffffffffffffffffff168585604051602001611911929190613a48565b60405160208183030381529060405260405161192d91906136f1565b600060405180830381855afa9150503d8060008114611968576040519150601f19603f3d011682016040523d82523d6000602084013e61196d565b606091505b5091509150816119ba576342100002816040517f75fff4670000000000000000000000000000000000000000000000000000000081526004016119b1929190613708565b60405180910390fd5b809250505092915050565b6060600080634201000173ffffffffffffffffffffffffffffffffffffffff16604051602001604051602081830303815290604052604051611a0791906136f1565b600060405180830381855afa9150503d8060008114611a42576040519150601f19603f3d011682016040523d82523d6000602084013e611a47565b606091505b509150915081611a94576342010001816040517f75fff467000000000000000000000000000000000000000000000000000000008152600401611a8b929190613708565b60405180910390fd5b809250505090565b6040518060c0016040528060006fffffffffffffffffffffffffffffffff1916815260200160006fffffffffffffffffffffffffffffffff19168152602001600067ffffffffffffffff1681526020016060815260200160608152602001606081525090565b6040518060400160405280600067ffffffffffffffff16815260200160006fffffffffffffffffffffffffffffffff191681525090565b6000604051905090565b600080fd5b600080fd5b600080fd5b6000601f19601f8301169050919050565b7f4e487b7100000000000000000000000000000000000000000000000000000000600052604160045260246000fd5b611b9b82611b52565b810181811067ffffffffffffffff82111715611bba57611bb9611b63565b5b80604052505050565b6000611bcd611b39565b9050611bd98282611b92565b919050565b600080fd5b600067ffffffffffffffff82169050919050565b611c0081611be3565b8114611c0b57600080fd5b50565b600081359050611c1d81611bf7565b92915050565b600080fd5b600080fd5b600067ffffffffffffffff821115611c4857611c47611b63565b5b611c5182611b52565b9050602081019050919050565b82818337600083830152505050565b6000611c80611c7b84611c2d565b611bc3565b905082815260208101848484011115611c9c57611c9b611c28565b5b611ca7848285611c5e565b509392505050565b600082601f830112611cc457611cc3611c23565b5b8135611cd4848260208601611c6d565b91505092915050565b6000819050919050565b611cf081611cdd565b8114611cfb57600080fd5b50565b600081359050611d0d81611ce7565b92915050565b600073ffffffffffffffffffffffffffffffffffffffff82169050919050565b6000611d3e82611d13565b9050919050565b611d4e81611d33565b8114611d5957600080fd5b50565b600081359050611d6b81611d45565b92915050565b600067ffffffffffffffff821115611d8c57611d8b611b63565b5b602082029050602081019050919050565b600080fd5b600060808284031215611db857611db7611b4d565b5b611dc26080611bc3565b90506000611dd284828501611c0e565b6000830152506020611de684828501611c0e565b6020830152506040611dfa84828501611d5c565b6040830152506060611e0e84828501611c0e565b60608301525092915050565b6000611e2d611e2884611d71565b611bc3565b90508083825260208201905060808402830185811115611e5057611e4f611d9d565b5b835b81811015611e795780611e658882611da2565b845260208401935050608081019050611e52565b5050509392505050565b600082601f830112611e9857611e97611c23565b5b8135611ea8848260208601611e1a565b91505092915050565b60006101208284031215611ec857611ec7611b4d565b5b611ed3610120611bc3565b90506000611ee384828501611c0e565b600083015250602082013567ffffffffffffffff811115611f0757611f06611bde565b5b611f1384828501611caf565b6020830152506040611f2784828501611cfe565b6040830152506060611f3b84828501611c0e565b6060830152506080611f4f84828501611d5c565b60808301525060a0611f6384828501611c0e565b60a08301525060c0611f7784828501611cfe565b60c08301525060e082013567ffffffffffffffff811115611f9b57611f9a611bde565b5b611fa784828501611e83565b60e08301525061010082013567ffffffffffffffff811115611fcc57611fcb611bde565b5b611fd884828501611caf565b6101008301525092915050565b600067ffffffffffffffff82111561200057611fff611b63565b5b602082029050602081019050919050565b60007fffffffffffffffffffffffffffffffff0000000000000000000000000000000082169050919050565b61204681612011565b811461205157600080fd5b50565b6000813590506120638161203d565b92915050565b600061207c61207784611fe5565b611bc3565b9050808382526020820190506020840283018581111561209f5761209e611d9d565b5b835b818110156120c857806120b48882612054565b8452602084019350506020810190506120a1565b5050509392505050565b600082601f8301126120e7576120e6611c23565b5b81356120f7848260208601612069565b91505092915050565b600067ffffffffffffffff82111561211b5761211a611b63565b5b61212482611b52565b9050602081019050919050565b600061214461213f84612100565b611bc3565b9050828152602081018484840111156121605761215f611c28565b5b61216b848285611c5e565b509392505050565b600082601f83011261218857612187611c23565b5b8135612198848260208601612131565b91505092915050565b600080600080608085870312156121bb576121ba611b43565b5b600085013567ffffffffffffffff8111156121d9576121d8611b48565b5b6121e587828801611eb1565b94505060206121f687828801611c0e565b935050604085013567ffffffffffffffff81111561221757612216611b48565b5b612223878288016120d2565b925050606085013567ffffffffffffffff81111561224457612243611b48565b5b61225087828801612173565b91505092959194509250565b600061226782612011565b9050919050565b6122778161225c565b82525050565b61228681611be3565b82525050565b600081519050919050565b600082825260208201905092915050565b6000819050602082019050919050565b6122c181611d33565b82525050565b60006122d383836122b8565b60208301905092915050565b6000602082019050919050565b60006122f78261228c565b6123018185612297565b935061230c836122a8565b8060005b8381101561233d57815161232488826122c7565b975061232f836122df565b925050600181019050612310565b5085935050505092915050565b600081519050919050565b600082825260208201905092915050565b60005b83811015612384578082015181840152602081019050612369565b83811115612393576000848401525b50505050565b60006123a48261234a565b6123ae8185612355565b93506123be818560208601612366565b6123c781611b52565b840191505092915050565b600060c0830160008301516123ea600086018261226e565b5060208301516123fd602086018261226e565b506040830151612410604086018261227d565b506060830151848203606086015261242882826122ec565b9150506080830151848203608086015261244282826122ec565b91505060a083015184820360a086015261245c8282612399565b9150508091505092915050565b600081519050919050565b600082825260208201905092915050565b600061249082612469565b61249a8185612474565b93506124aa818560208601612366565b6124b381611b52565b840191505092915050565b600060408201905081810360008301526124d881856123d2565b905081810360208301526124ec8184612485565b90509392505050565b6000806040838503121561250c5761250b611b43565b5b600083013567ffffffffffffffff81111561252a57612529611b48565b5b61253685828601611eb1565b925050602061254785828601611c0e565b9150509250929050565b6000602082019050818103600083015261256b8184612485565b905092915050565b6000806040838503121561258a57612589611b43565b5b600061259885828601612054565b925050602083013567ffffffffffffffff8111156125b9576125b8611b48565b5b6125c585828601611caf565b9150509250929050565b600067ffffffffffffffff8211156125ea576125e9611b63565b5b602082029050602081019050919050565b600061260e612609846125cf565b611bc3565b9050808382526020820190506020840283018581111561263157612630611d9d565b5b835b8181101561265a57806126468882611d5c565b845260208401935050602081019050612633565b5050509392505050565b600082601f83011261267957612678611c23565b5b81356126898482602086016125fb565b91505092915050565b600060c082840312156126a8576126a7611b4d565b5b6126b260c0611bc3565b905060006126c284828501612054565b60008301525060206126d684828501612054565b60208301525060406126ea84828501611c0e565b604083015250606082013567ffffffffffffffff81111561270e5761270d611bde565b5b61271a84828501612664565b606083015250608082013567ffffffffffffffff81111561273e5761273d611bde565b5b61274a84828501612664565b60808301525060a082013567ffffffffffffffff81111561276e5761276d611bde565b5b61277a84828501612173565b60a08301525092915050565b6000806040838503121561279d5761279c611b43565b5b600083013567ffffffffffffffff8111156127bb576127ba611b48565b5b6127c785828601612692565b925050602083013567ffffffffffffffff8111156127e8576127e7611b48565b5b6127f485828601611caf565b9150509250929050565b600080fd5b600060c08284031215612819576128186127fe565b5b81905092915050565b60006020828403121561283857612837611b43565b5b600082013567ffffffffffffffff81111561285657612855611b48565b5b61286284828501612803565b91505092915050565b6000806040838503121561288257612881611b43565b5b600061289085828601612054565b92505060206128a185828601612054565b9150509250929050565b60008115159050919050565b6128c0816128ab565b82525050565b60006020820190506128db60008301846128b7565b92915050565b7f4e487b7100000000000000000000000000000000000000000000000000000000600052603260045260246000fd5b600081519050919050565b600082825260208201905092915050565b6000819050602082019050919050565b6000612948838361226e565b60208301905092915050565b6000602082019050919050565b600061296c82612910565b612976818561291b565b93506129818361292c565b8060005b838110156129b2578151612999888261293c565b97506129a483612954565b925050600181019050612985565b5085935050505092915050565b600060208201905081810360008301526129d98184612961565b905092915050565b6129ea81611d33565b82525050565b7f6e6f2064617461207265636f7264730000000000000000000000000000000000600082015250565b6000612a26600f83612474565b9150612a31826129f0565b602082019050919050565b6000604082019050612a5160008301846129e1565b8181036020830152612a6281612a19565b905092915050565b600081519050612a7981611bf7565b92915050565b600060208284031215612a9557612a94611b43565b5b6000612aa384828501612a6a565b91505092915050565b7f4e487b7100000000000000000000000000000000000000000000000000000000600052601160045260246000fd5b6000819050919050565b6000612af082612adb565b91507fffffffffffffffffffffffffffffffffffffffffffffffffffffffffffffffff821415612b2357612b22612aac565b5b600182019050919050565b6000612b3982612adb565b9150612b4483612adb565b925082821015612b5757612b56612aac565b5b828203905092915050565b6000612b6d82612adb565b9150612b7883612adb565b9250827fffffffffffffffffffffffffffffffffffffffffffffffffffffffffffffffff03821115612bad57612bac612aac565b5b828201905092915050565b600082825260208201905092915050565b6000612bd482612469565b612bde8185612bb8565b9350612bee818560208601612366565b612bf781611b52565b840191505092915050565b612c0b81611cdd565b82525050565b600081519050919050565b600082825260208201905092915050565b6000819050602082019050919050565b608082016000820151612c53600085018261227d565b506020820151612c66602085018261227d565b506040820151612c7960408501826122b8565b506060820151612c8c606085018261227d565b50505050565b6000612c9e8383612c3d565b60808301905092915050565b6000602082019050919050565b6000612cc282612c11565b612ccc8185612c1c565b9350612cd783612c2d565b8060005b83811015612d08578151612cef8882612c92565b9750612cfa83612caa565b925050600181019050612cdb565b5085935050505092915050565b600061012083016000830151612d2e600086018261227d565b5060208301518482036020860152612d468282612bc9565b9150506040830151612d5b6040860182612c02565b506060830151612d6e606086018261227d565b506080830151612d8160808601826122b8565b5060a0830151612d9460a086018261227d565b5060c0830151612da760c0860182612c02565b5060e083015184820360e0860152612dbf8282612cb7565b915050610100830151848203610100860152612ddb8282612bc9565b9150508091505092915050565b612df181611be3565b82525050565b600082825260208201905092915050565b6000612e138261234a565b612e1d8185612df7565b9350612e2d818560208601612366565b612e3681611b52565b840191505092915050565b60006080820190508181036000830152612e5b8187612d15565b9050612e6a6020830186612de8565b8181036040830152612e7c8185612961565b90508181036060830152612e908184612e08565b905095945050505050565b600081519050612eaa8161203d565b92915050565b600081519050612ebf81611d45565b92915050565b6000612ed8612ed3846125cf565b611bc3565b90508083825260208201905060208402830185811115612efb57612efa611d9d565b5b835b81811015612f245780612f108882612eb0565b845260208401935050602081019050612efd565b5050509392505050565b600082601f830112612f4357612f42611c23565b5b8151612f53848260208601612ec5565b91505092915050565b6000612f6f612f6a84612100565b611bc3565b905082815260208101848484011115612f8b57612f8a611c28565b5b612f96848285612366565b509392505050565b600082601f830112612fb357612fb2611c23565b5b8151612fc3848260208601612f5c565b91505092915050565b600060c08284031215612fe257612fe1611b4d565b5b612fec60c0611bc3565b90506000612ffc84828501612e9b565b600083015250602061301084828501612e9b565b602083015250604061302484828501612a6a565b604083015250606082015167ffffffffffffffff81111561304857613047611bde565b5b61305484828501612f2e565b606083015250608082015167ffffffffffffffff81111561307857613077611bde565b5b61308484828501612f2e565b60808301525060a082015167ffffffffffffffff8111156130a8576130a7611bde565b5b6130b484828501612f9e565b60a08301525092915050565b60006130d36130ce84611c2d565b611bc3565b9050828152602081018484840111156130ef576130ee611c28565b5b6130fa848285612366565b509392505050565b600082601f83011261311757613116611c23565b5b81516131278482602086016130c0565b91505092915050565b6000806040838503121561314757613146611b43565b5b600083015167ffffffffffffffff81111561316557613164611b48565b5b61317185828601612fcc565b925050602083015167ffffffffffffffff81111561319257613191611b48565b5b61319e85828601613102565b9150509250929050565b7f4e487b7100000000000000000000000000000000000000000000000000000000600052602260045260246000fd5b600060028204905060018216806131ef57607f821691505b60208210811415613203576132026131a8565b5b50919050565b6132128161225c565b82525050565b600082825260208201905092915050565b60006132348261228c565b61323e8185613218565b9350613249836122a8565b8060005b8381101561327a57815161326188826122c7565b975061326c836122df565b92505060018101905061324d565b5085935050505092915050565b600060608201905061329c6000830186613209565b6132a96020830185612de8565b81810360408301526132bb8184613229565b9050949350505050565b600060208201905081810360008301526132df81846123d2565b905092915050565b60007fffffffff0000000000000000000000000000000000000000000000000000000082169050919050565b6000819050919050565b61332e613329826132e7565b613313565b82525050565b600081905092915050565b600061334a82612469565b6133548185613334565b9350613364818560208601612366565b80840191505092915050565b600061337c828561331d565b60048201915061338c828461333f565b91508190509392505050565b60006040820190506133ad6000830185613209565b81810360208301526133bf8184612485565b90509392505050565b6000602082840312156133de576133dd611b43565b5b60006133ec84828501611c0e565b91505092915050565b600080fd5b600080fd5b600080fd5b60008083356001602003843603038112613421576134206133f5565b5b80840192508235915067ffffffffffffffff821115613443576134426133fa565b5b60208301925060208202360383131561345f5761345e6133ff565b5b509250929050565b6000819050919050565b60006134806020840184611d5c565b905092915050565b6000602082019050919050565b60006134a18385613218565b93506134ac82613467565b8060005b858110156134e5576134c28284613471565b6134cc88826122c7565b97506134d783613488565b9250506001810190506134b0565b5085925050509392505050565b60006060820190506135076000830187613209565b6135146020830186612de8565b8181036040830152613527818486613495565b905095945050505050565b600061354561354084611fe5565b611bc3565b9050808382526020820190506020840283018581111561356857613567611d9d565b5b835b81811015613591578061357d8882612e9b565b84526020840193505060208101905061356a565b5050509392505050565b600082601f8301126135b0576135af611c23565b5b81516135c0848260208601613532565b91505092915050565b6000602082840312156135df576135de611b43565b5b600082015167ffffffffffffffff8111156135fd576135fc611b48565b5b6136098482850161359b565b91505092915050565b6000819050919050565b61362d6136288261225c565b613612565b82525050565b600061363f828461361c565b60108201915081905092915050565b60006020828403121561366457613663611b43565b5b600082015167ffffffffffffffff81111561368257613681611b48565b5b61368e84828501613102565b91505092915050565b60006080820190506136ac6000830187612de8565b81810360208301526136be8186613229565b905081810360408301526136d28185613229565b905081810360608301526136e68184612e08565b905095945050505050565b60006136fd828461333f565b915081905092915050565b600060408201905061371d60008301856129e1565b818103602083015261372f8184612485565b90509392505050565b60006020828403121561374e5761374d611b43565b5b600082015167ffffffffffffffff81111561376c5761376b611b48565b5b61377884828501612fcc565b91505092915050565b60006060820190506137966000830186613209565b81810360208301526137a88185612e08565b905081810360408301526137bc8184612485565b9050949350505050565b600060608201905081810360008301526137e08186612d15565b90506137ef6020830185613209565b81810360408301526138018184612e08565b9050949350505050565b6000806040838503121561382257613821611b43565b5b600083015167ffffffffffffffff8111156138405761383f611b48565b5b61384c85828601613102565b925050602083015167ffffffffffffffff81111561386d5761386c611b48565b5b61387985828601613102565b9150509250929050565b50565b6000613893600083613334565b915061389e82613883565b600082019050919050565b60006138b482613886565b9150819050919050565b60006040820190506138d36000830185612de8565b81810360208301526138e58184612e08565b90509392505050565b600067ffffffffffffffff82111561390957613908611b63565b5b602082029050602081019050919050565b600061392d613928846138ee565b611bc3565b905080838252602082019050602084028301858111156139505761394f611d9d565b5b835b8181101561399757805167ffffffffffffffff81111561397557613974611c23565b5b8086016139828982612fcc565b85526020850194505050602081019050613952565b5050509392505050565b600082601f8301126139b6576139b5611c23565b5b81516139c684826020860161391a565b91505092915050565b6000602082840312156139e5576139e4611b43565b5b600082015167ffffffffffffffff811115613a0357613a02611b48565b5b613a0f848285016139a1565b91505092915050565b6000604082019050613a2d6000830185613209565b8181036020830152613a3f8184612e08565b90509392505050565b60006040820190508181036000830152613a628185612e08565b90508181036020830152613a768184612485565b9050939250505056fea2646970667358221220422bc9e394fcc17c9d56d52e999d206030204ee46bc3726ebede181dc9b0f77264736f6c63430008080033",
  "devdoc": {
    "kind": "dev",
    "methods": {},
    "version": 1
  },
  "userdoc": {
    "kind": "user",
    "methods": {},
    "version": 1
  },
  "storageLayout": {
    "storage": [
      {
        "astId": 3982,
        "contract": "contracts/standard_peekers/bids.sol:EthBlockBidSenderContract",
        "label": "boostRelayUrl",
        "offset": 0,
        "slot": "0",
        "type": "t_string_storage"
      }
    ],
    "types": {
      "t_string_storage": {
        "encoding": "bytes",
        "label": "string",
        "numberOfBytes": "32"
      }
    }
  }
}