{
  "address": "0xC5d9f644c6F8A1B3EE9504E2D8E1D19dBa592cC6",
  "abi": [
    {
      "inputs": [
        {
          "internalType": "address",
          "name": "",
          "type": "address"
        },
        {
          "internalType": "bytes",
          "name": "",
          "type": "bytes"
        }
      ],
      "name": "PeekerReverted",
      "type": "error"
    },
    {
      "inputs": [
        {
          "internalType": "string",
          "name": "message",
          "type": "string"
        }
      ],
      "name": "SuaveError",
      "type": "error"
    },
    {
      "inputs": [
        {
          "internalType": "string",
          "name": "message",
          "type": "string"
        },
        {
          "internalType": "bytes",
          "name": "data",
          "type": "bytes"
        }
      ],
      "name": "SuaveErrorWithData",
      "type": "error"
    },
    {
      "anonymous": false,
      "inputs": [
        {
          "indexed": false,
          "internalType": "string",
          "name": "ticker",
          "type": "string"
        },
        {
          "indexed": false,
          "internalType": "uint256",
          "name": "price",
          "type": "uint256"
        }
      ],
      "name": "PriceSubmission",
      "type": "event"
    },
    {
      "stateMutability": "payable",
      "type": "fallback"
    },
    {
      "inputs": [],
      "name": "DECIMALS",
      "outputs": [
        {
          "internalType": "uint8",
          "name": "",
          "type": "uint8"
        }
      ],
      "stateMutability": "view",
      "type": "function"
    },
    {
      "inputs": [],
      "name": "HOLESKY_BUNDLE_ENDPOINT",
      "outputs": [
        {
          "internalType": "string",
          "name": "",
          "type": "string"
        }
      ],
      "stateMutability": "view",
      "type": "function"
    },
    {
      "inputs": [],
      "name": "HOLESKY_CHAINID",
      "outputs": [
        {
          "internalType": "uint256",
          "name": "",
          "type": "uint256"
        }
      ],
      "stateMutability": "view",
      "type": "function"
    },
    {
      "inputs": [],
      "name": "HOLESKY_CHAINID_STR",
      "outputs": [
        {
          "internalType": "string",
          "name": "",
          "type": "string"
        }
      ],
      "stateMutability": "view",
      "type": "function"
    },
    {
      "inputs": [],
      "name": "REMOTE_HOLESKY_RPC",
      "outputs": [
        {
          "internalType": "string",
          "name": "",
          "type": "string"
        }
      ],
      "stateMutability": "view",
      "type": "function"
    },
    {
      "inputs": [],
      "name": "S_NAMESPACE",
      "outputs": [
        {
          "internalType": "string",
          "name": "",
          "type": "string"
        }
      ],
      "stateMutability": "view",
      "type": "function"
    },
    {
      "inputs": [],
      "name": "URL_PARTIAL",
      "outputs": [
        {
          "internalType": "string",
          "name": "",
          "type": "string"
        }
      ],
      "stateMutability": "view",
      "type": "function"
    },
    {
      "inputs": [],
      "name": "confidentialConstructor",
      "outputs": [
        {
          "internalType": "bytes",
          "name": "",
          "type": "bytes"
        }
      ],
      "stateMutability": "nonpayable",
      "type": "function"
    },
    {
      "inputs": [
        {
          "internalType": "Suave.DataId",
          "name": "_pkBidId",
          "type": "bytes16"
        },
        {
          "internalType": "address",
          "name": "pkAddress",
          "type": "address"
        }
      ],
      "name": "confidentialConstructorCallback",
      "outputs": [],
      "stateMutability": "nonpayable",
      "type": "function"
    },
    {
      "inputs": [],
      "name": "controller",
      "outputs": [
        {
          "internalType": "address",
          "name": "",
          "type": "address"
        }
      ],
      "stateMutability": "view",
      "type": "function"
    },
    {
      "inputs": [],
      "name": "isInitialized",
      "outputs": [
        {
          "internalType": "bool",
          "name": "",
          "type": "bool"
        }
      ],
      "stateMutability": "view",
      "type": "function"
    },
    {
      "inputs": [],
      "name": "pkBidId",
      "outputs": [
        {
          "internalType": "Suave.DataId",
          "name": "",
          "type": "bytes16"
        }
      ],
      "stateMutability": "view",
      "type": "function"
    },
    {
      "inputs": [
        {
          "internalType": "string",
          "name": "ticker",
          "type": "string"
        },
        {
          "internalType": "uint256",
          "name": "nonce",
          "type": "uint256"
        },
        {
          "internalType": "uint256",
          "name": "gasPrice",
          "type": "uint256"
        },
        {
          "internalType": "uint64",
          "name": "settlementBlockNum",
          "type": "uint64"
        },
        {
          "internalType": "bool",
          "name": "privateSubmission",
          "type": "bool"
        }
      ],
      "name": "queryAndSubmit",
      "outputs": [
        {
          "internalType": "bytes",
          "name": "",
          "type": "bytes"
        }
      ],
      "stateMutability": "nonpayable",
      "type": "function"
    },
    {
      "inputs": [
        {
          "internalType": "string",
          "name": "ticker",
          "type": "string"
        },
        {
          "internalType": "uint256",
          "name": "price",
          "type": "uint256"
        }
      ],
      "name": "queryAndSubmitCallback",
      "outputs": [],
      "stateMutability": "nonpayable",
      "type": "function"
    },
    {
      "inputs": [
        {
          "internalType": "string",
          "name": "ticker",
          "type": "string"
        }
      ],
      "name": "queryLatestPrice",
      "outputs": [
        {
          "internalType": "uint256",
          "name": "price",
          "type": "uint256"
        }
      ],
      "stateMutability": "view",
      "type": "function"
    },
    {
      "inputs": [
        {
          "internalType": "address",
          "name": "_settlementContract",
          "type": "address"
        }
      ],
      "name": "registerCallback",
      "outputs": [],
      "stateMutability": "nonpayable",
      "type": "function"
    },
    {
      "inputs": [
        {
          "internalType": "address",
          "name": "_settlementContract",
          "type": "address"
        }
      ],
      "name": "registerSettlementContract",
      "outputs": [
        {
          "internalType": "bytes",
          "name": "",
          "type": "bytes"
        }
      ],
      "stateMutability": "nonpayable",
      "type": "function"
    },
    {
      "inputs": [
        {
          "internalType": "bytes",
          "name": "txSigned",
          "type": "bytes"
        }
      ],
      "name": "sendRawTx",
      "outputs": [
        {
          "internalType": "bytes",
          "name": "",
          "type": "bytes"
        }
      ],
      "stateMutability": "view",
      "type": "function"
    },
    {
      "inputs": [],
      "name": "settlementContract",
      "outputs": [
        {
          "internalType": "address",
          "name": "",
          "type": "address"
        }
      ],
      "stateMutability": "view",
      "type": "function"
    }
  ],
  "transactionHash": "0xd5a3a935031df1f9439b41751c7ccfa38cb567486d71f8ee7b53ea2f72e349e5",
  "args": [],
  "numDeployments": 2,
  "solcInputHash": "4c778da75e5522cbbc932758b3927517",
  "bytecode": "0x608060405234801561001057600080fd5b5061590f80620000216000396000f3fe6080604052600436106101185760003560e01c80639829ba42116100a0578063d86cd69a11610064578063d86cd69a146103b9578063e0a388fb146103e4578063e24116251461040f578063ea42418b14610438578063f77c47911461046357610119565b80639829ba42146102e6578063b72a654014610311578063cf1b037c1461033c578063d3596e7f14610365578063d40ec0661461039057610119565b8063392e53cd116100e7578063392e53cd146101eb578063507235531461021657806357e3c1b5146102535780637e48532c14610290578063847b8150146102bb57610119565b80630de8cb931461011b5780631d148b8d1461015857806323b17abc146101955780632e0f2625146101c057610119565b5b005b34801561012757600080fd5b50610142600480360381019061013d9190613b8f565b61048e565b60405161014f9190613cae565b60405180910390f35b34801561016457600080fd5b5061017f600480360381019061017a9190613d71565b610575565b60405161018c9190613cae565b60405180910390f35b3480156101a157600080fd5b506101aa610708565b6040516101b79190613e0f565b60405180910390f35b3480156101cc57600080fd5b506101d5610724565b6040516101e29190613e4d565b60405180910390f35b3480156101f757600080fd5b50610200610729565b60405161020d9190613e77565b60405180910390f35b34801561022257600080fd5b5061023d60048036038101906102389190613e92565b61073a565b60405161024a9190613eea565b60405180910390f35b34801561025f57600080fd5b5061027a60048036038101906102759190613f63565b6107c6565b6040516102879190613cae565b60405180910390f35b34801561029c57600080fd5b506102a5610915565b6040516102b29190613cae565b60405180910390f35b3480156102c757600080fd5b506102d0610a52565b6040516102dd9190613e0f565b60405180910390f35b3480156102f257600080fd5b506102fb610a6e565b6040516103089190613e0f565b60405180910390f35b34801561031d57600080fd5b50610326610aa7565b6040516103339190613e0f565b60405180910390f35b34801561034857600080fd5b50610363600480360381019061035e9190613f63565b610ac3565b005b34801561037157600080fd5b5061037a610b98565b6040516103879190613fdd565b60405180910390f35b34801561039c57600080fd5b506103b760048036038101906103b29190613ff8565b610bab565b005b3480156103c557600080fd5b506103ce610be8565b6040516103db9190613e0f565b60405180910390f35b3480156103f057600080fd5b506103f9610c21565b6040516104069190613eea565b60405180910390f35b34801561041b57600080fd5b5061043660048036038101906104319190614080565b610c27565b005b34801561044457600080fd5b5061044d610cfd565b60405161045a91906140cf565b60405180910390f35b34801561046f57600080fd5b50610478610d23565b60405161048591906140cf565b60405180910390f35b60606104d661049b610d49565b6040518060400160405280601081526020017f4e6f7420636f6e666964656e7469616c00000000000000000000000000000000815250610e13565b60006104e18761073a565b90506104f1878288888888610e59565b63d40ec06660e01b878260405160240161050c9291906140ea565b604051602081830303815290604052907bffffffffffffffffffffffffffffffffffffffffffffffffffffffff19166020820180517bffffffffffffffffffffffffffffffffffffffffffffffffffffffff838183161783525050505091505095945050505050565b6060600061058283610e92565b6040516020016105929190614214565b60405160208183030381529060405290506105ab6138cc565b6040518060400160405280600481526020017f504f5354000000000000000000000000000000000000000000000000000000008152508160200181905250818160600181905250600167ffffffffffffffff81111561060d5761060c6139b6565b5b60405190808252806020026020018201604052801561064057816020015b606081526020019060019003908161062b5790505b5081604001819052506040518060400160405280601e81526020017f436f6e74656e742d547970653a206170706c69636174696f6e2f6a736f6e0000815250816040015160008151811061069757610696614241565b5b602002602001018190525060008160800190151590811515815250506040518060600160405280602b815260200161588c602b913981600001819052506127108160a0019067ffffffffffffffff16908167ffffffffffffffff16815250506106ff81610eb8565b92505050919050565b6040518060600160405280602381526020016158b76023913981565b600481565b60008054906101000a900460ff1681565b60008061074683610f71565b9050600061075382611128565b905060006107a76107a26040518060400160405280600781526020017f22707269636522000000000000000000000000000000000000000000000000008152508461115490919063ffffffff16565b6111d7565b90506107bc6107b5826111f9565b60046112c6565b9350505050919050565b606061080e6107d3610d49565b6040518060400160405280601081526020017f4e6f7420636f6e666964656e7469616c00000000000000000000000000000000815250610e13565b600260009054906101000a900473ffffffffffffffffffffffffffffffffffffffff1673ffffffffffffffffffffffffffffffffffffffff168273ffffffffffffffffffffffffffffffffffffffff1614806108b85750600073ffffffffffffffffffffffffffffffffffffffff16600260009054906101000a900473ffffffffffffffffffffffffffffffffffffffff1673ffffffffffffffffffffffffffffffffffffffff16145b6108f7576040517f08c379a00000000000000000000000000000000000000000000000000000000081526004016108ee906142bc565b60405180910390fd5b60006109028361148d565b905061090d81610575565b915050919050565b606061095d610922610d49565b6040518060400160405280601081526020017f4e6f7420636f6e666964656e7469616c00000000000000000000000000000000815250610e13565b6109aa60008054906101000a900460ff16156040518060400160405280601381526020017f416c726561647920696e697469616c697a656400000000000000000000000000815250610e13565b60006109b6600061162b565b905060006109c382611724565b905060006109d083611790565b905063e241162560e01b81836040516024016109ed9291906142dc565b604051602081830303815290604052907bffffffffffffffffffffffffffffffffffffffffffffffffffffffff19166020820180517bffffffffffffffffffffffffffffffffffffffffffffffffffffffff8381831617835250505050935050505090565b6040518060600160405280602b815260200161588c602b913981565b6040518060400160405280601281526020017f6f7261636c653a76303a706b736563726574000000000000000000000000000081525081565b6040518060600160405280603b8152602001615851603b913981565b600073ffffffffffffffffffffffffffffffffffffffff16600260009054906101000a900473ffffffffffffffffffffffffffffffffffffffff1673ffffffffffffffffffffffffffffffffffffffff1614610b54576040517f08c379a0000000000000000000000000000000000000000000000000000000008152600401610b4b906142bc565b60405180910390fd5b80600260006101000a81548173ffffffffffffffffffffffffffffffffffffffff021916908373ffffffffffffffffffffffffffffffffffffffff16021790555050565b600060019054906101000a900460801b81565b7ff61f2fd6ab65716facd3516c91d806d98dffa9670f127beac522f8cacfd1d8df8282604051610bdc9291906140ea565b60405180910390a15050565b6040518060400160405280600681526020017f307834323638000000000000000000000000000000000000000000000000000081525081565b61426881565b610c7460008054906101000a900460ff16156040518060400160405280601381526020017f416c726561647920696e697469616c697a656400000000000000000000000000815250610e13565b81600060016101000a8154816fffffffffffffffffffffffffffffffff021916908360801c021790555080600160006101000a81548173ffffffffffffffffffffffffffffffffffffffff021916908373ffffffffffffffffffffffffffffffffffffffff16021790555060016000806101000a81548160ff0219169083151502179055505050565b600260009054906101000a900473ffffffffffffffffffffffffffffffffffffffff1681565b600160009054906101000a900473ffffffffffffffffffffffffffffffffffffffff1681565b6000806000634201000073ffffffffffffffffffffffffffffffffffffffff16604051610d7590614336565b6000604051808303816000865af19150503d8060008114610db2576040519150601f19603f3d011682016040523d82523d6000602084013e610db7565b606091505b509150915081610e04576342010000816040517f75fff467000000000000000000000000000000000000000000000000000000008152600401610dfb92919061434b565b60405180910390fd5b80516020820151935050505090565b81610e5557806040517f0c25cd98000000000000000000000000000000000000000000000000000000008152600401610e4c9190613e0f565b60405180910390fd5b5050565b6000610e678787878761196c565b90508115610e7e57610e798184611b36565b610e89565b610e8781610575565b505b50505050505050565b6060610e9d82611b4d565b90506002815101613078825260028203915080825250919050565b6060600080634320000273ffffffffffffffffffffffffffffffffffffffff1684604051602001610ee9919061458d565b604051602081830303815290604052604051610f0591906145e0565b600060405180830381855afa9150503d8060008114610f40576040519150601f19603f3d011682016040523d82523d6000602084013e610f45565b606091505b5091509150610f548282610e13565b80806020019051810190610f689190614667565b92505050919050565b60606000600167ffffffffffffffff811115610f9057610f8f6139b6565b5b604051908082528060200260200182016040528015610fc357816020015b6060815260200190600190039081610fae5790505b5090506040518060400160405280601e81526020017f436f6e74656e742d547970653a206170706c69636174696f6e2f6a736f6e0000815250816000815181106110105761100f614241565b5b602002602001018190525060006040518060c001604052806040518060600160405280603b8152602001615851603b9139866040516020016110539291906146b0565b60405160208183030381529060405281526020016040518060400160405280600381526020017f47455400000000000000000000000000000000000000000000000000000000008152508152602001838152602001600067ffffffffffffffff8111156110c3576110c26139b6565b5b6040519080825280601f01601f1916602001820160405280156110f55781602001600182028036833780820191505090505b50815260200160001515815260200161271067ffffffffffffffff16815250905061111f81610eb8565b92505050919050565b61113061390e565b80604052600061114961114284611bbb565b60ff611bc5565b905080915050919050565b61115c61390e565b806040526060905061116d83612489565b156111d1576000828051906020012090506000611189856124a0565b9050600060058251901b90505b600081146111cd57808201519550602081039050826111b4876124c2565b80519060200120036111c8578593506111cd565b611196565b5050505b92915050565b606060006111ee6111e7846124f4565b6000611bc5565b905080915050919050565b606060008290506002815111611244576040517f08c379a000000000000000000000000000000000000000000000000000000000815260040161123b90614720565b60405180910390fd5b600060028251611254919061476f565b905060008167ffffffffffffffff811115611272576112716139b6565b5b6040519080825280601f01601f1916602001820160405280156112a45781602001600182028036833780820191505090505b5090506021830160208201845182518252848452505050809350505050919050565b600080839050600080600090505b825181101561134257602e60f81b8382815181106112f5576112f4614241565b5b602001015160f81c60f81b7effffffffffffffffffffffffffffffffffffffffffffffffffffffffffffff19160361132f57809150611342565b808061133a906147a3565b9150506112d4565b5060008060006001905060008490505b60008111156113d1578160308760018461136c919061476f565b8151811061137d5761137c614241565b5b602001015160f81c60f81b60f81c61139591906147eb565b60ff166113a2919061481f565b846113ad9190614879565b9350600a826113bc919061481f565b915080806113c9906148cf565b915050611352565b506001905060008760ff16856113e79190614879565b90505b8481111561145c5781603087838151811061140857611407614241565b5b602001015160f81c60f81b60f81c61142091906147eb565b60ff1661142d919061481f565b836114389190614879565b9250600a82611447919061481f565b91508080611454906148cf565b9150506113ea565b508187600a61146b9190614a2b565b84611476919061481f565b6114809190614879565b9550505050505092915050565b606060006040518061014001604052808473ffffffffffffffffffffffffffffffffffffffff168152602001620186a0815260200164174876e800815260200160008152602001600081526020016040516024016040516020818303038152906040527f1aa3a008000000000000000000000000000000000000000000000000000000007bffffffffffffffffffffffffffffffffffffffffffffffffffffffff19166020820180517bffffffffffffffffffffffffffffffffffffffffffffffffffffffff8381831617835250505050815260200161426881526020017f111111111111111111111111111111111111111111111111111111111111111181526020017f11111111111111111111111111111111111111111111111111111111111111118152602001601b67ffffffffffffffff16815250905060006115d3826124fe565b905060006115df6127af565b9050611621826040518060400160405280600681526020017f30783432363800000000000000000000000000000000000000000000000000008152508361280a565b9350505050919050565b6060600080635320000373ffffffffffffffffffffffffffffffffffffffff168460405160200161165c9190614aed565b60405160208183030381529060405260405161167891906145e0565b6000604051808303816000865af19150503d80600081146116b5576040519150601f19603f3d011682016040523d82523d6000602084013e6116ba565b606091505b509150915081611707576353200003816040517f75fff4670000000000000000000000000000000000000000000000000000000081526004016116fe92919061434b565b60405180910390fd5b8080602001905181019061171b9190614b78565b92505050919050565b60008060405160200161173690614c0d565b604051602081830303815290604052805190602001209050600061177b826040516020016117649190614c58565b604051602081830303815290604052600086612909565b90506117878282612a19565b92505050919050565b600080600367ffffffffffffffff8111156117ae576117ad6139b6565b5b6040519080825280602002602001820160405280156117dc5781602001602082028036833780820191505090505b50905030816000815181106117f4576117f3614241565b5b602002602001019073ffffffffffffffffffffffffffffffffffffffff16908173ffffffffffffffffffffffffffffffffffffffff168152505063420300018160018151811061184757611846614241565b5b602002602001019073ffffffffffffffffffffffffffffffffffffffff16908173ffffffffffffffffffffffffffffffffffffffff168152505063420200018160028151811061189a57611899614241565b5b602002602001019073ffffffffffffffffffffffffffffffffffffffff16908173ffffffffffffffffffffffffffffffffffffffff16815250506000611918600083846040518060400160405280601281526020017f6f7261636c653a76303a706b7365637265740000000000000000000000000000815250612a88565b905061195e81600001516040518060400160405280601281526020017f6f7261636c653a76303a706b736563726574000000000000000000000000000081525086612b90565b806000015192505050919050565b60606000604051806101400160405280600260009054906101000a900473ffffffffffffffffffffffffffffffffffffffff1673ffffffffffffffffffffffffffffffffffffffff168152602001620186a081526020018481526020016000815260200185815260200187876040516024016119e99291906140ea565b6040516020818303038152906040527f4a432a46000000000000000000000000000000000000000000000000000000007bffffffffffffffffffffffffffffffffffffffffffffffffffffffff19166020820180517bffffffffffffffffffffffffffffffffffffffffffffffffffffffff8381831617835250505050815260200161426881526020017f111111111111111111111111111111111111111111111111111111111111111181526020017f11111111111111111111111111111111111111111111111111111111111111118152602001601b67ffffffffffffffff1681525090506000611adb826124fe565b90506000611ae76127af565b9050611b29826040518060400160405280600681526020017f30783432363800000000000000000000000000000000000000000000000000008152508361280a565b9350505050949350505050565b611b3f82612c75565b611b498282612d60565b5050565b60608151600260405101915080810182526f30313233343536373839616263646566600f52602082018184015b808514611ba857600185019450600f855116516001830153600f855160041c16518253600282019150611b7a565b6000825260208201604052505050919050565b6000819050919050565b60006123d1565b63101827966000526004601cfd5b6000815160001a9050919050565b60008190505b600115611c18576001640100002600611c0683611bda565b1c1615611c1957600181019050611bee565b5b92915050565b600063ffffffff84113d3d3e83831b8263ffffffff851b19161790509392505050565b600081831c63ffffffff16905092915050565b60006040519050611c7a8486036078611c75602086018803605888611c1f565b611c1f565b925085831781526020810160405295945050505050565b600080611ca2846018600051611c1f565b611cac8787611be8565b9150868210611cbb5750611e0e565b611cc482611bda565b600115611dff5760228103611cf85782611ce089858589612050565b9350611cf060048583868a611c55565b945050611dff565b605b8103611d1557611d0c88848488611e17565b93509350611dff565b607b8103611d3257611d2988848488611eef565b93509350611dff565b6001611ff9602d1b821c1615611d5757611d4e8884848861215f565b93509350611dff565b876004840111611dba5782835160e01c63747275658103611d8f57600485019450611d8660058684878b611c55565b95505050611dff565b636e756c6c8103611db757600485019450611dae60068684878b611c55565b95505050611dff565b50505b876005840111611df65782835160d81c6466616c73658103611df357600585019450611dea60058684878b611c55565b95505050611dff565b50505b611dfe611bcc565b5b50611e0a8783611be8565b9150505b94509492505050565b60008060006001860191505b600115611ec157868210611e3a57611e39611bcc565b5b82611e5d57611e498783611be8565b9150605d611e5683611bda565b0315611ec1575b611e6987838587611c91565b925092508215611eb257611e838160988551604017611c1f565b8352600181019050611e9482611bda565b605d8103611ea25750611ec1565b602c8103611eb05750611eb6565b505b8691505b600182019150611e23565b600182019150611ed383603887611c1f565b9450611ee3600183888888611c55565b92505094509492505050565b6000806001850190505b600115611fe257858110611f1057611f0f611bcc565b5b81611f3357611f1f8682611be8565b9050607d611f2c82611bda565b0315611fe2575b611f3d8682611be8565b905080611f4c87838587612050565b611f568882611be8565b9250603a611f6384611bda565b03611fd157611f7788600185018688611c91565b935093508315611fd057611fa36020860183036098611f9e85850360b88951608017611c1f565b611c1f565b8452611fae83611bda565b607d8103611fbe57505050611fe2565b602c8103611fce57505050611fd7565b505b5b87925050505b600181019050611ef9565b600181019050611ff482603886611c1f565b9350612004600282878787611c55565b915094509492505050565b6001667e0000007e03ff6030612026858501611bda565b031c1661203657612035611bcc565b5b6005821461204c5761204b600183018261200f565b5b5050565b600084841061206257612061611bcc565b5b6001840190505b6001156120fb5761207981611bda565b6022810361208757506120fb565b605c811461209b57600182019150506120f6565b6120a760018301611bda565b905060016a0510110400000000002001602283031c16156120ce57600282019150506120f6565b607581036120ed576120e160028361200f565b600682019150506120f6565b859150506120fb565b612069565b84811061210b5761210a611bcc565b5b600181019050949350505050565b60008190505b60011561214557600a603061213383611bda565b0310156121455760018101905061211f565b80821484161561215857612157611bcc565b5b9392505050565b600080849050602d61217082611bda565b0361217c576001810190505b600a603061218983611bda565b031061219857612197611bcc565b5b6121a181611bda565b600182019150603081146121be576121bb60008884612119565b91505b602e6121c983611bda565b036121e0576121dd60018860018501612119565b91505b815160658160001a6020170361220f5761220c6001896001860162010001600e8660011a031a01612119565b92505b61221d600384898989611c55565b9350505094509492505050565b600060405190508282019150601f1980601f8601165b60011561225a578084015181840152818101905080612240575b50848252600085602084010152846040830101604052509392505050565b6000606090508151600281600716116123645782158115176123645760208116156122af576122a8603882611c42565b9150612364565b6040519150602082016122c3603883611c42565b5b80156122f85780825280516122da601882611c42565b6122e687601884611c1f565b835280925060208401935050506122c4565b50601f1983820381018060051c85528260405261231785603886611c1f565b93508360201786526040811061236057602085018186015b60011561235d578151815183528082528482019150602083019250818310612357575061235d565b5061232f565b50505b5050505b50919050565b600060609050815180158315171561238257506123c9565b61238c8482611c42565b91508086166123c7576123a060d882611c42565b6123b46123ad8784611c42565b848361222a565b92506123c1838684611c1f565b87178452505b505b949350505050565b816000811461244a5760018114612460576003811461247657602084018451810180821461242f5761240281611bda565b602282536124168760d8602260f81b611c1f565b600052612426828460008a611c91565b93509450808253505b8315818310171561244357612442611bcc565b5b5050612482565b6124596010607860588761236a565b9150612482565b61246f600860b860988761236a565b9150612482565b61247f84612278565b91505b5092915050565b6000600260ff166007836000015116149050919050565b606060006124b76124b0846124f4565b6003611bc5565b905080915050919050565b606060006080836000015116146124ef5760006124e86124e1846124f4565b6001611bc5565b9050809150505b919050565b6000819050919050565b60606000600967ffffffffffffffff81111561251d5761251c6139b6565b5b60405190808252806020026020018201604052801561255057816020015b606081526020019060019003908161253b5790505b5090506125608360800151612ec6565b8160008151811061257457612573614241565b5b602002602001018190525061258c8360400151612ec6565b816001815181106125a05761259f614241565b5b60200260200101819052506125b88360200151612ec6565b816002815181106125cc576125cb614241565b5b6020026020010181905250600073ffffffffffffffffffffffffffffffffffffffff16836000015173ffffffffffffffffffffffffffffffffffffffff160361264b5761262760405180602001604052806000815250612ee0565b8160038151811061263b5761263a614241565b5b6020026020010181905250612678565b6126588360000151612f5e565b8160038151811061266c5761266b614241565b5b60200260200101819052505b6126858360600151612ec6565b8160048151811061269957612698614241565b5b60200260200101819052506126b18360a00151612ee0565b816005815181106126c5576126c4614241565b5b60200260200101819052506126e883610120015167ffffffffffffffff16612ec6565b816006815181106126fc576126fb614241565b5b60200260200101819052506127338360e0015160405160200161271f9190614c58565b604051602081830303815290604052612ee0565b8160078151811061274757612746614241565b5b602002602001018190525061277f83610100015160405160200161276b9190614c58565b604051602081830303815290604052612ee0565b8160088151811061279357612792614241565b5b60200260200101819052506127a781612f8f565b915050919050565b60606000612801600060019054906101000a900460801b6040518060400160405280601281526020017f6f7261636c653a76303a706b7365637265740000000000000000000000000000815250612fd3565b90508091505090565b6060600080634010000173ffffffffffffffffffffffffffffffffffffffff1686868660405160200161283f93929190614c73565b60405160208183030381529060405260405161285b91906145e0565b6000604051808303816000865af19150503d8060008114612898576040519150601f19603f3d011682016040523d82523d6000602084013e61289d565b606091505b5091509150816128ea576340100001816040517f75fff4670000000000000000000000000000000000000000000000000000000081526004016128e192919061434b565b60405180910390fd5b808060200190518101906128fe9190614667565b925050509392505050565b6060612913610d49565b61291c57600080fd5b600080634010000373ffffffffffffffffffffffffffffffffffffffff1686868660405160200161294f93929190614cbf565b60405160208183030381529060405260405161296b91906145e0565b6000604051808303816000865af19150503d80600081146129a8576040519150601f19603f3d011682016040523d82523d6000602084013e6129ad565b606091505b5091509150816129fa576340100003816040517f75fff4670000000000000000000000000000000000000000000000000000000081526004016129f192919061434b565b60405180910390fd5b80806020019051810190612a0e9190614667565b925050509392505050565b600080600080612a28856130bc565b92509250925060018682858560405160008152602001604052604051612a519493929190614d13565b6020604051602081039080840390855afa158015612a73573d6000803e3d6000fd5b50505060206040510351935050505092915050565b612a90613921565b600080634203000073ffffffffffffffffffffffffffffffffffffffff1687878787604051602001612ac59493929190614e25565b604051602081830303815290604052604051612ae191906145e0565b6000604051808303816000865af19150503d8060008114612b1e576040519150601f19603f3d011682016040523d82523d6000602084013e612b23565b606091505b509150915081612b70576342030000816040517f75fff467000000000000000000000000000000000000000000000000000000008152600401612b6792919061434b565b60405180910390fd5b80806020019051810190612b849190615084565b92505050949350505050565b600080634202000073ffffffffffffffffffffffffffffffffffffffff16858585604051602001612bc3939291906150cd565b604051602081830303815290604052604051612bdf91906145e0565b6000604051808303816000865af19150503d8060008114612c1c576040519150601f19603f3d011682016040523d82523d6000602084013e612c21565b606091505b509150915081612c6e576342020000816040517f75fff467000000000000000000000000000000000000000000000000000000008152600401612c6592919061434b565b60405180910390fd5b5050505050565b6000612c8082610e92565b604051602001612c9091906151aa565b6040516020818303038152906040529050600080634210000073ffffffffffffffffffffffffffffffffffffffff1683604051602001612cd09190613cae565b604051602081830303815290604052604051612cec91906145e0565b600060405180830381855afa9150503d8060008114612d27576040519150601f19603f3d011682016040523d82523d6000602084013e612d2c565b606091505b5091509150612d5a8282604051602001612d469190615223565b604051602081830303815290604052610e13565b50505050565b6000600167ffffffffffffffff811115612d7d57612d7c6139b6565b5b604051908082528060200260200182016040528015612db057816020015b6060815260200190600190039081612d9b5790505b5090508281600081518110612dc857612dc7614241565b5b60200260200101819052506000612de9828467ffffffffffffffff16613140565b9050600080634300000173ffffffffffffffffffffffffffffffffffffffff166040518060600160405280602381526020016158b76023913984604051602001612e34929190615291565b604051602081830303815290604052604051612e5091906145e0565b600060405180830381855afa9150503d8060008114612e8b576040519150601f19603f3d011682016040523d82523d6000602084013e612e90565b606091505b5091509150612ebe8282604051602001612eaa9190615327565b604051602081830303815290604052610e13565b505050505050565b6060612ed9612ed48361325f565b612ee0565b9050919050565b60608060018351148015612f185750608083600081518110612f0557612f04614241565b5b602001015160f81c60f81b60f81c60ff16105b15612f2557829050612f55565b612f31835160806133e2565b83604051602001612f43929190615349565b60405160208183030381529060405290505b80915050919050565b6060612f8882604051602001612f7491906153b5565b604051602081830303815290604052612ee0565b9050919050565b60606000612f9c8361362e565b9050612faa815160c06133e2565b81604051602001612fbc929190615349565b604051602081830303815290604052915050919050565b6060600080634202000173ffffffffffffffffffffffffffffffffffffffff1685856040516020016130069291906153d0565b60405160208183030381529060405260405161302291906145e0565b6000604051808303816000865af19150503d806000811461305f576040519150601f19603f3d011682016040523d82523d6000602084013e613064565b606091505b5091509150816130b1576342020001816040517f75fff4670000000000000000000000000000000000000000000000000000000081526004016130a892919061434b565b60405180910390fd5b809250505092915050565b60008060006041845114613105576040517f08c379a00000000000000000000000000000000000000000000000000000000081526004016130fc9061544c565b60405180910390fd5b6020840151925060408401519150606084015160001a9050601b8160ff16101561313957601b81613136919061546c565b90505b9193909250565b6060600061314d836137c0565b60405160200161315d919061553b565b604051602081830303815290604052905060005b8451811015613232578161319e86838151811061319157613190614241565b5b6020026020010151610e92565b6040516020016131af9291906155b4565b6040516020818303038152906040529150600185516131ce919061476f565b8110156131fc57816040516020016131e6919061563a565b604051602081830303815290604052915061321f565b8160405160200161320d91906156a8565b60405160208183030381529060405291505b808061322a906147a3565b915050613171565b50806040516020016132449190615716565b60405160208183030381529060405290508091505092915050565b60606000826040516020016132749190615759565b604051602081830303815290604052905060005b60208110156132ee57600060f81b8282815181106132a9576132a8614241565b5b602001015160f81c60f81b7effffffffffffffffffffffffffffffffffffffffffffffffffffffffffffff1916036132ee5780806132e6906147a3565b915050613288565b60008160206132fd919061476f565b67ffffffffffffffff811115613316576133156139b6565b5b6040519080825280601f01601f1916602001820160405280156133485781602001600182028036833780820191505090505b50905060005b81518110156133d657838380613363906147a3565b94508151811061337657613375614241565b5b602001015160f81c60f81b82828151811061339457613393614241565b5b60200101907effffffffffffffffffffffffffffffffffffffffffffffffffffffffffffff1916908160001a90535080806133ce906147a3565b91505061334e565b50809350505050919050565b606080603884101561349557600167ffffffffffffffff811115613409576134086139b6565b5b6040519080825280601f01601f19166020018201604052801561343b5781602001600182028036833780820191505090505b509050828461344a919061546c565b60f81b8160008151811061346157613460614241565b5b60200101907effffffffffffffffffffffffffffffffffffffffffffffffffffffffffffff1916908160001a905350613624565b600080600190505b600081876134ab91906157a3565b146134d35781806134bb906147a3565b925050610100816134cc919061481f565b905061349d565b6001826134e09190614879565b67ffffffffffffffff8111156134f9576134f86139b6565b5b6040519080825280601f01601f19166020018201604052801561352b5781602001600182028036833780820191505090505b5092506037858361353c919061546c565b613546919061546c565b60f81b8360008151811061355d5761355c614241565b5b60200101907effffffffffffffffffffffffffffffffffffffffffffffffffffffffffffff1916908160001a905350600190505b8181116136215761010081836135a7919061476f565b6101006135b491906157d4565b876135bf91906157a3565b6135c9919061581f565b60f81b8382815181106135df576135de614241565b5b60200101907effffffffffffffffffffffffffffffffffffffffffffffffffffffffffffff1916908160001a9053508080613619906147a3565b915050613591565b50505b8091505092915050565b6060600082510361368e57600067ffffffffffffffff811115613654576136536139b6565b5b6040519080825280601f01601f1916602001820160405280156136865781602001600182028036833780820191505090505b5090506137bb565b600080600090505b83518110156136db578381815181106136b2576136b1614241565b5b602002602001015151826136c69190614879565b915080806136d3906147a3565b915050613696565b60008267ffffffffffffffff8111156136f7576136f66139b6565b5b6040519080825280601f01601f1916602001820160405280156137295781602001600182028036833780820191505090505b5090506000602082019050600092505b85518310156137b357600086848151811061375757613756614241565b5b602002602001015190506000602082019050613775838284516137e6565b87858151811061378857613787614241565b5b6020026020010151518361379c9190614879565b9250505082806137ab906147a3565b935050613739565b819450505050505b919050565b60606137cb8261385c565b90506002815101613078825260028203915080825250919050565b6000839050600083905060008390505b60208110613834578151835260208361380f9190614879565b925060208261381e9190614879565b915060208161382d919061476f565b90506137f6565b60006001826020036101000a0390508019835116818551168181178652505050505050505050565b606060806040510190506020810160405260008152806f30313233343536373839616263646566600f52600119835b6001156138b7578184019350600f8116516001850153600f8160041c165184538060081c90508061388b575b50828203602084039350808452505050919050565b6040518060c0016040528060608152602001606081526020016060815260200160608152602001600015158152602001600067ffffffffffffffff1681525090565b6040518060200160405280600081525090565b6040518060c0016040528060006fffffffffffffffffffffffffffffffff1916815260200160006fffffffffffffffffffffffffffffffff19168152602001600067ffffffffffffffff1681526020016060815260200160608152602001606081525090565b6000604051905090565b600080fd5b600080fd5b600080fd5b600080fd5b6000601f19601f8301169050919050565b7f4e487b7100000000000000000000000000000000000000000000000000000000600052604160045260246000fd5b6139ee826139a5565b810181811067ffffffffffffffff82111715613a0d57613a0c6139b6565b5b80604052505050565b6000613a20613987565b9050613a2c82826139e5565b919050565b600067ffffffffffffffff821115613a4c57613a4b6139b6565b5b613a55826139a5565b9050602081019050919050565b82818337600083830152505050565b6000613a84613a7f84613a31565b613a16565b905082815260208101848484011115613aa057613a9f6139a0565b5b613aab848285613a62565b509392505050565b600082601f830112613ac857613ac761399b565b5b8135613ad8848260208601613a71565b91505092915050565b6000819050919050565b613af481613ae1565b8114613aff57600080fd5b50565b600081359050613b1181613aeb565b92915050565b600067ffffffffffffffff82169050919050565b613b3481613b17565b8114613b3f57600080fd5b50565b600081359050613b5181613b2b565b92915050565b60008115159050919050565b613b6c81613b57565b8114613b7757600080fd5b50565b600081359050613b8981613b63565b92915050565b600080600080600060a08688031215613bab57613baa613991565b5b600086013567ffffffffffffffff811115613bc957613bc8613996565b5b613bd588828901613ab3565b9550506020613be688828901613b02565b9450506040613bf788828901613b02565b9350506060613c0888828901613b42565b9250506080613c1988828901613b7a565b9150509295509295909350565b600081519050919050565b600082825260208201905092915050565b60005b83811015613c60578082015181840152602081019050613c45565b83811115613c6f576000848401525b50505050565b6000613c8082613c26565b613c8a8185613c31565b9350613c9a818560208601613c42565b613ca3816139a5565b840191505092915050565b60006020820190508181036000830152613cc88184613c75565b905092915050565b600067ffffffffffffffff821115613ceb57613cea6139b6565b5b613cf4826139a5565b9050602081019050919050565b6000613d14613d0f84613cd0565b613a16565b905082815260208101848484011115613d3057613d2f6139a0565b5b613d3b848285613a62565b509392505050565b600082601f830112613d5857613d5761399b565b5b8135613d68848260208601613d01565b91505092915050565b600060208284031215613d8757613d86613991565b5b600082013567ffffffffffffffff811115613da557613da4613996565b5b613db184828501613d43565b91505092915050565b600081519050919050565b600082825260208201905092915050565b6000613de182613dba565b613deb8185613dc5565b9350613dfb818560208601613c42565b613e04816139a5565b840191505092915050565b60006020820190508181036000830152613e298184613dd6565b905092915050565b600060ff82169050919050565b613e4781613e31565b82525050565b6000602082019050613e626000830184613e3e565b92915050565b613e7181613b57565b82525050565b6000602082019050613e8c6000830184613e68565b92915050565b600060208284031215613ea857613ea7613991565b5b600082013567ffffffffffffffff811115613ec657613ec5613996565b5b613ed284828501613ab3565b91505092915050565b613ee481613ae1565b82525050565b6000602082019050613eff6000830184613edb565b92915050565b600073ffffffffffffffffffffffffffffffffffffffff82169050919050565b6000613f3082613f05565b9050919050565b613f4081613f25565b8114613f4b57600080fd5b50565b600081359050613f5d81613f37565b92915050565b600060208284031215613f7957613f78613991565b5b6000613f8784828501613f4e565b91505092915050565b60007fffffffffffffffffffffffffffffffff0000000000000000000000000000000082169050919050565b6000613fc782613f90565b9050919050565b613fd781613fbc565b82525050565b6000602082019050613ff26000830184613fce565b92915050565b6000806040838503121561400f5761400e613991565b5b600083013567ffffffffffffffff81111561402d5761402c613996565b5b61403985828601613ab3565b925050602061404a85828601613b02565b9150509250929050565b61405d81613f90565b811461406857600080fd5b50565b60008135905061407a81614054565b92915050565b6000806040838503121561409757614096613991565b5b60006140a58582860161406b565b92505060206140b685828601613f4e565b9150509250929050565b6140c981613f25565b82525050565b60006020820190506140e460008301846140c0565b92915050565b600060408201905081810360008301526141048185613dd6565b90506141136020830184613edb565b9392505050565b600081905092915050565b7f7b226a736f6e727063223a22322e30222c226d6574686f64223a226574685f7360008201527f656e645261775472616e73616374696f6e222c22706172616d73223a5b220000602082015250565b6000614181603e8361411a565b915061418c82614125565b603e82019050919050565b60006141a282613dba565b6141ac818561411a565b93506141bc818560208601613c42565b80840191505092915050565b7f225d2c226964223a317d00000000000000000000000000000000000000000000600082015250565b60006141fe600a8361411a565b9150614209826141c8565b600a82019050919050565b600061421f82614174565b915061422b8284614197565b9150614236826141f1565b915081905092915050565b7f4e487b7100000000000000000000000000000000000000000000000000000000600052603260045260246000fd5b7f416c726561647920726567697374657265640000000000000000000000000000600082015250565b60006142a6601283613dc5565b91506142b182614270565b602082019050919050565b600060208201905081810360008301526142d581614299565b9050919050565b60006040820190506142f16000830185613fce565b6142fe60208301846140c0565b9392505050565b600081905092915050565b50565b6000614320600083614305565b915061432b82614310565b600082019050919050565b600061434182614313565b9150819050919050565b600060408201905061436060008301856140c0565b81810360208301526143728184613c75565b90509392505050565b600082825260208201905092915050565b600061439782613dba565b6143a1818561437b565b93506143b1818560208601613c42565b6143ba816139a5565b840191505092915050565b600081519050919050565b600082825260208201905092915050565b6000819050602082019050919050565b60006143fd838361438c565b905092915050565b6000602082019050919050565b600061441d826143c5565b61442781856143d0565b935083602082028501614439856143e1565b8060005b85811015614475578484038952815161445685826143f1565b945061446183614405565b925060208a0199505060018101905061443d565b50829750879550505050505092915050565b600082825260208201905092915050565b60006144a382613c26565b6144ad8185614487565b93506144bd818560208601613c42565b6144c6816139a5565b840191505092915050565b6144da81613b57565b82525050565b6144e981613b17565b82525050565b600060c083016000830151848203600086015261450c828261438c565b91505060208301518482036020860152614526828261438c565b915050604083015184820360408601526145408282614412565b9150506060830151848203606086015261455a8282614498565b915050608083015161456f60808601826144d1565b5060a083015161458260a08601826144e0565b508091505092915050565b600060208201905081810360008301526145a781846144ef565b905092915050565b60006145ba82613c26565b6145c48185614305565b93506145d4818560208601613c42565b80840191505092915050565b60006145ec82846145af565b915081905092915050565b600061460a61460584613cd0565b613a16565b905082815260208101848484011115614626576146256139a0565b5b614631848285613c42565b509392505050565b600082601f83011261464e5761464d61399b565b5b815161465e8482602086016145f7565b91505092915050565b60006020828403121561467d5761467c613991565b5b600082015167ffffffffffffffff81111561469b5761469a613996565b5b6146a784828501614639565b91505092915050565b60006146bc8285614197565b91506146c88284614197565b91508190509392505050565b7f496e70757420746f6f2073686f72740000000000000000000000000000000000600082015250565b600061470a600f83613dc5565b9150614715826146d4565b602082019050919050565b60006020820190508181036000830152614739816146fd565b9050919050565b7f4e487b7100000000000000000000000000000000000000000000000000000000600052601160045260246000fd5b600061477a82613ae1565b915061478583613ae1565b92508282101561479857614797614740565b5b828203905092915050565b60006147ae82613ae1565b91507fffffffffffffffffffffffffffffffffffffffffffffffffffffffffffffffff82036147e0576147df614740565b5b600182019050919050565b60006147f682613e31565b915061480183613e31565b92508282101561481457614813614740565b5b828203905092915050565b600061482a82613ae1565b915061483583613ae1565b9250817fffffffffffffffffffffffffffffffffffffffffffffffffffffffffffffffff048311821515161561486e5761486d614740565b5b828202905092915050565b600061488482613ae1565b915061488f83613ae1565b9250827fffffffffffffffffffffffffffffffffffffffffffffffffffffffffffffffff038211156148c4576148c3614740565b5b828201905092915050565b60006148da82613ae1565b9150600082036148ed576148ec614740565b5b600182039050919050565b60008160011c9050919050565b6000808291508390505b600185111561494f5780860481111561492b5761492a614740565b5b600185161561493a5780820291505b8081029050614948856148f8565b945061490f565b94509492505050565b6000826149685760019050614a24565b816149765760009050614a24565b816001811461498c5760028114614996576149c5565b6001915050614a24565b60ff8411156149a8576149a7614740565b5b8360020a9150848211156149bf576149be614740565b5b50614a24565b5060208310610133831016604e8410600b84101617156149fa5782820a9050838111156149f5576149f4614740565b5b614a24565b614a078484846001614905565b92509050818404811115614a1e57614a1d614740565b5b81810290505b9392505050565b6000614a3682613ae1565b9150614a4183613e31565b9250614a6e7fffffffffffffffffffffffffffffffffffffffffffffffffffffffffffffffff8484614958565b905092915050565b7f4e487b7100000000000000000000000000000000000000000000000000000000600052602160045260246000fd5b60028110614ab657614ab5614a76565b5b50565b6000819050614ac782614aa5565b919050565b6000614ad782614ab9565b9050919050565b614ae781614acc565b82525050565b6000602082019050614b026000830184614ade565b92915050565b6000614b1b614b1684613a31565b613a16565b905082815260208101848484011115614b3757614b366139a0565b5b614b42848285613c42565b509392505050565b600082601f830112614b5f57614b5e61399b565b5b8151614b6f848260208601614b08565b91505092915050565b600060208284031215614b8e57614b8d613991565b5b600082015167ffffffffffffffff811115614bac57614bab613996565b5b614bb884828501614b4a565b91505092915050565b7f796f000000000000000000000000000000000000000000000000000000000000600082015250565b6000614bf7600283613dc5565b9150614c0282614bc1565b602082019050919050565b60006020820190508181036000830152614c2681614bea565b9050919050565b6000819050919050565b6000819050919050565b614c52614c4d82614c2d565b614c37565b82525050565b6000614c648284614c41565b60208201915081905092915050565b60006060820190508181036000830152614c8d8186613c75565b90508181036020830152614ca18185613dd6565b90508181036040830152614cb58184613dd6565b9050949350505050565b60006060820190508181036000830152614cd98186613c75565b9050614ce86020830185614ade565b8181036040830152614cfa8184613dd6565b9050949350505050565b614d0d81614c2d565b82525050565b6000608082019050614d286000830187614d04565b614d356020830186613e3e565b614d426040830185614d04565b614d4f6060830184614d04565b95945050505050565b614d6181613b17565b82525050565b600081519050919050565b600082825260208201905092915050565b6000819050602082019050919050565b614d9c81613f25565b82525050565b6000614dae8383614d93565b60208301905092915050565b6000602082019050919050565b6000614dd282614d67565b614ddc8185614d72565b9350614de783614d83565b8060005b83811015614e18578151614dff8882614da2565b9750614e0a83614dba565b925050600181019050614deb565b5085935050505092915050565b6000608082019050614e3a6000830187614d58565b8181036020830152614e4c8186614dc7565b90508181036040830152614e608185614dc7565b90508181036060830152614e748184613dd6565b905095945050505050565b600080fd5b600080fd5b600081519050614e9881614054565b92915050565b600081519050614ead81613b2b565b92915050565b600067ffffffffffffffff821115614ece57614ecd6139b6565b5b602082029050602081019050919050565b600080fd5b600081519050614ef381613f37565b92915050565b6000614f0c614f0784614eb3565b613a16565b90508083825260208201905060208402830185811115614f2f57614f2e614edf565b5b835b81811015614f585780614f448882614ee4565b845260208401935050602081019050614f31565b5050509392505050565b600082601f830112614f7757614f7661399b565b5b8151614f87848260208601614ef9565b91505092915050565b600060c08284031215614fa657614fa5614e7f565b5b614fb060c0613a16565b90506000614fc084828501614e89565b6000830152506020614fd484828501614e89565b6020830152506040614fe884828501614e9e565b604083015250606082015167ffffffffffffffff81111561500c5761500b614e84565b5b61501884828501614f62565b606083015250608082015167ffffffffffffffff81111561503c5761503b614e84565b5b61504884828501614f62565b60808301525060a082015167ffffffffffffffff81111561506c5761506b614e84565b5b61507884828501614b4a565b60a08301525092915050565b60006020828403121561509a57615099613991565b5b600082015167ffffffffffffffff8111156150b8576150b7613996565b5b6150c484828501614f90565b91505092915050565b60006060820190506150e26000830186613fce565b81810360208301526150f48185613dd6565b905081810360408301526151088184613c75565b9050949350505050565b7f7b22747873223a205b2200000000000000000000000000000000000000000000600082015250565b6000615148600a8361411a565b915061515382615112565b600a82019050919050565b7f225d7d0000000000000000000000000000000000000000000000000000000000600082015250565b600061519460038361411a565b915061519f8261515e565b600382019050919050565b60006151b58261513b565b91506151c18284614197565b91506151cc82615187565b915081905092915050565b7f42756e646c6553696d756c6174696f6e4661696c65643a200000000000000000600082015250565b600061520d60188361411a565b9150615218826151d7565b601882019050919050565b600061522e82615200565b915061523a8284614197565b915081905092915050565b7f6574685f73656e6442756e646c65000000000000000000000000000000000000600082015250565b600061527b600e83613dc5565b915061528682615245565b602082019050919050565b600060608201905081810360008301526152ab8185613dd6565b905081810360208301526152be8161526e565b905081810360408301526152d28184613c75565b90509392505050565b7f42756e646c655375626d697373696f6e4661696c65643a200000000000000000600082015250565b600061531160188361411a565b915061531c826152db565b601882019050919050565b600061533282615304565b915061533e8284614197565b915081905092915050565b600061535582856145af565b915061536182846145af565b91508190509392505050565b60008160601b9050919050565b60006153858261536d565b9050919050565b60006153978261537a565b9050919050565b6153af6153aa82613f25565b61538c565b82525050565b60006153c1828461539e565b60148201915081905092915050565b60006040820190506153e56000830185613fce565b81810360208301526153f78184613dd6565b90509392505050565b7f696e76616c6964207369676e6174757265206c656e6774680000000000000000600082015250565b6000615436601883613dc5565b915061544182615400565b602082019050919050565b6000602082019050818103600083015261546581615429565b9050919050565b600061547782613e31565b915061548283613e31565b92508260ff0382111561549857615497614740565b5b828201905092915050565b7f7b22626c6f636b4e756d626572223a2022000000000000000000000000000000600082015250565b60006154d960118361411a565b91506154e4826154a3565b601182019050919050565b7f222c2022747873223a205b000000000000000000000000000000000000000000600082015250565b6000615525600b8361411a565b9150615530826154ef565b600b82019050919050565b6000615546826154cc565b91506155528284614197565b915061555d82615518565b915081905092915050565b7f2200000000000000000000000000000000000000000000000000000000000000600082015250565b600061559e60018361411a565b91506155a982615568565b600182019050919050565b60006155c082856145af565b91506155cb82615591565b91506155d78284614197565b91506155e282615591565b91508190509392505050565b7f2c00000000000000000000000000000000000000000000000000000000000000600082015250565b600061562460018361411a565b915061562f826155ee565b600182019050919050565b600061564682846145af565b915061565182615617565b915081905092915050565b7f5d00000000000000000000000000000000000000000000000000000000000000600082015250565b600061569260018361411a565b915061569d8261565c565b600182019050919050565b60006156b482846145af565b91506156bf82615685565b915081905092915050565b7f7d00000000000000000000000000000000000000000000000000000000000000600082015250565b600061570060018361411a565b915061570b826156ca565b600182019050919050565b600061572282846145af565b915061572d826156f3565b915081905092915050565b6000819050919050565b61575361574e82613ae1565b615738565b82525050565b60006157658284615742565b60208201915081905092915050565b7f4e487b7100000000000000000000000000000000000000000000000000000000600052601260045260246000fd5b60006157ae82613ae1565b91506157b983613ae1565b9250826157c9576157c8615774565b5b828204905092915050565b60006157df82613ae1565b91506157ea83613ae1565b92506158177fffffffffffffffffffffffffffffffffffffffffffffffffffffffffffffffff8484614958565b905092915050565b600061582a82613ae1565b915061583583613ae1565b92508261584557615844615774565b5b82820690509291505056fe68747470733a2f2f646174612d6170692e62696e616e63652e766973696f6e2f6170692f76332f7469636b65722f70726963653f73796d626f6c3d68747470733a2f2f657468657265756d2d686f6c65736b792d7270632e7075626c69636e6f64652e636f6d68747470733a2f2f72656c61792d686f6c65736b792e666c617368626f74732e6e6574a2646970667358221220432fa067b94e54e62cdaa12a25113ce1168df52048191e4ffbb02624927a7e9264736f6c634300080d0033",
  "devdoc": {
    "kind": "dev",
    "methods": {},
    "version": 1
  },
  "userdoc": {
    "kind": "user",
    "methods": {},
    "version": 1
  },
  "storageLayout": {
    "storage": [
      {
        "astId": 5525,
        "contract": "contracts/oracle/BinanceOracle.sol:BinanceOracle",
        "label": "isInitialized",
        "offset": 0,
        "slot": "0",
        "type": "t_bool"
      },
      {
        "astId": 5528,
        "contract": "contracts/oracle/BinanceOracle.sol:BinanceOracle",
        "label": "pkBidId",
        "offset": 1,
        "slot": "0",
        "type": "t_userDefinedValueType(DataId)2628"
      },
      {
        "astId": 5530,
        "contract": "contracts/oracle/BinanceOracle.sol:BinanceOracle",
        "label": "controller",
        "offset": 0,
        "slot": "1",
        "type": "t_address"
      },
      {
        "astId": 5532,
        "contract": "contracts/oracle/BinanceOracle.sol:BinanceOracle",
        "label": "settlementContract",
        "offset": 0,
        "slot": "2",
        "type": "t_address"
      }
    ],
    "types": {
      "t_address": {
        "encoding": "inplace",
        "label": "address",
        "numberOfBytes": "20"
      },
      "t_bool": {
        "encoding": "inplace",
        "label": "bool",
        "numberOfBytes": "1"
      },
      "t_userDefinedValueType(DataId)2628": {
        "encoding": "inplace",
        "label": "Suave.DataId",
        "numberOfBytes": "16"
      }
    }
  }
}