{
  "address": "0xa2a2E84e6F126332b4F619D850Ebc269c0239438",
  "abi": [
    {
      "inputs": [
        {
          "internalType": "address",
          "name": "",
          "type": "address"
        },
        {
          "internalType": "bytes",
          "name": "",
          "type": "bytes"
        }
      ],
      "name": "PeekerReverted",
      "type": "error"
    },
    {
      "inputs": [
        {
          "internalType": "string",
          "name": "message",
          "type": "string"
        }
      ],
      "name": "SuaveError",
      "type": "error"
    },
    {
      "inputs": [
        {
          "internalType": "string",
          "name": "message",
          "type": "string"
        },
        {
          "internalType": "bytes",
          "name": "data",
          "type": "bytes"
        }
      ],
      "name": "SuaveErrorWithData",
      "type": "error"
    },
    {
      "anonymous": false,
      "inputs": [
        {
          "indexed": false,
          "internalType": "string",
          "name": "ticker",
          "type": "string"
        },
        {
          "indexed": false,
          "internalType": "uint256",
          "name": "price",
          "type": "uint256"
        }
      ],
      "name": "PriceSubmission",
      "type": "event"
    },
    {
      "anonymous": false,
      "inputs": [
        {
          "indexed": false,
          "internalType": "bytes",
          "name": "response",
          "type": "bytes"
        }
      ],
      "name": "RpcResponse",
      "type": "event"
    },
    {
      "stateMutability": "payable",
      "type": "fallback"
    },
    {
      "inputs": [],
      "name": "DECIMALS",
      "outputs": [
        {
          "internalType": "uint8",
          "name": "",
          "type": "uint8"
        }
      ],
      "stateMutability": "view",
      "type": "function"
    },
    {
      "inputs": [],
      "name": "HOLESKY_BUNDLE_ENDPOINT",
      "outputs": [
        {
          "internalType": "string",
          "name": "",
          "type": "string"
        }
      ],
      "stateMutability": "view",
      "type": "function"
    },
    {
      "inputs": [],
      "name": "HOLESKY_CHAINID",
      "outputs": [
        {
          "internalType": "uint256",
          "name": "",
          "type": "uint256"
        }
      ],
      "stateMutability": "view",
      "type": "function"
    },
    {
      "inputs": [],
      "name": "HOLESKY_CHAINID_STR",
      "outputs": [
        {
          "internalType": "string",
          "name": "",
          "type": "string"
        }
      ],
      "stateMutability": "view",
      "type": "function"
    },
    {
      "inputs": [],
      "name": "HOLESKY_RPC",
      "outputs": [
        {
          "internalType": "string",
          "name": "",
          "type": "string"
        }
      ],
      "stateMutability": "view",
      "type": "function"
    },
    {
      "inputs": [],
      "name": "S_NAMESPACE",
      "outputs": [
        {
          "internalType": "string",
          "name": "",
          "type": "string"
        }
      ],
      "stateMutability": "view",
      "type": "function"
    },
    {
      "inputs": [],
      "name": "URL_PARTIAL",
      "outputs": [
        {
          "internalType": "string",
          "name": "",
          "type": "string"
        }
      ],
      "stateMutability": "view",
      "type": "function"
    },
    {
      "inputs": [],
      "name": "confidentialConstructor",
      "outputs": [
        {
          "internalType": "bytes",
          "name": "",
          "type": "bytes"
        }
      ],
      "stateMutability": "nonpayable",
      "type": "function"
    },
    {
      "inputs": [
        {
          "internalType": "Suave.DataId",
          "name": "_pkBidId",
          "type": "bytes16"
        },
        {
          "internalType": "address",
          "name": "pkAddress",
          "type": "address"
        }
      ],
      "name": "confidentialConstructorCallback",
      "outputs": [],
      "stateMutability": "nonpayable",
      "type": "function"
    },
    {
      "inputs": [],
      "name": "controller",
      "outputs": [
        {
          "internalType": "address",
          "name": "",
          "type": "address"
        }
      ],
      "stateMutability": "view",
      "type": "function"
    },
    {
      "inputs": [],
      "name": "isInitialized",
      "outputs": [
        {
          "internalType": "bool",
          "name": "",
          "type": "bool"
        }
      ],
      "stateMutability": "view",
      "type": "function"
    },
    {
      "inputs": [],
      "name": "pkBidId",
      "outputs": [
        {
          "internalType": "Suave.DataId",
          "name": "",
          "type": "bytes16"
        }
      ],
      "stateMutability": "view",
      "type": "function"
    },
    {
      "inputs": [
        {
          "internalType": "string",
          "name": "ticker",
          "type": "string"
        },
        {
          "internalType": "uint256",
          "name": "nonce",
          "type": "uint256"
        },
        {
          "internalType": "uint256",
          "name": "gasPrice",
          "type": "uint256"
        },
        {
          "internalType": "uint64",
          "name": "settlementBlockNum",
          "type": "uint64"
        },
        {
          "internalType": "bool",
          "name": "privateSubmission",
          "type": "bool"
        }
      ],
      "name": "queryAndSubmit",
      "outputs": [
        {
          "internalType": "bytes",
          "name": "",
          "type": "bytes"
        }
      ],
      "stateMutability": "nonpayable",
      "type": "function"
    },
    {
      "inputs": [
        {
          "internalType": "string",
          "name": "ticker",
          "type": "string"
        },
        {
          "internalType": "uint256",
          "name": "price",
          "type": "uint256"
        },
        {
          "internalType": "bytes",
          "name": "rpcResponse",
          "type": "bytes"
        }
      ],
      "name": "queryAndSubmitCallback",
      "outputs": [],
      "stateMutability": "nonpayable",
      "type": "function"
    },
    {
      "inputs": [
        {
          "internalType": "string",
          "name": "ticker",
          "type": "string"
        }
      ],
      "name": "queryLatestPrice",
      "outputs": [
        {
          "internalType": "uint256",
          "name": "price",
          "type": "uint256"
        }
      ],
      "stateMutability": "view",
      "type": "function"
    },
    {
      "inputs": [
        {
          "internalType": "address",
          "name": "_settlementContract",
          "type": "address"
        },
        {
          "internalType": "bytes",
          "name": "rpcResponse",
          "type": "bytes"
        }
      ],
      "name": "registerCallback",
      "outputs": [],
      "stateMutability": "nonpayable",
      "type": "function"
    },
    {
      "inputs": [
        {
          "internalType": "address",
          "name": "_settlementContract",
          "type": "address"
        }
      ],
      "name": "registerSettlementContract",
      "outputs": [
        {
          "internalType": "bytes",
          "name": "",
          "type": "bytes"
        }
      ],
      "stateMutability": "nonpayable",
      "type": "function"
    },
    {
      "inputs": [
        {
          "internalType": "bytes",
          "name": "txSigned",
          "type": "bytes"
        }
      ],
      "name": "sendRawTx",
      "outputs": [
        {
          "internalType": "bytes",
          "name": "",
          "type": "bytes"
        }
      ],
      "stateMutability": "view",
      "type": "function"
    },
    {
      "inputs": [],
      "name": "settlementContract",
      "outputs": [
        {
          "internalType": "address",
          "name": "",
          "type": "address"
        }
      ],
      "stateMutability": "view",
      "type": "function"
    }
  ],
  "transactionHash": "0xe2daa4eaf551af2cd7fe8a09730afe3677ac58f485bfd597c9f2bbdbe606009f",
  "args": [],
  "numDeployments": 1,
  "solcInputHash": "13d83d467b1208ef044a154ee4fa8d41",
  "bytecode": "0x608060405234801561001057600080fd5b506159f780620000216000396000f3fe6080604052600436106101185760003560e01c80639829ba42116100a0578063e0a388fb11610064578063e0a388fb146103bb578063e2411625146103e6578063ea42418b1461040f578063f77c47911461043a578063fdd13fe71461046557610119565b80639829ba42146102e65780639893306514610311578063b72a65401461033a578063d3596e7f14610365578063d86cd69a1461039057610119565b80632e0f2625116100e75780632e0f2625146101eb578063392e53cd14610216578063507235531461024157806357e3c1b51461027e5780637e48532c146102bb57610119565b80630de8cb931461011b5780631d148b8d1461015857806323b17abc146101955780632bc361db146101c057610119565b5b005b34801561012757600080fd5b50610142600480360381019061013d9190613bd2565b61048e565b60405161014f9190613cf1565b60405180910390f35b34801561016457600080fd5b5061017f600480360381019061017a9190613db4565b61057c565b60405161018c9190613cf1565b60405180910390f35b3480156101a157600080fd5b506101aa61072c565b6040516101b79190613e52565b60405180910390f35b3480156101cc57600080fd5b506101d5610748565b6040516101e29190613e52565b60405180910390f35b3480156101f757600080fd5b50610200610781565b60405161020d9190613e90565b60405180910390f35b34801561022257600080fd5b5061022b610786565b6040516102389190613eba565b60405180910390f35b34801561024d57600080fd5b5061026860048036038101906102639190613ed5565b610797565b6040516102759190613f2d565b60405180910390f35b34801561028a57600080fd5b506102a560048036038101906102a09190613fa6565b610823565b6040516102b29190613cf1565b60405180910390f35b3480156102c757600080fd5b506102d06109ef565b6040516102dd9190613cf1565b60405180910390f35b3480156102f257600080fd5b506102fb610b2c565b6040516103089190613e52565b60405180910390f35b34801561031d57600080fd5b5061033860048036038101906103339190613fd3565b610b65565b005b34801561034657600080fd5b5061034f610c72565b60405161035c9190613e52565b60405180910390f35b34801561037157600080fd5b5061037a610c8e565b604051610387919061407c565b60405180910390f35b34801561039c57600080fd5b506103a5610ca1565b6040516103b29190613e52565b60405180910390f35b3480156103c757600080fd5b506103d0610cda565b6040516103dd9190613f2d565b60405180910390f35b3480156103f257600080fd5b5061040d600480360381019061040891906140c3565b610ce0565b005b34801561041b57600080fd5b50610424610db6565b6040516104319190614112565b60405180910390f35b34801561044657600080fd5b5061044f610ddc565b60405161045c9190614112565b60405180910390f35b34801561047157600080fd5b5061048c6004803603810190610487919061412d565b610e02565b005b60606104d661049b610e77565b6040518060400160405280601081526020017f4e6f7420636f6e666964656e7469616c00000000000000000000000000000000815250610f41565b60006104e187610797565b905060006104f3888389898989610f87565b905063fdd13fe760e01b888383604051602401610512939291906141b8565b604051602081830303815290604052907bffffffffffffffffffffffffffffffffffffffffffffffffffffffff19166020820180517bffffffffffffffffffffffffffffffffffffffffffffffffffffffff83818316178352505050509250505095945050505050565b6060600061058983610fc5565b60405160200161059991906142f7565b60405160208183030381529060405290506105b261390f565b6040518060400160405280600481526020017f504f5354000000000000000000000000000000000000000000000000000000008152508160200181905250818160600181905250600167ffffffffffffffff811115610614576106136139f9565b5b60405190808252806020026020018201604052801561064757816020015b60608152602001906001900390816106325790505b5081604001819052506040518060400160405280601e81526020017f436f6e74656e742d547970653a206170706c69636174696f6e2f6a736f6e0000815250816040015160008151811061069e5761069d614324565b5b602002602001018190525060008160800190151590811515815250506040518060400160405280600781526020017f686f6c65736b790000000000000000000000000000000000000000000000000081525081600001819052506127108160a0019067ffffffffffffffff16908167ffffffffffffffff168152505061072381610feb565b92505050919050565b60405180606001604052806023815260200161599f6023913981565b6040518060400160405280600781526020017f686f6c65736b790000000000000000000000000000000000000000000000000081525081565b600481565b60008054906101000a900460ff1681565b6000806107a3836110a4565b905060006107b08261125b565b905060006108046107ff6040518060400160405280600781526020017f22707269636522000000000000000000000000000000000000000000000000008152508461128790919063ffffffff16565b61130a565b90506108196108128261132c565b60046113f9565b9350505050919050565b606061086b610830610e77565b6040518060400160405280601081526020017f4e6f7420636f6e666964656e7469616c00000000000000000000000000000000815250610f41565b600260009054906101000a900473ffffffffffffffffffffffffffffffffffffffff1673ffffffffffffffffffffffffffffffffffffffff168273ffffffffffffffffffffffffffffffffffffffff1614806109155750600073ffffffffffffffffffffffffffffffffffffffff16600260009054906101000a900473ffffffffffffffffffffffffffffffffffffffff1673ffffffffffffffffffffffffffffffffffffffff16145b610954576040517f08c379a000000000000000000000000000000000000000000000000000000000815260040161094b9061439f565b60405180910390fd5b600061095f836115c0565b9050600061096c8261057c565b9050639893306560e01b84826040516024016109899291906143bf565b604051602081830303815290604052907bffffffffffffffffffffffffffffffffffffffffffffffffffffffff19166020820180517bffffffffffffffffffffffffffffffffffffffffffffffffffffffff838183161783525050505092505050919050565b6060610a376109fc610e77565b6040518060400160405280601081526020017f4e6f7420636f6e666964656e7469616c00000000000000000000000000000000815250610f41565b610a8460008054906101000a900460ff16156040518060400160405280601381526020017f416c726561647920696e697469616c697a656400000000000000000000000000815250610f41565b6000610a906000611700565b90506000610a9d826117f9565b90506000610aaa83611865565b905063e241162560e01b8183604051602401610ac79291906143ef565b604051602081830303815290604052907bffffffffffffffffffffffffffffffffffffffffffffffffffffffff19166020820180517bffffffffffffffffffffffffffffffffffffffffffffffffffffffff8381831617835250505050935050505090565b6040518060400160405280601281526020017f6f7261636c653a76303a706b736563726574000000000000000000000000000081525081565b600073ffffffffffffffffffffffffffffffffffffffff16600260009054906101000a900473ffffffffffffffffffffffffffffffffffffffff1673ffffffffffffffffffffffffffffffffffffffff1614610bf6576040517f08c379a0000000000000000000000000000000000000000000000000000000008152600401610bed9061439f565b60405180910390fd5b81600260006101000a81548173ffffffffffffffffffffffffffffffffffffffff021916908373ffffffffffffffffffffffffffffffffffffffff1602179055507fa93bc9ff6ba5c181f59d418898928cae5d5f4c5ecc1003043191481dd769d4cc81604051610c669190613cf1565b60405180910390a15050565b6040518060600160405280603b8152602001615964603b913981565b600060019054906101000a900460801b81565b6040518060400160405280600681526020017f307834323638000000000000000000000000000000000000000000000000000081525081565b61426881565b610d2d60008054906101000a900460ff16156040518060400160405280601381526020017f416c726561647920696e697469616c697a656400000000000000000000000000815250610f41565b81600060016101000a8154816fffffffffffffffffffffffffffffffff021916908360801c021790555080600160006101000a81548173ffffffffffffffffffffffffffffffffffffffff021916908373ffffffffffffffffffffffffffffffffffffffff16021790555060016000806101000a81548160ff0219169083151502179055505050565b600260009054906101000a900473ffffffffffffffffffffffffffffffffffffffff1681565b600160009054906101000a900473ffffffffffffffffffffffffffffffffffffffff1681565b7ff61f2fd6ab65716facd3516c91d806d98dffa9670f127beac522f8cacfd1d8df8383604051610e33929190614418565b60405180910390a17fa93bc9ff6ba5c181f59d418898928cae5d5f4c5ecc1003043191481dd769d4cc81604051610e6a9190613cf1565b60405180910390a1505050565b6000806000634201000073ffffffffffffffffffffffffffffffffffffffff16604051610ea390614479565b6000604051808303816000865af19150503d8060008114610ee0576040519150601f19603f3d011682016040523d82523d6000602084013e610ee5565b606091505b509150915081610f32576342010000816040517f75fff467000000000000000000000000000000000000000000000000000000008152600401610f299291906143bf565b60405180910390fd5b80516020820151935050505090565b81610f8357806040517f0c25cd98000000000000000000000000000000000000000000000000000000008152600401610f7a9190613e52565b60405180910390fd5b5050565b60606000610f9788888888611a41565b90508215610fae57610fa98185611bad565b610fba565b610fb78161057c565b91505b509695505050505050565b6060610fd082611bc4565b90506002815101613078825260028203915080825250919050565b6060600080634320000273ffffffffffffffffffffffffffffffffffffffff168460405160200161101c91906146a0565b60405160208183030381529060405260405161103891906146f3565b600060405180830381855afa9150503d8060008114611073576040519150601f19603f3d011682016040523d82523d6000602084013e611078565b606091505b50915091506110878282610f41565b8080602001905181019061109b919061477a565b92505050919050565b60606000600167ffffffffffffffff8111156110c3576110c26139f9565b5b6040519080825280602002602001820160405280156110f657816020015b60608152602001906001900390816110e15790505b5090506040518060400160405280601e81526020017f436f6e74656e742d547970653a206170706c69636174696f6e2f6a736f6e00008152508160008151811061114357611142614324565b5b602002602001018190525060006040518060c001604052806040518060600160405280603b8152602001615964603b9139866040516020016111869291906147c3565b60405160208183030381529060405281526020016040518060400160405280600381526020017f47455400000000000000000000000000000000000000000000000000000000008152508152602001838152602001600067ffffffffffffffff8111156111f6576111f56139f9565b5b6040519080825280601f01601f1916602001820160405280156112285781602001600182028036833780820191505090505b50815260200160001515815260200161271067ffffffffffffffff16815250905061125281610feb565b92505050919050565b611263613951565b80604052600061127c61127584611c32565b60ff611c3c565b905080915050919050565b61128f613951565b80604052606090506112a083612500565b156113045760008280519060200120905060006112bc85612517565b9050600060058251901b90505b6000811461130057808201519550602081039050826112e787612539565b80519060200120036112fb57859350611300565b6112c9565b5050505b92915050565b6060600061132161131a8461256b565b6000611c3c565b905080915050919050565b606060008290506002815111611377576040517f08c379a000000000000000000000000000000000000000000000000000000000815260040161136e90614833565b60405180910390fd5b6000600282516113879190614882565b905060008167ffffffffffffffff8111156113a5576113a46139f9565b5b6040519080825280601f01601f1916602001820160405280156113d75781602001600182028036833780820191505090505b5090506021830160208201845182518252848452505050809350505050919050565b600080839050600080600090505b825181101561147557602e60f81b83828151811061142857611427614324565b5b602001015160f81c60f81b7effffffffffffffffffffffffffffffffffffffffffffffffffffffffffffff19160361146257809150611475565b808061146d906148b6565b915050611407565b5060008060006001905060008490505b6000811115611504578160308760018461149f9190614882565b815181106114b0576114af614324565b5b602001015160f81c60f81b60f81c6114c891906148fe565b60ff166114d59190614932565b846114e0919061498c565b9350600a826114ef9190614932565b915080806114fc906149e2565b915050611485565b506001905060008760ff168561151a919061498c565b90505b8481111561158f5781603087838151811061153b5761153a614324565b5b602001015160f81c60f81b60f81c61155391906148fe565b60ff166115609190614932565b8361156b919061498c565b9250600a8261157a9190614932565b91508080611587906149e2565b91505061151d565b508187600a61159e9190614b3e565b846115a99190614932565b6115b3919061498c565b9550505050505092915050565b606060006040518060e001604052808473ffffffffffffffffffffffffffffffffffffffff168152602001620186a0815260200164174876e800815260200160008152602001600081526020016040516024016040516020818303038152906040527f1aa3a008000000000000000000000000000000000000000000000000000000007bffffffffffffffffffffffffffffffffffffffffffffffffffffffff19166020820180517bffffffffffffffffffffffffffffffffffffffffffffffffffffffff83818316178352505050508152602001614268815250905060006116a882612575565b905060006116b46127f2565b90506116f6826040518060400160405280600681526020017f30783432363800000000000000000000000000000000000000000000000000008152508361284d565b9350505050919050565b6060600080635320000373ffffffffffffffffffffffffffffffffffffffff16846040516020016117319190614c00565b60405160208183030381529060405260405161174d91906146f3565b6000604051808303816000865af19150503d806000811461178a576040519150601f19603f3d011682016040523d82523d6000602084013e61178f565b606091505b5091509150816117dc576353200003816040517f75fff4670000000000000000000000000000000000000000000000000000000081526004016117d39291906143bf565b60405180910390fd5b808060200190518101906117f09190614c8b565b92505050919050565b60008060405160200161180b90614d20565b6040516020818303038152906040528051906020012090506000611850826040516020016118399190614d6b565b60405160208183030381529060405260008661294c565b905061185c8282612a5c565b92505050919050565b600080600367ffffffffffffffff811115611883576118826139f9565b5b6040519080825280602002602001820160405280156118b15781602001602082028036833780820191505090505b50905030816000815181106118c9576118c8614324565b5b602002602001019073ffffffffffffffffffffffffffffffffffffffff16908173ffffffffffffffffffffffffffffffffffffffff168152505063420300018160018151811061191c5761191b614324565b5b602002602001019073ffffffffffffffffffffffffffffffffffffffff16908173ffffffffffffffffffffffffffffffffffffffff168152505063420200018160028151811061196f5761196e614324565b5b602002602001019073ffffffffffffffffffffffffffffffffffffffff16908173ffffffffffffffffffffffffffffffffffffffff168152505060006119ed600083846040518060400160405280601281526020017f6f7261636c653a76303a706b7365637265740000000000000000000000000000815250612acb565b9050611a3381600001516040518060400160405280601281526020017f6f7261636c653a76303a706b736563726574000000000000000000000000000081525086612bd3565b806000015192505050919050565b606060006040518060e00160405280600260009054906101000a900473ffffffffffffffffffffffffffffffffffffffff1673ffffffffffffffffffffffffffffffffffffffff168152602001620186a08152602001848152602001600081526020018581526020018787604051602401611abd929190614418565b6040516020818303038152906040527f4a432a46000000000000000000000000000000000000000000000000000000007bffffffffffffffffffffffffffffffffffffffffffffffffffffffff19166020820180517bffffffffffffffffffffffffffffffffffffffffffffffffffffffff8381831617835250505050815260200161426881525090506000611b5282612575565b90506000611b5e6127f2565b9050611ba0826040518060400160405280600681526020017f30783432363800000000000000000000000000000000000000000000000000008152508361284d565b9350505050949350505050565b611bb682612cb8565b611bc08282612da3565b5050565b60608151600260405101915080810182526f30313233343536373839616263646566600f52602082018184015b808514611c1f57600185019450600f855116516001830153600f855160041c16518253600282019150611bf1565b6000825260208201604052505050919050565b6000819050919050565b6000612448565b63101827966000526004601cfd5b6000815160001a9050919050565b60008190505b600115611c8f576001640100002600611c7d83611c51565b1c1615611c9057600181019050611c65565b5b92915050565b600063ffffffff84113d3d3e83831b8263ffffffff851b19161790509392505050565b600081831c63ffffffff16905092915050565b60006040519050611cf18486036078611cec602086018803605888611c96565b611c96565b925085831781526020810160405295945050505050565b600080611d19846018600051611c96565b611d238787611c5f565b9150868210611d325750611e85565b611d3b82611c51565b600115611e765760228103611d6f5782611d57898585896120c7565b9350611d6760048583868a611ccc565b945050611e76565b605b8103611d8c57611d8388848488611e8e565b93509350611e76565b607b8103611da957611da088848488611f66565b93509350611e76565b6001611ff9602d1b821c1615611dce57611dc5888484886121d6565b93509350611e76565b876004840111611e315782835160e01c63747275658103611e0657600485019450611dfd60058684878b611ccc565b95505050611e76565b636e756c6c8103611e2e57600485019450611e2560068684878b611ccc565b95505050611e76565b50505b876005840111611e6d5782835160d81c6466616c73658103611e6a57600585019450611e6160058684878b611ccc565b95505050611e76565b50505b611e75611c43565b5b50611e818783611c5f565b9150505b94509492505050565b60008060006001860191505b600115611f3857868210611eb157611eb0611c43565b5b82611ed457611ec08783611c5f565b9150605d611ecd83611c51565b0315611f38575b611ee087838587611d08565b925092508215611f2957611efa8160988551604017611c96565b8352600181019050611f0b82611c51565b605d8103611f195750611f38565b602c8103611f275750611f2d565b505b8691505b600182019150611e9a565b600182019150611f4a83603887611c96565b9450611f5a600183888888611ccc565b92505094509492505050565b6000806001850190505b60011561205957858110611f8757611f86611c43565b5b81611faa57611f968682611c5f565b9050607d611fa382611c51565b0315612059575b611fb48682611c5f565b905080611fc3878385876120c7565b611fcd8882611c5f565b9250603a611fda84611c51565b0361204857611fee88600185018688611d08565b9350935083156120475761201a602086018303609861201585850360b88951608017611c96565b611c96565b845261202583611c51565b607d810361203557505050612059565b602c81036120455750505061204e565b505b5b87925050505b600181019050611f70565b60018101905061206b82603886611c96565b935061207b600282878787611ccc565b915094509492505050565b6001667e0000007e03ff603061209d858501611c51565b031c166120ad576120ac611c43565b5b600582146120c3576120c26001830182612086565b5b5050565b60008484106120d9576120d8611c43565b5b6001840190505b600115612172576120f081611c51565b602281036120fe5750612172565b605c8114612112576001820191505061216d565b61211e60018301611c51565b905060016a0510110400000000002001602283031c1615612145576002820191505061216d565b6075810361216457612158600283612086565b6006820191505061216d565b85915050612172565b6120e0565b84811061218257612181611c43565b5b600181019050949350505050565b60008190505b6001156121bc57600a60306121aa83611c51565b0310156121bc57600181019050612196565b8082148416156121cf576121ce611c43565b5b9392505050565b600080849050602d6121e782611c51565b036121f3576001810190505b600a603061220083611c51565b031061220f5761220e611c43565b5b61221881611c51565b600182019150603081146122355761223260008884612190565b91505b602e61224083611c51565b036122575761225460018860018501612190565b91505b815160658160001a60201703612286576122836001896001860162010001600e8660011a031a01612190565b92505b612294600384898989611ccc565b9350505094509492505050565b600060405190508282019150601f1980601f8601165b6001156122d15780840151818401528181019050806122b7575b50848252600085602084010152846040830101604052509392505050565b6000606090508151600281600716116123db5782158115176123db5760208116156123265761231f603882611cb9565b91506123db565b60405191506020820161233a603883611cb9565b5b801561236f578082528051612351601882611cb9565b61235d87601884611c96565b8352809250602084019350505061233b565b50601f1983820381018060051c85528260405261238e85603886611c96565b9350836020178652604081106123d757602085018186015b6001156123d45781518151835280825284820191506020830192508183106123ce57506123d4565b506123a6565b50505b5050505b50919050565b60006060905081518015831517156123f95750612440565b6124038482611cb9565b915080861661243e5761241760d882611cb9565b61242b6124248784611cb9565b84836122a1565b9250612438838684611c96565b87178452505b505b949350505050565b81600081146124c157600181146124d757600381146124ed5760208401845181018082146124a65761247981611c51565b6022825361248d8760d8602260f81b611c96565b60005261249d828460008a611d08565b93509450808253505b831581831017156124ba576124b9611c43565b5b50506124f9565b6124d0601060786058876123e1565b91506124f9565b6124e6600860b86098876123e1565b91506124f9565b6124f6846122ef565b91505b5092915050565b6000600260ff166007836000015116149050919050565b6060600061252e6125278461256b565b6003611c3c565b905080915050919050565b6060600060808360000151161461256657600061255f6125588461256b565b6001611c3c565b9050809150505b919050565b6000819050919050565b60606000600967ffffffffffffffff811115612594576125936139f9565b5b6040519080825280602002602001820160405280156125c757816020015b60608152602001906001900390816125b25790505b5090506125d78360800151612f09565b816000815181106125eb576125ea614324565b5b60200260200101819052506126038360400151612f09565b8160018151811061261757612616614324565b5b602002602001018190525061262f8360200151612f09565b8160028151811061264357612642614324565b5b6020026020010181905250600073ffffffffffffffffffffffffffffffffffffffff16836000015173ffffffffffffffffffffffffffffffffffffffff16036126c25761269e60405180602001604052806000815250612f23565b816003815181106126b2576126b1614324565b5b60200260200101819052506126ef565b6126cf8360000151612fa1565b816003815181106126e3576126e2614324565b5b60200260200101819052505b6126fc8360600151612f09565b816004815181106127105761270f614324565b5b60200260200101819052506127288360a00151612f23565b8160058151811061273c5761273b614324565b5b60200260200101819052506127548360c00151612f09565b8160068151811061276857612767614324565b5b602002602001018190525061278b60405180602001604052806000815250612f23565b8160078151811061279f5761279e614324565b5b60200260200101819052506127c260405180602001604052806000815250612f23565b816008815181106127d6576127d5614324565b5b60200260200101819052506127ea81612fd2565b915050919050565b60606000612844600060019054906101000a900460801b6040518060400160405280601281526020017f6f7261636c653a76303a706b7365637265740000000000000000000000000000815250613016565b90508091505090565b6060600080634010000173ffffffffffffffffffffffffffffffffffffffff1686868660405160200161288293929190614d86565b60405160208183030381529060405260405161289e91906146f3565b6000604051808303816000865af19150503d80600081146128db576040519150601f19603f3d011682016040523d82523d6000602084013e6128e0565b606091505b50915091508161292d576340100001816040517f75fff4670000000000000000000000000000000000000000000000000000000081526004016129249291906143bf565b60405180910390fd5b80806020019051810190612941919061477a565b925050509392505050565b6060612956610e77565b61295f57600080fd5b600080634010000373ffffffffffffffffffffffffffffffffffffffff1686868660405160200161299293929190614dd2565b6040516020818303038152906040526040516129ae91906146f3565b6000604051808303816000865af19150503d80600081146129eb576040519150601f19603f3d011682016040523d82523d6000602084013e6129f0565b606091505b509150915081612a3d576340100003816040517f75fff467000000000000000000000000000000000000000000000000000000008152600401612a349291906143bf565b60405180910390fd5b80806020019051810190612a51919061477a565b925050509392505050565b600080600080612a6b856130ff565b92509250925060018682858560405160008152602001604052604051612a949493929190614e26565b6020604051602081039080840390855afa158015612ab6573d6000803e3d6000fd5b50505060206040510351935050505092915050565b612ad3613964565b600080634203000073ffffffffffffffffffffffffffffffffffffffff1687878787604051602001612b089493929190614f38565b604051602081830303815290604052604051612b2491906146f3565b6000604051808303816000865af19150503d8060008114612b61576040519150601f19603f3d011682016040523d82523d6000602084013e612b66565b606091505b509150915081612bb3576342030000816040517f75fff467000000000000000000000000000000000000000000000000000000008152600401612baa9291906143bf565b60405180910390fd5b80806020019051810190612bc79190615197565b92505050949350505050565b600080634202000073ffffffffffffffffffffffffffffffffffffffff16858585604051602001612c06939291906151e0565b604051602081830303815290604052604051612c2291906146f3565b6000604051808303816000865af19150503d8060008114612c5f576040519150601f19603f3d011682016040523d82523d6000602084013e612c64565b606091505b509150915081612cb1576342020000816040517f75fff467000000000000000000000000000000000000000000000000000000008152600401612ca89291906143bf565b60405180910390fd5b5050505050565b6000612cc382610fc5565b604051602001612cd391906152bd565b6040516020818303038152906040529050600080634210000073ffffffffffffffffffffffffffffffffffffffff1683604051602001612d139190613cf1565b604051602081830303815290604052604051612d2f91906146f3565b600060405180830381855afa9150503d8060008114612d6a576040519150601f19603f3d011682016040523d82523d6000602084013e612d6f565b606091505b5091509150612d9d8282604051602001612d899190615336565b604051602081830303815290604052610f41565b50505050565b6000600167ffffffffffffffff811115612dc057612dbf6139f9565b5b604051908082528060200260200182016040528015612df357816020015b6060815260200190600190039081612dde5790505b5090508281600081518110612e0b57612e0a614324565b5b60200260200101819052506000612e2c828467ffffffffffffffff16613183565b9050600080634300000173ffffffffffffffffffffffffffffffffffffffff1660405180606001604052806023815260200161599f6023913984604051602001612e779291906153a4565b604051602081830303815290604052604051612e9391906146f3565b600060405180830381855afa9150503d8060008114612ece576040519150601f19603f3d011682016040523d82523d6000602084013e612ed3565b606091505b5091509150612f018282604051602001612eed919061543a565b604051602081830303815290604052610f41565b505050505050565b6060612f1c612f17836132a2565b612f23565b9050919050565b60608060018351148015612f5b5750608083600081518110612f4857612f47614324565b5b602001015160f81c60f81b60f81c60ff16105b15612f6857829050612f98565b612f7483516080613425565b83604051602001612f8692919061545c565b60405160208183030381529060405290505b80915050919050565b6060612fcb82604051602001612fb791906154c8565b604051602081830303815290604052612f23565b9050919050565b60606000612fdf83613671565b9050612fed815160c0613425565b81604051602001612fff92919061545c565b604051602081830303815290604052915050919050565b6060600080634202000173ffffffffffffffffffffffffffffffffffffffff1685856040516020016130499291906154e3565b60405160208183030381529060405260405161306591906146f3565b6000604051808303816000865af19150503d80600081146130a2576040519150601f19603f3d011682016040523d82523d6000602084013e6130a7565b606091505b5091509150816130f4576342020001816040517f75fff4670000000000000000000000000000000000000000000000000000000081526004016130eb9291906143bf565b60405180910390fd5b809250505092915050565b60008060006041845114613148576040517f08c379a000000000000000000000000000000000000000000000000000000000815260040161313f9061555f565b60405180910390fd5b6020840151925060408401519150606084015160001a9050601b8160ff16101561317c57601b81613179919061557f565b90505b9193909250565b6060600061319083613803565b6040516020016131a0919061564e565b604051602081830303815290604052905060005b845181101561327557816131e18683815181106131d4576131d3614324565b5b6020026020010151610fc5565b6040516020016131f29291906156c7565b6040516020818303038152906040529150600185516132119190614882565b81101561323f5781604051602001613229919061574d565b6040516020818303038152906040529150613262565b8160405160200161325091906157bb565b60405160208183030381529060405291505b808061326d906148b6565b9150506131b4565b50806040516020016132879190615829565b60405160208183030381529060405290508091505092915050565b60606000826040516020016132b7919061586c565b604051602081830303815290604052905060005b602081101561333157600060f81b8282815181106132ec576132eb614324565b5b602001015160f81c60f81b7effffffffffffffffffffffffffffffffffffffffffffffffffffffffffffff191603613331578080613329906148b6565b9150506132cb565b60008160206133409190614882565b67ffffffffffffffff811115613359576133586139f9565b5b6040519080825280601f01601f19166020018201604052801561338b5781602001600182028036833780820191505090505b50905060005b8151811015613419578383806133a6906148b6565b9450815181106133b9576133b8614324565b5b602001015160f81c60f81b8282815181106133d7576133d6614324565b5b60200101907effffffffffffffffffffffffffffffffffffffffffffffffffffffffffffff1916908160001a9053508080613411906148b6565b915050613391565b50809350505050919050565b60608060388410156134d857600167ffffffffffffffff81111561344c5761344b6139f9565b5b6040519080825280601f01601f19166020018201604052801561347e5781602001600182028036833780820191505090505b509050828461348d919061557f565b60f81b816000815181106134a4576134a3614324565b5b60200101907effffffffffffffffffffffffffffffffffffffffffffffffffffffffffffff1916908160001a905350613667565b600080600190505b600081876134ee91906158b6565b146135165781806134fe906148b6565b9250506101008161350f9190614932565b90506134e0565b600182613523919061498c565b67ffffffffffffffff81111561353c5761353b6139f9565b5b6040519080825280601f01601f19166020018201604052801561356e5781602001600182028036833780820191505090505b5092506037858361357f919061557f565b613589919061557f565b60f81b836000815181106135a05761359f614324565b5b60200101907effffffffffffffffffffffffffffffffffffffffffffffffffffffffffffff1916908160001a905350600190505b8181116136645761010081836135ea9190614882565b6101006135f791906158e7565b8761360291906158b6565b61360c9190615932565b60f81b83828151811061362257613621614324565b5b60200101907effffffffffffffffffffffffffffffffffffffffffffffffffffffffffffff1916908160001a905350808061365c906148b6565b9150506135d4565b50505b8091505092915050565b606060008251036136d157600067ffffffffffffffff811115613697576136966139f9565b5b6040519080825280601f01601f1916602001820160405280156136c95781602001600182028036833780820191505090505b5090506137fe565b600080600090505b835181101561371e578381815181106136f5576136f4614324565b5b60200260200101515182613709919061498c565b91508080613716906148b6565b9150506136d9565b60008267ffffffffffffffff81111561373a576137396139f9565b5b6040519080825280601f01601f19166020018201604052801561376c5781602001600182028036833780820191505090505b5090506000602082019050600092505b85518310156137f657600086848151811061379a57613799614324565b5b6020026020010151905060006020820190506137b883828451613829565b8785815181106137cb576137ca614324565b5b602002602001015151836137df919061498c565b9250505082806137ee906148b6565b93505061377c565b819450505050505b919050565b606061380e8261389f565b90506002815101613078825260028203915080825250919050565b6000839050600083905060008390505b602081106138775781518352602083613852919061498c565b9250602082613861919061498c565b91506020816138709190614882565b9050613839565b60006001826020036101000a0390508019835116818551168181178652505050505050505050565b606060806040510190506020810160405260008152806f30313233343536373839616263646566600f52600119835b6001156138fa578184019350600f8116516001850153600f8160041c165184538060081c9050806138ce575b50828203602084039350808452505050919050565b6040518060c0016040528060608152602001606081526020016060815260200160608152602001600015158152602001600067ffffffffffffffff1681525090565b6040518060200160405280600081525090565b6040518060c0016040528060006fffffffffffffffffffffffffffffffff1916815260200160006fffffffffffffffffffffffffffffffff19168152602001600067ffffffffffffffff1681526020016060815260200160608152602001606081525090565b6000604051905090565b600080fd5b600080fd5b600080fd5b600080fd5b6000601f19601f8301169050919050565b7f4e487b7100000000000000000000000000000000000000000000000000000000600052604160045260246000fd5b613a31826139e8565b810181811067ffffffffffffffff82111715613a5057613a4f6139f9565b5b80604052505050565b6000613a636139ca565b9050613a6f8282613a28565b919050565b600067ffffffffffffffff821115613a8f57613a8e6139f9565b5b613a98826139e8565b9050602081019050919050565b82818337600083830152505050565b6000613ac7613ac284613a74565b613a59565b905082815260208101848484011115613ae357613ae26139e3565b5b613aee848285613aa5565b509392505050565b600082601f830112613b0b57613b0a6139de565b5b8135613b1b848260208601613ab4565b91505092915050565b6000819050919050565b613b3781613b24565b8114613b4257600080fd5b50565b600081359050613b5481613b2e565b92915050565b600067ffffffffffffffff82169050919050565b613b7781613b5a565b8114613b8257600080fd5b50565b600081359050613b9481613b6e565b92915050565b60008115159050919050565b613baf81613b9a565b8114613bba57600080fd5b50565b600081359050613bcc81613ba6565b92915050565b600080600080600060a08688031215613bee57613bed6139d4565b5b600086013567ffffffffffffffff811115613c0c57613c0b6139d9565b5b613c1888828901613af6565b9550506020613c2988828901613b45565b9450506040613c3a88828901613b45565b9350506060613c4b88828901613b85565b9250506080613c5c88828901613bbd565b9150509295509295909350565b600081519050919050565b600082825260208201905092915050565b60005b83811015613ca3578082015181840152602081019050613c88565b83811115613cb2576000848401525b50505050565b6000613cc382613c69565b613ccd8185613c74565b9350613cdd818560208601613c85565b613ce6816139e8565b840191505092915050565b60006020820190508181036000830152613d0b8184613cb8565b905092915050565b600067ffffffffffffffff821115613d2e57613d2d6139f9565b5b613d37826139e8565b9050602081019050919050565b6000613d57613d5284613d13565b613a59565b905082815260208101848484011115613d7357613d726139e3565b5b613d7e848285613aa5565b509392505050565b600082601f830112613d9b57613d9a6139de565b5b8135613dab848260208601613d44565b91505092915050565b600060208284031215613dca57613dc96139d4565b5b600082013567ffffffffffffffff811115613de857613de76139d9565b5b613df484828501613d86565b91505092915050565b600081519050919050565b600082825260208201905092915050565b6000613e2482613dfd565b613e2e8185613e08565b9350613e3e818560208601613c85565b613e47816139e8565b840191505092915050565b60006020820190508181036000830152613e6c8184613e19565b905092915050565b600060ff82169050919050565b613e8a81613e74565b82525050565b6000602082019050613ea56000830184613e81565b92915050565b613eb481613b9a565b82525050565b6000602082019050613ecf6000830184613eab565b92915050565b600060208284031215613eeb57613eea6139d4565b5b600082013567ffffffffffffffff811115613f0957613f086139d9565b5b613f1584828501613af6565b91505092915050565b613f2781613b24565b82525050565b6000602082019050613f426000830184613f1e565b92915050565b600073ffffffffffffffffffffffffffffffffffffffff82169050919050565b6000613f7382613f48565b9050919050565b613f8381613f68565b8114613f8e57600080fd5b50565b600081359050613fa081613f7a565b92915050565b600060208284031215613fbc57613fbb6139d4565b5b6000613fca84828501613f91565b91505092915050565b60008060408385031215613fea57613fe96139d4565b5b6000613ff885828601613f91565b925050602083013567ffffffffffffffff811115614019576140186139d9565b5b61402585828601613d86565b9150509250929050565b60007fffffffffffffffffffffffffffffffff0000000000000000000000000000000082169050919050565b60006140668261402f565b9050919050565b6140768161405b565b82525050565b6000602082019050614091600083018461406d565b92915050565b6140a08161402f565b81146140ab57600080fd5b50565b6000813590506140bd81614097565b92915050565b600080604083850312156140da576140d96139d4565b5b60006140e8858286016140ae565b92505060206140f985828601613f91565b9150509250929050565b61410c81613f68565b82525050565b60006020820190506141276000830184614103565b92915050565b600080600060608486031215614146576141456139d4565b5b600084013567ffffffffffffffff811115614164576141636139d9565b5b61417086828701613af6565b935050602061418186828701613b45565b925050604084013567ffffffffffffffff8111156141a2576141a16139d9565b5b6141ae86828701613d86565b9150509250925092565b600060608201905081810360008301526141d28186613e19565b90506141e16020830185613f1e565b81810360408301526141f38184613cb8565b9050949350505050565b600081905092915050565b7f7b226a736f6e727063223a22322e30222c226d6574686f64223a226574685f7360008201527f656e645261775472616e73616374696f6e222c22706172616d73223a5b220000602082015250565b6000614264603e836141fd565b915061426f82614208565b603e82019050919050565b600061428582613dfd565b61428f81856141fd565b935061429f818560208601613c85565b80840191505092915050565b7f225d2c226964223a317d00000000000000000000000000000000000000000000600082015250565b60006142e1600a836141fd565b91506142ec826142ab565b600a82019050919050565b600061430282614257565b915061430e828461427a565b9150614319826142d4565b915081905092915050565b7f4e487b7100000000000000000000000000000000000000000000000000000000600052603260045260246000fd5b7f416c726561647920726567697374657265640000000000000000000000000000600082015250565b6000614389601283613e08565b915061439482614353565b602082019050919050565b600060208201905081810360008301526143b88161437c565b9050919050565b60006040820190506143d46000830185614103565b81810360208301526143e68184613cb8565b90509392505050565b6000604082019050614404600083018561406d565b6144116020830184614103565b9392505050565b600060408201905081810360008301526144328185613e19565b90506144416020830184613f1e565b9392505050565b600081905092915050565b50565b6000614463600083614448565b915061446e82614453565b600082019050919050565b600061448482614456565b9150819050919050565b600082825260208201905092915050565b60006144aa82613dfd565b6144b4818561448e565b93506144c4818560208601613c85565b6144cd816139e8565b840191505092915050565b600081519050919050565b600082825260208201905092915050565b6000819050602082019050919050565b6000614510838361449f565b905092915050565b6000602082019050919050565b6000614530826144d8565b61453a81856144e3565b93508360208202850161454c856144f4565b8060005b8581101561458857848403895281516145698582614504565b945061457483614518565b925060208a01995050600181019050614550565b50829750879550505050505092915050565b600082825260208201905092915050565b60006145b682613c69565b6145c0818561459a565b93506145d0818560208601613c85565b6145d9816139e8565b840191505092915050565b6145ed81613b9a565b82525050565b6145fc81613b5a565b82525050565b600060c083016000830151848203600086015261461f828261449f565b91505060208301518482036020860152614639828261449f565b915050604083015184820360408601526146538282614525565b9150506060830151848203606086015261466d82826145ab565b915050608083015161468260808601826145e4565b5060a083015161469560a08601826145f3565b508091505092915050565b600060208201905081810360008301526146ba8184614602565b905092915050565b60006146cd82613c69565b6146d78185614448565b93506146e7818560208601613c85565b80840191505092915050565b60006146ff82846146c2565b915081905092915050565b600061471d61471884613d13565b613a59565b905082815260208101848484011115614739576147386139e3565b5b614744848285613c85565b509392505050565b600082601f830112614761576147606139de565b5b815161477184826020860161470a565b91505092915050565b6000602082840312156147905761478f6139d4565b5b600082015167ffffffffffffffff8111156147ae576147ad6139d9565b5b6147ba8482850161474c565b91505092915050565b60006147cf828561427a565b91506147db828461427a565b91508190509392505050565b7f496e70757420746f6f2073686f72740000000000000000000000000000000000600082015250565b600061481d600f83613e08565b9150614828826147e7565b602082019050919050565b6000602082019050818103600083015261484c81614810565b9050919050565b7f4e487b7100000000000000000000000000000000000000000000000000000000600052601160045260246000fd5b600061488d82613b24565b915061489883613b24565b9250828210156148ab576148aa614853565b5b828203905092915050565b60006148c182613b24565b91507fffffffffffffffffffffffffffffffffffffffffffffffffffffffffffffffff82036148f3576148f2614853565b5b600182019050919050565b600061490982613e74565b915061491483613e74565b92508282101561492757614926614853565b5b828203905092915050565b600061493d82613b24565b915061494883613b24565b9250817fffffffffffffffffffffffffffffffffffffffffffffffffffffffffffffffff048311821515161561498157614980614853565b5b828202905092915050565b600061499782613b24565b91506149a283613b24565b9250827fffffffffffffffffffffffffffffffffffffffffffffffffffffffffffffffff038211156149d7576149d6614853565b5b828201905092915050565b60006149ed82613b24565b915060008203614a00576149ff614853565b5b600182039050919050565b60008160011c9050919050565b6000808291508390505b6001851115614a6257808604811115614a3e57614a3d614853565b5b6001851615614a4d5780820291505b8081029050614a5b85614a0b565b9450614a22565b94509492505050565b600082614a7b5760019050614b37565b81614a895760009050614b37565b8160018114614a9f5760028114614aa957614ad8565b6001915050614b37565b60ff841115614abb57614aba614853565b5b8360020a915084821115614ad257614ad1614853565b5b50614b37565b5060208310610133831016604e8410600b8410161715614b0d5782820a905083811115614b0857614b07614853565b5b614b37565b614b1a8484846001614a18565b92509050818404811115614b3157614b30614853565b5b81810290505b9392505050565b6000614b4982613b24565b9150614b5483613e74565b9250614b817fffffffffffffffffffffffffffffffffffffffffffffffffffffffffffffffff8484614a6b565b905092915050565b7f4e487b7100000000000000000000000000000000000000000000000000000000600052602160045260246000fd5b60028110614bc957614bc8614b89565b5b50565b6000819050614bda82614bb8565b919050565b6000614bea82614bcc565b9050919050565b614bfa81614bdf565b82525050565b6000602082019050614c156000830184614bf1565b92915050565b6000614c2e614c2984613a74565b613a59565b905082815260208101848484011115614c4a57614c496139e3565b5b614c55848285613c85565b509392505050565b600082601f830112614c7257614c716139de565b5b8151614c82848260208601614c1b565b91505092915050565b600060208284031215614ca157614ca06139d4565b5b600082015167ffffffffffffffff811115614cbf57614cbe6139d9565b5b614ccb84828501614c5d565b91505092915050565b7f796f000000000000000000000000000000000000000000000000000000000000600082015250565b6000614d0a600283613e08565b9150614d1582614cd4565b602082019050919050565b60006020820190508181036000830152614d3981614cfd565b9050919050565b6000819050919050565b6000819050919050565b614d65614d6082614d40565b614d4a565b82525050565b6000614d778284614d54565b60208201915081905092915050565b60006060820190508181036000830152614da08186613cb8565b90508181036020830152614db48185613e19565b90508181036040830152614dc88184613e19565b9050949350505050565b60006060820190508181036000830152614dec8186613cb8565b9050614dfb6020830185614bf1565b8181036040830152614e0d8184613e19565b9050949350505050565b614e2081614d40565b82525050565b6000608082019050614e3b6000830187614e17565b614e486020830186613e81565b614e556040830185614e17565b614e626060830184614e17565b95945050505050565b614e7481613b5a565b82525050565b600081519050919050565b600082825260208201905092915050565b6000819050602082019050919050565b614eaf81613f68565b82525050565b6000614ec18383614ea6565b60208301905092915050565b6000602082019050919050565b6000614ee582614e7a565b614eef8185614e85565b9350614efa83614e96565b8060005b83811015614f2b578151614f128882614eb5565b9750614f1d83614ecd565b925050600181019050614efe565b5085935050505092915050565b6000608082019050614f4d6000830187614e6b565b8181036020830152614f5f8186614eda565b90508181036040830152614f738185614eda565b90508181036060830152614f878184613e19565b905095945050505050565b600080fd5b600080fd5b600081519050614fab81614097565b92915050565b600081519050614fc081613b6e565b92915050565b600067ffffffffffffffff821115614fe157614fe06139f9565b5b602082029050602081019050919050565b600080fd5b60008151905061500681613f7a565b92915050565b600061501f61501a84614fc6565b613a59565b9050808382526020820190506020840283018581111561504257615041614ff2565b5b835b8181101561506b57806150578882614ff7565b845260208401935050602081019050615044565b5050509392505050565b600082601f83011261508a576150896139de565b5b815161509a84826020860161500c565b91505092915050565b600060c082840312156150b9576150b8614f92565b5b6150c360c0613a59565b905060006150d384828501614f9c565b60008301525060206150e784828501614f9c565b60208301525060406150fb84828501614fb1565b604083015250606082015167ffffffffffffffff81111561511f5761511e614f97565b5b61512b84828501615075565b606083015250608082015167ffffffffffffffff81111561514f5761514e614f97565b5b61515b84828501615075565b60808301525060a082015167ffffffffffffffff81111561517f5761517e614f97565b5b61518b84828501614c5d565b60a08301525092915050565b6000602082840312156151ad576151ac6139d4565b5b600082015167ffffffffffffffff8111156151cb576151ca6139d9565b5b6151d7848285016150a3565b91505092915050565b60006060820190506151f5600083018661406d565b81810360208301526152078185613e19565b9050818103604083015261521b8184613cb8565b9050949350505050565b7f7b22747873223a205b2200000000000000000000000000000000000000000000600082015250565b600061525b600a836141fd565b915061526682615225565b600a82019050919050565b7f225d7d0000000000000000000000000000000000000000000000000000000000600082015250565b60006152a76003836141fd565b91506152b282615271565b600382019050919050565b60006152c88261524e565b91506152d4828461427a565b91506152df8261529a565b915081905092915050565b7f42756e646c6553696d756c6174696f6e4661696c65643a200000000000000000600082015250565b60006153206018836141fd565b915061532b826152ea565b601882019050919050565b600061534182615313565b915061534d828461427a565b915081905092915050565b7f6574685f73656e6442756e646c65000000000000000000000000000000000000600082015250565b600061538e600e83613e08565b915061539982615358565b602082019050919050565b600060608201905081810360008301526153be8185613e19565b905081810360208301526153d181615381565b905081810360408301526153e58184613cb8565b90509392505050565b7f42756e646c655375626d697373696f6e4661696c65643a200000000000000000600082015250565b60006154246018836141fd565b915061542f826153ee565b601882019050919050565b600061544582615417565b9150615451828461427a565b915081905092915050565b600061546882856146c2565b915061547482846146c2565b91508190509392505050565b60008160601b9050919050565b600061549882615480565b9050919050565b60006154aa8261548d565b9050919050565b6154c26154bd82613f68565b61549f565b82525050565b60006154d482846154b1565b60148201915081905092915050565b60006040820190506154f8600083018561406d565b818103602083015261550a8184613e19565b90509392505050565b7f696e76616c6964207369676e6174757265206c656e6774680000000000000000600082015250565b6000615549601883613e08565b915061555482615513565b602082019050919050565b600060208201905081810360008301526155788161553c565b9050919050565b600061558a82613e74565b915061559583613e74565b92508260ff038211156155ab576155aa614853565b5b828201905092915050565b7f7b22626c6f636b4e756d626572223a2022000000000000000000000000000000600082015250565b60006155ec6011836141fd565b91506155f7826155b6565b601182019050919050565b7f222c2022747873223a205b000000000000000000000000000000000000000000600082015250565b6000615638600b836141fd565b915061564382615602565b600b82019050919050565b6000615659826155df565b9150615665828461427a565b91506156708261562b565b915081905092915050565b7f2200000000000000000000000000000000000000000000000000000000000000600082015250565b60006156b16001836141fd565b91506156bc8261567b565b600182019050919050565b60006156d382856146c2565b91506156de826156a4565b91506156ea828461427a565b91506156f5826156a4565b91508190509392505050565b7f2c00000000000000000000000000000000000000000000000000000000000000600082015250565b60006157376001836141fd565b915061574282615701565b600182019050919050565b600061575982846146c2565b91506157648261572a565b915081905092915050565b7f5d00000000000000000000000000000000000000000000000000000000000000600082015250565b60006157a56001836141fd565b91506157b08261576f565b600182019050919050565b60006157c782846146c2565b91506157d282615798565b915081905092915050565b7f7d00000000000000000000000000000000000000000000000000000000000000600082015250565b60006158136001836141fd565b915061581e826157dd565b600182019050919050565b600061583582846146c2565b915061584082615806565b915081905092915050565b6000819050919050565b61586661586182613b24565b61584b565b82525050565b60006158788284615855565b60208201915081905092915050565b7f4e487b7100000000000000000000000000000000000000000000000000000000600052601260045260246000fd5b60006158c182613b24565b91506158cc83613b24565b9250826158dc576158db615887565b5b828204905092915050565b60006158f282613b24565b91506158fd83613b24565b925061592a7fffffffffffffffffffffffffffffffffffffffffffffffffffffffffffffffff8484614a6b565b905092915050565b600061593d82613b24565b915061594883613b24565b92508261595857615957615887565b5b82820690509291505056fe68747470733a2f2f646174612d6170692e62696e616e63652e766973696f6e2f6170692f76332f7469636b65722f70726963653f73796d626f6c3d68747470733a2f2f72656c61792d686f6c65736b792e666c617368626f74732e6e6574a2646970667358221220e2c46906cce60f1d6bcb29686bcf9b4d93a98474e54cf7ad972468efca1e108e64736f6c634300080d0033",
  "devdoc": {
    "kind": "dev",
    "methods": {},
    "version": 1
  },
  "userdoc": {
    "kind": "user",
    "methods": {},
    "version": 1
  },
  "storageLayout": {
    "storage": [
      {
        "astId": 3756,
        "contract": "contracts/oracle/BinanceOracle.sol:BinanceOracle",
        "label": "isInitialized",
        "offset": 0,
        "slot": "0",
        "type": "t_bool"
      },
      {
        "astId": 3759,
        "contract": "contracts/oracle/BinanceOracle.sol:BinanceOracle",
        "label": "pkBidId",
        "offset": 1,
        "slot": "0",
        "type": "t_userDefinedValueType(DataId)859"
      },
      {
        "astId": 3761,
        "contract": "contracts/oracle/BinanceOracle.sol:BinanceOracle",
        "label": "controller",
        "offset": 0,
        "slot": "1",
        "type": "t_address"
      },
      {
        "astId": 3763,
        "contract": "contracts/oracle/BinanceOracle.sol:BinanceOracle",
        "label": "settlementContract",
        "offset": 0,
        "slot": "2",
        "type": "t_address"
      }
    ],
    "types": {
      "t_address": {
        "encoding": "inplace",
        "label": "address",
        "numberOfBytes": "20"
      },
      "t_bool": {
        "encoding": "inplace",
        "label": "bool",
        "numberOfBytes": "1"
      },
      "t_userDefinedValueType(DataId)859": {
        "encoding": "inplace",
        "label": "Suave.DataId",
        "numberOfBytes": "16"
      }
    }
  }
}