{
  "address": "0x04841Bd5F6f1f0BAb87A06EA3F584e9f9Af18556",
  "abi": [
    {
      "anonymous": false,
      "inputs": [
        {
          "indexed": false,
          "internalType": "string",
          "name": "ticker",
          "type": "string"
        },
        {
          "indexed": false,
          "internalType": "uint256",
          "name": "price",
          "type": "uint256"
        }
      ],
      "name": "PriceUpdated",
      "type": "event"
    },
    {
      "inputs": [],
      "name": "controller",
      "outputs": [
        {
          "internalType": "address",
          "name": "",
          "type": "address"
        }
      ],
      "stateMutability": "view",
      "type": "function"
    },
    {
      "inputs": [
        {
          "internalType": "string",
          "name": "",
          "type": "string"
        }
      ],
      "name": "latestPriceUpdate",
      "outputs": [
        {
          "internalType": "uint256",
          "name": "price",
          "type": "uint256"
        },
        {
          "internalType": "uint256",
          "name": "blockNumber",
          "type": "uint256"
        }
      ],
      "stateMutability": "view",
      "type": "function"
    },
    {
      "inputs": [],
      "name": "register",
      "outputs": [],
      "stateMutability": "nonpayable",
      "type": "function"
    },
    {
      "inputs": [
        {
          "internalType": "string",
          "name": "ticker",
          "type": "string"
        },
        {
          "internalType": "uint256",
          "name": "price",
          "type": "uint256"
        }
      ],
      "name": "updatePrice",
      "outputs": [],
      "stateMutability": "nonpayable",
      "type": "function"
    }
  ],
  "transactionHash": "0xd035c7bc3b77861c8624194bdc4c95d0b4b4a184a3bec7ce195de76b50da40f4",
  "args": [],
  "numDeployments": 1,
  "solcInputHash": "62774477dfdbdfcb4315093cb081bd94",
  "bytecode": "0x608060405234801561001057600080fd5b506107f3806100206000396000f3fe608060405234801561001057600080fd5b506004361061004c5760003560e01c80631aa3a008146100515780634a432a461461005b5780634d4c8bf114610077578063f77c4791146100a8575b600080fd5b6100596100c6565b005b610075600480360381019061007091906104a1565b61019a565b005b610091600480360381019061008c91906104fd565b6102b1565b60405161009f929190610555565b60405180910390f35b6100b06102eb565b6040516100bd91906105bf565b60405180910390f35b600073ffffffffffffffffffffffffffffffffffffffff16600160009054906101000a900473ffffffffffffffffffffffffffffffffffffffff1673ffffffffffffffffffffffffffffffffffffffff1614610157576040517f08c379a000000000000000000000000000000000000000000000000000000000815260040161014e90610637565b60405180910390fd5b33600160006101000a81548173ffffffffffffffffffffffffffffffffffffffff021916908373ffffffffffffffffffffffffffffffffffffffff160217905550565b600160009054906101000a900473ffffffffffffffffffffffffffffffffffffffff1673ffffffffffffffffffffffffffffffffffffffff163373ffffffffffffffffffffffffffffffffffffffff161461022a576040517f08c379a0000000000000000000000000000000000000000000000000000000008152600401610221906106a3565b60405180910390fd5b60405180604001604052808281526020014381525060008360405161024f919061073d565b908152602001604051809103902060008201518160000155602082015181600101559050507f159e83f4712ba2552e68be9d848e49bf6dd35c24f19564ffd523b6549450a2f482826040516102a592919061078d565b60405180910390a15050565b6000818051602081018201805184825260208301602085012081835280955050505050506000915090508060000154908060010154905082565b600160009054906101000a900473ffffffffffffffffffffffffffffffffffffffff1681565b6000604051905090565b600080fd5b600080fd5b600080fd5b600080fd5b6000601f19601f8301169050919050565b7f4e487b7100000000000000000000000000000000000000000000000000000000600052604160045260246000fd5b6103788261032f565b810181811067ffffffffffffffff8211171561039757610396610340565b5b80604052505050565b60006103aa610311565b90506103b6828261036f565b919050565b600067ffffffffffffffff8211156103d6576103d5610340565b5b6103df8261032f565b9050602081019050919050565b82818337600083830152505050565b600061040e610409846103bb565b6103a0565b90508281526020810184848401111561042a5761042961032a565b5b6104358482856103ec565b509392505050565b600082601f83011261045257610451610325565b5b81356104628482602086016103fb565b91505092915050565b6000819050919050565b61047e8161046b565b811461048957600080fd5b50565b60008135905061049b81610475565b92915050565b600080604083850312156104b8576104b761031b565b5b600083013567ffffffffffffffff8111156104d6576104d5610320565b5b6104e28582860161043d565b92505060206104f38582860161048c565b9150509250929050565b6000602082840312156105135761051261031b565b5b600082013567ffffffffffffffff81111561053157610530610320565b5b61053d8482850161043d565b91505092915050565b61054f8161046b565b82525050565b600060408201905061056a6000830185610546565b6105776020830184610546565b9392505050565b600073ffffffffffffffffffffffffffffffffffffffff82169050919050565b60006105a98261057e565b9050919050565b6105b98161059e565b82525050565b60006020820190506105d460008301846105b0565b92915050565b600082825260208201905092915050565b7f416c726561647920726567697374657265640000000000000000000000000000600082015250565b60006106216012836105da565b915061062c826105eb565b602082019050919050565b6000602082019050818103600083015261065081610614565b9050919050565b7f4f6e6c7920636f6e74726f6c6c65720000000000000000000000000000000000600082015250565b600061068d600f836105da565b915061069882610657565b602082019050919050565b600060208201905081810360008301526106bc81610680565b9050919050565b600081519050919050565b600081905092915050565b60005b838110156106f75780820151818401526020810190506106dc565b83811115610706576000848401525b50505050565b6000610717826106c3565b61072181856106ce565b93506107318185602086016106d9565b80840191505092915050565b6000610749828461070c565b915081905092915050565b600061075f826106c3565b61076981856105da565b93506107798185602086016106d9565b6107828161032f565b840191505092915050565b600060408201905081810360008301526107a78185610754565b90506107b66020830184610546565b939250505056fea2646970667358221220b155c039efe094d26cee6a0152b7aa7870a6534434a49ef0bda933fd6a61801e64736f6c634300080d0033",
  "devdoc": {
    "kind": "dev",
    "methods": {},
    "version": 1
  },
  "userdoc": {
    "kind": "user",
    "methods": {},
    "version": 1
  },
  "storageLayout": {
    "storage": [
      {
        "astId": 4408,
        "contract": "contracts/oracle/SettlementContract.sol:OracleSettlementContract",
        "label": "latestPriceUpdate",
        "offset": 0,
        "slot": "0",
        "type": "t_mapping(t_string_memory_ptr,t_struct(PriceUpdate)4397_storage)"
      },
      {
        "astId": 4410,
        "contract": "contracts/oracle/SettlementContract.sol:OracleSettlementContract",
        "label": "controller",
        "offset": 0,
        "slot": "1",
        "type": "t_address"
      }
    ],
    "types": {
      "t_address": {
        "encoding": "inplace",
        "label": "address",
        "numberOfBytes": "20"
      },
      "t_mapping(t_string_memory_ptr,t_struct(PriceUpdate)4397_storage)": {
        "encoding": "mapping",
        "key": "t_string_memory_ptr",
        "label": "mapping(string => struct OracleSettlementContract.PriceUpdate)",
        "numberOfBytes": "32",
        "value": "t_struct(PriceUpdate)4397_storage"
      },
      "t_string_memory_ptr": {
        "encoding": "bytes",
        "label": "string",
        "numberOfBytes": "32"
      },
      "t_struct(PriceUpdate)4397_storage": {
        "encoding": "inplace",
        "label": "struct OracleSettlementContract.PriceUpdate",
        "members": [
          {
            "astId": 4394,
            "contract": "contracts/oracle/SettlementContract.sol:OracleSettlementContract",
            "label": "price",
            "offset": 0,
            "slot": "0",
            "type": "t_uint256"
          },
          {
            "astId": 4396,
            "contract": "contracts/oracle/SettlementContract.sol:OracleSettlementContract",
            "label": "blockNumber",
            "offset": 0,
            "slot": "1",
            "type": "t_uint256"
          }
        ],
        "numberOfBytes": "64"
      },
      "t_uint256": {
        "encoding": "inplace",
        "label": "uint256",
        "numberOfBytes": "32"
      }
    }
  }
}